{
  "_format": "hh-sol-artifact-1",
  "contractName": "CryptoBlessing",
  "sourceName": "contracts/CryptoBlessing.sol",
  "abi": [
    {
      "inputs": [
        {
          "internalType": "address",
          "name": "_sendTokenAddress",
          "type": "address"
        },
        {
          "internalType": "address",
          "name": "_cryptoBlessingTokenAddress",
          "type": "address"
        },
        {
          "internalType": "address",
          "name": "_cryptoBlessingNFTAddress",
          "type": "address"
        }
      ],
      "stateMutability": "payable",
      "type": "constructor"
    },
    {
      "anonymous": false,
      "inputs": [
        {
          "indexed": true,
          "internalType": "address",
          "name": "previousOwner",
          "type": "address"
        },
        {
          "indexed": true,
          "internalType": "address",
          "name": "newOwner",
          "type": "address"
        }
      ],
      "name": "OwnershipTransferred",
      "type": "event"
    },
    {
      "anonymous": false,
      "inputs": [
        {
          "indexed": false,
          "internalType": "address",
          "name": "account",
          "type": "address"
        }
      ],
      "name": "Paused",
      "type": "event"
    },
    {
      "anonymous": false,
      "inputs": [
        {
          "indexed": false,
          "internalType": "address",
          "name": "account",
          "type": "address"
        }
      ],
      "name": "Unpaused",
      "type": "event"
    },
    {
      "anonymous": false,
      "inputs": [
        {
          "indexed": false,
          "internalType": "address",
          "name": "sender",
          "type": "address"
        },
        {
          "indexed": false,
          "internalType": "address",
          "name": "blessingID",
          "type": "address"
        }
      ],
      "name": "claimerClaimComplete",
      "type": "event"
    },
    {
      "anonymous": false,
      "inputs": [
        {
          "indexed": false,
          "internalType": "address",
          "name": "sender",
          "type": "address"
        },
        {
          "indexed": false,
          "internalType": "address",
          "name": "blessingID",
          "type": "address"
        }
      ],
      "name": "senderRevokeComplete",
      "type": "event"
    },
    {
      "anonymous": false,
      "inputs": [
        {
          "indexed": false,
          "internalType": "address",
          "name": "sender",
          "type": "address"
        },
        {
          "indexed": false,
          "internalType": "address",
          "name": "blessingID",
          "type": "address"
        }
      ],
      "name": "senderSendCompleted",
      "type": "event"
    },
    {
      "inputs": [
        {
          "internalType": "string",
          "name": "image",
          "type": "string"
        },
        {
          "internalType": "address",
          "name": "blessingOwner",
          "type": "address"
        },
        {
          "internalType": "string",
          "name": "description",
          "type": "string"
        },
        {
          "internalType": "uint256",
          "name": "price",
          "type": "uint256"
        },
        {
          "internalType": "uint8",
          "name": "blessingType",
          "type": "uint8"
        },
        {
          "internalType": "uint256",
          "name": "taxRate",
          "type": "uint256"
        }
      ],
      "name": "addBlessing",
      "outputs": [],
      "stateMutability": "nonpayable",
      "type": "function"
    },
    {
      "inputs": [
        {
          "components": [
            {
              "internalType": "string",
              "name": "image",
              "type": "string"
            },
            {
              "internalType": "string",
              "name": "description",
              "type": "string"
            },
            {
              "internalType": "uint256",
              "name": "price",
              "type": "uint256"
            },
            {
              "internalType": "address",
              "name": "owner",
              "type": "address"
            },
            {
              "internalType": "uint8",
              "name": "blessingType",
              "type": "uint8"
            },
            {
              "internalType": "uint256",
              "name": "timestamp",
              "type": "uint256"
            },
            {
              "internalType": "uint8",
              "name": "deleted",
              "type": "uint8"
            },
            {
              "internalType": "uint256",
              "name": "taxRate",
              "type": "uint256"
            }
          ],
          "internalType": "struct CryptoBlessing.Blessing[]",
          "name": "blessings",
          "type": "tuple[]"
        }
      ],
      "name": "batchAddBlessing",
      "outputs": [],
      "stateMutability": "nonpayable",
      "type": "function"
    },
    {
      "inputs": [
        {
          "internalType": "uint256",
          "name": "",
          "type": "uint256"
        }
      ],
      "name": "blessingList",
      "outputs": [
        {
          "internalType": "string",
          "name": "image",
          "type": "string"
        },
        {
          "internalType": "string",
          "name": "description",
          "type": "string"
        },
        {
          "internalType": "uint256",
          "name": "price",
          "type": "uint256"
        },
        {
          "internalType": "address",
          "name": "owner",
          "type": "address"
        },
        {
          "internalType": "uint8",
          "name": "blessingType",
          "type": "uint8"
        },
        {
          "internalType": "uint256",
          "name": "timestamp",
          "type": "uint256"
        },
        {
          "internalType": "uint8",
          "name": "deleted",
          "type": "uint8"
        },
        {
          "internalType": "uint256",
          "name": "taxRate",
          "type": "uint256"
        }
      ],
      "stateMutability": "view",
      "type": "function"
    },
    {
      "inputs": [
        {
          "internalType": "address",
          "name": "sender",
          "type": "address"
        },
        {
          "internalType": "address",
          "name": "blessingID",
          "type": "address"
        },
        {
          "internalType": "bytes32",
          "name": "hash",
          "type": "bytes32"
        },
        {
          "internalType": "bytes",
          "name": "signature",
          "type": "bytes"
        },
        {
          "internalType": "address",
          "name": "fuckOff",
          "type": "address"
        }
      ],
      "name": "claimBlessing",
      "outputs": [
        {
          "components": [
            {
              "internalType": "address",
              "name": "sender",
              "type": "address"
            },
            {
              "internalType": "address",
              "name": "blessingID",
              "type": "address"
            },
            {
              "internalType": "string",
              "name": "blessingImage",
              "type": "string"
            },
            {
              "internalType": "uint256",
              "name": "claimTimestamp",
              "type": "uint256"
            },
            {
              "internalType": "uint256",
              "name": "claimAmount",
              "type": "uint256"
            },
            {
              "internalType": "uint256",
              "name": "taxAmount",
              "type": "uint256"
            }
          ],
          "internalType": "struct CryptoBlessing.ClaimerBlessing",
          "name": "",
          "type": "tuple"
        }
      ],
      "stateMutability": "payable",
      "type": "function"
    },
    {
      "inputs": [],
      "name": "getAllBlessings",
      "outputs": [
        {
          "components": [
            {
              "internalType": "string",
              "name": "image",
              "type": "string"
            },
            {
              "internalType": "string",
              "name": "description",
              "type": "string"
            },
            {
              "internalType": "uint256",
              "name": "price",
              "type": "uint256"
            },
            {
              "internalType": "address",
              "name": "owner",
              "type": "address"
            },
            {
              "internalType": "uint8",
              "name": "blessingType",
              "type": "uint8"
            },
            {
              "internalType": "uint256",
              "name": "timestamp",
              "type": "uint256"
            },
            {
              "internalType": "uint8",
              "name": "deleted",
              "type": "uint8"
            },
            {
              "internalType": "uint256",
              "name": "taxRate",
              "type": "uint256"
            }
          ],
          "internalType": "struct CryptoBlessing.Blessing[]",
          "name": "",
          "type": "tuple[]"
        }
      ],
      "stateMutability": "view",
      "type": "function"
    },
    {
      "inputs": [
        {
          "internalType": "address",
          "name": "sender",
          "type": "address"
        },
        {
          "internalType": "address",
          "name": "blessingID",
          "type": "address"
        }
      ],
      "name": "getAllInfoOfBlessing",
      "outputs": [
        {
          "components": [
            {
              "internalType": "string",
              "name": "image",
              "type": "string"
            },
            {
              "internalType": "string",
              "name": "description",
              "type": "string"
            },
            {
              "internalType": "uint256",
              "name": "price",
              "type": "uint256"
            },
            {
              "internalType": "address",
              "name": "owner",
              "type": "address"
            },
            {
              "internalType": "uint8",
              "name": "blessingType",
              "type": "uint8"
            },
            {
              "internalType": "uint256",
              "name": "timestamp",
              "type": "uint256"
            },
            {
              "internalType": "uint8",
              "name": "deleted",
              "type": "uint8"
            },
            {
              "internalType": "uint256",
              "name": "taxRate",
              "type": "uint256"
            }
          ],
          "internalType": "struct CryptoBlessing.Blessing",
          "name": "",
          "type": "tuple"
        },
        {
          "components": [
            {
              "internalType": "address",
              "name": "blessingID",
              "type": "address"
            },
            {
              "internalType": "string",
              "name": "blessingImage",
              "type": "string"
            },
            {
              "internalType": "uint256",
              "name": "sendTimestamp",
              "type": "uint256"
            },
            {
              "internalType": "uint256",
              "name": "tokenAmount",
              "type": "uint256"
            },
            {
              "internalType": "uint256",
              "name": "claimQuantity",
              "type": "uint256"
            },
            {
              "internalType": "enum CryptoBlessing.ClaimType",
              "name": "claimType",
              "type": "uint8"
            },
            {
              "internalType": "bool",
              "name": "revoked",
              "type": "bool"
            }
          ],
          "internalType": "struct CryptoBlessing.SenderBlessing",
          "name": "",
          "type": "tuple"
        },
        {
          "components": [
            {
              "internalType": "address",
              "name": "claimer",
              "type": "address"
            },
            {
              "internalType": "uint256",
              "name": "claimTimestamp",
              "type": "uint256"
            },
            {
              "internalType": "uint256",
              "name": "distributedAmount",
              "type": "uint256"
            },
            {
              "internalType": "uint256",
              "name": "claimAmount",
              "type": "uint256"
            },
            {
              "internalType": "uint256",
              "name": "taxAmount",
              "type": "uint256"
            },
            {
              "internalType": "uint256",
              "name": "CBTokenAwardToSenderAmount",
              "type": "uint256"
            }
          ],
          "internalType": "struct CryptoBlessing.BlessingClaimStatus[]",
          "name": "",
          "type": "tuple[]"
        }
      ],
      "stateMutability": "view",
      "type": "function"
    },
    {
      "inputs": [
        {
          "internalType": "address",
          "name": "_blessingID",
          "type": "address"
        }
      ],
      "name": "getBlessingClaimingStatus",
      "outputs": [
        {
          "components": [
            {
              "internalType": "address",
              "name": "claimer",
              "type": "address"
            },
            {
              "internalType": "uint256",
              "name": "claimTimestamp",
              "type": "uint256"
            },
            {
              "internalType": "uint256",
              "name": "distributedAmount",
              "type": "uint256"
            },
            {
              "internalType": "uint256",
              "name": "claimAmount",
              "type": "uint256"
            },
            {
              "internalType": "uint256",
              "name": "taxAmount",
              "type": "uint256"
            },
            {
              "internalType": "uint256",
              "name": "CBTokenAwardToSenderAmount",
              "type": "uint256"
            }
          ],
          "internalType": "struct CryptoBlessing.BlessingClaimStatus[]",
          "name": "",
          "type": "tuple[]"
        }
      ],
      "stateMutability": "view",
      "type": "function"
    },
    {
      "inputs": [],
      "name": "getMyClaimedBlessings",
      "outputs": [
        {
          "components": [
            {
              "internalType": "address",
              "name": "sender",
              "type": "address"
            },
            {
              "internalType": "address",
              "name": "blessingID",
              "type": "address"
            },
            {
              "internalType": "string",
              "name": "blessingImage",
              "type": "string"
            },
            {
              "internalType": "uint256",
              "name": "claimTimestamp",
              "type": "uint256"
            },
            {
              "internalType": "uint256",
              "name": "claimAmount",
              "type": "uint256"
            },
            {
              "internalType": "uint256",
              "name": "taxAmount",
              "type": "uint256"
            }
          ],
          "internalType": "struct CryptoBlessing.ClaimerBlessing[]",
          "name": "",
          "type": "tuple[]"
        }
      ],
      "stateMutability": "view",
      "type": "function"
    },
    {
      "inputs": [],
      "name": "getMySendedBlessings",
      "outputs": [
        {
          "components": [
            {
              "internalType": "address",
              "name": "blessingID",
              "type": "address"
            },
            {
              "internalType": "string",
              "name": "blessingImage",
              "type": "string"
            },
            {
              "internalType": "uint256",
              "name": "sendTimestamp",
              "type": "uint256"
            },
            {
              "internalType": "uint256",
              "name": "tokenAmount",
              "type": "uint256"
            },
            {
              "internalType": "uint256",
              "name": "claimQuantity",
              "type": "uint256"
            },
            {
              "internalType": "enum CryptoBlessing.ClaimType",
              "name": "claimType",
              "type": "uint8"
            },
            {
              "internalType": "bool",
              "name": "revoked",
              "type": "bool"
            }
          ],
          "internalType": "struct CryptoBlessing.SenderBlessing[]",
          "name": "",
          "type": "tuple[]"
        }
      ],
      "stateMutability": "view",
      "type": "function"
    },
    {
      "inputs": [],
      "name": "owner",
      "outputs": [
        {
          "internalType": "address",
          "name": "",
          "type": "address"
        }
      ],
      "stateMutability": "view",
      "type": "function"
    },
    {
      "inputs": [],
      "name": "pause",
      "outputs": [],
      "stateMutability": "nonpayable",
      "type": "function"
    },
    {
      "inputs": [],
      "name": "paused",
      "outputs": [
        {
          "internalType": "bool",
          "name": "",
          "type": "bool"
        }
      ],
      "stateMutability": "view",
      "type": "function"
    },
    {
      "inputs": [],
      "name": "renounceOwnership",
      "outputs": [],
      "stateMutability": "nonpayable",
      "type": "function"
    },
    {
      "inputs": [
        {
          "internalType": "address",
          "name": "blessingID",
          "type": "address"
        }
      ],
      "name": "revokeBlessing",
      "outputs": [],
      "stateMutability": "nonpayable",
      "type": "function"
    },
    {
      "inputs": [
        {
          "internalType": "string",
          "name": "image",
          "type": "string"
        },
        {
          "internalType": "address",
          "name": "blessingID",
          "type": "address"
        },
        {
          "internalType": "uint256",
          "name": "tokenAmount",
          "type": "uint256"
        },
        {
          "internalType": "uint256",
          "name": "claimQuantity",
          "type": "uint256"
        },
        {
          "internalType": "enum CryptoBlessing.ClaimType",
          "name": "claimType",
          "type": "uint8"
        },
        {
          "internalType": "address[]",
          "name": "pubkeys",
          "type": "address[]"
        }
      ],
      "name": "sendBlessing",
      "outputs": [],
      "stateMutability": "nonpayable",
      "type": "function"
    },
    {
      "inputs": [
        {
          "internalType": "uint256",
          "name": "_CBTOKENAWARDRATIO",
          "type": "uint256"
        }
      ],
      "name": "setCBTOKENAWARDRATIO",
      "outputs": [],
      "stateMutability": "nonpayable",
      "type": "function"
    },
    {
      "inputs": [
        {
          "internalType": "uint256",
          "name": "_CLAIM_TAX_RATE",
          "type": "uint256"
        }
      ],
      "name": "setCLAIM_TAX_RATE",
      "outputs": [],
      "stateMutability": "nonpayable",
      "type": "function"
    },
    {
      "inputs": [
        {
          "internalType": "address",
          "name": "newOwner",
          "type": "address"
        }
      ],
      "name": "transferOwnership",
      "outputs": [],
      "stateMutability": "nonpayable",
      "type": "function"
    },
    {
      "inputs": [],
      "name": "unpause",
      "outputs": [],
      "stateMutability": "nonpayable",
      "type": "function"
    },
    {
      "inputs": [
        {
          "internalType": "string",
          "name": "image",
          "type": "string"
        },
        {
          "internalType": "uint256",
          "name": "price",
          "type": "uint256"
        },
        {
          "internalType": "uint8",
          "name": "deleted",
          "type": "uint8"
        },
        {
          "internalType": "uint256",
          "name": "taxRate",
          "type": "uint256"
        }
      ],
      "name": "updateBlessing",
      "outputs": [],
      "stateMutability": "nonpayable",
      "type": "function"
    },
    {
      "inputs": [
        {
          "internalType": "address",
          "name": "nextVersionContractAddress",
          "type": "address"
        }
      ],
      "name": "upgradeToNextVersion",
      "outputs": [],
      "stateMutability": "nonpayable",
      "type": "function"
    }
  ],
  "bytecode": "0x608060405260058055600a60065560405162005276380380620052768339810160408190526200002f9162000278565b6200003a336200014b565b6000805460ff60a01b1916905560018055604080516080810190915260538082526200007b91906200522360208301396200019b60201b6200383c1760201c565b620000c76040518060400160405280601481526020017f73656e64546f6b656e416464726573733a20257300000000000000000000000081525084620001e960201b6200387f1760201c565b62000108604051806040016040528060128152602001714342546f6b656e416464726573733a20257360701b81525083620001e960201b6200387f1760201c565b600280546001600160a01b039485166001600160a01b03199182161790915560038054938516938216939093179092556004805491909316911617905562000357565b600080546001600160a01b038381166001600160a01b0319831681178455604051919092169283917f8be0079c531659141344cd1fd0a4f28419497f9722a3daafe3b4186f6b6457e09190a35050565b620001e681604051602401620001b291906200030f565b60408051601f198184030181529190526020810180516001600160e01b0390811663104c13eb60e21b179091526200023a16565b50565b620002368282604051602401620002029291906200032b565b60408051601f198184030181529190526020810180516001600160e01b0390811663319af33360e01b179091526200023a16565b5050565b80516a636f6e736f6c652e6c6f67602083016000808483855afa5050505050565b80516001600160a01b03811681146200027357600080fd5b919050565b6000806000606084860312156200028d578283fd5b62000298846200025b565b9250620002a8602085016200025b565b9150620002b8604085016200025b565b90509250925092565b60008151808452815b81811015620002e857602081850181015186830182015201620002ca565b81811115620002fa5782602083870101525b50601f01601f19169290920160200192915050565b602081526000620003246020830184620002c1565b9392505050565b604081526000620003406040830185620002c1565b905060018060a01b03831660208301529392505050565b614ebc80620003676000396000f3fe6080604052600436106101295760003560e01c80638da5cb5b116100ab578063d9c3e2431161006f578063d9c3e24314610331578063dd03ff8f14610351578063e64872181461037e578063e911b682146103a0578063ea267e97146103c0578063f2fde38b146103e057600080fd5b80638da5cb5b14610278578063aa387cfa146102a0578063bcbb8e30146102c0578063bcc5f88a146102e2578063c4cf21e81461030257600080fd5b80633f4ba83a116100f25780633f4ba83a146101ed5780635c975abb14610202578063715018a61461022c57806373fcd996146102415780638456cb591461026357600080fd5b80627384741461012e57806305d7381814610150578063147df3fe1461018d5780631d424979146101ad57806323c56329146101cd575b600080fd5b34801561013a57600080fd5b5061014e6101493660046145c9565b610400565b005b34801561015c57600080fd5b5061017061016b366004614721565b610f02565b604051610184989796959493929190614b69565b60405180910390f35b34801561019957600080fd5b5061014e6101a83660046143b7565b611080565b3480156101b957600080fd5b5061014e6101c8366004614535565b6112ce565b3480156101d957600080fd5b5061014e6101e8366004614721565b611416565b3480156101f957600080fd5b5061014e611423565b34801561020e57600080fd5b50600054600160a01b900460ff166040519015158152602001610184565b34801561023857600080fd5b5061014e611435565b34801561024d57600080fd5b50610256611447565b6040516101849190614a77565b34801561026f57600080fd5b5061014e6115dc565b34801561028457600080fd5b506000546040516001600160a01b039091168152602001610184565b3480156102ac57600080fd5b5061014e6102bb366004614721565b6115ec565b3480156102cc57600080fd5b506102d56115f9565b60405161018491906149c2565b3480156102ee57600080fd5b5061014e6102fd3660046146c4565b6117c8565b34801561030e57600080fd5b5061032261031d3660046142fb565b6119b0565b60405161018493929190614c1c565b34801561033d57600080fd5b5061014e61034c3660046142e1565b611f88565b34801561035d57600080fd5b5061037161036c3660046142e1565b6124a2565b60405161018491906149af565b34801561038a57600080fd5b50610393612556565b6040516101849190614a23565b3480156103ac57600080fd5b5061014e6103bb3660046142e1565b61268a565b6103d36103ce36600461432d565b6129c3565b6040516101849190614c5f565b3480156103ec57600080fd5b5061014e6103fb3660046142e1565b6137c3565b6104086138c4565b836000106104685760405162461bcd60e51b815260206004820152602260248201527f746f6b656e416d6f756e74206d7573742062652067726561746572207468616e604482015261020360f41b60648201526084015b60405180910390fd5b8260001080156104795750600a8311155b6104eb5760405162461bcd60e51b815260206004820152603e60248201527f636c61696d5175616e74697479206d757374206265206772656174657220746860448201527f616e203020616e64206c657373206f7220657175616c207468616e2031300000606482015260840161045f565b805183146105515760405162461bcd60e51b815260206004820152602d60248201527f636c61696d5175616e74697479206d75737420626520657175616c20746f207060448201526c0eac4d6caf2e65cd8cadccee8d609b1b606482015260840161045f565b6105596140eb565b60005b600a548110156108075761063b600a828154811061058a57634e487b7160e01b600052603260045260246000fd5b906000526020600020906007020160000180546105a690614d53565b80601f01602080910402602001604051908101604052809291908181526020018280546105d290614d53565b801561061f5780601f106105f45761010080835404028352916020019161061f565b820191906000526020600020905b81548152906001019060200180831161060257829003601f168201915b5050505050898051602091820120825192909101919091201490565b156107f557600a818154811061066157634e487b7160e01b600052603260045260246000fd5b90600052602060002090600702016040518061010001604052908160008201805461068b90614d53565b80601f01602080910402602001604051908101604052809291908181526020018280546106b790614d53565b80156107045780601f106106d957610100808354040283529160200191610704565b820191906000526020600020905b8154815290600101906020018083116106e757829003601f168201915b5050505050815260200160018201805461071d90614d53565b80601f016020809104026020016040519081016040528092919081815260200182805461074990614d53565b80156107965780601f1061076b57610100808354040283529160200191610796565b820191906000526020600020905b81548152906001019060200180831161077957829003601f168201915b50505091835250506002820154602082015260038201546001600160a01b038116604083015260ff600160a01b909104811660608301526004830154608083015260058301541660a082015260069091015460c0909101529150610807565b806107ff81614d8e565b91505061055c565b5060008160400151118015610821575060c081015160ff16155b61086d5760405162461bcd60e51b815260206004820152601860248201527f496e76616c696420626c657373696e6720737461747573210000000000000000604482015260640161045f565b61088e61088782604001518661391190919063ffffffff16565b8690613924565b6002546040516370a0823160e01b81523360048201526001600160a01b03909116906370a082319060240160206040518083038186803b1580156108d157600080fd5b505afa1580156108e5573d6000803e3d6000fd5b505050506040513d601f19601f820116820180604052508101906109099190614739565b101561097d5760405162461bcd60e51b815260206004820152603e60248201527f596f757220746f6b656e20616d6f756e74206d7573742062652067726561746560448201527f72207468616e20796f752061726520747279696e6720746f2073656e64210000606482015260840161045f565b6002546040516323b872dd60e01b8152336004820152306024820152604481018790526001600160a01b03909116906323b872dd90606401602060405180830381600087803b1580156109cf57600080fd5b505af11580156109e3573d6000803e3d6000fd5b505050506040513d601f19601f82011682018060405250810190610a079190614515565b610a535760405162461bcd60e51b815260206004820152601c60248201527f5472616e7366657220746f20636f6e7472616374206661696c65642100000000604482015260640161045f565b600254606082015160e08301516001600160a01b03909216916323b872dd913391610aa590606490610a9f90610a899083614d3c565b6040890151610a99908d90613911565b90613911565b90613930565b6040516001600160e01b031960e086901b1681526001600160a01b0393841660048201529290911660248301526044820152606401602060405180830381600087803b158015610af457600080fd5b505af1158015610b08573d6000803e3d6000fd5b505050506040513d601f19601f82011682018060405250810190610b2c9190614515565b610b8a5760405162461bcd60e51b815260206004820152602960248201527f5472616e7366657220746f20746865206f776e6572206f6620626c657373696e60448201526867206661696c65642160b81b606482015260840161045f565b6002546001600160a01b03166323b872dd33610bae6000546001600160a01b031690565b610bd26064610a9f8760e00151610a9989604001518d61391190919063ffffffff16565b6040516001600160e01b031960e086901b1681526001600160a01b0393841660048201529290911660248301526044820152606401602060405180830381600087803b158015610c2157600080fd5b505af1158015610c35573d6000803e3d6000fd5b505050506040513d601f19601f82011682018060405250810190610c599190614515565b610ca55760405162461bcd60e51b815260206004820181905260248201527f5472616e7366657220746f2074686520636f6e7472616374206661696c656421604482015260640161045f565b60076000336001600160a01b03166001600160a01b031681526020019081526020016000206040518060e00160405280886001600160a01b03168152602001898152602001428152602001878152602001868152602001856001811115610d1c57634e487b7160e01b600052602160045260246000fd5b81526000602091820181905283546001808201865594825290829020835160069092020180546001600160a01b0319166001600160a01b0390921691909117815582820151805193949193610d799392850192919091019061413f565b5060408201516002820155606082015160038201556080820151600482015560a082015160058201805460ff191660018381811115610dc857634e487b7160e01b600052602160045260246000fd5b021790555060c09190910151600590910180549115156101000261ff001990921691909117905560005b8251811015610eb757600b6000886001600160a01b03166001600160a01b031681526020019081526020016000206040518060400160405280858481518110610e4b57634e487b7160e01b600052603260045260246000fd5b6020908102919091018101516001600160a01b039081168352600092820183905284546001810186559483529181902083519401805493909101511515600160a01b026001600160a81b0319909316939091169290921717905580610eaf81614d8e565b915050610df2565b50604080513381526001600160a01b03881660208201527f9028f7dd664be64a65e420291fdb6b56dec3b01e5433aa9675727b383cf1e5bc910160405180910390a150505050505050565b600a8181548110610f1257600080fd5b9060005260206000209060070201600091509050806000018054610f3590614d53565b80601f0160208091040260200160405190810160405280929190818152602001828054610f6190614d53565b8015610fae5780601f10610f8357610100808354040283529160200191610fae565b820191906000526020600020905b815481529060010190602001808311610f9157829003601f168201915b505050505090806001018054610fc390614d53565b80601f0160208091040260200160405190810160405280929190818152602001828054610fef90614d53565b801561103c5780601f106110115761010080835404028352916020019161103c565b820191906000526020600020905b81548152906001019060200180831161101f57829003601f168201915b5050506002840154600385015460048601546005870154600690970154959692956001600160a01b038316955060ff600160a01b9093048316945090929091169088565b61108861393c565b6110a9604051806060016040528060228152602001614e006022913961383c565b60005b81518110156112ca57600a6040518061010001604052808484815181106110e357634e487b7160e01b600052603260045260246000fd5b602002602001015160000151815260200184848151811061111457634e487b7160e01b600052603260045260246000fd5b602002602001015160200151815260200184848151811061114557634e487b7160e01b600052603260045260246000fd5b602002602001015160400151815260200184848151811061117657634e487b7160e01b600052603260045260246000fd5b6020026020010151606001516001600160a01b031681526020018484815181106111b057634e487b7160e01b600052603260045260246000fd5b60200260200101516080015160ff168152602001428152602001600060ff1681526020018484815181106111f457634e487b7160e01b600052603260045260246000fd5b60209081029190910181015160e00151909152825460018101845560009384529281902082518051939460070290910192611232928492019061413f565b50602082810151805161124b926001850192019061413f565b5060408201516002820155606082015160038201805460808501516001600160a01b039093166001600160a81b031990911617600160a01b60ff9384160217905560a0830151600483015560c083015160058301805460ff19169190921617905560e090910151600690910155806112c281614d8e565b9150506110ac565b5050565b6112d661393c565b6112f7604051806060016040528060228152602001614e006022913961383c565b604080516101008101825287815260208082018790529181018590526001600160a01b038716606082015260ff841660808201524260a0820152600060c0820181905260e08201849052600a8054600181018255915281518051929360079092027fc65a7bb8d6351c1cf70c95a316cc6a92839c986682d98bc35f958f4883f9d2a80192611388928492019061413f565b5060208281015180516113a1926001850192019061413f565b5060408201516002820155606082015160038201805460808501516001600160a01b039093166001600160a81b031990911617600160a01b60ff9384160217905560a0830151600483015560c083015160058301805460ff19169190921617905560e090910151600690910155505050505050565b61141e61393c565b600655565b61142b61393c565b611433613996565b565b61143d61393c565b61143360006139eb565b336000908152600760209081526040808320805482518185028101850190935280835260609492939192909184015b828210156115d35760008481526020908190206040805160e081019091526006850290910180546001600160a01b0316825260018101805492939192918401916114bf90614d53565b80601f01602080910402602001604051908101604052809291908181526020018280546114eb90614d53565b80156115385780601f1061150d57610100808354040283529160200191611538565b820191906000526020600020905b81548152906001019060200180831161151b57829003601f168201915b5050509183525050600282015460208201526003820154604082015260048201546060820152600582015460809091019060ff16600181111561158b57634e487b7160e01b600052602160045260246000fd5b60018111156115aa57634e487b7160e01b600052602160045260246000fd5b815260059190910154610100900460ff1615156020918201529082526001929092019101611476565b50505050905090565b6115e461393c565b611433613a3b565b6115f461393c565b600555565b6060600a805480602002602001604051908101604052809291908181526020016000905b828210156115d357838290600052602060002090600702016040518061010001604052908160008201805461165190614d53565b80601f016020809104026020016040519081016040528092919081815260200182805461167d90614d53565b80156116ca5780601f1061169f576101008083540402835291602001916116ca565b820191906000526020600020905b8154815290600101906020018083116116ad57829003601f168201915b505050505081526020016001820180546116e390614d53565b80601f016020809104026020016040519081016040528092919081815260200182805461170f90614d53565b801561175c5780601f106117315761010080835404028352916020019161175c565b820191906000526020600020905b81548152906001019060200180831161173f57829003601f168201915b5050509183525050600282015460208083019190915260038301546001600160a01b038116604084015260ff600160a01b909104811660608401526004840154608084015260058401541660a083015260069092015460c090910152908252600192909201910161161d565b6117d061393c565b6117f2604051806060016040528060348152602001614e226034913985613a7e565b60005b600a548110156119a9576118d4600a828154811061182357634e487b7160e01b600052603260045260246000fd5b9060005260206000209060070201600001805461183f90614d53565b80601f016020809104026020016040519081016040528092919081815260200182805461186b90614d53565b80156118b85780601f1061188d576101008083540402835291602001916118b8565b820191906000526020600020905b81548152906001019060200180831161189b57829003601f168201915b5050505050868051602091820120825192909101919091201490565b156119975782600a82815481106118fb57634e487b7160e01b600052603260045260246000fd5b906000526020600020906007020160050160006101000a81548160ff021916908360ff16021790555083600a828154811061194657634e487b7160e01b600052603260045260246000fd5b90600052602060002090600702016002018190555081600a828154811061197d57634e487b7160e01b600052603260045260246000fd5b9060005260206000209060070201600601819055506119a9565b806119a181614d8e565b9150506117f5565b5050505050565b6119b86140eb565b6119c06141c3565b6001600160a01b0384166000908152600760209081526040808320805482518185028101850190935280835260609493849084015b82821015611b525760008481526020908190206040805160e081019091526006850290910180546001600160a01b031682526001810180549293919291840191611a3e90614d53565b80601f0160208091040260200160405190810160405280929190818152602001828054611a6a90614d53565b8015611ab75780601f10611a8c57610100808354040283529160200191611ab7565b820191906000526020600020905b815481529060010190602001808311611a9a57829003601f168201915b5050509183525050600282015460208201526003820154604082015260048201546060820152600582015460809091019060ff166001811115611b0a57634e487b7160e01b600052602160045260246000fd5b6001811115611b2957634e487b7160e01b600052602160045260246000fd5b815260059190910154610100900460ff16151560209182015290825260019290920191016119f5565b505050509050611b606141c3565b60005b8251811015611bee57866001600160a01b0316838281518110611b9657634e487b7160e01b600052603260045260246000fd5b6020026020010151600001516001600160a01b03161415611bdc57828181518110611bd157634e487b7160e01b600052603260045260246000fd5b602002602001015191505b80611be681614d8e565b915050611b63565b506000816060015111611c135760405162461bcd60e51b815260040161045f90614bd2565b6001600160a01b038616600090815260096020908152604080832080548251818502810185019093528083529192909190849084015b82821015611cba5760008481526020908190206040805160c0810182526006860290920180546001600160a01b031683526001808201548486015260028201549284019290925260038101546060840152600481015460808401526005015460a08301529083529092019101611c49565b505050509050611cc86140eb565b60005b600a54811015611f7a57611dae600a8281548110611cf957634e487b7160e01b600052603260045260246000fd5b90600052602060002090600702016000018054611d1590614d53565b80601f0160208091040260200160405190810160405280929190818152602001828054611d4190614d53565b8015611d8e5780601f10611d6357610100808354040283529160200191611d8e565b820191906000526020600020905b815481529060010190602001808311611d7157829003601f168201915b505050505085602001518051602091820120825192909101919091201490565b15611f6857600a8181548110611dd457634e487b7160e01b600052603260045260246000fd5b906000526020600020906007020160405180610100016040529081600082018054611dfe90614d53565b80601f0160208091040260200160405190810160405280929190818152602001828054611e2a90614d53565b8015611e775780601f10611e4c57610100808354040283529160200191611e77565b820191906000526020600020905b815481529060010190602001808311611e5a57829003601f168201915b50505050508152602001600182018054611e9090614d53565b80601f0160208091040260200160405190810160405280929190818152602001828054611ebc90614d53565b8015611f095780601f10611ede57610100808354040283529160200191611f09565b820191906000526020600020905b815481529060010190602001808311611eec57829003601f168201915b50505091835250506002820154602082015260038201546001600160a01b038116604083015260ff600160a01b909104811660608301526004830154608083015260058301541660a082015260069091015460c0909101529150611f7a565b80611f7281614d8e565b915050611ccb565b509891975095509350505050565b611f906138c4565b6001600160a01b038116600090815260096020908152604080832080548251818502810185019093528083529192909190849084015b828210156120375760008481526020908190206040805160c0810182526006860290920180546001600160a01b031683526001808201548486015260028201549284019290925260038101546060840152600481015460808401526005015460a08301529083529092019101611fc6565b50505050905080516000146120b45760405162461bcd60e51b815260206004820152603c60248201527f596f757220626c657373696e6720697320636c61696d696e67206279206f746860448201527f6572732e2043616e206e6f74207265766f6b6520616e796d6f72652100000000606482015260840161045f565b33600090815260076020908152604080832080548251818502810185019093528083529192909190849084015b8282101561223e5760008481526020908190206040805160e081019091526006850290910180546001600160a01b03168252600181018054929391929184019161212a90614d53565b80601f016020809104026020016040519081016040528092919081815260200182805461215690614d53565b80156121a35780601f10612178576101008083540402835291602001916121a3565b820191906000526020600020905b81548152906001019060200180831161218657829003601f168201915b5050509183525050600282015460208201526003820154604082015260048201546060820152600582015460809091019060ff1660018111156121f657634e487b7160e01b600052602160045260246000fd5b600181111561221557634e487b7160e01b600052602160045260246000fd5b815260059190910154610100900460ff16151560209182015290825260019290920191016120e1565b50505050905060008151116122655760405162461bcd60e51b815260040161045f90614bd2565b61226d6141c3565b6000805b83518110156122ff57856001600160a01b03168482815181106122a457634e487b7160e01b600052603260045260246000fd5b6020026020010151600001516001600160a01b031614156122ed578381815181106122df57634e487b7160e01b600052603260045260246000fd5b602002602001015192508091505b806122f781614d8e565b915050612271565b5060008260600151116123245760405162461bcd60e51b815260040161045f90614bd2565b600254606083015160405163a9059cbb60e01b815233600482015260248101919091526001600160a01b039091169063a9059cbb90604401602060405180830381600087803b15801561237657600080fd5b505af115801561238a573d6000803e3d6000fd5b505050506040513d601f19601f820116820180604052508101906123ae9190614515565b6123fa5760405162461bcd60e51b815260206004820152601f60248201527f5472616e73666572206261636b20746f2073656e646572206661696c65642100604482015260640161045f565b3360009081526007602052604090208054600191908390811061242d57634e487b7160e01b600052603260045260246000fd5b600091825260209182902060056006909202010180549215156101000261ff001990931692909217909155604080513381526001600160a01b038816928101929092527faf0a59ad678f81ba23bb66973fedd52a279df960fc232c3bd4f56faf8d7945fb910160405180910390a15050505050565b6001600160a01b0381166000908152600960209081526040808320805482518185028101850190935280835260609492939192909184015b8282101561254b5760008481526020908190206040805160c0810182526006860290920180546001600160a01b031683526001808201548486015260028201549284019290925260038101546060840152600481015460808401526005015460a083015290835290920191016124da565b505050509050919050565b336000908152600860209081526040808320805482518185028101850190935280835260609492939192909184015b828210156115d35760008481526020908190206040805160c0810182526006860290920180546001600160a01b03908116845260018201541693830193909352600283018054929392918401916125db90614d53565b80601f016020809104026020016040519081016040528092919081815260200182805461260790614d53565b80156126545780601f1061262957610100808354040283529160200191612654565b820191906000526020600020905b81548152906001019060200180831161263757829003601f168201915b50505050508152602001600382015481526020016004820154815260200160058201548152505081526020019060010190612585565b61269261393c565b61269a613ac3565b6003546040516370a0823160e01b81523060048201526001600160a01b039091169063a9059cbb90839083906370a082319060240160206040518083038186803b1580156126e757600080fd5b505afa1580156126fb573d6000803e3d6000fd5b505050506040513d601f19601f8201168201806040525081019061271f9190614739565b6040516001600160e01b031960e085901b1681526001600160a01b0390921660048301526024820152604401602060405180830381600087803b15801561276557600080fd5b505af1158015612779573d6000803e3d6000fd5b505050506040513d601f19601f8201168201806040525081019061279d9190614515565b6127fe5760405162461bcd60e51b815260206004820152602c60248201527f5472616e736665722043425420746f206e6578742076657273696f6e2061646460448201526b72657373206661696c65642160a01b606482015260840161045f565b6002546001600160a01b031663a9059cbb6128216000546001600160a01b031690565b6002546040516370a0823160e01b81523060048201526001600160a01b03909116906370a082319060240160206040518083038186803b15801561286457600080fd5b505afa158015612878573d6000803e3d6000fd5b505050506040513d601f19601f8201168201806040525081019061289c9190614739565b6040516001600160e01b031960e085901b1681526001600160a01b0390921660048301526024820152604401602060405180830381600087803b1580156128e257600080fd5b505af11580156128f6573d6000803e3d6000fd5b505050506040513d601f19601f8201168201806040525081019061291a9190614515565b6129665760405162461bcd60e51b815260206004820152601e60248201527f5472616e73666572204255534420746f206f776e6572206661696c6564210000604482015260640161045f565b6004805460405163f2fde38b60e01b81526001600160a01b038481169382019390935291169063f2fde38b90602401600060405180830381600087803b1580156129af57600080fd5b505af11580156119a9573d6000803e3d6000fd5b612a0e6040518060c0016040528060006001600160a01b0316815260200160006001600160a01b03168152602001606081526020016000815260200160008152602001600081525090565b612a166138c4565b60026001541415612a695760405162461bcd60e51b815260206004820152601f60248201527f5265656e7472616e637947756172643a207265656e7472616e742063616c6c00604482015260640161045f565b6002600181905550612a94604051806060016040528060318152602001614e56603191398787613b13565b6001600160a01b0382163314612ad95760405162461bcd60e51b815260206004820152600a6024820152696675636b4f666621212160b01b604482015260640161045f565b612ae4848487613b5f565b612b255760405162461bcd60e51b8152602060048201526012602482015271496e76616c6964207369676e69747572652160701b604482015260640161045f565b612b59604051806040016040528060138152602001727369676e61747572652069732076616c69642160681b81525061383c565b333b15612bba5760405162461bcd60e51b815260206004820152602960248201527f596f752063616e206e6f7420636c61696d20626c657373696e672066726f6d20604482015268636f6e74726163742160b81b606482015260840161045f565b6001600160a01b038616600090815260076020908152604080832080548251818502810185019093528083529192909190849084015b82821015612d4d5760008481526020908190206040805160e081019091526006850290910180546001600160a01b031682526001810180549293919291840191612c3990614d53565b80601f0160208091040260200160405190810160405280929190818152602001828054612c6590614d53565b8015612cb25780601f10612c8757610100808354040283529160200191612cb2565b820191906000526020600020905b815481529060010190602001808311612c9557829003601f168201915b5050509183525050600282015460208201526003820154604082015260048201546060820152600582015460809091019060ff166001811115612d0557634e487b7160e01b600052602160045260246000fd5b6001811115612d2457634e487b7160e01b600052602160045260246000fd5b815260059190910154610100900460ff1615156020918201529082526001929092019101612bf0565b5050505090506000815111612d745760405162461bcd60e51b815260040161045f90614bd2565b612d7c6141c3565b60005b8251811015612e0a57876001600160a01b0316838281518110612db257634e487b7160e01b600052603260045260246000fd5b6020026020010151600001516001600160a01b03161415612df857828181518110612ded57634e487b7160e01b600052603260045260246000fd5b602002602001015191505b80612e0281614d8e565b915050612d7f565b5060c081015115612e5d5760405162461bcd60e51b815260206004820152601960248201527f5468697320626c657373696e67206973207265766f6b65642100000000000000604482015260640161045f565b6000816060015111612e815760405162461bcd60e51b815260040161045f90614bd2565b6001600160a01b038716600090815260096020908152604080832080548251818502810185019093528083529192909190849084015b82821015612f285760008481526020908190206040805160c0810182526006860290920180546001600160a01b031683526001808201548486015260028201549284019290925260038101546060840152600481015460808401526005015460a08301529083529092019101612eb7565b5050505090508160800151815110612f825760405162461bcd60e51b815260206004820152601b60248201527f5468657265206973206e6f206d6f726520626c657373696e6773210000000000604482015260640161045f565b6000805b825181101561307757336001600160a01b0316838281518110612fb957634e487b7160e01b600052603260045260246000fd5b6020026020010151600001516001600160a01b0316141561302c5760405162461bcd60e51b815260206004820152602760248201527f596f75206861766520616c726561647920636c61696d6564207468697320626c604482015266657373696e672160c81b606482015260840161045f565b82818151811061304c57634e487b7160e01b600052603260045260246000fd5b602002602001015160400151826130639190614cf1565b91508061306f81614d8e565b915050612f86565b506000808460a00151600181111561309f57634e487b7160e01b600052602160045260246000fd5b14156130bf57608084015160608501516130b891613930565b9050613163565b60018460a0015160018111156130e557634e487b7160e01b600052602160045260246000fd5b141561316357600061310584518660800151613ccb90919063ffffffff16565b90506000613113600a613cd7565b9050816001141561313457606086015161312d9085613ccb565b9250613160565b61315d6002610a99600a610a9f85610a9988610a9f8c8f60600151613ccb90919063ffffffff16565b92505b50505b60006040518060c001604052808d6001600160a01b031681526020018c6001600160a01b03168152602001866020015181526020014281526020016131bd6006546103e86131b19190614d3c565b610a99866103e8613930565b81526020016131dd600654610a996103e88761393090919063ffffffff16565b905233600090815260086020908152604080832080546001818101835591855293839020855160069095020180546001600160a01b039586166001600160a01b03199182161782558487015192820180549390961692169190911790935583015180519394508493613255926002850192019061413f565b50606082015160038201556080820151600482015560a0909101516005918201555460009061329090610a9985670de0b6b3a7640000613930565b90506103e88111156132a157506103e75b600960008d6001600160a01b03166001600160a01b031681526020019081526020016000206040518060c00160405280336001600160a01b0316815260200142815260200185815260200161330b6006546103e86132ff9190614d3c565b610a99886103e8613930565b815260200161332b600654610a996103e88961393090919063ffffffff16565b815260209081018490528254600180820185556000948552938290208351600692830290910180546001600160a01b0319166001600160a01b0392831617815592840151948301949094556040830151600280840191909155606084015160038401556080840151600484015560a0909301516005909201919091559054905491169063a9059cbb9033906133c6906132ff906103e8614d3c565b6040516001600160e01b031960e085901b1681526001600160a01b0390921660048301526024820152604401602060405180830381600087803b15801561340c57600080fd5b505af1158015613420573d6000803e3d6000fd5b505050506040513d601f19601f820116820180604052508101906134449190614515565b6134905760405162461bcd60e51b815260206004820152601760248201527f436c61696d2074686520746f6b656e206661696c656421000000000000000000604482015260640161045f565b6002546001600160a01b031663a9059cbb6134b36000546001600160a01b031690565b6006546134c690610a99886103e8613930565b6040516001600160e01b031960e085901b1681526001600160a01b0390921660048301526024820152604401602060405180830381600087803b15801561350c57600080fd5b505af1158015613520573d6000803e3d6000fd5b505050506040513d601f19601f820116820180604052508101906135449190614515565b6135865760405162461bcd60e51b815260206004820152601360248201527254616e7366657220746178206661696c65642160681b604482015260640161045f565b6003546040516370a0823160e01b815230600482015282916001600160a01b0316906370a082319060240160206040518083038186803b1580156135c957600080fd5b505afa1580156135dd573d6000803e3d6000fd5b505050506040513d601f19601f820116820180604052508101906136019190614739565b106136d85760035460405163a9059cbb60e01b81526001600160a01b038f81166004830152602482018490529091169063a9059cbb90604401602060405180830381600087803b15801561365457600080fd5b505af1158015613668573d6000803e3d6000fd5b505050506040513d601f19601f8201168201806040525081019061368c9190614515565b6136d85760405162461bcd60e51b815260206004820152601760248201527f617761726420434220746f6b656e73206661696c656421000000000000000000604482015260640161045f565b600480546020880151604051631e1d900360e31b81526001600160a01b039092169263f0ec80189261370e923392909101614983565b602060405180830381600087803b15801561372857600080fd5b505af115801561373c573d6000803e3d6000fd5b505050506040513d601f19601f820116820180604052508101906137609190614739565b507f411a457db9208c2357cddce37558ebfedc401243648449843470687d4e9014428d8d6040516137a79291906001600160a01b0392831681529116602082015260400190565b60405180910390a150600180559b9a5050505050505050505050565b6137cb61393c565b6001600160a01b0381166138305760405162461bcd60e51b815260206004820152602660248201527f4f776e61626c653a206e6577206f776e657220697320746865207a65726f206160448201526564647265737360d01b606482015260840161045f565b613839816139eb565b50565b613839816040516024016138509190614acb565b60408051601f198184030181529190526020810180516001600160e01b031663104c13eb60e21b179052613d0f565b6112ca8282604051602401613895929190614ade565b60408051601f198184030181529190526020810180516001600160e01b031663319af33360e01b179052613d0f565b600054600160a01b900460ff16156114335760405162461bcd60e51b815260206004820152601060248201526f14185d5cd8589b194e881c185d5cd95960821b604482015260640161045f565b600061391d8284614d1d565b9392505050565b600061391d8284614cf1565b600061391d8284614d09565b6000546001600160a01b031633146114335760405162461bcd60e51b815260206004820181905260248201527f4f776e61626c653a2063616c6c6572206973206e6f7420746865206f776e6572604482015260640161045f565b61399e613ac3565b6000805460ff60a01b191690557f5db9ee0a495bf2e6ff9c91a7834c1ba4fdd244a5e8aa4e537bd38aeae4b073aa335b6040516001600160a01b03909116815260200160405180910390a1565b600080546001600160a01b038381166001600160a01b0319831681178455604051919092169283917f8be0079c531659141344cd1fd0a4f28419497f9722a3daafe3b4186f6b6457e09190a35050565b613a436138c4565b6000805460ff60a01b1916600160a01b1790557f62e78cea01bee320cd4e420270b5ea74000d11b0c9f74754ebdbfc544b05a2586139ce3390565b6112ca8282604051602401613a94929190614b3b565b60408051601f198184030181529190526020810180516001600160e01b0316634b5c427760e01b179052613d0f565b600054600160a01b900460ff166114335760405162461bcd60e51b815260206004820152601460248201527314185d5cd8589b194e881b9bdd081c185d5cd95960621b604482015260640161045f565b613b5a838383604051602401613b2b93929190614b08565b60408051601f198184030181529190526020810180516001600160e01b03166307e763af60e51b179052613d0f565b505050565b600080613b6c8585613d30565b905060005b6001600160a01b0384166000908152600b6020526040902054811015613cbf576001600160a01b038481166000908152600b6020526040902080549184169183908110613bce57634e487b7160e01b600052603260045260246000fd5b6000918252602090912001546001600160a01b0316148015613c3b57506001600160a01b0384166000908152600b60205260409020805482908110613c2357634e487b7160e01b600052603260045260246000fd5b600091825260209091200154600160a01b900460ff16155b15613cad576001600160a01b0384166000908152600b6020526040902080546001919083908110613c7c57634e487b7160e01b600052603260045260246000fd5b60009182526020909120018054911515600160a01b0260ff60a01b19909216919091179055506001915061391d9050565b80613cb781614d8e565b915050613b71565b50600095945050505050565b600061391d8284614d3c565b60008082613ce6600143614d3c565b613cf1919040614da9565b9050801580613d00575080600a145b15613d09575060015b92915050565b80516a636f6e736f6c652e6c6f67602083016000808483855afa5050505050565b6000806000613d3f8585613d54565b91509150613d4c81613dc4565b509392505050565b600080825160411415613d8b5760208301516040840151606085015160001a613d7f87828585613fc5565b94509450505050613dbd565b825160401415613db55760208301516040840151613daa8683836140b2565b935093505050613dbd565b506000905060025b9250929050565b6000816004811115613de657634e487b7160e01b600052602160045260246000fd5b1415613def5750565b6001816004811115613e1157634e487b7160e01b600052602160045260246000fd5b1415613e5f5760405162461bcd60e51b815260206004820152601860248201527f45434453413a20696e76616c6964207369676e61747572650000000000000000604482015260640161045f565b6002816004811115613e8157634e487b7160e01b600052602160045260246000fd5b1415613ecf5760405162461bcd60e51b815260206004820152601f60248201527f45434453413a20696e76616c6964207369676e6174757265206c656e67746800604482015260640161045f565b6003816004811115613ef157634e487b7160e01b600052602160045260246000fd5b1415613f4a5760405162461bcd60e51b815260206004820152602260248201527f45434453413a20696e76616c6964207369676e6174757265202773272076616c604482015261756560f01b606482015260840161045f565b6004816004811115613f6c57634e487b7160e01b600052602160045260246000fd5b14156138395760405162461bcd60e51b815260206004820152602260248201527f45434453413a20696e76616c6964207369676e6174757265202776272076616c604482015261756560f01b606482015260840161045f565b6000807f7fffffffffffffffffffffffffffffff5d576e7357a4501ddfe92f46681b20a0831115613ffc57506000905060036140a9565b8460ff16601b1415801561401457508460ff16601c14155b1561402557506000905060046140a9565b6040805160008082526020820180845289905260ff881692820192909252606081018690526080810185905260019060a0016020604051602081039080840390855afa158015614079573d6000803e3d6000fd5b5050604051601f1901519150506001600160a01b0381166140a2576000600192509250506140a9565b9150600090505b94509492505050565b6000806001600160ff1b038316816140cf60ff86901c601b614cf1565b90506140dd87828885613fc5565b935093505050935093915050565b60405180610100016040528060608152602001606081526020016000815260200160006001600160a01b03168152602001600060ff16815260200160008152602001600060ff168152602001600081525090565b82805461414b90614d53565b90600052602060002090601f01602090048101928261416d57600085556141b3565b82601f1061418657805160ff19168380011785556141b3565b828001600101855582156141b3579182015b828111156141b3578251825591602001919060010190614198565b506141bf929150614228565b5090565b6040518060e0016040528060006001600160a01b03168152602001606081526020016000815260200160008152602001600081526020016000600181111561421b57634e487b7160e01b600052602160045260246000fd5b8152600060209091015290565b5b808211156141bf5760008155600101614229565b600067ffffffffffffffff83111561425757614257614de9565b61426a601f8401601f1916602001614c9c565b905082815283838301111561427e57600080fd5b828260208301376000602084830101529392505050565b80356001600160a01b03811681146142ac57600080fd5b919050565b600082601f8301126142c1578081fd5b61391d8383356020850161423d565b803560ff811681146142ac57600080fd5b6000602082840312156142f2578081fd5b61391d82614295565b6000806040838503121561430d578081fd5b61431683614295565b915061432460208401614295565b90509250929050565b600080600080600060a08688031215614344578081fd5b61434d86614295565b945061435b60208701614295565b935060408601359250606086013567ffffffffffffffff81111561437d578182fd5b8601601f8101881361438d578182fd5b61439c8882356020840161423d565b9250506143ab60808701614295565b90509295509295909350565b600060208083850312156143c9578182fd5b823567ffffffffffffffff808211156143e0578384fd5b818501915085601f8301126143f3578384fd5b813561440661440182614ccd565b614c9c565b80828252858201915085850189878560051b8801011115614425578788fd5b875b848110156145065781358681111561443d57898afd5b8701610100818d03601f1901811315614454578a8bfd5b61445c614c72565b8a8301358981111561446c578c8dfd5b61447a8f8d838701016142b1565b82525060408301358981111561448e578c8dfd5b61449c8f8d838701016142b1565b8c83015250606083013560408201526144b760808401614295565b606082015260a06144c98185016142d0565b608083015260c0808501358284015260e091506144e78286016142d0565b9083015291909201359082015284529287019290870190600101614427565b50909998505050505050505050565b600060208284031215614526578081fd5b8151801515811461391d578182fd5b60008060008060008060c0878903121561454d578081fd5b863567ffffffffffffffff80821115614564578283fd5b6145708a838b016142b1565b975061457e60208a01614295565b96506040890135915080821115614593578283fd5b506145a089828a016142b1565b945050606087013592506145b6608088016142d0565b915060a087013590509295509295509295565b60008060008060008060c087890312156145e1578384fd5b863567ffffffffffffffff808211156145f8578586fd5b6146048a838b016142b1565b975060209150614615828a01614295565b96506040890135955060608901359450608089013560028110614636578485fd5b935060a089013581811115614649578384fd5b89019050601f81018a1361465b578283fd5b803561466961440182614ccd565b8082825284820191508484018d868560051b8701011115614688578687fd5b8694505b838510156146b15761469d81614295565b83526001949094019391850191850161468c565b5080955050505050509295509295509295565b600080600080608085870312156146d9578182fd5b843567ffffffffffffffff8111156146ef578283fd5b6146fb878288016142b1565b94505060208501359250614711604086016142d0565b9396929550929360600135925050565b600060208284031215614732578081fd5b5035919050565b60006020828403121561474a578081fd5b5051919050565b6000815180845260208085019450808401835b838110156147bd57815180516001600160a01b03168852838101518489015260408082015190890152606080820151908901526080808201519089015260a0908101519088015260c09096019590820190600101614764565b509495945050505050565b60008151808452815b818110156147ed576020818501810151868301820152016147d1565b818111156147fe5782602083870101525b50601f01601f19169290920160200192915050565b60006101008251818552614829828601826147c8565b9150506020830151848203602086015261484382826147c8565b9150506040830151604085015260018060a01b03606084015116606085015260ff608084015116608085015260a083015160a085015260c083015161488d60c086018260ff169052565b5060e083015160e08501528091505092915050565b600060018060a01b0380835116845280602084015116602085015250604082015160c060408501526148d760c08501826147c8565b9050606083015160608501526080830151608085015260a083015160a08501528091505092915050565b60018060a01b0381511682526000602082015160e0602085015261492860e08501826147c8565b905060408301516040850152606083015160608501526080830151608085015260a08301516002811061496957634e487b7160e01b83526021600452602483fd5b8060a08601525060c0830151613d4c60c086018215159052565b6001600160a01b03831681526040602082018190526000906149a7908301846147c8565b949350505050565b60208152600061391d6020830184614751565b6000602080830181845280855180835260408601915060408160051b8701019250838701855b82811015614a1657603f19888603018452614a04858351614813565b945092850192908501906001016149e8565b5092979650505050505050565b6000602080830181845280855180835260408601915060408160051b8701019250838701855b82811015614a1657603f19888603018452614a658583516148a2565b94509285019290850190600101614a49565b6000602080830181845280855180835260408601915060408160051b8701019250838701855b82811015614a1657603f19888603018452614ab9858351614901565b94509285019290850190600101614a9d565b60208152600061391d60208301846147c8565b604081526000614af160408301856147c8565b905060018060a01b03831660208301529392505050565b606081526000614b1b60608301866147c8565b6001600160a01b0394851660208401529290931660409091015292915050565b604081526000614b4e60408301856147c8565b8281036020840152614b6081856147c8565b95945050505050565b6000610100808352614b7d8184018c6147c8565b90508281036020840152614b91818b6147c8565b604084019990995250506001600160a01b0395909516606086015260ff938416608086015260a085019290925290911660c083015260e09091015292915050565b6020808252602a908201527f5468657265206973206e6f20626c657373696e6720666f756e64206f6e20746860408201526969732073656e6465722160b01b606082015260800190565b606081526000614c2f6060830186614813565b8281036020840152614c418186614901565b90508281036040840152614c558185614751565b9695505050505050565b60208152600061391d60208301846148a2565b604051610100810167ffffffffffffffff81118282101715614c9657614c96614de9565b60405290565b604051601f8201601f1916810167ffffffffffffffff81118282101715614cc557614cc5614de9565b604052919050565b600067ffffffffffffffff821115614ce757614ce7614de9565b5060051b60200190565b60008219821115614d0457614d04614dbd565b500190565b600082614d1857614d18614dd3565b500490565b6000816000190483118215151615614d3757614d37614dbd565b500290565b600082821015614d4e57614d4e614dbd565b500390565b600181811c90821680614d6757607f821691505b60208210811415614d8857634e487b7160e01b600052602260045260246000fd5b50919050565b6000600019821415614da257614da2614dbd565b5060010190565b600082614db857614db8614dd3565b500690565b634e487b7160e01b600052601160045260246000fd5b634e487b7160e01b600052601260045260246000fd5b634e487b7160e01b600052604160045260246000fdfe737461727420746f2061646420626c657373696e6720746f2074686520706f6f6c21737461727420746f2072656d6f7665206f6e6520626c657373696e672066726f6d2074686520706f6f6c2120696d6167653a2573737461727420746f20636c61696d20626c657373696e67212073656e6465723a25732c20626c657373696e6749443a2573a26469706673582212207f879e51f5335a7fd86fe253315424ec98aa8c6b55729f41140a11400bbaf7f864736f6c63430008040033426c657373696e6720697320746865206d6f737420756e6976657273616c2068756d616e2065787072657373696f6e206f6620656d6f74696f6e2c20616e6420776520617265204e4654697a696e6720697421",
  "linkReferences": {},
  "deployedLinkReferences": {}
}