{
  "_format": "hh-sol-artifact-1",
  "contractName": "CryptoBlessing",
  "sourceName": "contracts/CryptoBlessing.sol",
  "abi": [
    {
      "inputs": [
        {
          "internalType": "address",
          "name": "_sendTokenAddress",
          "type": "address"
        },
        {
          "internalType": "address",
          "name": "_cryptoBlessingTokenAddress",
          "type": "address"
        },
        {
          "internalType": "address",
          "name": "_cryptoBlessingNFTAddress",
          "type": "address"
        }
      ],
      "stateMutability": "payable",
      "type": "constructor"
    },
    {
      "anonymous": false,
      "inputs": [
        {
          "indexed": true,
          "internalType": "address",
          "name": "previousOwner",
          "type": "address"
        },
        {
          "indexed": true,
          "internalType": "address",
          "name": "newOwner",
          "type": "address"
        }
      ],
      "name": "OwnershipTransferred",
      "type": "event"
    },
    {
      "anonymous": false,
      "inputs": [
        {
          "indexed": false,
          "internalType": "address",
          "name": "account",
          "type": "address"
        }
      ],
      "name": "Paused",
      "type": "event"
    },
    {
      "anonymous": false,
      "inputs": [
        {
          "indexed": false,
          "internalType": "address",
          "name": "account",
          "type": "address"
        }
      ],
      "name": "Unpaused",
      "type": "event"
    },
    {
      "anonymous": false,
      "inputs": [
        {
          "indexed": false,
          "internalType": "address",
          "name": "sender",
          "type": "address"
        },
        {
          "indexed": false,
          "internalType": "address",
          "name": "blessingID",
          "type": "address"
        }
      ],
      "name": "claimerClaimComplete",
      "type": "event"
    },
    {
      "anonymous": false,
      "inputs": [
        {
          "indexed": false,
          "internalType": "address",
          "name": "sender",
          "type": "address"
        },
        {
          "indexed": false,
          "internalType": "address",
          "name": "blessingID",
          "type": "address"
        }
      ],
      "name": "senderRevokeComplete",
      "type": "event"
    },
    {
      "anonymous": false,
      "inputs": [
        {
          "indexed": false,
          "internalType": "address",
          "name": "sender",
          "type": "address"
        },
        {
          "indexed": false,
          "internalType": "address",
          "name": "blessingID",
          "type": "address"
        }
      ],
      "name": "senderSendCompleted",
      "type": "event"
    },
    {
      "inputs": [
        {
          "internalType": "string[]",
          "name": "images",
          "type": "string[]"
        },
        {
          "components": [
            {
              "internalType": "uint256",
              "name": "price",
              "type": "uint256"
            },
            {
              "internalType": "address",
              "name": "owner",
              "type": "address"
            },
            {
              "internalType": "uint8",
              "name": "deleted",
              "type": "uint8"
            },
            {
              "internalType": "uint256",
              "name": "taxRate",
              "type": "uint256"
            }
          ],
          "internalType": "struct CryptoBlessing.Blessing[]",
          "name": "blessings",
          "type": "tuple[]"
        }
      ],
      "name": "batchUpdateBlessing",
      "outputs": [],
      "stateMutability": "nonpayable",
      "type": "function"
    },
    {
      "inputs": [
        {
          "internalType": "address",
          "name": "sender",
          "type": "address"
        },
        {
          "internalType": "address",
          "name": "blessingID",
          "type": "address"
        },
        {
          "internalType": "bytes32",
          "name": "hash",
          "type": "bytes32"
        },
        {
          "internalType": "bytes",
          "name": "signature",
          "type": "bytes"
        }
      ],
      "name": "claimBlessing",
      "outputs": [
        {
          "components": [
            {
              "internalType": "address",
              "name": "sender",
              "type": "address"
            },
            {
              "internalType": "address",
              "name": "blessingID",
              "type": "address"
            },
            {
              "internalType": "string",
              "name": "blessingImage",
              "type": "string"
            },
            {
              "internalType": "uint256",
              "name": "claimTimestamp",
              "type": "uint256"
            },
            {
              "internalType": "uint256",
              "name": "claimAmount",
              "type": "uint256"
            },
            {
              "internalType": "uint256",
              "name": "taxAmount",
              "type": "uint256"
            }
          ],
          "internalType": "struct CryptoBlessing.ClaimerBlessing",
          "name": "",
          "type": "tuple"
        }
      ],
      "stateMutability": "payable",
      "type": "function"
    },
    {
      "inputs": [
        {
          "internalType": "address",
          "name": "sender",
          "type": "address"
        },
        {
          "internalType": "address",
          "name": "blessingID",
          "type": "address"
        }
      ],
      "name": "getAllInfoOfBlessing",
      "outputs": [
        {
          "components": [
            {
              "internalType": "uint256",
              "name": "price",
              "type": "uint256"
            },
            {
              "internalType": "address",
              "name": "owner",
              "type": "address"
            },
            {
              "internalType": "uint8",
              "name": "deleted",
              "type": "uint8"
            },
            {
              "internalType": "uint256",
              "name": "taxRate",
              "type": "uint256"
            }
          ],
          "internalType": "struct CryptoBlessing.Blessing",
          "name": "",
          "type": "tuple"
        },
        {
          "components": [
            {
              "internalType": "address",
              "name": "blessingID",
              "type": "address"
            },
            {
              "internalType": "string",
              "name": "blessingImage",
              "type": "string"
            },
            {
              "internalType": "uint256",
              "name": "sendTimestamp",
              "type": "uint256"
            },
            {
              "internalType": "uint256",
              "name": "tokenAmount",
              "type": "uint256"
            },
            {
              "internalType": "uint256",
              "name": "claimQuantity",
              "type": "uint256"
            },
            {
              "internalType": "enum CryptoBlessing.ClaimType",
              "name": "claimType",
              "type": "uint8"
            },
            {
              "internalType": "bool",
              "name": "revoked",
              "type": "bool"
            }
          ],
          "internalType": "struct CryptoBlessing.SenderBlessing",
          "name": "",
          "type": "tuple"
        },
        {
          "components": [
            {
              "internalType": "address",
              "name": "claimer",
              "type": "address"
            },
            {
              "internalType": "uint256",
              "name": "claimTimestamp",
              "type": "uint256"
            },
            {
              "internalType": "uint256",
              "name": "distributedAmount",
              "type": "uint256"
            },
            {
              "internalType": "uint256",
              "name": "claimAmount",
              "type": "uint256"
            },
            {
              "internalType": "uint256",
              "name": "taxAmount",
              "type": "uint256"
            },
            {
              "internalType": "uint256",
              "name": "CBTokenAwardToSenderAmount",
              "type": "uint256"
            }
          ],
          "internalType": "struct CryptoBlessing.BlessingClaimStatus[]",
          "name": "",
          "type": "tuple[]"
        }
      ],
      "stateMutability": "view",
      "type": "function"
    },
    {
      "inputs": [
        {
          "internalType": "string",
          "name": "image",
          "type": "string"
        }
      ],
      "name": "getBlessing",
      "outputs": [
        {
          "components": [
            {
              "internalType": "uint256",
              "name": "price",
              "type": "uint256"
            },
            {
              "internalType": "address",
              "name": "owner",
              "type": "address"
            },
            {
              "internalType": "uint8",
              "name": "deleted",
              "type": "uint8"
            },
            {
              "internalType": "uint256",
              "name": "taxRate",
              "type": "uint256"
            }
          ],
          "internalType": "struct CryptoBlessing.Blessing",
          "name": "",
          "type": "tuple"
        }
      ],
      "stateMutability": "view",
      "type": "function"
    },
    {
      "inputs": [
        {
          "internalType": "address",
          "name": "_blessingID",
          "type": "address"
        }
      ],
      "name": "getBlessingClaimingStatus",
      "outputs": [
        {
          "components": [
            {
              "internalType": "address",
              "name": "claimer",
              "type": "address"
            },
            {
              "internalType": "uint256",
              "name": "claimTimestamp",
              "type": "uint256"
            },
            {
              "internalType": "uint256",
              "name": "distributedAmount",
              "type": "uint256"
            },
            {
              "internalType": "uint256",
              "name": "claimAmount",
              "type": "uint256"
            },
            {
              "internalType": "uint256",
              "name": "taxAmount",
              "type": "uint256"
            },
            {
              "internalType": "uint256",
              "name": "CBTokenAwardToSenderAmount",
              "type": "uint256"
            }
          ],
          "internalType": "struct CryptoBlessing.BlessingClaimStatus[]",
          "name": "",
          "type": "tuple[]"
        }
      ],
      "stateMutability": "view",
      "type": "function"
    },
    {
      "inputs": [],
      "name": "getMyClaimedBlessings",
      "outputs": [
        {
          "components": [
            {
              "internalType": "address",
              "name": "sender",
              "type": "address"
            },
            {
              "internalType": "address",
              "name": "blessingID",
              "type": "address"
            },
            {
              "internalType": "string",
              "name": "blessingImage",
              "type": "string"
            },
            {
              "internalType": "uint256",
              "name": "claimTimestamp",
              "type": "uint256"
            },
            {
              "internalType": "uint256",
              "name": "claimAmount",
              "type": "uint256"
            },
            {
              "internalType": "uint256",
              "name": "taxAmount",
              "type": "uint256"
            }
          ],
          "internalType": "struct CryptoBlessing.ClaimerBlessing[]",
          "name": "",
          "type": "tuple[]"
        }
      ],
      "stateMutability": "view",
      "type": "function"
    },
    {
      "inputs": [],
      "name": "getMySendedBlessings",
      "outputs": [
        {
          "components": [
            {
              "internalType": "address",
              "name": "blessingID",
              "type": "address"
            },
            {
              "internalType": "string",
              "name": "blessingImage",
              "type": "string"
            },
            {
              "internalType": "uint256",
              "name": "sendTimestamp",
              "type": "uint256"
            },
            {
              "internalType": "uint256",
              "name": "tokenAmount",
              "type": "uint256"
            },
            {
              "internalType": "uint256",
              "name": "claimQuantity",
              "type": "uint256"
            },
            {
              "internalType": "enum CryptoBlessing.ClaimType",
              "name": "claimType",
              "type": "uint8"
            },
            {
              "internalType": "bool",
              "name": "revoked",
              "type": "bool"
            }
          ],
          "internalType": "struct CryptoBlessing.SenderBlessing[]",
          "name": "",
          "type": "tuple[]"
        }
      ],
      "stateMutability": "view",
      "type": "function"
    },
    {
      "inputs": [],
      "name": "owner",
      "outputs": [
        {
          "internalType": "address",
          "name": "",
          "type": "address"
        }
      ],
      "stateMutability": "view",
      "type": "function"
    },
    {
      "inputs": [],
      "name": "pause",
      "outputs": [],
      "stateMutability": "nonpayable",
      "type": "function"
    },
    {
      "inputs": [],
      "name": "paused",
      "outputs": [
        {
          "internalType": "bool",
          "name": "",
          "type": "bool"
        }
      ],
      "stateMutability": "view",
      "type": "function"
    },
    {
      "inputs": [],
      "name": "renounceOwnership",
      "outputs": [],
      "stateMutability": "nonpayable",
      "type": "function"
    },
    {
      "inputs": [
        {
          "internalType": "address",
          "name": "blessingID",
          "type": "address"
        }
      ],
      "name": "revokeBlessing",
      "outputs": [],
      "stateMutability": "nonpayable",
      "type": "function"
    },
    {
      "inputs": [
        {
          "internalType": "string",
          "name": "image",
          "type": "string"
        },
        {
          "internalType": "address",
          "name": "blessingID",
          "type": "address"
        },
        {
          "internalType": "uint256",
          "name": "tokenAmount",
          "type": "uint256"
        },
        {
          "internalType": "uint256",
          "name": "claimQuantity",
          "type": "uint256"
        },
        {
          "internalType": "enum CryptoBlessing.ClaimType",
          "name": "claimType",
          "type": "uint8"
        },
        {
          "internalType": "address[]",
          "name": "pubkeys",
          "type": "address[]"
        }
      ],
      "name": "sendBlessing",
      "outputs": [],
      "stateMutability": "nonpayable",
      "type": "function"
    },
    {
      "inputs": [
        {
          "internalType": "uint256",
          "name": "_CBTOKENAWARDRATIO",
          "type": "uint256"
        }
      ],
      "name": "setCBTOKENAWARDRATIO",
      "outputs": [],
      "stateMutability": "nonpayable",
      "type": "function"
    },
    {
      "inputs": [
        {
          "internalType": "uint256",
          "name": "_CLAIM_TAX_RATE",
          "type": "uint256"
        }
      ],
      "name": "setCLAIM_TAX_RATE",
      "outputs": [],
      "stateMutability": "nonpayable",
      "type": "function"
    },
    {
      "inputs": [
        {
          "internalType": "address",
          "name": "newOwner",
          "type": "address"
        }
      ],
      "name": "transferOwnership",
      "outputs": [],
      "stateMutability": "nonpayable",
      "type": "function"
    },
    {
      "inputs": [],
      "name": "unpause",
      "outputs": [],
      "stateMutability": "nonpayable",
      "type": "function"
    },
    {
      "inputs": [
        {
          "internalType": "address",
          "name": "nextVersionContractAddress",
          "type": "address"
        }
      ],
      "name": "upgradeToNextVersion",
      "outputs": [],
      "stateMutability": "nonpayable",
      "type": "function"
    }
  ],
  "bytecode": "0x608060405260058055600a600655604051620043f6380380620043f68339810160408190526200002f9162000278565b6200003a336200014b565b6000805460ff60a01b1916905560018055604080516080810190915260538082526200007b9190620043a360208301396200019b60201b62002c321760201c565b620000c76040518060400160405280601481526020017f73656e64546f6b656e416464726573733a20257300000000000000000000000081525084620001e960201b62002c751760201c565b62000108604051806040016040528060128152602001714342546f6b656e416464726573733a20257360701b81525083620001e960201b62002c751760201c565b600280546001600160a01b039485166001600160a01b03199182161790915560038054938516938216939093179092556004805491909316911617905562000357565b600080546001600160a01b038381166001600160a01b0319831681178455604051919092169283917f8be0079c531659141344cd1fd0a4f28419497f9722a3daafe3b4186f6b6457e09190a35050565b620001e681604051602401620001b291906200030f565b60408051601f198184030181529190526020810180516001600160e01b0390811663104c13eb60e21b179091526200023a16565b50565b620002368282604051602401620002029291906200032b565b60408051601f198184030181529190526020810180516001600160e01b0390811663319af33360e01b179091526200023a16565b5050565b80516a636f6e736f6c652e6c6f67602083016000808483855afa5050505050565b80516001600160a01b03811681146200027357600080fd5b919050565b6000806000606084860312156200028d578283fd5b62000298846200025b565b9250620002a8602085016200025b565b9150620002b8604085016200025b565b90509250925092565b60008151808452815b81811015620002e857602081850181015186830182015201620002ca565b81811115620002fa5782602083870101525b50601f01601f19169290920160200192915050565b602081526000620003246020830184620002c1565b9392505050565b604081526000620003406040830185620002c1565b905060018060a01b03831660208301529392505050565b61403c80620003676000396000f3fe6080604052600436106101085760003560e01c80638da5cb5b11610095578063dbf3fb9e11610064578063dbf3fb9e146102b6578063dd03ff8f146102e3578063e648721814610310578063e911b68214610332578063f2fde38b1461035257600080fd5b80638da5cb5b1461021f578063aa387cfa14610247578063c4cf21e814610267578063d9c3e2431461029657600080fd5b80635c975abb116100dc5780635c975abb146101845780637054a2df146101b3578063715018a6146101d357806373fcd996146101e85780638456cb591461020a57600080fd5b80627384741461010d57806323c563291461012f5780633f4ba83a1461014f5780635526316a14610164575b600080fd5b34801561011957600080fd5b5061012d6101283660046138dc565b610372565b005b34801561013b57600080fd5b5061012d61014a3660046139d7565b610c0e565b34801561015b57600080fd5b5061012d610c1b565b34801561017057600080fd5b5061012d61017f3660046137ae565b610c2d565b34801561019057600080fd5b50600054600160a01b900460ff1660405190151581526020015b60405180910390f35b6101c66101c1366004613735565b610de4565b6040516101aa9190613de4565b3480156101df57600080fd5b5061012d611b93565b3480156101f457600080fd5b506101fd611ba5565b6040516101aa9190613c3f565b34801561021657600080fd5b5061012d611d3a565b34801561022b57600080fd5b506000546040516001600160a01b0390911681526020016101aa565b34801561025357600080fd5b5061012d6102623660046139d7565b611d4a565b34801561027357600080fd5b50610287610282366004613703565b611d57565b6040516101aa93929190613d84565b3480156102a257600080fd5b5061012d6102b13660046136e9565b6120f2565b3480156102c257600080fd5b506102d66102d13660046138a1565b61260c565b6040516101aa9190613d4d565b3480156102ef57600080fd5b506103036102fe3660046136e9565b612691565b6040516101aa9190613bcb565b34801561031c57600080fd5b50610325612745565b6040516101aa9190613bde565b34801561033e57600080fd5b5061012d61034d3660046136e9565b612879565b34801561035e57600080fd5b5061012d61036d3660046136e9565b612bb9565b61037a612cbe565b836000106103da5760405162461bcd60e51b815260206004820152602260248201527f746f6b656e416d6f756e74206d7573742062652067726561746572207468616e604482015261020360f41b60648201526084015b60405180910390fd5b8260001080156103eb5750600d8311155b61045d5760405162461bcd60e51b815260206004820152603e60248201527f636c61696d5175616e74697479206d757374206265206772656174657220746860448201527f616e203020616e64206c657373206f7220657175616c207468616e203133000060648201526084016103d1565b805183146104c35760405162461bcd60e51b815260206004820152602d60248201527f636c61696d5175616e74697479206d75737420626520657175616c20746f207060448201526c0eac4d6caf2e65cd8cadccee8d609b1b60648201526084016103d1565b60006007876040516104d59190613b8b565b9081526040805160209281900383018120608082018352805480835260018201546001600160a01b03811695840195909552600160a01b90940460ff169282019290925260029091015460608201529150158015906105395750604081015160ff16155b6105855760405162461bcd60e51b815260206004820152601860248201527f496e76616c696420626c657373696e672073746174757321000000000000000060448201526064016103d1565b805161059d90610596908690612d0b565b8690612d20565b6002546040516370a0823160e01b81523360048201526001600160a01b03909116906370a082319060240160206040518083038186803b1580156105e057600080fd5b505afa1580156105f4573d6000803e3d6000fd5b505050506040513d601f19601f8201168201806040525081019061061891906139ef565b101561068c5760405162461bcd60e51b815260206004820152603e60248201527f596f757220746f6b656e20616d6f756e74206d7573742062652067726561746560448201527f72207468616e20796f752061726520747279696e6720746f2073656e6421000060648201526084016103d1565b6002546040516323b872dd60e01b8152336004820152306024820152604481018790526001600160a01b03909116906323b872dd90606401602060405180830381600087803b1580156106de57600080fd5b505af11580156106f2573d6000803e3d6000fd5b505050506040513d601f19601f820116820180604052508101906107169190613881565b6107625760405162461bcd60e51b815260206004820152601c60248201527f5472616e7366657220746f20636f6e7472616374206661696c6564210000000060448201526064016103d1565b600254602082015160608301516001600160a01b03909216916323b872dd9133916107b1906064906107ab906107989083613ec0565b88516107a5908d90612d0b565b90612d0b565b90612d2c565b6040516001600160e01b031960e086901b1681526001600160a01b0393841660048201529290911660248301526044820152606401602060405180830381600087803b15801561080057600080fd5b505af1158015610814573d6000803e3d6000fd5b505050506040513d601f19601f820116820180604052508101906108389190613881565b6108965760405162461bcd60e51b815260206004820152602960248201527f5472616e7366657220746f20746865206f776e6572206f6620626c657373696e60448201526867206661696c65642160b81b60648201526084016103d1565b6002546001600160a01b03166323b872dd336108ba6000546001600160a01b031690565b6108de60646107ab87606001516107a589600001518d612d0b90919063ffffffff16565b6040516001600160e01b031960e086901b1681526001600160a01b0393841660048201529290911660248301526044820152606401602060405180830381600087803b15801561092d57600080fd5b505af1158015610941573d6000803e3d6000fd5b505050506040513d601f19601f820116820180604052508101906109659190613881565b6109b15760405162461bcd60e51b815260206004820181905260248201527f5472616e7366657220746f2074686520636f6e7472616374206661696c65642160448201526064016103d1565b60086000336001600160a01b03166001600160a01b031681526020019081526020016000206040518060e00160405280886001600160a01b03168152602001898152602001428152602001878152602001868152602001856001811115610a2857634e487b7160e01b600052602160045260246000fd5b81526000602091820181905283546001808201865594825290829020835160069092020180546001600160a01b0319166001600160a01b0390921691909117815582820151805193949193610a859392850192919091019061349e565b5060408201516002820155606082015160038201556080820151600482015560a082015160058201805460ff191660018381811115610ad457634e487b7160e01b600052602160045260246000fd5b021790555060c09190910151600590910180549115156101000261ff001990921691909117905560005b8251811015610bc357600b6000886001600160a01b03166001600160a01b031681526020019081526020016000206040518060400160405280858481518110610b5757634e487b7160e01b600052603260045260246000fd5b6020908102919091018101516001600160a01b039081168352600092820183905284546001810186559483529181902083519401805493909101511515600160a01b026001600160a81b0319909316939091169290921717905580610bbb81613f42565b915050610afe565b50604080513381526001600160a01b03881660208201527f9028f7dd664be64a65e420291fdb6b56dec3b01e5433aa9675727b383cf1e5bc910160405180910390a150505050505050565b610c16612d38565b600655565b610c23612d38565b610c2b612d92565b565b610c35612d38565b610c56604051806060016040528060228152602001613fb460229139612c32565b60005b8151811015610ddf576040518060800160405280838381518110610c8d57634e487b7160e01b600052603260045260246000fd5b6020026020010151600001518152602001838381518110610cbe57634e487b7160e01b600052603260045260246000fd5b6020026020010151602001516001600160a01b03168152602001838381518110610cf857634e487b7160e01b600052603260045260246000fd5b60200260200101516040015160ff168152602001838381518110610d2c57634e487b7160e01b600052603260045260246000fd5b6020026020010151606001518152506007848381518110610d5d57634e487b7160e01b600052603260045260246000fd5b6020026020010151604051610d729190613b8b565b9081526040805191829003602090810190922083518155918301516001830180549285015160ff16600160a01b026001600160a81b03199093166001600160a01b039092169190911791909117905560609091015160029091015580610dd781613f42565b915050610c59565b505050565b610e2f6040518060c0016040528060006001600160a01b0316815260200160006001600160a01b03168152602001606081526020016000815260200160008152602001600081525090565b610e37612cbe565b60026001541415610e8a5760405162461bcd60e51b815260206004820152601f60248201527f5265656e7472616e637947756172643a207265656e7472616e742063616c6c0060448201526064016103d1565b6002600181905550610eb5604051806060016040528060318152602001613fd6603191398686612de7565b610ec0838386612e2e565b610f015760405162461bcd60e51b8152602060048201526012602482015271496e76616c6964207369676e69747572652160701b60448201526064016103d1565b610f35604051806040016040528060138152602001727369676e61747572652069732076616c69642160681b815250612c32565b333b15610f965760405162461bcd60e51b815260206004820152602960248201527f596f752063616e206e6f7420636c61696d20626c657373696e672066726f6d20604482015268636f6e74726163742160b81b60648201526084016103d1565b6001600160a01b038516600090815260086020908152604080832080548251818502810185019093528083529192909190849084015b828210156111295760008481526020908190206040805160e081019091526006850290910180546001600160a01b03168252600181018054929391929184019161101590613f07565b80601f016020809104026020016040519081016040528092919081815260200182805461104190613f07565b801561108e5780601f106110635761010080835404028352916020019161108e565b820191906000526020600020905b81548152906001019060200180831161107157829003601f168201915b5050509183525050600282015460208201526003820154604082015260048201546060820152600582015460809091019060ff1660018111156110e157634e487b7160e01b600052602160045260246000fd5b600181111561110057634e487b7160e01b600052602160045260246000fd5b815260059190910154610100900460ff1615156020918201529082526001929092019101610fcc565b50505050905060008151116111505760405162461bcd60e51b81526004016103d190613d03565b611158613522565b60005b82518110156111e657866001600160a01b031683828151811061118e57634e487b7160e01b600052603260045260246000fd5b6020026020010151600001516001600160a01b031614156111d4578281815181106111c957634e487b7160e01b600052603260045260246000fd5b602002602001015191505b806111de81613f42565b91505061115b565b5060c0810151156112395760405162461bcd60e51b815260206004820152601960248201527f5468697320626c657373696e67206973207265766f6b6564210000000000000060448201526064016103d1565b600081606001511161125d5760405162461bcd60e51b81526004016103d190613d03565b6001600160a01b0386166000908152600a6020908152604080832080548251818502810185019093528083529192909190849084015b828210156113045760008481526020908190206040805160c0810182526006860290920180546001600160a01b031683526001808201548486015260028201549284019290925260038101546060840152600481015460808401526005015460a08301529083529092019101611293565b505050509050816080015181511061135e5760405162461bcd60e51b815260206004820152601b60248201527f5468657265206973206e6f206d6f726520626c657373696e677321000000000060448201526064016103d1565b6000805b825181101561145357336001600160a01b031683828151811061139557634e487b7160e01b600052603260045260246000fd5b6020026020010151600001516001600160a01b031614156114085760405162461bcd60e51b815260206004820152602760248201527f596f75206861766520616c726561647920636c61696d6564207468697320626c604482015266657373696e672160c81b60648201526084016103d1565b82818151811061142857634e487b7160e01b600052603260045260246000fd5b6020026020010151604001518261143f9190613e75565b91508061144b81613f42565b915050611362565b506000808460a00151600181111561147b57634e487b7160e01b600052602160045260246000fd5b141561149b576080840151606085015161149491612d2c565b905061153f565b60018460a0015160018111156114c157634e487b7160e01b600052602160045260246000fd5b141561153f5760006114e184518660800151612f9c90919063ffffffff16565b905060006114ef600a612fa8565b905081600114156115105760608601516115099085612f9c565b925061153c565b61153960026107a5600a6107ab856107a5886107ab8c8f60600151612f9c90919063ffffffff16565b92505b50505b60006040518060c001604052808c6001600160a01b031681526020018b6001600160a01b03168152602001866020015181526020014281526020016115996006546103e861158d9190613ec0565b6107a5866103e8612d2c565b81526020016115b96006546107a56103e887612d2c90919063ffffffff16565b905233600090815260096020908152604080832080546001818101835591855293839020855160069095020180546001600160a01b039586166001600160a01b03199182161782558487015192820180549390961692169190911790935583015180519394508493611631926002850192019061349e565b50606082015160038201556080820151600482015560a0909101516005918201555460009061166c906107a585670de0b6b3a7640000612d2c565b90506103e881111561167d57506103e75b600a60008c6001600160a01b03166001600160a01b031681526020019081526020016000206040518060c00160405280336001600160a01b031681526020014281526020018581526020016116e76006546103e86116db9190613ec0565b6107a5886103e8612d2c565b81526020016117076006546107a56103e889612d2c90919063ffffffff16565b815260209081018490528254600180820185556000948552938290208351600692830290910180546001600160a01b0319166001600160a01b0392831617815592840151948301949094556040830151600280840191909155606084015160038401556080840151600484015560a0909301516005909201919091559054905491169063a9059cbb9033906117a2906116db906103e8613ec0565b6040516001600160e01b031960e085901b1681526001600160a01b0390921660048301526024820152604401602060405180830381600087803b1580156117e857600080fd5b505af11580156117fc573d6000803e3d6000fd5b505050506040513d601f19601f820116820180604052508101906118209190613881565b61186c5760405162461bcd60e51b815260206004820152601760248201527f436c61696d2074686520746f6b656e206661696c65642100000000000000000060448201526064016103d1565b6002546001600160a01b031663a9059cbb61188f6000546001600160a01b031690565b6006546118a2906107a5886103e8612d2c565b6040516001600160e01b031960e085901b1681526001600160a01b0390921660048301526024820152604401602060405180830381600087803b1580156118e857600080fd5b505af11580156118fc573d6000803e3d6000fd5b505050506040513d601f19601f820116820180604052508101906119209190613881565b6119625760405162461bcd60e51b815260206004820152601360248201527254616e7366657220746178206661696c65642160681b60448201526064016103d1565b6003546040516370a0823160e01b815230600482015282916001600160a01b0316906370a082319060240160206040518083038186803b1580156119a557600080fd5b505afa1580156119b9573d6000803e3d6000fd5b505050506040513d601f19601f820116820180604052508101906119dd91906139ef565b10611ab45760035460405163a9059cbb60e01b81526001600160a01b038e81166004830152602482018490529091169063a9059cbb90604401602060405180830381600087803b158015611a3057600080fd5b505af1158015611a44573d6000803e3d6000fd5b505050506040513d601f19601f82011682018060405250810190611a689190613881565b611ab45760405162461bcd60e51b815260206004820152601760248201527f617761726420434220746f6b656e73206661696c65642100000000000000000060448201526064016103d1565b600480546020880151604051631e1d900360e31b81526001600160a01b039092169263f0ec801892611aea923392909101613ba7565b602060405180830381600087803b158015611b0457600080fd5b505af1158015611b18573d6000803e3d6000fd5b505050506040513d601f19601f82011682018060405250810190611b3c91906139ef565b50604080516001600160a01b03808f1682528d1660208201527f411a457db9208c2357cddce37558ebfedc401243648449843470687d4e901442910160405180910390a150600180559a9950505050505050505050565b611b9b612d38565b610c2b6000612fdf565b336000908152600860209081526040808320805482518185028101850190935280835260609492939192909184015b82821015611d315760008481526020908190206040805160e081019091526006850290910180546001600160a01b031682526001810180549293919291840191611c1d90613f07565b80601f0160208091040260200160405190810160405280929190818152602001828054611c4990613f07565b8015611c965780601f10611c6b57610100808354040283529160200191611c96565b820191906000526020600020905b815481529060010190602001808311611c7957829003601f168201915b5050509183525050600282015460208201526003820154604082015260048201546060820152600582015460809091019060ff166001811115611ce957634e487b7160e01b600052602160045260246000fd5b6001811115611d0857634e487b7160e01b600052602160045260246000fd5b815260059190910154610100900460ff1615156020918201529082526001929092019101611bd4565b50505050905090565b611d42612d38565b610c2b61302f565b611d52612d38565b600555565b604080516080810182526000808252602082018190529181018290526060810191909152611d83613522565b6001600160a01b0384166000908152600860209081526040808320805482518185028101850190935280835260609493849084015b82821015611f155760008481526020908190206040805160e081019091526006850290910180546001600160a01b031682526001810180549293919291840191611e0190613f07565b80601f0160208091040260200160405190810160405280929190818152602001828054611e2d90613f07565b8015611e7a5780601f10611e4f57610100808354040283529160200191611e7a565b820191906000526020600020905b815481529060010190602001808311611e5d57829003601f168201915b5050509183525050600282015460208201526003820154604082015260048201546060820152600582015460809091019060ff166001811115611ecd57634e487b7160e01b600052602160045260246000fd5b6001811115611eec57634e487b7160e01b600052602160045260246000fd5b815260059190910154610100900460ff1615156020918201529082526001929092019101611db8565b505050509050611f23613522565b60005b8251811015611fb157866001600160a01b0316838281518110611f5957634e487b7160e01b600052603260045260246000fd5b6020026020010151600001516001600160a01b03161415611f9f57828181518110611f9457634e487b7160e01b600052603260045260246000fd5b602002602001015191505b80611fa981613f42565b915050611f26565b506000816060015111611fd65760405162461bcd60e51b81526004016103d190613d03565b6001600160a01b0386166000908152600a6020908152604080832080548251818502810185019093528083529192909190849084015b8282101561207d5760008481526020908190206040805160c0810182526006860290920180546001600160a01b031683526001808201548486015260028201549284019290925260038101546060840152600481015460808401526005015460a0830152908352909201910161200c565b505050509050600782602001516040516120979190613b8b565b90815260408051602092819003830181206080820183528054825260018101546001600160a01b03811694830194909452600160a01b90930460ff169181019190915260029091015460608201529891975095509350505050565b6120fa612cbe565b6001600160a01b0381166000908152600a6020908152604080832080548251818502810185019093528083529192909190849084015b828210156121a15760008481526020908190206040805160c0810182526006860290920180546001600160a01b031683526001808201548486015260028201549284019290925260038101546060840152600481015460808401526005015460a08301529083529092019101612130565b505050509050805160001461221e5760405162461bcd60e51b815260206004820152603c60248201527f596f757220626c657373696e6720697320636c61696d696e67206279206f746860448201527f6572732e2043616e206e6f74207265766f6b6520616e796d6f7265210000000060648201526084016103d1565b33600090815260086020908152604080832080548251818502810185019093528083529192909190849084015b828210156123a85760008481526020908190206040805160e081019091526006850290910180546001600160a01b03168252600181018054929391929184019161229490613f07565b80601f01602080910402602001604051908101604052809291908181526020018280546122c090613f07565b801561230d5780601f106122e25761010080835404028352916020019161230d565b820191906000526020600020905b8154815290600101906020018083116122f057829003601f168201915b5050509183525050600282015460208201526003820154604082015260048201546060820152600582015460809091019060ff16600181111561236057634e487b7160e01b600052602160045260246000fd5b600181111561237f57634e487b7160e01b600052602160045260246000fd5b815260059190910154610100900460ff161515602091820152908252600192909201910161224b565b50505050905060008151116123cf5760405162461bcd60e51b81526004016103d190613d03565b6123d7613522565b6000805b835181101561246957856001600160a01b031684828151811061240e57634e487b7160e01b600052603260045260246000fd5b6020026020010151600001516001600160a01b031614156124575783818151811061244957634e487b7160e01b600052603260045260246000fd5b602002602001015192508091505b8061246181613f42565b9150506123db565b50600082606001511161248e5760405162461bcd60e51b81526004016103d190613d03565b600254606083015160405163a9059cbb60e01b815233600482015260248101919091526001600160a01b039091169063a9059cbb90604401602060405180830381600087803b1580156124e057600080fd5b505af11580156124f4573d6000803e3d6000fd5b505050506040513d601f19601f820116820180604052508101906125189190613881565b6125645760405162461bcd60e51b815260206004820152601f60248201527f5472616e73666572206261636b20746f2073656e646572206661696c6564210060448201526064016103d1565b3360009081526008602052604090208054600191908390811061259757634e487b7160e01b600052603260045260246000fd5b600091825260209182902060056006909202010180549215156101000261ff001990931692909217909155604080513381526001600160a01b038816928101929092527faf0a59ad678f81ba23bb66973fedd52a279df960fc232c3bd4f56faf8d7945fb910160405180910390a15050505050565b604080516080810182526000808252602082018190528183018190526060820152905160079061263d908490613b8b565b90815260408051602092819003830181206080820183528054825260018101546001600160a01b03811694830194909452600160a01b90930460ff1691810191909152600290910154606082015292915050565b6001600160a01b0381166000908152600a60209081526040808320805482518185028101850190935280835260609492939192909184015b8282101561273a5760008481526020908190206040805160c0810182526006860290920180546001600160a01b031683526001808201548486015260028201549284019290925260038101546060840152600481015460808401526005015460a083015290835290920191016126c9565b505050509050919050565b336000908152600960209081526040808320805482518185028101850190935280835260609492939192909184015b82821015611d315760008481526020908190206040805160c0810182526006860290920180546001600160a01b03908116845260018201541693830193909352600283018054929392918401916127ca90613f07565b80601f01602080910402602001604051908101604052809291908181526020018280546127f690613f07565b80156128435780601f1061281857610100808354040283529160200191612843565b820191906000526020600020905b81548152906001019060200180831161282657829003601f168201915b50505050508152602001600382015481526020016004820154815260200160058201548152505081526020019060010190612774565b612881612d38565b612889613072565b6003546040516370a0823160e01b81523060048201526001600160a01b039091169063a9059cbb90839083906370a082319060240160206040518083038186803b1580156128d657600080fd5b505afa1580156128ea573d6000803e3d6000fd5b505050506040513d601f19601f8201168201806040525081019061290e91906139ef565b6040516001600160e01b031960e085901b1681526001600160a01b0390921660048301526024820152604401602060405180830381600087803b15801561295457600080fd5b505af1158015612968573d6000803e3d6000fd5b505050506040513d601f19601f8201168201806040525081019061298c9190613881565b6129ed5760405162461bcd60e51b815260206004820152602c60248201527f5472616e736665722043425420746f206e6578742076657273696f6e2061646460448201526b72657373206661696c65642160a01b60648201526084016103d1565b6002546001600160a01b031663a9059cbb612a106000546001600160a01b031690565b6002546040516370a0823160e01b81523060048201526001600160a01b03909116906370a082319060240160206040518083038186803b158015612a5357600080fd5b505afa158015612a67573d6000803e3d6000fd5b505050506040513d601f19601f82011682018060405250810190612a8b91906139ef565b6040516001600160e01b031960e085901b1681526001600160a01b0390921660048301526024820152604401602060405180830381600087803b158015612ad157600080fd5b505af1158015612ae5573d6000803e3d6000fd5b505050506040513d601f19601f82011682018060405250810190612b099190613881565b612b555760405162461bcd60e51b815260206004820152601e60248201527f5472616e73666572204255534420746f206f776e6572206661696c656421000060448201526064016103d1565b6004805460405163f2fde38b60e01b81526001600160a01b038481169382019390935291169063f2fde38b90602401600060405180830381600087803b158015612b9e57600080fd5b505af1158015612bb2573d6000803e3d6000fd5b5050505050565b612bc1612d38565b6001600160a01b038116612c265760405162461bcd60e51b815260206004820152602660248201527f4f776e61626c653a206e6577206f776e657220697320746865207a65726f206160448201526564647265737360d01b60648201526084016103d1565b612c2f81612fdf565b50565b612c2f81604051602401612c469190613c93565b60408051601f198184030181529190526020810180516001600160e01b031663104c13eb60e21b1790526130c2565b612cba8282604051602401612c8b929190613ca6565b60408051601f198184030181529190526020810180516001600160e01b031663319af33360e01b1790526130c2565b5050565b600054600160a01b900460ff1615610c2b5760405162461bcd60e51b815260206004820152601060248201526f14185d5cd8589b194e881c185d5cd95960821b60448201526064016103d1565b6000612d178284613ea1565b90505b92915050565b6000612d178284613e75565b6000612d178284613e8d565b6000546001600160a01b03163314610c2b5760405162461bcd60e51b815260206004820181905260248201527f4f776e61626c653a2063616c6c6572206973206e6f7420746865206f776e657260448201526064016103d1565b612d9a613072565b6000805460ff60a01b191690557f5db9ee0a495bf2e6ff9c91a7834c1ba4fdd244a5e8aa4e537bd38aeae4b073aa335b6040516001600160a01b03909116815260200160405180910390a1565b610ddf838383604051602401612dff93929190613cd0565b60408051601f198184030181529190526020810180516001600160e01b03166307e763af60e51b1790526130c2565b600080612e3b85856130e3565b905060005b6001600160a01b0384166000908152600b6020526040902054811015612f8e576001600160a01b038481166000908152600b6020526040902080549184169183908110612e9d57634e487b7160e01b600052603260045260246000fd5b6000918252602090912001546001600160a01b0316148015612f0a57506001600160a01b0384166000908152600b60205260409020805482908110612ef257634e487b7160e01b600052603260045260246000fd5b600091825260209091200154600160a01b900460ff16155b15612f7c576001600160a01b0384166000908152600b6020526040902080546001919083908110612f4b57634e487b7160e01b600052603260045260246000fd5b60009182526020909120018054911515600160a01b0260ff60a01b199092169190911790555060019150612f959050565b80612f8681613f42565b915050612e40565b5060009150505b9392505050565b6000612d178284613ec0565b60008082612fb7600143613ec0565b612fc2919040613f5d565b9050801580612fd1575080600a145b15612d1a5750600192915050565b600080546001600160a01b038381166001600160a01b0319831681178455604051919092169283917f8be0079c531659141344cd1fd0a4f28419497f9722a3daafe3b4186f6b6457e09190a35050565b613037612cbe565b6000805460ff60a01b1916600160a01b1790557f62e78cea01bee320cd4e420270b5ea74000d11b0c9f74754ebdbfc544b05a258612dca3390565b600054600160a01b900460ff16610c2b5760405162461bcd60e51b815260206004820152601460248201527314185d5cd8589b194e881b9bdd081c185d5cd95960621b60448201526064016103d1565b80516a636f6e736f6c652e6c6f67602083016000808483855afa5050505050565b60008060006130f28585613107565b915091506130ff81613177565b509392505050565b60008082516041141561313e5760208301516040840151606085015160001a61313287828585613378565b94509450505050613170565b825160401415613168576020830151604084015161315d868383613465565b935093505050613170565b506000905060025b9250929050565b600081600481111561319957634e487b7160e01b600052602160045260246000fd5b14156131a25750565b60018160048111156131c457634e487b7160e01b600052602160045260246000fd5b14156132125760405162461bcd60e51b815260206004820152601860248201527f45434453413a20696e76616c6964207369676e6174757265000000000000000060448201526064016103d1565b600281600481111561323457634e487b7160e01b600052602160045260246000fd5b14156132825760405162461bcd60e51b815260206004820152601f60248201527f45434453413a20696e76616c6964207369676e6174757265206c656e6774680060448201526064016103d1565b60038160048111156132a457634e487b7160e01b600052602160045260246000fd5b14156132fd5760405162461bcd60e51b815260206004820152602260248201527f45434453413a20696e76616c6964207369676e6174757265202773272076616c604482015261756560f01b60648201526084016103d1565b600481600481111561331f57634e487b7160e01b600052602160045260246000fd5b1415612c2f5760405162461bcd60e51b815260206004820152602260248201527f45434453413a20696e76616c6964207369676e6174757265202776272076616c604482015261756560f01b60648201526084016103d1565b6000807f7fffffffffffffffffffffffffffffff5d576e7357a4501ddfe92f46681b20a08311156133af575060009050600361345c565b8460ff16601b141580156133c757508460ff16601c14155b156133d8575060009050600461345c565b6040805160008082526020820180845289905260ff881692820192909252606081018690526080810185905260019060a0016020604051602081039080840390855afa15801561342c573d6000803e3d6000fd5b5050604051601f1901519150506001600160a01b0381166134555760006001925092505061345c565b9150600090505b94509492505050565b6000806001600160ff1b0383168161348260ff86901c601b613e75565b905061349087828885613378565b935093505050935093915050565b8280546134aa90613f07565b90600052602060002090601f0160209004810192826134cc5760008555613512565b82601f106134e557805160ff1916838001178555613512565b82800160010185558215613512579182015b828111156135125782518255916020019190600101906134f7565b5061351e929150613587565b5090565b6040518060e0016040528060006001600160a01b03168152602001606081526020016000815260200160008152602001600081526020016000600181111561357a57634e487b7160e01b600052602160045260246000fd5b8152600060209091015290565b5b8082111561351e5760008155600101613588565b600067ffffffffffffffff8311156135b6576135b6613f9d565b6135c9601f8401601f1916602001613e20565b90508281528383830111156135dd57600080fd5b828260208301376000602084830101529392505050565b80356001600160a01b038116811461360b57600080fd5b919050565b600082601f830112613620578081fd5b8135602061363561363083613e51565b613e20565b80838252828201915082860187848660071b8901011115613654578586fd5b855b858110156136bd57608080838b03121561366e578788fd5b613676613df7565b833581526136858785016135f4565b8782015260408085013560ff8116811461369d578a8bfd5b908201526060848101359082015285529385019390910190600101613656565b5090979650505050505050565b600082601f8301126136da578081fd5b612d178383356020850161359c565b6000602082840312156136fa578081fd5b612d17826135f4565b60008060408385031215613715578081fd5b61371e836135f4565b915061372c602084016135f4565b90509250929050565b6000806000806080858703121561374a578182fd5b613753856135f4565b9350613761602086016135f4565b925060408501359150606085013567ffffffffffffffff811115613783578182fd5b8501601f81018713613793578182fd5b6137a28782356020840161359c565b91505092959194509250565b600080604083850312156137c0578182fd5b823567ffffffffffffffff808211156137d7578384fd5b818501915085601f8301126137ea578384fd5b813560206137fa61363083613e51565b8083825282820191508286018a848660051b8901011115613819578889fd5b885b8581101561385257813587811115613831578a8bfd5b61383f8d87838c01016136ca565b855250928401929084019060010161381b565b5090975050508601359250508082111561386a578283fd5b5061387785828601613610565b9150509250929050565b600060208284031215613892578081fd5b81518015158114612f95578182fd5b6000602082840312156138b2578081fd5b813567ffffffffffffffff8111156138c8578182fd5b6138d4848285016136ca565b949350505050565b60008060008060008060c087890312156138f4578384fd5b863567ffffffffffffffff8082111561390b578586fd5b6139178a838b016136ca565b975060209150613928828a016135f4565b96506040890135955060608901359450608089013560028110613949578485fd5b935060a08901358181111561395c578384fd5b89019050601f81018a1361396e578283fd5b803561397c61363082613e51565b8082825284820191508484018d868560051b870101111561399b578687fd5b8694505b838510156139c4576139b0816135f4565b83526001949094019391850191850161399f565b5080955050505050509295509295509295565b6000602082840312156139e8578081fd5b5035919050565b600060208284031215613a00578081fd5b5051919050565b6000815180845260208085019450808401835b83811015613a7357815180516001600160a01b03168852838101518489015260408082015190890152606080820151908901526080808201519089015260a0908101519088015260c09096019590820190600101613a1a565b509495945050505050565b60008151808452613a96816020860160208601613ed7565b601f01601f19169290920160200192915050565b600060018060a01b0380835116845280602084015116602085015250604082015160c06040850152613adf60c0850182613a7e565b9050606083015160608501526080830151608085015260a083015160a08501528091505092915050565b60018060a01b0381511682526000602082015160e06020850152613b3060e0850182613a7e565b905060408301516040850152606083015160608501526080830151608085015260a083015160028110613b7157634e487b7160e01b83526021600452602483fd5b8060a08601525060c08301516130ff60c086018215159052565b60008251613b9d818460208701613ed7565b9190910192915050565b6001600160a01b03831681526040602082018190526000906138d490830184613a7e565b602081526000612d176020830184613a07565b6000602080830181845280855180835260408601915060408160051b8701019250838701855b82811015613c3257603f19888603018452613c20858351613aaa565b94509285019290850190600101613c04565b5092979650505050505050565b6000602080830181845280855180835260408601915060408160051b8701019250838701855b82811015613c3257603f19888603018452613c81858351613b09565b94509285019290850190600101613c65565b602081526000612d176020830184613a7e565b604081526000613cb96040830185613a7e565b905060018060a01b03831660208301529392505050565b606081526000613ce36060830186613a7e565b6001600160a01b0394851660208401529290931660409091015292915050565b6020808252602a908201527f5468657265206973206e6f20626c657373696e6720666f756e64206f6e20746860408201526969732073656e6465722160b01b606082015260800190565b815181526020808301516001600160a01b03169082015260408083015160ff16908201526060808301519082015260808101612d1a565b835181526020808501516001600160a01b03169082015260408085015160ff16908201526060808501519082015260c060808201526000613dc860c0830185613b09565b82810360a0840152613dda8185613a07565b9695505050505050565b602081526000612d176020830184613aaa565b6040516080810167ffffffffffffffff81118282101715613e1a57613e1a613f9d565b60405290565b604051601f8201601f1916810167ffffffffffffffff81118282101715613e4957613e49613f9d565b604052919050565b600067ffffffffffffffff821115613e6b57613e6b613f9d565b5060051b60200190565b60008219821115613e8857613e88613f71565b500190565b600082613e9c57613e9c613f87565b500490565b6000816000190483118215151615613ebb57613ebb613f71565b500290565b600082821015613ed257613ed2613f71565b500390565b60005b83811015613ef2578181015183820152602001613eda565b83811115613f01576000848401525b50505050565b600181811c90821680613f1b57607f821691505b60208210811415613f3c57634e487b7160e01b600052602260045260246000fd5b50919050565b6000600019821415613f5657613f56613f71565b5060010190565b600082613f6c57613f6c613f87565b500690565b634e487b7160e01b600052601160045260246000fd5b634e487b7160e01b600052601260045260246000fd5b634e487b7160e01b600052604160045260246000fdfe737461727420746f2061646420626c657373696e6720746f2074686520706f6f6c21737461727420746f20636c61696d20626c657373696e67212073656e6465723a25732c20626c657373696e6749443a2573a2646970667358221220ebd545bae5938eb9f4686e349f690eeca91881110f0d186e00ce0fec7efa6d7c64736f6c63430008040033426c657373696e6720697320746865206d6f737420756e6976657273616c2068756d616e2065787072657373696f6e206f6620656d6f74696f6e2c20616e6420776520617265204e4654697a696e6720697421",
  "linkReferences": {},
  "deployedLinkReferences": {}
}