{
  "_format": "hh-sol-artifact-1",
  "contractName": "CryptoBlessing",
  "sourceName": "contracts/CryptoBlessing.sol",
  "abi": [
    {
      "inputs": [
        {
          "internalType": "address",
          "name": "_sendTokenAddress",
          "type": "address"
        },
        {
          "internalType": "address",
          "name": "_cryptoBlessingTokenAddress",
          "type": "address"
        },
        {
          "internalType": "address",
          "name": "_cryptoBlessingNFTAddress",
          "type": "address"
        }
      ],
      "stateMutability": "payable",
      "type": "constructor"
    },
    {
      "anonymous": false,
      "inputs": [
        {
          "indexed": true,
          "internalType": "address",
          "name": "previousOwner",
          "type": "address"
        },
        {
          "indexed": true,
          "internalType": "address",
          "name": "newOwner",
          "type": "address"
        }
      ],
      "name": "OwnershipTransferred",
      "type": "event"
    },
    {
      "anonymous": false,
      "inputs": [
        {
          "indexed": false,
          "internalType": "address",
          "name": "account",
          "type": "address"
        }
      ],
      "name": "Paused",
      "type": "event"
    },
    {
      "anonymous": false,
      "inputs": [
        {
          "indexed": false,
          "internalType": "address",
          "name": "account",
          "type": "address"
        }
      ],
      "name": "Unpaused",
      "type": "event"
    },
    {
      "anonymous": false,
      "inputs": [
        {
          "indexed": false,
          "internalType": "address",
          "name": "sender",
          "type": "address"
        },
        {
          "indexed": false,
          "internalType": "address",
          "name": "blessingID",
          "type": "address"
        }
      ],
      "name": "claimerClaimComplete",
      "type": "event"
    },
    {
      "anonymous": false,
      "inputs": [
        {
          "indexed": false,
          "internalType": "address",
          "name": "sender",
          "type": "address"
        },
        {
          "indexed": false,
          "internalType": "address",
          "name": "blessingID",
          "type": "address"
        }
      ],
      "name": "senderRevokeComplete",
      "type": "event"
    },
    {
      "anonymous": false,
      "inputs": [
        {
          "indexed": false,
          "internalType": "address",
          "name": "sender",
          "type": "address"
        },
        {
          "indexed": false,
          "internalType": "address",
          "name": "blessingID",
          "type": "address"
        }
      ],
      "name": "senderSendCompleted",
      "type": "event"
    },
    {
      "inputs": [
        {
          "internalType": "string",
          "name": "image",
          "type": "string"
        },
        {
          "internalType": "address",
          "name": "blessingOwner",
          "type": "address"
        },
        {
          "internalType": "string",
          "name": "description",
          "type": "string"
        },
        {
          "internalType": "uint256",
          "name": "price",
          "type": "uint256"
        },
        {
          "internalType": "uint8",
          "name": "blessingType",
          "type": "uint8"
        },
        {
          "internalType": "uint256",
          "name": "taxRate",
          "type": "uint256"
        }
      ],
      "name": "addBlessing",
      "outputs": [],
      "stateMutability": "nonpayable",
      "type": "function"
    },
    {
      "inputs": [
        {
          "internalType": "uint256",
          "name": "",
          "type": "uint256"
        }
      ],
      "name": "blessingList",
      "outputs": [
        {
          "internalType": "string",
          "name": "image",
          "type": "string"
        },
        {
          "internalType": "string",
          "name": "description",
          "type": "string"
        },
        {
          "internalType": "uint256",
          "name": "price",
          "type": "uint256"
        },
        {
          "internalType": "address",
          "name": "owner",
          "type": "address"
        },
        {
          "internalType": "uint8",
          "name": "blessingType",
          "type": "uint8"
        },
        {
          "internalType": "uint256",
          "name": "timestamp",
          "type": "uint256"
        },
        {
          "internalType": "uint8",
          "name": "deleted",
          "type": "uint8"
        },
        {
          "internalType": "uint256",
          "name": "taxRate",
          "type": "uint256"
        }
      ],
      "stateMutability": "view",
      "type": "function"
    },
    {
      "inputs": [
        {
          "internalType": "address",
          "name": "sender",
          "type": "address"
        },
        {
          "internalType": "address",
          "name": "blessingID",
          "type": "address"
        },
        {
          "internalType": "bytes32",
          "name": "hash",
          "type": "bytes32"
        },
        {
          "internalType": "bytes",
          "name": "signature",
          "type": "bytes"
        }
      ],
      "name": "claimBlessing",
      "outputs": [
        {
          "components": [
            {
              "internalType": "address",
              "name": "sender",
              "type": "address"
            },
            {
              "internalType": "address",
              "name": "blessingID",
              "type": "address"
            },
            {
              "internalType": "string",
              "name": "blessingImage",
              "type": "string"
            },
            {
              "internalType": "uint256",
              "name": "claimTimestamp",
              "type": "uint256"
            },
            {
              "internalType": "uint256",
              "name": "claimAmount",
              "type": "uint256"
            },
            {
              "internalType": "uint256",
              "name": "taxAmount",
              "type": "uint256"
            }
          ],
          "internalType": "struct CryptoBlessing.ClaimerBlessing",
          "name": "",
          "type": "tuple"
        }
      ],
      "stateMutability": "payable",
      "type": "function"
    },
    {
      "inputs": [],
      "name": "getAllBlessings",
      "outputs": [
        {
          "components": [
            {
              "internalType": "string",
              "name": "image",
              "type": "string"
            },
            {
              "internalType": "string",
              "name": "description",
              "type": "string"
            },
            {
              "internalType": "uint256",
              "name": "price",
              "type": "uint256"
            },
            {
              "internalType": "address",
              "name": "owner",
              "type": "address"
            },
            {
              "internalType": "uint8",
              "name": "blessingType",
              "type": "uint8"
            },
            {
              "internalType": "uint256",
              "name": "timestamp",
              "type": "uint256"
            },
            {
              "internalType": "uint8",
              "name": "deleted",
              "type": "uint8"
            },
            {
              "internalType": "uint256",
              "name": "taxRate",
              "type": "uint256"
            }
          ],
          "internalType": "struct CryptoBlessing.Blessing[]",
          "name": "",
          "type": "tuple[]"
        }
      ],
      "stateMutability": "view",
      "type": "function"
    },
    {
      "inputs": [
        {
          "internalType": "address",
          "name": "sender",
          "type": "address"
        },
        {
          "internalType": "address",
          "name": "blessingID",
          "type": "address"
        }
      ],
      "name": "getAllInfoOfBlessing",
      "outputs": [
        {
          "components": [
            {
              "internalType": "string",
              "name": "image",
              "type": "string"
            },
            {
              "internalType": "string",
              "name": "description",
              "type": "string"
            },
            {
              "internalType": "uint256",
              "name": "price",
              "type": "uint256"
            },
            {
              "internalType": "address",
              "name": "owner",
              "type": "address"
            },
            {
              "internalType": "uint8",
              "name": "blessingType",
              "type": "uint8"
            },
            {
              "internalType": "uint256",
              "name": "timestamp",
              "type": "uint256"
            },
            {
              "internalType": "uint8",
              "name": "deleted",
              "type": "uint8"
            },
            {
              "internalType": "uint256",
              "name": "taxRate",
              "type": "uint256"
            }
          ],
          "internalType": "struct CryptoBlessing.Blessing",
          "name": "",
          "type": "tuple"
        },
        {
          "components": [
            {
              "internalType": "address",
              "name": "blessingID",
              "type": "address"
            },
            {
              "internalType": "string",
              "name": "blessingImage",
              "type": "string"
            },
            {
              "internalType": "uint256",
              "name": "sendTimestamp",
              "type": "uint256"
            },
            {
              "internalType": "uint256",
              "name": "tokenAmount",
              "type": "uint256"
            },
            {
              "internalType": "uint256",
              "name": "claimQuantity",
              "type": "uint256"
            },
            {
              "internalType": "enum CryptoBlessing.ClaimType",
              "name": "claimType",
              "type": "uint8"
            },
            {
              "internalType": "bool",
              "name": "revoked",
              "type": "bool"
            }
          ],
          "internalType": "struct CryptoBlessing.SenderBlessing",
          "name": "",
          "type": "tuple"
        },
        {
          "components": [
            {
              "internalType": "address",
              "name": "claimer",
              "type": "address"
            },
            {
              "internalType": "uint256",
              "name": "claimTimestamp",
              "type": "uint256"
            },
            {
              "internalType": "uint256",
              "name": "distributedAmount",
              "type": "uint256"
            },
            {
              "internalType": "uint256",
              "name": "claimAmount",
              "type": "uint256"
            },
            {
              "internalType": "uint256",
              "name": "taxAmount",
              "type": "uint256"
            },
            {
              "internalType": "uint256",
              "name": "CBTokenAwardToSenderAmount",
              "type": "uint256"
            }
          ],
          "internalType": "struct CryptoBlessing.BlessingClaimStatus[]",
          "name": "",
          "type": "tuple[]"
        }
      ],
      "stateMutability": "view",
      "type": "function"
    },
    {
      "inputs": [
        {
          "internalType": "address",
          "name": "_blessingID",
          "type": "address"
        }
      ],
      "name": "getBlessingClaimingStatus",
      "outputs": [
        {
          "components": [
            {
              "internalType": "address",
              "name": "claimer",
              "type": "address"
            },
            {
              "internalType": "uint256",
              "name": "claimTimestamp",
              "type": "uint256"
            },
            {
              "internalType": "uint256",
              "name": "distributedAmount",
              "type": "uint256"
            },
            {
              "internalType": "uint256",
              "name": "claimAmount",
              "type": "uint256"
            },
            {
              "internalType": "uint256",
              "name": "taxAmount",
              "type": "uint256"
            },
            {
              "internalType": "uint256",
              "name": "CBTokenAwardToSenderAmount",
              "type": "uint256"
            }
          ],
          "internalType": "struct CryptoBlessing.BlessingClaimStatus[]",
          "name": "",
          "type": "tuple[]"
        }
      ],
      "stateMutability": "view",
      "type": "function"
    },
    {
      "inputs": [],
      "name": "getMyClaimedBlessings",
      "outputs": [
        {
          "components": [
            {
              "internalType": "address",
              "name": "sender",
              "type": "address"
            },
            {
              "internalType": "address",
              "name": "blessingID",
              "type": "address"
            },
            {
              "internalType": "string",
              "name": "blessingImage",
              "type": "string"
            },
            {
              "internalType": "uint256",
              "name": "claimTimestamp",
              "type": "uint256"
            },
            {
              "internalType": "uint256",
              "name": "claimAmount",
              "type": "uint256"
            },
            {
              "internalType": "uint256",
              "name": "taxAmount",
              "type": "uint256"
            }
          ],
          "internalType": "struct CryptoBlessing.ClaimerBlessing[]",
          "name": "",
          "type": "tuple[]"
        }
      ],
      "stateMutability": "view",
      "type": "function"
    },
    {
      "inputs": [],
      "name": "getMySendedBlessings",
      "outputs": [
        {
          "components": [
            {
              "internalType": "address",
              "name": "blessingID",
              "type": "address"
            },
            {
              "internalType": "string",
              "name": "blessingImage",
              "type": "string"
            },
            {
              "internalType": "uint256",
              "name": "sendTimestamp",
              "type": "uint256"
            },
            {
              "internalType": "uint256",
              "name": "tokenAmount",
              "type": "uint256"
            },
            {
              "internalType": "uint256",
              "name": "claimQuantity",
              "type": "uint256"
            },
            {
              "internalType": "enum CryptoBlessing.ClaimType",
              "name": "claimType",
              "type": "uint8"
            },
            {
              "internalType": "bool",
              "name": "revoked",
              "type": "bool"
            }
          ],
          "internalType": "struct CryptoBlessing.SenderBlessing[]",
          "name": "",
          "type": "tuple[]"
        }
      ],
      "stateMutability": "view",
      "type": "function"
    },
    {
      "inputs": [],
      "name": "owner",
      "outputs": [
        {
          "internalType": "address",
          "name": "",
          "type": "address"
        }
      ],
      "stateMutability": "view",
      "type": "function"
    },
    {
      "inputs": [],
      "name": "pause",
      "outputs": [],
      "stateMutability": "nonpayable",
      "type": "function"
    },
    {
      "inputs": [],
      "name": "paused",
      "outputs": [
        {
          "internalType": "bool",
          "name": "",
          "type": "bool"
        }
      ],
      "stateMutability": "view",
      "type": "function"
    },
    {
      "inputs": [],
      "name": "renounceOwnership",
      "outputs": [],
      "stateMutability": "nonpayable",
      "type": "function"
    },
    {
      "inputs": [
        {
          "internalType": "address",
          "name": "blessingID",
          "type": "address"
        }
      ],
      "name": "revokeBlessing",
      "outputs": [],
      "stateMutability": "nonpayable",
      "type": "function"
    },
    {
      "inputs": [
        {
          "internalType": "string",
          "name": "image",
          "type": "string"
        },
        {
          "internalType": "address",
          "name": "blessingID",
          "type": "address"
        },
        {
          "internalType": "uint256",
          "name": "tokenAmount",
          "type": "uint256"
        },
        {
          "internalType": "uint256",
          "name": "claimQuantity",
          "type": "uint256"
        },
        {
          "internalType": "enum CryptoBlessing.ClaimType",
          "name": "claimType",
          "type": "uint8"
        }
      ],
      "name": "sendBlessing",
      "outputs": [],
      "stateMutability": "nonpayable",
      "type": "function"
    },
    {
      "inputs": [
        {
          "internalType": "uint256",
          "name": "_CBTOKENAWARDRATIO",
          "type": "uint256"
        }
      ],
      "name": "setCBTOKENAWARDRATIO",
      "outputs": [],
      "stateMutability": "nonpayable",
      "type": "function"
    },
    {
      "inputs": [
        {
          "internalType": "uint256",
          "name": "_CLAIM_TAX_RATE",
          "type": "uint256"
        }
      ],
      "name": "setCLAIM_TAX_RATE",
      "outputs": [],
      "stateMutability": "nonpayable",
      "type": "function"
    },
    {
      "inputs": [
        {
          "internalType": "address",
          "name": "newOwner",
          "type": "address"
        }
      ],
      "name": "transferOwnership",
      "outputs": [],
      "stateMutability": "nonpayable",
      "type": "function"
    },
    {
      "inputs": [],
      "name": "unpause",
      "outputs": [],
      "stateMutability": "nonpayable",
      "type": "function"
    },
    {
      "inputs": [
        {
          "internalType": "string",
          "name": "image",
          "type": "string"
        },
        {
          "internalType": "uint256",
          "name": "price",
          "type": "uint256"
        },
        {
          "internalType": "uint8",
          "name": "deleted",
          "type": "uint8"
        },
        {
          "internalType": "uint256",
          "name": "taxRate",
          "type": "uint256"
        }
      ],
      "name": "updateBlessing",
      "outputs": [],
      "stateMutability": "nonpayable",
      "type": "function"
    },
    {
      "inputs": [
        {
          "internalType": "address",
          "name": "v2ContractAddress",
          "type": "address"
        }
      ],
      "name": "upgradeToV2",
      "outputs": [],
      "stateMutability": "nonpayable",
      "type": "function"
    }
  ],
  "bytecode": "0x60806040526005600455600a60055560405162004a9138038062004a91833981016040819052620000309162000275565b6200003b3362000148565b6000805460ff60a01b191690556040805160808101909152605380825262000078919062004a3e60208301396200019860201b620032d51760201c565b620000c46040518060400160405280601481526020017f73656e64546f6b656e416464726573733a20257300000000000000000000000081525084620001e660201b620033181760201c565b62000105604051806040016040528060128152602001714342546f6b656e416464726573733a20257360701b81525083620001e660201b620033181760201c565b600180546001600160a01b039485166001600160a01b03199182161790915560028054938516938216939093179092556003805491909316911617905562000354565b600080546001600160a01b038381166001600160a01b0319831681178455604051919092169283917f8be0079c531659141344cd1fd0a4f28419497f9722a3daafe3b4186f6b6457e09190a35050565b620001e381604051602401620001af91906200030c565b60408051601f198184030181529190526020810180516001600160e01b0390811663104c13eb60e21b179091526200023716565b50565b620002338282604051602401620001ff92919062000328565b60408051601f198184030181529190526020810180516001600160e01b0390811663319af33360e01b179091526200023716565b5050565b80516a636f6e736f6c652e6c6f67602083016000808483855afa5050505050565b80516001600160a01b03811681146200027057600080fd5b919050565b6000806000606084860312156200028a578283fd5b620002958462000258565b9250620002a56020850162000258565b9150620002b56040850162000258565b90509250925092565b60008151808452815b81811015620002e557602081850181015186830182015201620002c7565b81811115620002f75782602083870101525b50601f01601f19169290920160200192915050565b602081526000620003216020830184620002be565b9392505050565b6040815260006200033d6040830185620002be565b905060018060a01b03831660208301529392505050565b6146da80620003646000396000f3fe60806040526004361061011f5760003560e01c80638da5cb5b116100a0578063d9c3e24311610064578063d9c3e24314610327578063dd03ff8f14610347578063e648721814610374578063f2fde38b14610396578063ffe8ea96146103b657600080fd5b80638da5cb5b1461026e578063aa387cfa14610296578063bcbb8e30146102b6578063bcc5f88a146102d8578063c4cf21e8146102f857600080fd5b80637054a2df116100e75780637054a2df146101e2578063715018a61461020257806373fcd996146102175780637c36b25b146102395780638456cb591461025957600080fd5b806305d73818146101245780631d4249791461016157806323c56329146101835780633f4ba83a146101a35780635c975abb146101b8575b600080fd5b34801561013057600080fd5b5061014461013f366004613f2f565b6103d6565b6040516101589897969594939291906143b5565b60405180910390f35b34801561016d57600080fd5b5061018161017c366004613dc7565b610554565b005b34801561018f57600080fd5b5061018161019e366004613f2f565b61069c565b3480156101af57600080fd5b506101816106a9565b3480156101c457600080fd5b50600054600160a01b900460ff166040519015158152602001610158565b6101f56101f0366004613d2e565b6106bb565b60405161015891906144cd565b34801561020e57600080fd5b506101816113b8565b34801561022357600080fd5b5061022c6113ca565b6040516101589190614285565b34801561024557600080fd5b50610181610254366004613e5b565b61155f565b34801561026557600080fd5b50610181611fe9565b34801561027a57600080fd5b506000546040516001600160a01b039091168152602001610158565b3480156102a257600080fd5b506101816102b1366004613f2f565b611ff9565b3480156102c257600080fd5b506102cb612006565b60405161015891906141d0565b3480156102e457600080fd5b506101816102f3366004613ed2565b6121d5565b34801561030457600080fd5b50610318610313366004613cfc565b6123bd565b6040516101589392919061448a565b34801561033357600080fd5b50610181610342366004613ce2565b612995565b34801561035357600080fd5b50610367610362366004613ce2565b612eaf565b60405161015891906141bd565b34801561038057600080fd5b50610389612f63565b6040516101589190614231565b3480156103a257600080fd5b506101816103b1366004613ce2565b613097565b3480156103c257600080fd5b506101816103d1366004613ce2565b613110565b600981815481106103e657600080fd5b906000526020600020906007020160009150905080600001805461040990614542565b80601f016020809104026020016040519081016040528092919081815260200182805461043590614542565b80156104825780601f1061045757610100808354040283529160200191610482565b820191906000526020600020905b81548152906001019060200180831161046557829003601f168201915b50505050509080600101805461049790614542565b80601f01602080910402602001604051908101604052809291908181526020018280546104c390614542565b80156105105780601f106104e557610100808354040283529160200191610510565b820191906000526020600020905b8154815290600101906020018083116104f357829003601f168201915b5050506002840154600385015460048601546005870154600690970154959692956001600160a01b038316955060ff600160a01b9093048316945090929091169088565b61055c613361565b61057d60405180606001604052806022815260200161461e602291396132d5565b604080516101008101825287815260208082018790529181018590526001600160a01b038716606082015260ff841660808201524260a0820152600060c0820181905260e0820184905260098054600181018255915281518051929360079092027f6e1540171b6c0c960b71a7020d9f60077f6af931a8bbf590da0223dacf75c7af019261060e9284920190613ace565b5060208281015180516106279260018501920190613ace565b5060408201516002820155606082015160038201805460808501516001600160a01b039093166001600160a81b031990911617600160a01b60ff9384160217905560a0830151600483015560c083015160058301805460ff19169190921617905560e090910151600690910155505050505050565b6106a4613361565b600555565b6106b1613361565b6106b96133bb565b565b6107066040518060c0016040528060006001600160a01b0316815260200160006001600160a01b03168152602001606081526020016000815260200160008152602001600081525090565b61070e613410565b61073160405180606001604052806031815260200161467460319139868661345d565b61073c8383866134a9565b6107825760405162461bcd60e51b8152602060048201526012602482015271496e76616c6964207369676e69747572652160701b60448201526064015b60405180910390fd5b6107b6604051806040016040528060138152602001727369676e61747572652069732076616c69642160681b8152506132d5565b6001600160a01b038516600090815260066020908152604080832080548251818502810185019093528083529192909190849084015b828210156109495760008481526020908190206040805160e081019091526006850290910180546001600160a01b03168252600181018054929391929184019161083590614542565b80601f016020809104026020016040519081016040528092919081815260200182805461086190614542565b80156108ae5780601f10610883576101008083540402835291602001916108ae565b820191906000526020600020905b81548152906001019060200180831161089157829003601f168201915b5050509183525050600282015460208201526003820154604082015260048201546060820152600582015460809091019060ff16600181111561090157634e487b7160e01b600052602160045260246000fd5b600181111561092057634e487b7160e01b600052602160045260246000fd5b815260059190910154610100900460ff16151560209182015290825260019290920191016107ec565b50505050905060008151116109705760405162461bcd60e51b815260040161077990614440565b610978613b52565b60005b8251811015610a0657866001600160a01b03168382815181106109ae57634e487b7160e01b600052603260045260246000fd5b6020026020010151600001516001600160a01b031614156109f4578281815181106109e957634e487b7160e01b600052603260045260246000fd5b602002602001015191505b806109fe8161457d565b91505061097b565b5060c081015115610a595760405162461bcd60e51b815260206004820152601960248201527f5468697320626c657373696e67206973207265766f6b656421000000000000006044820152606401610779565b6000816060015111610a7d5760405162461bcd60e51b815260040161077990614440565b6001600160a01b038616600090815260086020908152604080832080548251818502810185019093528083529192909190849084015b82821015610b245760008481526020908190206040805160c0810182526006860290920180546001600160a01b031683526001808201548486015260028201549284019290925260038101546060840152600481015460808401526005015460a08301529083529092019101610ab3565b5050505090508160800151815110610b7e5760405162461bcd60e51b815260206004820152601b60248201527f5468657265206973206e6f206d6f726520626c657373696e67732100000000006044820152606401610779565b6000805b8251811015610c7357336001600160a01b0316838281518110610bb557634e487b7160e01b600052603260045260246000fd5b6020026020010151600001516001600160a01b03161415610c285760405162461bcd60e51b815260206004820152602760248201527f596f75206861766520616c726561647920636c61696d6564207468697320626c604482015266657373696e672160c81b6064820152608401610779565b828181518110610c4857634e487b7160e01b600052603260045260246000fd5b60200260200101516040015182610c5f91906144e0565b915080610c6b8161457d565b915050610b82565b506000808460a001516001811115610c9b57634e487b7160e01b600052602160045260246000fd5b1415610cbb5760808401516060850151610cb4916134cf565b9050610d6b565b60018460a001516001811115610ce157634e487b7160e01b600052602160045260246000fd5b1415610d6b576000610d01845186608001516134e290919063ffffffff16565b90506000610d0f600a6134ee565b90508160011415610d30576060860151610d2990856134e2565b9250610d68565b610d656002610d5f600a610d5985610d5f88610d598c8f606001516134e290919063ffffffff16565b906134cf565b90613526565b92505b50505b60006040518060c001604052808c6001600160a01b031681526020018b6001600160a01b0316815260200186602001518152602001428152602001610dc56005546103e8610db9919061452b565b610d5f866103e86134cf565b8152602001610de5600554610d5f6103e8876134cf90919063ffffffff16565b905233600090815260076020908152604080832080546001818101835591855293839020855160069095020180546001600160a01b039586166001600160a01b03199182161782558487015192820180549390961692169190911790935583015180519394508493610e5d9260028501920190613ace565b50606082015181600301556080820151816004015560a0820151816005015550506000610ea1600454610d5f670de0b6b3a7640000866134cf90919063ffffffff16565b90506103e8811115610eb257506103e75b600860008c6001600160a01b03166001600160a01b031681526020019081526020016000206040518060c00160405280336001600160a01b03168152602001428152602001858152602001610f1c6005546103e8610f10919061452b565b610d5f886103e86134cf565b8152602001610f3c600554610d5f6103e8896134cf90919063ffffffff16565b81526020908101849052825460018082018555600094855293829020835160069092020180546001600160a01b0319166001600160a01b03928316178155918301518285015560408301516002830155606083015160038301556080830151600483015560a0909201516005918201559154915491169063a9059cbb903390610fcb90610f10906103e861452b565b6040516001600160e01b031960e085901b1681526001600160a01b0390921660048301526024820152604401602060405180830381600087803b15801561101157600080fd5b505af1158015611025573d6000803e3d6000fd5b505050506040513d601f19601f820116820180604052508101906110499190613da7565b6110955760405162461bcd60e51b815260206004820152601760248201527f436c61696d2074686520746f6b656e206661696c6564210000000000000000006044820152606401610779565b6001546001600160a01b031663a9059cbb6110b86000546001600160a01b031690565b6005546110cb90610d5f886103e86134cf565b6040516001600160e01b031960e085901b1681526001600160a01b0390921660048301526024820152604401602060405180830381600087803b15801561111157600080fd5b505af1158015611125573d6000803e3d6000fd5b505050506040513d601f19601f820116820180604052508101906111499190613da7565b61118b5760405162461bcd60e51b815260206004820152601360248201527254616e7366657220746178206661696c65642160681b6044820152606401610779565b6002546040516370a0823160e01b815230600482015282916001600160a01b0316906370a082319060240160206040518083038186803b1580156111ce57600080fd5b505afa1580156111e2573d6000803e3d6000fd5b505050506040513d601f19601f820116820180604052508101906112069190613f47565b106112dd5760025460405163a9059cbb60e01b81526001600160a01b038e81166004830152602482018490529091169063a9059cbb90604401602060405180830381600087803b15801561125957600080fd5b505af115801561126d573d6000803e3d6000fd5b505050506040513d601f19601f820116820180604052508101906112919190613da7565b6112dd5760405162461bcd60e51b815260206004820152601760248201527f617761726420434220746f6b656e73206661696c6564210000000000000000006044820152606401610779565b6003546020870151604051631e1d900360e31b81526001600160a01b039092169163f0ec80189161131391339190600401614191565b602060405180830381600087803b15801561132d57600080fd5b505af1158015611341573d6000803e3d6000fd5b505050506040513d601f19601f820116820180604052508101906113659190613f47565b50604080516001600160a01b03808f1682528d1660208201527f411a457db9208c2357cddce37558ebfedc401243648449843470687d4e901442910160405180910390a1509a9950505050505050505050565b6113c0613361565b6106b96000613532565b336000908152600660209081526040808320805482518185028101850190935280835260609492939192909184015b828210156115565760008481526020908190206040805160e081019091526006850290910180546001600160a01b03168252600181018054929391929184019161144290614542565b80601f016020809104026020016040519081016040528092919081815260200182805461146e90614542565b80156114bb5780601f10611490576101008083540402835291602001916114bb565b820191906000526020600020905b81548152906001019060200180831161149e57829003601f168201915b5050509183525050600282015460208201526003820154604082015260048201546060820152600582015460809091019060ff16600181111561150e57634e487b7160e01b600052602160045260246000fd5b600181111561152d57634e487b7160e01b600052602160045260246000fd5b815260059190910154610100900460ff16151560209182015290825260019290920191016113f9565b50505050905090565b611567613410565b61158a6040518060600160405280602f81526020016145ef602f91398686613582565b6115bb6040518060400160405280600f81526020016e746f6b656e416d6f756e743a20257360881b815250846135c9565b6115ee60405180604001604052806011815260200170636c61696d5175616e746974793a20257360781b815250836135c9565b61163c6040518060400160405280600d81526020016c636c61696d547970653a20257360981b81525082600181111561163757634e487b7160e01b600052602160045260246000fd5b6135c9565b826000106116975760405162461bcd60e51b815260206004820152602260248201527f746f6b656e416d6f756e74206d7573742062652067726561746572207468616e604482015261020360f41b6064820152608401610779565b8160001080156116a957506103e88211155b61171d576040805162461bcd60e51b81526020600482015260248101919091527f636c61696d5175616e74697479206d757374206265206772656174657220746860448201527f616e203020616e64206c657373206f7220657175616c207468616e20313030306064820152608401610779565b611725613bb7565b60005b6009548110156119d3576118076009828154811061175657634e487b7160e01b600052603260045260246000fd5b9060005260206000209060070201600001805461177290614542565b80601f016020809104026020016040519081016040528092919081815260200182805461179e90614542565b80156117eb5780601f106117c0576101008083540402835291602001916117eb565b820191906000526020600020905b8154815290600101906020018083116117ce57829003601f168201915b5050505050888051602091820120825192909101919091201490565b156119c1576009818154811061182d57634e487b7160e01b600052603260045260246000fd5b90600052602060002090600702016040518061010001604052908160008201805461185790614542565b80601f016020809104026020016040519081016040528092919081815260200182805461188390614542565b80156118d05780601f106118a5576101008083540402835291602001916118d0565b820191906000526020600020905b8154815290600101906020018083116118b357829003601f168201915b505050505081526020016001820180546118e990614542565b80601f016020809104026020016040519081016040528092919081815260200182805461191590614542565b80156119625780601f1061193757610100808354040283529160200191611962565b820191906000526020600020905b81548152906001019060200180831161194557829003601f168201915b50505091835250506002820154602082015260038201546001600160a01b038116604083015260ff600160a01b909104811660608301526004830154608083015260058301541660a082015260069091015460c09091015291506119d3565b806119cb8161457d565b915050611728565b50600081604001511180156119ed575060c081015160ff16155b611a395760405162461bcd60e51b815260206004820152601860248201527f496e76616c696420626c657373696e67207374617475732100000000000000006044820152606401610779565b611a5a611a5382604001518561352690919063ffffffff16565b859061360e565b6001546040516370a0823160e01b81523360048201526001600160a01b03909116906370a082319060240160206040518083038186803b158015611a9d57600080fd5b505afa158015611ab1573d6000803e3d6000fd5b505050506040513d601f19601f82011682018060405250810190611ad59190613f47565b1015611b495760405162461bcd60e51b815260206004820152603e60248201527f596f757220746f6b656e20616d6f756e74206d7573742062652067726561746560448201527f72207468616e20796f752061726520747279696e6720746f2073656e642100006064820152608401610779565b6001546040516323b872dd60e01b8152336004820152306024820152604481018690526001600160a01b03909116906323b872dd90606401602060405180830381600087803b158015611b9b57600080fd5b505af1158015611baf573d6000803e3d6000fd5b505050506040513d601f19601f82011682018060405250810190611bd39190613da7565b611c1f5760405162461bcd60e51b815260206004820152601c60248201527f5472616e7366657220746f20636f6e7472616374206661696c656421000000006044820152606401610779565b600154606082015160e08301516001600160a01b03909216916323b872dd913391611c6590606490610d5990611c55908361452b565b6040890151610d5f908c90613526565b6040516001600160e01b031960e086901b1681526001600160a01b0393841660048201529290911660248301526044820152606401602060405180830381600087803b158015611cb457600080fd5b505af1158015611cc8573d6000803e3d6000fd5b505050506040513d601f19601f82011682018060405250810190611cec9190613da7565b611d4a5760405162461bcd60e51b815260206004820152602960248201527f5472616e7366657220746f20746865206f776e6572206f6620626c657373696e60448201526867206661696c65642160b81b6064820152608401610779565b60015460e082015160408301516001600160a01b03909216916323b872dd9133913091611d8391606491610d5991610d5f908c90613526565b6040516001600160e01b031960e086901b1681526001600160a01b0393841660048201529290911660248301526044820152606401602060405180830381600087803b158015611dd257600080fd5b505af1158015611de6573d6000803e3d6000fd5b505050506040513d601f19601f82011682018060405250810190611e0a9190613da7565b611e565760405162461bcd60e51b815260206004820181905260248201527f5472616e7366657220746f2074686520636f6e7472616374206661696c6564216044820152606401610779565b60066000336001600160a01b03166001600160a01b031681526020019081526020016000206040518060e00160405280876001600160a01b03168152602001888152602001428152602001868152602001858152602001846001811115611ecd57634e487b7160e01b600052602160045260246000fd5b81526000602091820181905283546001808201865594825290829020835160069092020180546001600160a01b0319166001600160a01b0390921691909117815582820151805193949193611f2a93928501929190910190613ace565b5060408201516002820155606082015160038201556080820151600482015560a082015160058201805460ff191660018381811115611f7957634e487b7160e01b600052602160045260246000fd5b021790555060c09190910151600590910180549115156101000261ff0019909216919091179055604080513381526001600160a01b03871660208201527f9028f7dd664be64a65e420291fdb6b56dec3b01e5433aa9675727b383cf1e5bc910160405180910390a1505050505050565b611ff1613361565b6106b961361a565b612001613361565b600455565b60606009805480602002602001604051908101604052809291908181526020016000905b8282101561155657838290600052602060002090600702016040518061010001604052908160008201805461205e90614542565b80601f016020809104026020016040519081016040528092919081815260200182805461208a90614542565b80156120d75780601f106120ac576101008083540402835291602001916120d7565b820191906000526020600020905b8154815290600101906020018083116120ba57829003601f168201915b505050505081526020016001820180546120f090614542565b80601f016020809104026020016040519081016040528092919081815260200182805461211c90614542565b80156121695780601f1061213e57610100808354040283529160200191612169565b820191906000526020600020905b81548152906001019060200180831161214c57829003601f168201915b5050509183525050600282015460208083019190915260038301546001600160a01b038116604084015260ff600160a01b909104811660608401526004840154608084015260058401541660a083015260069092015460c090910152908252600192909201910161202a565b6121dd613361565b6121ff604051806060016040528060348152602001614640603491398561365d565b60005b6009548110156123b6576122e16009828154811061223057634e487b7160e01b600052603260045260246000fd5b9060005260206000209060070201600001805461224c90614542565b80601f016020809104026020016040519081016040528092919081815260200182805461227890614542565b80156122c55780601f1061229a576101008083540402835291602001916122c5565b820191906000526020600020905b8154815290600101906020018083116122a857829003601f168201915b5050505050868051602091820120825192909101919091201490565b156123a457826009828154811061230857634e487b7160e01b600052603260045260246000fd5b906000526020600020906007020160050160006101000a81548160ff021916908360ff160217905550836009828154811061235357634e487b7160e01b600052603260045260246000fd5b906000526020600020906007020160020181905550816009828154811061238a57634e487b7160e01b600052603260045260246000fd5b9060005260206000209060070201600601819055506123b6565b806123ae8161457d565b915050612202565b5050505050565b6123c5613bb7565b6123cd613b52565b6001600160a01b0384166000908152600660209081526040808320805482518185028101850190935280835260609493849084015b8282101561255f5760008481526020908190206040805160e081019091526006850290910180546001600160a01b03168252600181018054929391929184019161244b90614542565b80601f016020809104026020016040519081016040528092919081815260200182805461247790614542565b80156124c45780601f10612499576101008083540402835291602001916124c4565b820191906000526020600020905b8154815290600101906020018083116124a757829003601f168201915b5050509183525050600282015460208201526003820154604082015260048201546060820152600582015460809091019060ff16600181111561251757634e487b7160e01b600052602160045260246000fd5b600181111561253657634e487b7160e01b600052602160045260246000fd5b815260059190910154610100900460ff1615156020918201529082526001929092019101612402565b50505050905061256d613b52565b60005b82518110156125fb57866001600160a01b03168382815181106125a357634e487b7160e01b600052603260045260246000fd5b6020026020010151600001516001600160a01b031614156125e9578281815181106125de57634e487b7160e01b600052603260045260246000fd5b602002602001015191505b806125f38161457d565b915050612570565b5060008160600151116126205760405162461bcd60e51b815260040161077990614440565b6001600160a01b038616600090815260086020908152604080832080548251818502810185019093528083529192909190849084015b828210156126c75760008481526020908190206040805160c0810182526006860290920180546001600160a01b031683526001808201548486015260028201549284019290925260038101546060840152600481015460808401526005015460a08301529083529092019101612656565b5050505090506126d5613bb7565b60005b600954811015612987576127bb6009828154811061270657634e487b7160e01b600052603260045260246000fd5b9060005260206000209060070201600001805461272290614542565b80601f016020809104026020016040519081016040528092919081815260200182805461274e90614542565b801561279b5780601f106127705761010080835404028352916020019161279b565b820191906000526020600020905b81548152906001019060200180831161277e57829003601f168201915b505050505085602001518051602091820120825192909101919091201490565b1561297557600981815481106127e157634e487b7160e01b600052603260045260246000fd5b90600052602060002090600702016040518061010001604052908160008201805461280b90614542565b80601f016020809104026020016040519081016040528092919081815260200182805461283790614542565b80156128845780601f1061285957610100808354040283529160200191612884565b820191906000526020600020905b81548152906001019060200180831161286757829003601f168201915b5050505050815260200160018201805461289d90614542565b80601f01602080910402602001604051908101604052809291908181526020018280546128c990614542565b80156129165780601f106128eb57610100808354040283529160200191612916565b820191906000526020600020905b8154815290600101906020018083116128f957829003601f168201915b50505091835250506002820154602082015260038201546001600160a01b038116604083015260ff600160a01b909104811660608301526004830154608083015260058301541660a082015260069091015460c0909101529150612987565b8061297f8161457d565b9150506126d8565b509891975095509350505050565b61299d613410565b6001600160a01b038116600090815260086020908152604080832080548251818502810185019093528083529192909190849084015b82821015612a445760008481526020908190206040805160c0810182526006860290920180546001600160a01b031683526001808201548486015260028201549284019290925260038101546060840152600481015460808401526005015460a083015290835290920191016129d3565b5050505090508051600014612ac15760405162461bcd60e51b815260206004820152603c60248201527f596f757220626c657373696e6720697320636c61696d696e67206279206f746860448201527f6572732e2043616e206e6f74207265766f6b6520616e796d6f726521000000006064820152608401610779565b33600090815260066020908152604080832080548251818502810185019093528083529192909190849084015b82821015612c4b5760008481526020908190206040805160e081019091526006850290910180546001600160a01b031682526001810180549293919291840191612b3790614542565b80601f0160208091040260200160405190810160405280929190818152602001828054612b6390614542565b8015612bb05780601f10612b8557610100808354040283529160200191612bb0565b820191906000526020600020905b815481529060010190602001808311612b9357829003601f168201915b5050509183525050600282015460208201526003820154604082015260048201546060820152600582015460809091019060ff166001811115612c0357634e487b7160e01b600052602160045260246000fd5b6001811115612c2257634e487b7160e01b600052602160045260246000fd5b815260059190910154610100900460ff1615156020918201529082526001929092019101612aee565b5050505090506000815111612c725760405162461bcd60e51b815260040161077990614440565b612c7a613b52565b6000805b8351811015612d0c57856001600160a01b0316848281518110612cb157634e487b7160e01b600052603260045260246000fd5b6020026020010151600001516001600160a01b03161415612cfa57838181518110612cec57634e487b7160e01b600052603260045260246000fd5b602002602001015192508091505b80612d048161457d565b915050612c7e565b506000826060015111612d315760405162461bcd60e51b815260040161077990614440565b600154606083015160405163a9059cbb60e01b815233600482015260248101919091526001600160a01b039091169063a9059cbb90604401602060405180830381600087803b158015612d8357600080fd5b505af1158015612d97573d6000803e3d6000fd5b505050506040513d601f19601f82011682018060405250810190612dbb9190613da7565b612e075760405162461bcd60e51b815260206004820152601f60248201527f5472616e73666572206261636b20746f2073656e646572206661696c656421006044820152606401610779565b33600090815260066020526040902080546001919083908110612e3a57634e487b7160e01b600052603260045260246000fd5b600091825260209182902060056006909202010180549215156101000261ff001990931692909217909155604080513381526001600160a01b038816928101929092527faf0a59ad678f81ba23bb66973fedd52a279df960fc232c3bd4f56faf8d7945fb910160405180910390a15050505050565b6001600160a01b0381166000908152600860209081526040808320805482518185028101850190935280835260609492939192909184015b82821015612f585760008481526020908190206040805160c0810182526006860290920180546001600160a01b031683526001808201548486015260028201549284019290925260038101546060840152600481015460808401526005015460a08301529083529092019101612ee7565b505050509050919050565b336000908152600760209081526040808320805482518185028101850190935280835260609492939192909184015b828210156115565760008481526020908190206040805160c0810182526006860290920180546001600160a01b0390811684526001820154169383019390935260028301805492939291840191612fe890614542565b80601f016020809104026020016040519081016040528092919081815260200182805461301490614542565b80156130615780601f1061303657610100808354040283529160200191613061565b820191906000526020600020905b81548152906001019060200180831161304457829003601f168201915b50505050508152602001600382015481526020016004820154815260200160058201548152505081526020019060010190612f92565b61309f613361565b6001600160a01b0381166131045760405162461bcd60e51b815260206004820152602660248201527f4f776e61626c653a206e6577206f776e657220697320746865207a65726f206160448201526564647265737360d01b6064820152608401610779565b61310d81613532565b50565b613118613361565b6131206136a2565b6002546040516370a0823160e01b81523060048201526001600160a01b039091169063a9059cbb90839083906370a082319060240160206040518083038186803b15801561316d57600080fd5b505afa158015613181573d6000803e3d6000fd5b505050506040513d601f19601f820116820180604052508101906131a59190613f47565b6040516001600160e01b031960e085901b1681526001600160a01b0390921660048301526024820152604401602060405180830381600087803b1580156131eb57600080fd5b505af11580156131ff573d6000803e3d6000fd5b505050506040513d601f19601f820116820180604052508101906132239190613da7565b61327a5760405162461bcd60e51b815260206004820152602260248201527f5472616e736665722043425420746f2076322061646472657373206661696c65604482015261642160f01b6064820152608401610779565b60035460405163f2fde38b60e01b81526001600160a01b0383811660048301529091169063f2fde38b90602401600060405180830381600087803b1580156132c157600080fd5b505af11580156123b6573d6000803e3d6000fd5b61310d816040516024016132e991906142d9565b60408051601f198184030181529190526020810180516001600160e01b031663104c13eb60e21b1790526136f2565b61335d828260405160240161332e9291906142ec565b60408051601f198184030181529190526020810180516001600160e01b031663319af33360e01b1790526136f2565b5050565b6000546001600160a01b031633146106b95760405162461bcd60e51b815260206004820181905260248201527f4f776e61626c653a2063616c6c6572206973206e6f7420746865206f776e65726044820152606401610779565b6133c36136a2565b6000805460ff60a01b191690557f5db9ee0a495bf2e6ff9c91a7834c1ba4fdd244a5e8aa4e537bd38aeae4b073aa335b6040516001600160a01b03909116815260200160405180910390a1565b600054600160a01b900460ff16156106b95760405162461bcd60e51b815260206004820152601060248201526f14185d5cd8589b194e881c185d5cd95960821b6044820152606401610779565b6134a483838360405160240161347593929190614316565b60408051601f198184030181529190526020810180516001600160e01b03166307e763af60e51b1790526136f2565b505050565b6000806134b68585613713565b6001600160a01b03908116908416149150509392505050565b60006134db82846144f8565b9392505050565b60006134db828461452b565b600080826134fd60014361452b565b613508919040614598565b9050801580613517575080600a145b15613520575060015b92915050565b60006134db828461450c565b600080546001600160a01b038381166001600160a01b0319831681178455604051919092169283917f8be0079c531659141344cd1fd0a4f28419497f9722a3daafe3b4186f6b6457e09190a35050565b6134a483838360405160240161359a93929190614377565b60408051601f198184030181529190526020810180516001600160e01b03166395ed019560e01b1790526136f2565b61335d82826040516024016135df92919061441e565b60408051601f198184030181529190526020810180516001600160e01b03166309710a9d60e41b1790526136f2565b60006134db82846144e0565b613622613410565b6000805460ff60a01b1916600160a01b1790557f62e78cea01bee320cd4e420270b5ea74000d11b0c9f74754ebdbfc544b05a2586133f33390565b61335d8282604051602401613673929190614349565b60408051601f198184030181529190526020810180516001600160e01b0316634b5c427760e01b1790526136f2565b600054600160a01b900460ff166106b95760405162461bcd60e51b815260206004820152601460248201527314185d5cd8589b194e881b9bdd081c185d5cd95960621b6044820152606401610779565b80516a636f6e736f6c652e6c6f67602083016000808483855afa5050505050565b60008060006137228585613737565b9150915061372f816137a7565b509392505050565b60008082516041141561376e5760208301516040840151606085015160001a613762878285856139a8565b945094505050506137a0565b825160401415613798576020830151604084015161378d868383613a95565b9350935050506137a0565b506000905060025b9250929050565b60008160048111156137c957634e487b7160e01b600052602160045260246000fd5b14156137d25750565b60018160048111156137f457634e487b7160e01b600052602160045260246000fd5b14156138425760405162461bcd60e51b815260206004820152601860248201527f45434453413a20696e76616c6964207369676e617475726500000000000000006044820152606401610779565b600281600481111561386457634e487b7160e01b600052602160045260246000fd5b14156138b25760405162461bcd60e51b815260206004820152601f60248201527f45434453413a20696e76616c6964207369676e6174757265206c656e677468006044820152606401610779565b60038160048111156138d457634e487b7160e01b600052602160045260246000fd5b141561392d5760405162461bcd60e51b815260206004820152602260248201527f45434453413a20696e76616c6964207369676e6174757265202773272076616c604482015261756560f01b6064820152608401610779565b600481600481111561394f57634e487b7160e01b600052602160045260246000fd5b141561310d5760405162461bcd60e51b815260206004820152602260248201527f45434453413a20696e76616c6964207369676e6174757265202776272076616c604482015261756560f01b6064820152608401610779565b6000807f7fffffffffffffffffffffffffffffff5d576e7357a4501ddfe92f46681b20a08311156139df5750600090506003613a8c565b8460ff16601b141580156139f757508460ff16601c14155b15613a085750600090506004613a8c565b6040805160008082526020820180845289905260ff881692820192909252606081018690526080810185905260019060a0016020604051602081039080840390855afa158015613a5c573d6000803e3d6000fd5b5050604051601f1901519150506001600160a01b038116613a8557600060019250925050613a8c565b9150600090505b94509492505050565b6000806001600160ff1b03831681613ab260ff86901c601b6144e0565b9050613ac0878288856139a8565b935093505050935093915050565b828054613ada90614542565b90600052602060002090601f016020900481019282613afc5760008555613b42565b82601f10613b1557805160ff1916838001178555613b42565b82800160010185558215613b42579182015b82811115613b42578251825591602001919060010190613b27565b50613b4e929150613c0b565b5090565b6040518060e0016040528060006001600160a01b031681526020016060815260200160008152602001600081526020016000815260200160006001811115613baa57634e487b7160e01b600052602160045260246000fd5b8152600060209091015290565b60405180610100016040528060608152602001606081526020016000815260200160006001600160a01b03168152602001600060ff16815260200160008152602001600060ff168152602001600081525090565b5b80821115613b4e5760008155600101613c0c565b600067ffffffffffffffff80841115613c3b57613c3b6145d8565b604051601f8501601f19908116603f01168101908282118183101715613c6357613c636145d8565b81604052809350858152868686011115613c7c57600080fd5b858560208301376000602087830101525050509392505050565b80356001600160a01b0381168114613cad57600080fd5b919050565b600082601f830112613cc2578081fd5b6134db83833560208501613c20565b803560ff81168114613cad57600080fd5b600060208284031215613cf3578081fd5b6134db82613c96565b60008060408385031215613d0e578081fd5b613d1783613c96565b9150613d2560208401613c96565b90509250929050565b60008060008060808587031215613d43578182fd5b613d4c85613c96565b9350613d5a60208601613c96565b925060408501359150606085013567ffffffffffffffff811115613d7c578182fd5b8501601f81018713613d8c578182fd5b613d9b87823560208401613c20565b91505092959194509250565b600060208284031215613db8578081fd5b815180151581146134db578182fd5b60008060008060008060c08789031215613ddf578182fd5b863567ffffffffffffffff80821115613df6578384fd5b613e028a838b01613cb2565b9750613e1060208a01613c96565b96506040890135915080821115613e25578384fd5b50613e3289828a01613cb2565b94505060608701359250613e4860808801613cd1565b915060a087013590509295509295509295565b600080600080600060a08688031215613e72578081fd5b853567ffffffffffffffff811115613e88578182fd5b613e9488828901613cb2565b955050613ea360208701613c96565b93506040860135925060608601359150608086013560028110613ec4578182fd5b809150509295509295909350565b60008060008060808587031215613ee7578384fd5b843567ffffffffffffffff811115613efd578485fd5b613f0987828801613cb2565b94505060208501359250613f1f60408601613cd1565b9396929550929360600135925050565b600060208284031215613f40578081fd5b5035919050565b600060208284031215613f58578081fd5b5051919050565b6000815180845260208085019450808401835b83811015613fcb57815180516001600160a01b03168852838101518489015260408082015190890152606080820151908901526080808201519089015260a0908101519088015260c09096019590820190600101613f72565b509495945050505050565b60008151808452815b81811015613ffb57602081850181015186830182015201613fdf565b8181111561400c5782602083870101525b50601f01601f19169290920160200192915050565b6000610100825181855261403782860182613fd6565b915050602083015184820360208601526140518282613fd6565b9150506040830151604085015260018060a01b03606084015116606085015260ff608084015116608085015260a083015160a085015260c083015161409b60c086018260ff169052565b5060e083015160e08501528091505092915050565b600060018060a01b0380835116845280602084015116602085015250604082015160c060408501526140e560c0850182613fd6565b9050606083015160608501526080830151608085015260a083015160a08501528091505092915050565b60018060a01b0381511682526000602082015160e0602085015261413660e0850182613fd6565b905060408301516040850152606083015160608501526080830151608085015260a08301516002811061417757634e487b7160e01b83526021600452602483fd5b8060a08601525060c083015161372f60c086018215159052565b6001600160a01b03831681526040602082018190526000906141b590830184613fd6565b949350505050565b6020815260006134db6020830184613f5f565b6000602080830181845280855180835260408601915060408160051b8701019250838701855b8281101561422457603f19888603018452614212858351614021565b945092850192908501906001016141f6565b5092979650505050505050565b6000602080830181845280855180835260408601915060408160051b8701019250838701855b8281101561422457603f198886030184526142738583516140b0565b94509285019290850190600101614257565b6000602080830181845280855180835260408601915060408160051b8701019250838701855b8281101561422457603f198886030184526142c785835161410f565b945092850192908501906001016142ab565b6020815260006134db6020830184613fd6565b6040815260006142ff6040830185613fd6565b905060018060a01b03831660208301529392505050565b6060815260006143296060830186613fd6565b6001600160a01b0394851660208401529290931660409091015292915050565b60408152600061435c6040830185613fd6565b828103602084015261436e8185613fd6565b95945050505050565b60608152600061438a6060830186613fd6565b828103602084015261439c8186613fd6565b91505060018060a01b0383166040830152949350505050565b60006101008083526143c98184018c613fd6565b905082810360208401526143dd818b613fd6565b604084019990995250506001600160a01b0395909516606086015260ff938416608086015260a085019290925290911660c083015260e09091015292915050565b6040815260006144316040830185613fd6565b90508260208301529392505050565b6020808252602a908201527f5468657265206973206e6f20626c657373696e6720666f756e64206f6e20746860408201526969732073656e6465722160b01b606082015260800190565b60608152600061449d6060830186614021565b82810360208401526144af818661410f565b905082810360408401526144c38185613f5f565b9695505050505050565b6020815260006134db60208301846140b0565b600082198211156144f3576144f36145ac565b500190565b600082614507576145076145c2565b500490565b6000816000190483118215151615614526576145266145ac565b500290565b60008282101561453d5761453d6145ac565b500390565b600181811c9082168061455657607f821691505b6020821081141561457757634e487b7160e01b600052602260045260246000fd5b50919050565b6000600019821415614591576145916145ac565b5060010190565b6000826145a7576145a76145c2565b500690565b634e487b7160e01b600052601160045260246000fd5b634e487b7160e01b600052601260045260246000fd5b634e487b7160e01b600052604160045260246000fdfe737461727420746f2073656e6420626c657373696e672120696d6167653a25732c20626c657373696e6749443a2573737461727420746f2061646420626c657373696e6720746f2074686520706f6f6c21737461727420746f2072656d6f7665206f6e6520626c657373696e672066726f6d2074686520706f6f6c2120696d6167653a2573737461727420746f20636c61696d20626c657373696e67212073656e6465723a25732c20626c657373696e6749443a2573a2646970667358221220d4b5d4a60b4a11d0b6d2bc1b7634545c803310830655391325cd1418d480b22064736f6c63430008040033426c657373696e6720697320746865206d6f737420756e6976657273616c2068756d616e2065787072657373696f6e206f6620656d6f74696f6e2c20616e6420776520617265204e4654697a696e6720697421",
  "linkReferences": {},
  "deployedLinkReferences": {}
}