{
  "_format": "hh-sol-artifact-1",
  "contractName": "CryptoBlessing",
  "sourceName": "contracts/CryptoBlessing.sol",
  "abi": [
    {
      "inputs": [
        {
          "internalType": "address",
          "name": "_sendTokenAddress",
          "type": "address"
        },
        {
          "internalType": "address",
          "name": "_cryptoBlessingTokenAddress",
          "type": "address"
        },
        {
          "internalType": "address",
          "name": "_cryptoBlessingNFTAddress",
          "type": "address"
        }
      ],
      "stateMutability": "payable",
      "type": "constructor"
    },
    {
      "anonymous": false,
      "inputs": [
        {
          "indexed": true,
          "internalType": "address",
          "name": "previousOwner",
          "type": "address"
        },
        {
          "indexed": true,
          "internalType": "address",
          "name": "newOwner",
          "type": "address"
        }
      ],
      "name": "OwnershipTransferred",
      "type": "event"
    },
    {
      "anonymous": false,
      "inputs": [
        {
          "indexed": false,
          "internalType": "address",
          "name": "account",
          "type": "address"
        }
      ],
      "name": "Paused",
      "type": "event"
    },
    {
      "anonymous": false,
      "inputs": [
        {
          "indexed": false,
          "internalType": "address",
          "name": "account",
          "type": "address"
        }
      ],
      "name": "Unpaused",
      "type": "event"
    },
    {
      "anonymous": false,
      "inputs": [
        {
          "indexed": false,
          "internalType": "address",
          "name": "sender",
          "type": "address"
        },
        {
          "indexed": false,
          "internalType": "address",
          "name": "blessingID",
          "type": "address"
        }
      ],
      "name": "claimerClaimComplete",
      "type": "event"
    },
    {
      "anonymous": false,
      "inputs": [
        {
          "indexed": false,
          "internalType": "address",
          "name": "sender",
          "type": "address"
        },
        {
          "indexed": false,
          "internalType": "address",
          "name": "blessingID",
          "type": "address"
        }
      ],
      "name": "senderRevokeComplete",
      "type": "event"
    },
    {
      "anonymous": false,
      "inputs": [
        {
          "indexed": false,
          "internalType": "address",
          "name": "sender",
          "type": "address"
        },
        {
          "indexed": false,
          "internalType": "address",
          "name": "blessingID",
          "type": "address"
        }
      ],
      "name": "senderSendCompleted",
      "type": "event"
    },
    {
      "inputs": [
        {
          "internalType": "string",
          "name": "image",
          "type": "string"
        },
        {
          "internalType": "address",
          "name": "blessingOwner",
          "type": "address"
        },
        {
          "internalType": "uint256",
          "name": "price",
          "type": "uint256"
        },
        {
          "internalType": "uint256",
          "name": "taxRate",
          "type": "uint256"
        }
      ],
      "name": "addBlessing",
      "outputs": [],
      "stateMutability": "nonpayable",
      "type": "function"
    },
    {
      "inputs": [
        {
          "components": [
            {
              "internalType": "string",
              "name": "image",
              "type": "string"
            },
            {
              "internalType": "uint256",
              "name": "price",
              "type": "uint256"
            },
            {
              "internalType": "address",
              "name": "owner",
              "type": "address"
            },
            {
              "internalType": "uint8",
              "name": "deleted",
              "type": "uint8"
            },
            {
              "internalType": "uint256",
              "name": "taxRate",
              "type": "uint256"
            }
          ],
          "internalType": "struct CryptoBlessing.Blessing[]",
          "name": "blessings",
          "type": "tuple[]"
        }
      ],
      "name": "batchAddBlessing",
      "outputs": [],
      "stateMutability": "nonpayable",
      "type": "function"
    },
    {
      "inputs": [
        {
          "internalType": "uint256",
          "name": "",
          "type": "uint256"
        }
      ],
      "name": "blessingList",
      "outputs": [
        {
          "internalType": "string",
          "name": "image",
          "type": "string"
        },
        {
          "internalType": "uint256",
          "name": "price",
          "type": "uint256"
        },
        {
          "internalType": "address",
          "name": "owner",
          "type": "address"
        },
        {
          "internalType": "uint8",
          "name": "deleted",
          "type": "uint8"
        },
        {
          "internalType": "uint256",
          "name": "taxRate",
          "type": "uint256"
        }
      ],
      "stateMutability": "view",
      "type": "function"
    },
    {
      "inputs": [
        {
          "internalType": "address",
          "name": "sender",
          "type": "address"
        },
        {
          "internalType": "address",
          "name": "blessingID",
          "type": "address"
        },
        {
          "internalType": "bytes32",
          "name": "hash",
          "type": "bytes32"
        },
        {
          "internalType": "bytes",
          "name": "signature",
          "type": "bytes"
        },
        {
          "internalType": "address",
          "name": "fuckOff",
          "type": "address"
        }
      ],
      "name": "claimBlessing",
      "outputs": [
        {
          "components": [
            {
              "internalType": "address",
              "name": "sender",
              "type": "address"
            },
            {
              "internalType": "address",
              "name": "blessingID",
              "type": "address"
            },
            {
              "internalType": "string",
              "name": "blessingImage",
              "type": "string"
            },
            {
              "internalType": "uint256",
              "name": "claimTimestamp",
              "type": "uint256"
            },
            {
              "internalType": "uint256",
              "name": "claimAmount",
              "type": "uint256"
            },
            {
              "internalType": "uint256",
              "name": "taxAmount",
              "type": "uint256"
            }
          ],
          "internalType": "struct CryptoBlessing.ClaimerBlessing",
          "name": "",
          "type": "tuple"
        }
      ],
      "stateMutability": "payable",
      "type": "function"
    },
    {
      "inputs": [],
      "name": "getAllBlessings",
      "outputs": [
        {
          "components": [
            {
              "internalType": "string",
              "name": "image",
              "type": "string"
            },
            {
              "internalType": "uint256",
              "name": "price",
              "type": "uint256"
            },
            {
              "internalType": "address",
              "name": "owner",
              "type": "address"
            },
            {
              "internalType": "uint8",
              "name": "deleted",
              "type": "uint8"
            },
            {
              "internalType": "uint256",
              "name": "taxRate",
              "type": "uint256"
            }
          ],
          "internalType": "struct CryptoBlessing.Blessing[]",
          "name": "",
          "type": "tuple[]"
        }
      ],
      "stateMutability": "view",
      "type": "function"
    },
    {
      "inputs": [
        {
          "internalType": "address",
          "name": "sender",
          "type": "address"
        },
        {
          "internalType": "address",
          "name": "blessingID",
          "type": "address"
        }
      ],
      "name": "getAllInfoOfBlessing",
      "outputs": [
        {
          "components": [
            {
              "internalType": "string",
              "name": "image",
              "type": "string"
            },
            {
              "internalType": "uint256",
              "name": "price",
              "type": "uint256"
            },
            {
              "internalType": "address",
              "name": "owner",
              "type": "address"
            },
            {
              "internalType": "uint8",
              "name": "deleted",
              "type": "uint8"
            },
            {
              "internalType": "uint256",
              "name": "taxRate",
              "type": "uint256"
            }
          ],
          "internalType": "struct CryptoBlessing.Blessing",
          "name": "",
          "type": "tuple"
        },
        {
          "components": [
            {
              "internalType": "address",
              "name": "blessingID",
              "type": "address"
            },
            {
              "internalType": "string",
              "name": "blessingImage",
              "type": "string"
            },
            {
              "internalType": "uint256",
              "name": "sendTimestamp",
              "type": "uint256"
            },
            {
              "internalType": "uint256",
              "name": "tokenAmount",
              "type": "uint256"
            },
            {
              "internalType": "uint256",
              "name": "claimQuantity",
              "type": "uint256"
            },
            {
              "internalType": "enum CryptoBlessing.ClaimType",
              "name": "claimType",
              "type": "uint8"
            },
            {
              "internalType": "bool",
              "name": "revoked",
              "type": "bool"
            }
          ],
          "internalType": "struct CryptoBlessing.SenderBlessing",
          "name": "",
          "type": "tuple"
        },
        {
          "components": [
            {
              "internalType": "address",
              "name": "claimer",
              "type": "address"
            },
            {
              "internalType": "uint256",
              "name": "claimTimestamp",
              "type": "uint256"
            },
            {
              "internalType": "uint256",
              "name": "distributedAmount",
              "type": "uint256"
            },
            {
              "internalType": "uint256",
              "name": "claimAmount",
              "type": "uint256"
            },
            {
              "internalType": "uint256",
              "name": "taxAmount",
              "type": "uint256"
            },
            {
              "internalType": "uint256",
              "name": "CBTokenAwardToSenderAmount",
              "type": "uint256"
            }
          ],
          "internalType": "struct CryptoBlessing.BlessingClaimStatus[]",
          "name": "",
          "type": "tuple[]"
        }
      ],
      "stateMutability": "view",
      "type": "function"
    },
    {
      "inputs": [
        {
          "internalType": "address",
          "name": "_blessingID",
          "type": "address"
        }
      ],
      "name": "getBlessingClaimingStatus",
      "outputs": [
        {
          "components": [
            {
              "internalType": "address",
              "name": "claimer",
              "type": "address"
            },
            {
              "internalType": "uint256",
              "name": "claimTimestamp",
              "type": "uint256"
            },
            {
              "internalType": "uint256",
              "name": "distributedAmount",
              "type": "uint256"
            },
            {
              "internalType": "uint256",
              "name": "claimAmount",
              "type": "uint256"
            },
            {
              "internalType": "uint256",
              "name": "taxAmount",
              "type": "uint256"
            },
            {
              "internalType": "uint256",
              "name": "CBTokenAwardToSenderAmount",
              "type": "uint256"
            }
          ],
          "internalType": "struct CryptoBlessing.BlessingClaimStatus[]",
          "name": "",
          "type": "tuple[]"
        }
      ],
      "stateMutability": "view",
      "type": "function"
    },
    {
      "inputs": [],
      "name": "getMyClaimedBlessings",
      "outputs": [
        {
          "components": [
            {
              "internalType": "address",
              "name": "sender",
              "type": "address"
            },
            {
              "internalType": "address",
              "name": "blessingID",
              "type": "address"
            },
            {
              "internalType": "string",
              "name": "blessingImage",
              "type": "string"
            },
            {
              "internalType": "uint256",
              "name": "claimTimestamp",
              "type": "uint256"
            },
            {
              "internalType": "uint256",
              "name": "claimAmount",
              "type": "uint256"
            },
            {
              "internalType": "uint256",
              "name": "taxAmount",
              "type": "uint256"
            }
          ],
          "internalType": "struct CryptoBlessing.ClaimerBlessing[]",
          "name": "",
          "type": "tuple[]"
        }
      ],
      "stateMutability": "view",
      "type": "function"
    },
    {
      "inputs": [],
      "name": "getMySendedBlessings",
      "outputs": [
        {
          "components": [
            {
              "internalType": "address",
              "name": "blessingID",
              "type": "address"
            },
            {
              "internalType": "string",
              "name": "blessingImage",
              "type": "string"
            },
            {
              "internalType": "uint256",
              "name": "sendTimestamp",
              "type": "uint256"
            },
            {
              "internalType": "uint256",
              "name": "tokenAmount",
              "type": "uint256"
            },
            {
              "internalType": "uint256",
              "name": "claimQuantity",
              "type": "uint256"
            },
            {
              "internalType": "enum CryptoBlessing.ClaimType",
              "name": "claimType",
              "type": "uint8"
            },
            {
              "internalType": "bool",
              "name": "revoked",
              "type": "bool"
            }
          ],
          "internalType": "struct CryptoBlessing.SenderBlessing[]",
          "name": "",
          "type": "tuple[]"
        }
      ],
      "stateMutability": "view",
      "type": "function"
    },
    {
      "inputs": [],
      "name": "owner",
      "outputs": [
        {
          "internalType": "address",
          "name": "",
          "type": "address"
        }
      ],
      "stateMutability": "view",
      "type": "function"
    },
    {
      "inputs": [],
      "name": "pause",
      "outputs": [],
      "stateMutability": "nonpayable",
      "type": "function"
    },
    {
      "inputs": [],
      "name": "paused",
      "outputs": [
        {
          "internalType": "bool",
          "name": "",
          "type": "bool"
        }
      ],
      "stateMutability": "view",
      "type": "function"
    },
    {
      "inputs": [],
      "name": "renounceOwnership",
      "outputs": [],
      "stateMutability": "nonpayable",
      "type": "function"
    },
    {
      "inputs": [
        {
          "internalType": "address",
          "name": "blessingID",
          "type": "address"
        }
      ],
      "name": "revokeBlessing",
      "outputs": [],
      "stateMutability": "nonpayable",
      "type": "function"
    },
    {
      "inputs": [
        {
          "internalType": "string",
          "name": "image",
          "type": "string"
        },
        {
          "internalType": "address",
          "name": "blessingID",
          "type": "address"
        },
        {
          "internalType": "uint256",
          "name": "tokenAmount",
          "type": "uint256"
        },
        {
          "internalType": "uint256",
          "name": "claimQuantity",
          "type": "uint256"
        },
        {
          "internalType": "enum CryptoBlessing.ClaimType",
          "name": "claimType",
          "type": "uint8"
        },
        {
          "internalType": "address[]",
          "name": "pubkeys",
          "type": "address[]"
        }
      ],
      "name": "sendBlessing",
      "outputs": [],
      "stateMutability": "nonpayable",
      "type": "function"
    },
    {
      "inputs": [
        {
          "internalType": "uint256",
          "name": "_CBTOKENAWARDRATIO",
          "type": "uint256"
        }
      ],
      "name": "setCBTOKENAWARDRATIO",
      "outputs": [],
      "stateMutability": "nonpayable",
      "type": "function"
    },
    {
      "inputs": [
        {
          "internalType": "uint256",
          "name": "_CLAIM_TAX_RATE",
          "type": "uint256"
        }
      ],
      "name": "setCLAIM_TAX_RATE",
      "outputs": [],
      "stateMutability": "nonpayable",
      "type": "function"
    },
    {
      "inputs": [
        {
          "internalType": "address",
          "name": "newOwner",
          "type": "address"
        }
      ],
      "name": "transferOwnership",
      "outputs": [],
      "stateMutability": "nonpayable",
      "type": "function"
    },
    {
      "inputs": [],
      "name": "unpause",
      "outputs": [],
      "stateMutability": "nonpayable",
      "type": "function"
    },
    {
      "inputs": [
        {
          "internalType": "string",
          "name": "image",
          "type": "string"
        },
        {
          "internalType": "uint256",
          "name": "price",
          "type": "uint256"
        },
        {
          "internalType": "uint8",
          "name": "deleted",
          "type": "uint8"
        },
        {
          "internalType": "uint256",
          "name": "taxRate",
          "type": "uint256"
        }
      ],
      "name": "updateBlessing",
      "outputs": [],
      "stateMutability": "nonpayable",
      "type": "function"
    },
    {
      "inputs": [
        {
          "internalType": "address",
          "name": "nextVersionContractAddress",
          "type": "address"
        }
      ],
      "name": "upgradeToNextVersion",
      "outputs": [],
      "stateMutability": "nonpayable",
      "type": "function"
    }
  ],
  "bytecode": "0x608060405260058055600a60065560405162004df538038062004df58339810160408190526200002f9162000278565b6200003a336200014b565b6000805460ff60a01b1916905560018055604080516080810190915260538082526200007b919062004da260208301396200019b60201b620034b01760201c565b620000c76040518060400160405280601481526020017f73656e64546f6b656e416464726573733a20257300000000000000000000000081525084620001e960201b620034f31760201c565b62000108604051806040016040528060128152602001714342546f6b656e416464726573733a20257360701b81525083620001e960201b620034f31760201c565b600280546001600160a01b039485166001600160a01b03199182161790915560038054938516938216939093179092556004805491909316911617905562000357565b600080546001600160a01b038381166001600160a01b0319831681178455604051919092169283917f8be0079c531659141344cd1fd0a4f28419497f9722a3daafe3b4186f6b6457e09190a35050565b620001e681604051602401620001b291906200030f565b60408051601f198184030181529190526020810180516001600160e01b0390811663104c13eb60e21b179091526200023a16565b50565b620002368282604051602401620002029291906200032b565b60408051601f198184030181529190526020810180516001600160e01b0390811663319af33360e01b179091526200023a16565b5050565b80516a636f6e736f6c652e6c6f67602083016000808483855afa5050505050565b80516001600160a01b03811681146200027357600080fd5b919050565b6000806000606084860312156200028d578283fd5b62000298846200025b565b9250620002a8602085016200025b565b9150620002b8604085016200025b565b90509250925092565b60008151808452815b81811015620002e857602081850181015186830182015201620002ca565b81811115620002fa5782602083870101525b50601f01601f19169290920160200192915050565b602081526000620003246020830184620002c1565b9392505050565b604081526000620003406040830185620002c1565b905060018060a01b03831660208301529392505050565b614a3b80620003676000396000f3fe6080604052600436106101295760003560e01c8063a7f72750116100ab578063d9c3e2431161006f578063d9c3e2431461032e578063dd03ff8f1461034e578063e64872181461037b578063e911b6821461039d578063ea267e97146103bd578063f2fde38b146103dd57600080fd5b8063a7f727501461027d578063aa387cfa1461029d578063bcbb8e30146102bd578063bcc5f88a146102df578063c4cf21e8146102ff57600080fd5b8063715018a6116100f2578063715018a6146101e957806373fcd996146101fe5780638456cb59146102205780638da5cb5b14610235578063931342f91461025d57600080fd5b80627384741461012e57806305d738181461015057806323c563291461018a5780633f4ba83a146101aa5780635c975abb146101bf575b600080fd5b34801561013a57600080fd5b5061014e6101493660046141aa565b6103fd565b005b34801561015c57600080fd5b5061017061016b366004614302565b610e55565b60405161018195949392919061470f565b60405180910390f35b34801561019657600080fd5b5061014e6101a5366004614302565b610f34565b3480156101b657600080fd5b5061014e610f41565b3480156101cb57600080fd5b50600054600160a01b900460ff166040519015158152602001610181565b3480156101f557600080fd5b5061014e610f53565b34801561020a57600080fd5b50610213610f65565b604051610181919061461d565b34801561022c57600080fd5b5061014e6110fa565b34801561024157600080fd5b506000546040516001600160a01b039091168152602001610181565b34801561026957600080fd5b5061014e61027836600461414f565b61110a565b34801561028957600080fd5b5061014e610298366004614012565b611207565b3480156102a957600080fd5b5061014e6102b8366004614302565b6113b4565b3480156102c957600080fd5b506102d26113c1565b6040516101819190614568565b3480156102eb57600080fd5b5061014e6102fa3660046142a5565b6114e6565b34801561030b57600080fd5b5061031f61031a366004613f56565b6116ce565b6040516101819392919061479c565b34801561033a57600080fd5b5061014e610349366004613f3c565b611bfc565b34801561035a57600080fd5b5061036e610369366004613f3c565b612116565b6040516101819190614555565b34801561038757600080fd5b506103906121ca565b60405161018191906145c9565b3480156103a957600080fd5b5061014e6103b8366004613f3c565b6122fe565b6103d06103cb366004613f88565b612637565b60405161018191906147df565b3480156103e957600080fd5b5061014e6103f8366004613f3c565b613437565b610405613538565b836000106104655760405162461bcd60e51b815260206004820152602260248201527f746f6b656e416d6f756e74206d7573742062652067726561746572207468616e604482015261020360f41b60648201526084015b60405180910390fd5b8260001080156104765750600a8311155b6104e85760405162461bcd60e51b815260206004820152603e60248201527f636c61696d5175616e74697479206d757374206265206772656174657220746860448201527f616e203020616e64206c657373206f7220657175616c207468616e2031300000606482015260840161045c565b8051831461054e5760405162461bcd60e51b815260206004820152602d60248201527f636c61696d5175616e74697479206d75737420626520657175616c20746f207060448201526c0eac4d6caf2e65cd8cadccee8d609b1b606482015260840161045c565b610556613d5f565b60005b600a5481101561075a57610638600a828154811061058757634e487b7160e01b600052603260045260246000fd5b906000526020600020906004020160000180546105a3906148d2565b80601f01602080910402602001604051908101604052809291908181526020018280546105cf906148d2565b801561061c5780601f106105f15761010080835404028352916020019161061c565b820191906000526020600020905b8154815290600101906020018083116105ff57829003601f168201915b5050505050898051602091820120825192909101919091201490565b1561074857600a818154811061065e57634e487b7160e01b600052603260045260246000fd5b90600052602060002090600402016040518060a0016040529081600082018054610687906148d2565b80601f01602080910402602001604051908101604052809291908181526020018280546106b3906148d2565b80156107005780601f106106d557610100808354040283529160200191610700565b820191906000526020600020905b8154815290600101906020018083116106e357829003601f168201915b50505091835250506001820154602082015260028201546001600160a01b0381166040830152600160a01b900460ff166060820152600390910154608090910152915061075a565b806107528161490d565b915050610559565b50600081602001511180156107745750606081015160ff16155b6107c05760405162461bcd60e51b815260206004820152601860248201527f496e76616c696420626c657373696e6720737461747573210000000000000000604482015260640161045c565b6107e16107da82602001518661358590919063ffffffff16565b8690613598565b6002546040516370a0823160e01b81523360048201526001600160a01b03909116906370a082319060240160206040518083038186803b15801561082457600080fd5b505afa158015610838573d6000803e3d6000fd5b505050506040513d601f19601f8201168201806040525081019061085c919061431a565b10156108d05760405162461bcd60e51b815260206004820152603e60248201527f596f757220746f6b656e20616d6f756e74206d7573742062652067726561746560448201527f72207468616e20796f752061726520747279696e6720746f2073656e64210000606482015260840161045c565b6002546040516323b872dd60e01b8152336004820152306024820152604481018790526001600160a01b03909116906323b872dd90606401602060405180830381600087803b15801561092257600080fd5b505af1158015610936573d6000803e3d6000fd5b505050506040513d601f19601f8201168201806040525081019061095a919061412f565b6109a65760405162461bcd60e51b815260206004820152601c60248201527f5472616e7366657220746f20636f6e7472616374206661696c65642100000000604482015260640161045c565b600254604082015160808301516001600160a01b03909216916323b872dd9133916109f8906064906109f2906109dc90836148bb565b60208901516109ec908d90613585565b90613585565b906135a4565b6040516001600160e01b031960e086901b1681526001600160a01b0393841660048201529290911660248301526044820152606401602060405180830381600087803b158015610a4757600080fd5b505af1158015610a5b573d6000803e3d6000fd5b505050506040513d601f19601f82011682018060405250810190610a7f919061412f565b610add5760405162461bcd60e51b815260206004820152602960248201527f5472616e7366657220746f20746865206f776e6572206f6620626c657373696e60448201526867206661696c65642160b81b606482015260840161045c565b6002546001600160a01b03166323b872dd33610b016000546001600160a01b031690565b610b2560646109f287608001516109ec89602001518d61358590919063ffffffff16565b6040516001600160e01b031960e086901b1681526001600160a01b0393841660048201529290911660248301526044820152606401602060405180830381600087803b158015610b7457600080fd5b505af1158015610b88573d6000803e3d6000fd5b505050506040513d601f19601f82011682018060405250810190610bac919061412f565b610bf85760405162461bcd60e51b815260206004820181905260248201527f5472616e7366657220746f2074686520636f6e7472616374206661696c656421604482015260640161045c565b60076000336001600160a01b03166001600160a01b031681526020019081526020016000206040518060e00160405280886001600160a01b03168152602001898152602001428152602001878152602001868152602001856001811115610c6f57634e487b7160e01b600052602160045260246000fd5b81526000602091820181905283546001808201865594825290829020835160069092020180546001600160a01b0319166001600160a01b0390921691909117815582820151805193949193610ccc93928501929190910190613d9a565b5060408201516002820155606082015160038201556080820151600482015560a082015160058201805460ff191660018381811115610d1b57634e487b7160e01b600052602160045260246000fd5b021790555060c09190910151600590910180549115156101000261ff001990921691909117905560005b8251811015610e0a57600b6000886001600160a01b03166001600160a01b031681526020019081526020016000206040518060400160405280858481518110610d9e57634e487b7160e01b600052603260045260246000fd5b6020908102919091018101516001600160a01b039081168352600092820183905284546001810186559483529181902083519401805493909101511515600160a01b026001600160a81b0319909316939091169290921717905580610e028161490d565b915050610d45565b50604080513381526001600160a01b03881660208201527f9028f7dd664be64a65e420291fdb6b56dec3b01e5433aa9675727b383cf1e5bc910160405180910390a150505050505050565b600a8181548110610e6557600080fd5b9060005260206000209060040201600091509050806000018054610e88906148d2565b80601f0160208091040260200160405190810160405280929190818152602001828054610eb4906148d2565b8015610f015780601f10610ed657610100808354040283529160200191610f01565b820191906000526020600020905b815481529060010190602001808311610ee457829003601f168201915b5050505060018301546002840154600390940154929390926001600160a01b0382169250600160a01b90910460ff169085565b610f3c6135b0565b600655565b610f496135b0565b610f5161360a565b565b610f5b6135b0565b610f51600061365f565b336000908152600760209081526040808320805482518185028101850190935280835260609492939192909184015b828210156110f15760008481526020908190206040805160e081019091526006850290910180546001600160a01b031682526001810180549293919291840191610fdd906148d2565b80601f0160208091040260200160405190810160405280929190818152602001828054611009906148d2565b80156110565780601f1061102b57610100808354040283529160200191611056565b820191906000526020600020905b81548152906001019060200180831161103957829003601f168201915b5050509183525050600282015460208201526003820154604082015260048201546060820152600582015460809091019060ff1660018111156110a957634e487b7160e01b600052602160045260246000fd5b60018111156110c857634e487b7160e01b600052602160045260246000fd5b815260059190910154610100900460ff1615156020918201529082526001929092019101610f94565b50505050905090565b6111026135b0565b610f516136af565b6111126135b0565b61113360405180606001604052806022815260200161497f602291396134b0565b6040805160a08101825285815260208082018590526001600160a01b0386169282019290925260006060820181905260808201849052600a8054600181018255915281518051929360049092027fc65a7bb8d6351c1cf70c95a316cc6a92839c986682d98bc35f958f4883f9d2a801926111b09284920190613d9a565b50602082015160018201556040820151600282018054606085015160ff16600160a01b026001600160a81b03199091166001600160a01b039093169290921791909117905560809091015160039091015550505050565b61120f6135b0565b61123060405180606001604052806022815260200161497f602291396134b0565b60005b81518110156113b057600a6040518060a0016040528084848151811061126957634e487b7160e01b600052603260045260246000fd5b602002602001015160000151815260200184848151811061129a57634e487b7160e01b600052603260045260246000fd5b60200260200101516020015181526020018484815181106112cb57634e487b7160e01b600052603260045260246000fd5b6020026020010151604001516001600160a01b03168152602001600060ff16815260200184848151811061130f57634e487b7160e01b600052603260045260246000fd5b6020908102919091018101516080015190915282546001810184556000938452928190208251805193946004029091019261134d9284920190613d9a565b50602082015160018201556040820151600282018054606085015160ff16600160a01b026001600160a81b03199091166001600160a01b0390931692909217919091179055608090910151600390910155806113a88161490d565b915050611233565b5050565b6113bc6135b0565b600555565b6060600a805480602002602001604051908101604052809291908181526020016000905b828210156110f157838290600052602060002090600402016040518060a0016040529081600082018054611418906148d2565b80601f0160208091040260200160405190810160405280929190818152602001828054611444906148d2565b80156114915780601f1061146657610100808354040283529160200191611491565b820191906000526020600020905b81548152906001019060200180831161147457829003601f168201915b505050918352505060018281015460208084019190915260028401546001600160a01b0381166040850152600160a01b900460ff166060840152600390930154608090920191909152918352920191016113e5565b6114ee6135b0565b6115106040518060600160405280603481526020016149a160349139856136f2565b60005b600a548110156116c7576115f2600a828154811061154157634e487b7160e01b600052603260045260246000fd5b9060005260206000209060040201600001805461155d906148d2565b80601f0160208091040260200160405190810160405280929190818152602001828054611589906148d2565b80156115d65780601f106115ab576101008083540402835291602001916115d6565b820191906000526020600020905b8154815290600101906020018083116115b957829003601f168201915b5050505050868051602091820120825192909101919091201490565b156116b55782600a828154811061161957634e487b7160e01b600052603260045260246000fd5b906000526020600020906004020160020160146101000a81548160ff021916908360ff16021790555083600a828154811061166457634e487b7160e01b600052603260045260246000fd5b90600052602060002090600402016001018190555081600a828154811061169b57634e487b7160e01b600052603260045260246000fd5b9060005260206000209060040201600301819055506116c7565b806116bf8161490d565b915050611513565b5050505050565b6116d6613d5f565b6116de613e1e565b6001600160a01b0384166000908152600760209081526040808320805482518185028101850190935280835260609493849084015b828210156118705760008481526020908190206040805160e081019091526006850290910180546001600160a01b03168252600181018054929391929184019161175c906148d2565b80601f0160208091040260200160405190810160405280929190818152602001828054611788906148d2565b80156117d55780601f106117aa576101008083540402835291602001916117d5565b820191906000526020600020905b8154815290600101906020018083116117b857829003601f168201915b5050509183525050600282015460208201526003820154604082015260048201546060820152600582015460809091019060ff16600181111561182857634e487b7160e01b600052602160045260246000fd5b600181111561184757634e487b7160e01b600052602160045260246000fd5b815260059190910154610100900460ff1615156020918201529082526001929092019101611713565b50505050905061187e613e1e565b60005b825181101561190c57866001600160a01b03168382815181106118b457634e487b7160e01b600052603260045260246000fd5b6020026020010151600001516001600160a01b031614156118fa578281815181106118ef57634e487b7160e01b600052603260045260246000fd5b602002602001015191505b806119048161490d565b915050611881565b5060008160600151116119315760405162461bcd60e51b815260040161045c90614752565b6001600160a01b038616600090815260096020908152604080832080548251818502810185019093528083529192909190849084015b828210156119d85760008481526020908190206040805160c0810182526006860290920180546001600160a01b031683526001808201548486015260028201549284019290925260038101546060840152600481015460808401526005015460a08301529083529092019101611967565b5050505090506119e6613d5f565b60005b600a54811015611bee57611acc600a8281548110611a1757634e487b7160e01b600052603260045260246000fd5b90600052602060002090600402016000018054611a33906148d2565b80601f0160208091040260200160405190810160405280929190818152602001828054611a5f906148d2565b8015611aac5780601f10611a8157610100808354040283529160200191611aac565b820191906000526020600020905b815481529060010190602001808311611a8f57829003601f168201915b505050505085602001518051602091820120825192909101919091201490565b15611bdc57600a8181548110611af257634e487b7160e01b600052603260045260246000fd5b90600052602060002090600402016040518060a0016040529081600082018054611b1b906148d2565b80601f0160208091040260200160405190810160405280929190818152602001828054611b47906148d2565b8015611b945780601f10611b6957610100808354040283529160200191611b94565b820191906000526020600020905b815481529060010190602001808311611b7757829003601f168201915b50505091835250506001820154602082015260028201546001600160a01b0381166040830152600160a01b900460ff1660608201526003909101546080909101529150611bee565b80611be68161490d565b9150506119e9565b509891975095509350505050565b611c04613538565b6001600160a01b038116600090815260096020908152604080832080548251818502810185019093528083529192909190849084015b82821015611cab5760008481526020908190206040805160c0810182526006860290920180546001600160a01b031683526001808201548486015260028201549284019290925260038101546060840152600481015460808401526005015460a08301529083529092019101611c3a565b5050505090508051600014611d285760405162461bcd60e51b815260206004820152603c60248201527f596f757220626c657373696e6720697320636c61696d696e67206279206f746860448201527f6572732e2043616e206e6f74207265766f6b6520616e796d6f72652100000000606482015260840161045c565b33600090815260076020908152604080832080548251818502810185019093528083529192909190849084015b82821015611eb25760008481526020908190206040805160e081019091526006850290910180546001600160a01b031682526001810180549293919291840191611d9e906148d2565b80601f0160208091040260200160405190810160405280929190818152602001828054611dca906148d2565b8015611e175780601f10611dec57610100808354040283529160200191611e17565b820191906000526020600020905b815481529060010190602001808311611dfa57829003601f168201915b5050509183525050600282015460208201526003820154604082015260048201546060820152600582015460809091019060ff166001811115611e6a57634e487b7160e01b600052602160045260246000fd5b6001811115611e8957634e487b7160e01b600052602160045260246000fd5b815260059190910154610100900460ff1615156020918201529082526001929092019101611d55565b5050505090506000815111611ed95760405162461bcd60e51b815260040161045c90614752565b611ee1613e1e565b6000805b8351811015611f7357856001600160a01b0316848281518110611f1857634e487b7160e01b600052603260045260246000fd5b6020026020010151600001516001600160a01b03161415611f6157838181518110611f5357634e487b7160e01b600052603260045260246000fd5b602002602001015192508091505b80611f6b8161490d565b915050611ee5565b506000826060015111611f985760405162461bcd60e51b815260040161045c90614752565b600254606083015160405163a9059cbb60e01b815233600482015260248101919091526001600160a01b039091169063a9059cbb90604401602060405180830381600087803b158015611fea57600080fd5b505af1158015611ffe573d6000803e3d6000fd5b505050506040513d601f19601f82011682018060405250810190612022919061412f565b61206e5760405162461bcd60e51b815260206004820152601f60248201527f5472616e73666572206261636b20746f2073656e646572206661696c65642100604482015260640161045c565b336000908152600760205260409020805460019190839081106120a157634e487b7160e01b600052603260045260246000fd5b600091825260209182902060056006909202010180549215156101000261ff001990931692909217909155604080513381526001600160a01b038816928101929092527faf0a59ad678f81ba23bb66973fedd52a279df960fc232c3bd4f56faf8d7945fb910160405180910390a15050505050565b6001600160a01b0381166000908152600960209081526040808320805482518185028101850190935280835260609492939192909184015b828210156121bf5760008481526020908190206040805160c0810182526006860290920180546001600160a01b031683526001808201548486015260028201549284019290925260038101546060840152600481015460808401526005015460a0830152908352909201910161214e565b505050509050919050565b336000908152600860209081526040808320805482518185028101850190935280835260609492939192909184015b828210156110f15760008481526020908190206040805160c0810182526006860290920180546001600160a01b039081168452600182015416938301939093526002830180549293929184019161224f906148d2565b80601f016020809104026020016040519081016040528092919081815260200182805461227b906148d2565b80156122c85780601f1061229d576101008083540402835291602001916122c8565b820191906000526020600020905b8154815290600101906020018083116122ab57829003601f168201915b505050505081526020016003820154815260200160048201548152602001600582015481525050815260200190600101906121f9565b6123066135b0565b61230e613737565b6003546040516370a0823160e01b81523060048201526001600160a01b039091169063a9059cbb90839083906370a082319060240160206040518083038186803b15801561235b57600080fd5b505afa15801561236f573d6000803e3d6000fd5b505050506040513d601f19601f82011682018060405250810190612393919061431a565b6040516001600160e01b031960e085901b1681526001600160a01b0390921660048301526024820152604401602060405180830381600087803b1580156123d957600080fd5b505af11580156123ed573d6000803e3d6000fd5b505050506040513d601f19601f82011682018060405250810190612411919061412f565b6124725760405162461bcd60e51b815260206004820152602c60248201527f5472616e736665722043425420746f206e6578742076657273696f6e2061646460448201526b72657373206661696c65642160a01b606482015260840161045c565b6002546001600160a01b031663a9059cbb6124956000546001600160a01b031690565b6002546040516370a0823160e01b81523060048201526001600160a01b03909116906370a082319060240160206040518083038186803b1580156124d857600080fd5b505afa1580156124ec573d6000803e3d6000fd5b505050506040513d601f19601f82011682018060405250810190612510919061431a565b6040516001600160e01b031960e085901b1681526001600160a01b0390921660048301526024820152604401602060405180830381600087803b15801561255657600080fd5b505af115801561256a573d6000803e3d6000fd5b505050506040513d601f19601f8201168201806040525081019061258e919061412f565b6125da5760405162461bcd60e51b815260206004820152601e60248201527f5472616e73666572204255534420746f206f776e6572206661696c6564210000604482015260640161045c565b6004805460405163f2fde38b60e01b81526001600160a01b038481169382019390935291169063f2fde38b90602401600060405180830381600087803b15801561262357600080fd5b505af11580156116c7573d6000803e3d6000fd5b6126826040518060c0016040528060006001600160a01b0316815260200160006001600160a01b03168152602001606081526020016000815260200160008152602001600081525090565b61268a613538565b600260015414156126dd5760405162461bcd60e51b815260206004820152601f60248201527f5265656e7472616e637947756172643a207265656e7472616e742063616c6c00604482015260640161045c565b60026001819055506127086040518060600160405280603181526020016149d5603191398787613787565b6001600160a01b038216331461274d5760405162461bcd60e51b815260206004820152600a6024820152696675636b4f666621212160b01b604482015260640161045c565b6127588484876137d3565b6127995760405162461bcd60e51b8152602060048201526012602482015271496e76616c6964207369676e69747572652160701b604482015260640161045c565b6127cd604051806040016040528060138152602001727369676e61747572652069732076616c69642160681b8152506134b0565b333b1561282e5760405162461bcd60e51b815260206004820152602960248201527f596f752063616e206e6f7420636c61696d20626c657373696e672066726f6d20604482015268636f6e74726163742160b81b606482015260840161045c565b6001600160a01b038616600090815260076020908152604080832080548251818502810185019093528083529192909190849084015b828210156129c15760008481526020908190206040805160e081019091526006850290910180546001600160a01b0316825260018101805492939192918401916128ad906148d2565b80601f01602080910402602001604051908101604052809291908181526020018280546128d9906148d2565b80156129265780601f106128fb57610100808354040283529160200191612926565b820191906000526020600020905b81548152906001019060200180831161290957829003601f168201915b5050509183525050600282015460208201526003820154604082015260048201546060820152600582015460809091019060ff16600181111561297957634e487b7160e01b600052602160045260246000fd5b600181111561299857634e487b7160e01b600052602160045260246000fd5b815260059190910154610100900460ff1615156020918201529082526001929092019101612864565b50505050905060008151116129e85760405162461bcd60e51b815260040161045c90614752565b6129f0613e1e565b60005b8251811015612a7e57876001600160a01b0316838281518110612a2657634e487b7160e01b600052603260045260246000fd5b6020026020010151600001516001600160a01b03161415612a6c57828181518110612a6157634e487b7160e01b600052603260045260246000fd5b602002602001015191505b80612a768161490d565b9150506129f3565b5060c081015115612ad15760405162461bcd60e51b815260206004820152601960248201527f5468697320626c657373696e67206973207265766f6b65642100000000000000604482015260640161045c565b6000816060015111612af55760405162461bcd60e51b815260040161045c90614752565b6001600160a01b038716600090815260096020908152604080832080548251818502810185019093528083529192909190849084015b82821015612b9c5760008481526020908190206040805160c0810182526006860290920180546001600160a01b031683526001808201548486015260028201549284019290925260038101546060840152600481015460808401526005015460a08301529083529092019101612b2b565b5050505090508160800151815110612bf65760405162461bcd60e51b815260206004820152601b60248201527f5468657265206973206e6f206d6f726520626c657373696e6773210000000000604482015260640161045c565b6000805b8251811015612ceb57336001600160a01b0316838281518110612c2d57634e487b7160e01b600052603260045260246000fd5b6020026020010151600001516001600160a01b03161415612ca05760405162461bcd60e51b815260206004820152602760248201527f596f75206861766520616c726561647920636c61696d6564207468697320626c604482015266657373696e672160c81b606482015260840161045c565b828181518110612cc057634e487b7160e01b600052603260045260246000fd5b60200260200101516040015182612cd79190614870565b915080612ce38161490d565b915050612bfa565b506000808460a001516001811115612d1357634e487b7160e01b600052602160045260246000fd5b1415612d335760808401516060850151612d2c916135a4565b9050612dd7565b60018460a001516001811115612d5957634e487b7160e01b600052602160045260246000fd5b1415612dd7576000612d798451866080015161393f90919063ffffffff16565b90506000612d87600a61394b565b90508160011415612da8576060860151612da1908561393f565b9250612dd4565b612dd160026109ec600a6109f2856109ec886109f28c8f6060015161393f90919063ffffffff16565b92505b50505b60006040518060c001604052808d6001600160a01b031681526020018c6001600160a01b0316815260200186602001518152602001428152602001612e316006546103e8612e2591906148bb565b6109ec866103e86135a4565b8152602001612e516006546109ec6103e8876135a490919063ffffffff16565b905233600090815260086020908152604080832080546001818101835591855293839020855160069095020180546001600160a01b039586166001600160a01b03199182161782558487015192820180549390961692169190911790935583015180519394508493612ec99260028501920190613d9a565b50606082015160038201556080820151600482015560a09091015160059182015554600090612f04906109ec85670de0b6b3a76400006135a4565b90506103e8811115612f1557506103e75b600960008d6001600160a01b03166001600160a01b031681526020019081526020016000206040518060c00160405280336001600160a01b03168152602001428152602001858152602001612f7f6006546103e8612f7391906148bb565b6109ec886103e86135a4565b8152602001612f9f6006546109ec6103e8896135a490919063ffffffff16565b815260209081018490528254600180820185556000948552938290208351600692830290910180546001600160a01b0319166001600160a01b0392831617815592840151948301949094556040830151600280840191909155606084015160038401556080840151600484015560a0909301516005909201919091559054905491169063a9059cbb90339061303a90612f73906103e86148bb565b6040516001600160e01b031960e085901b1681526001600160a01b0390921660048301526024820152604401602060405180830381600087803b15801561308057600080fd5b505af1158015613094573d6000803e3d6000fd5b505050506040513d601f19601f820116820180604052508101906130b8919061412f565b6131045760405162461bcd60e51b815260206004820152601760248201527f436c61696d2074686520746f6b656e206661696c656421000000000000000000604482015260640161045c565b6002546001600160a01b031663a9059cbb6131276000546001600160a01b031690565b60065461313a906109ec886103e86135a4565b6040516001600160e01b031960e085901b1681526001600160a01b0390921660048301526024820152604401602060405180830381600087803b15801561318057600080fd5b505af1158015613194573d6000803e3d6000fd5b505050506040513d601f19601f820116820180604052508101906131b8919061412f565b6131fa5760405162461bcd60e51b815260206004820152601360248201527254616e7366657220746178206661696c65642160681b604482015260640161045c565b6003546040516370a0823160e01b815230600482015282916001600160a01b0316906370a082319060240160206040518083038186803b15801561323d57600080fd5b505afa158015613251573d6000803e3d6000fd5b505050506040513d601f19601f82011682018060405250810190613275919061431a565b1061334c5760035460405163a9059cbb60e01b81526001600160a01b038f81166004830152602482018490529091169063a9059cbb90604401602060405180830381600087803b1580156132c857600080fd5b505af11580156132dc573d6000803e3d6000fd5b505050506040513d601f19601f82011682018060405250810190613300919061412f565b61334c5760405162461bcd60e51b815260206004820152601760248201527f617761726420434220746f6b656e73206661696c656421000000000000000000604482015260640161045c565b600480546020880151604051631e1d900360e31b81526001600160a01b039092169263f0ec801892613382923392909101614529565b602060405180830381600087803b15801561339c57600080fd5b505af11580156133b0573d6000803e3d6000fd5b505050506040513d601f19601f820116820180604052508101906133d4919061431a565b507f411a457db9208c2357cddce37558ebfedc401243648449843470687d4e9014428d8d60405161341b9291906001600160a01b0392831681529116602082015260400190565b60405180910390a150600180559b9a5050505050505050505050565b61343f6135b0565b6001600160a01b0381166134a45760405162461bcd60e51b815260206004820152602660248201527f4f776e61626c653a206e6577206f776e657220697320746865207a65726f206160448201526564647265737360d01b606482015260840161045c565b6134ad8161365f565b50565b6134ad816040516024016134c49190614671565b60408051601f198184030181529190526020810180516001600160e01b031663104c13eb60e21b179052613983565b6113b08282604051602401613509929190614684565b60408051601f198184030181529190526020810180516001600160e01b031663319af33360e01b179052613983565b600054600160a01b900460ff1615610f515760405162461bcd60e51b815260206004820152601060248201526f14185d5cd8589b194e881c185d5cd95960821b604482015260640161045c565b6000613591828461489c565b9392505050565b60006135918284614870565b60006135918284614888565b6000546001600160a01b03163314610f515760405162461bcd60e51b815260206004820181905260248201527f4f776e61626c653a2063616c6c6572206973206e6f7420746865206f776e6572604482015260640161045c565b613612613737565b6000805460ff60a01b191690557f5db9ee0a495bf2e6ff9c91a7834c1ba4fdd244a5e8aa4e537bd38aeae4b073aa335b6040516001600160a01b03909116815260200160405180910390a1565b600080546001600160a01b038381166001600160a01b0319831681178455604051919092169283917f8be0079c531659141344cd1fd0a4f28419497f9722a3daafe3b4186f6b6457e09190a35050565b6136b7613538565b6000805460ff60a01b1916600160a01b1790557f62e78cea01bee320cd4e420270b5ea74000d11b0c9f74754ebdbfc544b05a2586136423390565b6113b082826040516024016137089291906146e1565b60408051601f198184030181529190526020810180516001600160e01b0316634b5c427760e01b179052613983565b600054600160a01b900460ff16610f515760405162461bcd60e51b815260206004820152601460248201527314185d5cd8589b194e881b9bdd081c185d5cd95960621b604482015260640161045c565b6137ce83838360405160240161379f939291906146ae565b60408051601f198184030181529190526020810180516001600160e01b03166307e763af60e51b179052613983565b505050565b6000806137e085856139a4565b905060005b6001600160a01b0384166000908152600b6020526040902054811015613933576001600160a01b038481166000908152600b602052604090208054918416918390811061384257634e487b7160e01b600052603260045260246000fd5b6000918252602090912001546001600160a01b03161480156138af57506001600160a01b0384166000908152600b6020526040902080548290811061389757634e487b7160e01b600052603260045260246000fd5b600091825260209091200154600160a01b900460ff16155b15613921576001600160a01b0384166000908152600b60205260409020805460019190839081106138f057634e487b7160e01b600052603260045260246000fd5b60009182526020909120018054911515600160a01b0260ff60a01b1990921691909117905550600191506135919050565b8061392b8161490d565b9150506137e5565b50600095945050505050565b600061359182846148bb565b6000808261395a6001436148bb565b613965919040614928565b9050801580613974575080600a145b1561397d575060015b92915050565b80516a636f6e736f6c652e6c6f67602083016000808483855afa5050505050565b60008060006139b385856139c8565b915091506139c081613a38565b509392505050565b6000808251604114156139ff5760208301516040840151606085015160001a6139f387828585613c39565b94509450505050613a31565b825160401415613a295760208301516040840151613a1e868383613d26565b935093505050613a31565b506000905060025b9250929050565b6000816004811115613a5a57634e487b7160e01b600052602160045260246000fd5b1415613a635750565b6001816004811115613a8557634e487b7160e01b600052602160045260246000fd5b1415613ad35760405162461bcd60e51b815260206004820152601860248201527f45434453413a20696e76616c6964207369676e61747572650000000000000000604482015260640161045c565b6002816004811115613af557634e487b7160e01b600052602160045260246000fd5b1415613b435760405162461bcd60e51b815260206004820152601f60248201527f45434453413a20696e76616c6964207369676e6174757265206c656e67746800604482015260640161045c565b6003816004811115613b6557634e487b7160e01b600052602160045260246000fd5b1415613bbe5760405162461bcd60e51b815260206004820152602260248201527f45434453413a20696e76616c6964207369676e6174757265202773272076616c604482015261756560f01b606482015260840161045c565b6004816004811115613be057634e487b7160e01b600052602160045260246000fd5b14156134ad5760405162461bcd60e51b815260206004820152602260248201527f45434453413a20696e76616c6964207369676e6174757265202776272076616c604482015261756560f01b606482015260840161045c565b6000807f7fffffffffffffffffffffffffffffff5d576e7357a4501ddfe92f46681b20a0831115613c705750600090506003613d1d565b8460ff16601b14158015613c8857508460ff16601c14155b15613c995750600090506004613d1d565b6040805160008082526020820180845289905260ff881692820192909252606081018690526080810185905260019060a0016020604051602081039080840390855afa158015613ced573d6000803e3d6000fd5b5050604051601f1901519150506001600160a01b038116613d1657600060019250925050613d1d565b9150600090505b94509492505050565b6000806001600160ff1b03831681613d4360ff86901c601b614870565b9050613d5187828885613c39565b935093505050935093915050565b6040518060a00160405280606081526020016000815260200160006001600160a01b03168152602001600060ff168152602001600081525090565b828054613da6906148d2565b90600052602060002090601f016020900481019282613dc85760008555613e0e565b82601f10613de157805160ff1916838001178555613e0e565b82800160010185558215613e0e579182015b82811115613e0e578251825591602001919060010190613df3565b50613e1a929150613e83565b5090565b6040518060e0016040528060006001600160a01b031681526020016060815260200160008152602001600081526020016000815260200160006001811115613e7657634e487b7160e01b600052602160045260246000fd5b8152600060209091015290565b5b80821115613e1a5760008155600101613e84565b600067ffffffffffffffff831115613eb257613eb2614968565b613ec5601f8401601f191660200161481b565b9050828152838383011115613ed957600080fd5b828260208301376000602084830101529392505050565b80356001600160a01b0381168114613f0757600080fd5b919050565b600082601f830112613f1c578081fd5b61359183833560208501613e98565b803560ff81168114613f0757600080fd5b600060208284031215613f4d578081fd5b61359182613ef0565b60008060408385031215613f68578081fd5b613f7183613ef0565b9150613f7f60208401613ef0565b90509250929050565b600080600080600060a08688031215613f9f578081fd5b613fa886613ef0565b9450613fb660208701613ef0565b935060408601359250606086013567ffffffffffffffff811115613fd8578182fd5b8601601f81018813613fe8578182fd5b613ff788823560208401613e98565b92505061400660808701613ef0565b90509295509295909350565b60006020808385031215614024578182fd5b823567ffffffffffffffff8082111561403b578384fd5b818501915085601f83011261404e578384fd5b813561406161405c8261484c565b61481b565b80828252858201915085850189878560051b8801011115614080578788fd5b875b848110156141205781358681111561409857898afd5b870160a0818d03601f19018113156140ae578a8bfd5b6140b66147f2565b8a830135898111156140c6578c8dfd5b6140d48f8d83870101613f0c565b8252506040808401358c83015260606140ee818601613ef0565b8284015260809150614101828601613f2b565b9083015291909201359082015284529287019290870190600101614082565b50909998505050505050505050565b600060208284031215614140578081fd5b81518015158114613591578182fd5b60008060008060808587031215614164578384fd5b843567ffffffffffffffff81111561417a578485fd5b61418687828801613f0c565b94505061419560208601613ef0565b93969395505050506040820135916060013590565b60008060008060008060c087890312156141c2578384fd5b863567ffffffffffffffff808211156141d9578586fd5b6141e58a838b01613f0c565b9750602091506141f6828a01613ef0565b96506040890135955060608901359450608089013560028110614217578384fd5b935060a08901358181111561422a578384fd5b89019050601f81018a1361423c578283fd5b803561424a61405c8261484c565b8082825284820191508484018d868560051b8701011115614269578687fd5b8694505b838510156142925761427e81613ef0565b83526001949094019391850191850161426d565b5080955050505050509295509295509295565b600080600080608085870312156142ba578182fd5b843567ffffffffffffffff8111156142d0578283fd5b6142dc87828801613f0c565b945050602085013592506142f260408601613f2b565b9396929550929360600135925050565b600060208284031215614313578081fd5b5035919050565b60006020828403121561432b578081fd5b5051919050565b6000815180845260208085019450808401835b8381101561439e57815180516001600160a01b03168852838101518489015260408082015190890152606080820151908901526080808201519089015260a0908101519088015260c09096019590820190600101614345565b509495945050505050565b60008151808452815b818110156143ce576020818501810151868301820152016143b2565b818111156143df5782602083870101525b50601f01601f19169290920160200192915050565b6000815160a0845261440960a08501826143a9565b602084810151908601526040808501516001600160a01b03169086015260608085015160ff169086015260809384015193909401929092525090919050565b600060018060a01b0380835116845280602084015116602085015250604082015160c0604085015261447d60c08501826143a9565b9050606083015160608501526080830151608085015260a083015160a08501528091505092915050565b60018060a01b0381511682526000602082015160e060208501526144ce60e08501826143a9565b905060408301516040850152606083015160608501526080830151608085015260a08301516002811061450f57634e487b7160e01b83526021600452602483fd5b8060a08601525060c08301516139c060c086018215159052565b6001600160a01b038316815260406020820181905260009061454d908301846143a9565b949350505050565b6020815260006135916020830184614332565b6000602080830181845280855180835260408601915060408160051b8701019250838701855b828110156145bc57603f198886030184526145aa8583516143f4565b9450928501929085019060010161458e565b5092979650505050505050565b6000602080830181845280855180835260408601915060408160051b8701019250838701855b828110156145bc57603f1988860301845261460b858351614448565b945092850192908501906001016145ef565b6000602080830181845280855180835260408601915060408160051b8701019250838701855b828110156145bc57603f1988860301845261465f8583516144a7565b94509285019290850190600101614643565b60208152600061359160208301846143a9565b60408152600061469760408301856143a9565b905060018060a01b03831660208301529392505050565b6060815260006146c160608301866143a9565b6001600160a01b0394851660208401529290931660409091015292915050565b6040815260006146f460408301856143a9565b828103602084015261470681856143a9565b95945050505050565b60a08152600061472260a08301886143a9565b6020830196909652506001600160a01b0393909316604084015260ff919091166060830152608090910152919050565b6020808252602a908201527f5468657265206973206e6f20626c657373696e6720666f756e64206f6e20746860408201526969732073656e6465722160b01b606082015260800190565b6060815260006147af60608301866143f4565b82810360208401526147c181866144a7565b905082810360408401526147d58185614332565b9695505050505050565b6020815260006135916020830184614448565b60405160a0810167ffffffffffffffff8111828210171561481557614815614968565b60405290565b604051601f8201601f1916810167ffffffffffffffff8111828210171561484457614844614968565b604052919050565b600067ffffffffffffffff82111561486657614866614968565b5060051b60200190565b600082198211156148835761488361493c565b500190565b60008261489757614897614952565b500490565b60008160001904831182151516156148b6576148b661493c565b500290565b6000828210156148cd576148cd61493c565b500390565b600181811c908216806148e657607f821691505b6020821081141561490757634e487b7160e01b600052602260045260246000fd5b50919050565b60006000198214156149215761492161493c565b5060010190565b60008261493757614937614952565b500690565b634e487b7160e01b600052601160045260246000fd5b634e487b7160e01b600052601260045260246000fd5b634e487b7160e01b600052604160045260246000fdfe737461727420746f2061646420626c657373696e6720746f2074686520706f6f6c21737461727420746f2072656d6f7665206f6e6520626c657373696e672066726f6d2074686520706f6f6c2120696d6167653a2573737461727420746f20636c61696d20626c657373696e67212073656e6465723a25732c20626c657373696e6749443a2573a264697066735822122046929cc3b936477db65d8ac07182ebe34279e3bc4873b3f949eb02313cfc8bd064736f6c63430008040033426c657373696e6720697320746865206d6f737420756e6976657273616c2068756d616e2065787072657373696f6e206f6620656d6f74696f6e2c20616e6420776520617265204e4654697a696e6720697421",
  "linkReferences": {},
  "deployedLinkReferences": {}
}