{
  "_format": "hh-sol-artifact-1",
  "contractName": "CryptoBlessing",
  "sourceName": "contracts/CryptoBlessing.sol",
  "abi": [
    {
      "inputs": [
        {
          "internalType": "address",
          "name": "_sendTokenAddress",
          "type": "address"
        },
        {
          "internalType": "address",
          "name": "_cryptoBlessingTokenAddress",
          "type": "address"
        },
        {
          "internalType": "address",
          "name": "_cryptoBlessingNFTAddress",
          "type": "address"
        }
      ],
      "stateMutability": "payable",
      "type": "constructor"
    },
    {
      "anonymous": false,
      "inputs": [
        {
          "indexed": true,
          "internalType": "address",
          "name": "previousOwner",
          "type": "address"
        },
        {
          "indexed": true,
          "internalType": "address",
          "name": "newOwner",
          "type": "address"
        }
      ],
      "name": "OwnershipTransferred",
      "type": "event"
    },
    {
      "anonymous": false,
      "inputs": [
        {
          "indexed": false,
          "internalType": "address",
          "name": "account",
          "type": "address"
        }
      ],
      "name": "Paused",
      "type": "event"
    },
    {
      "anonymous": false,
      "inputs": [
        {
          "indexed": false,
          "internalType": "address",
          "name": "account",
          "type": "address"
        }
      ],
      "name": "Unpaused",
      "type": "event"
    },
    {
      "anonymous": false,
      "inputs": [
        {
          "indexed": false,
          "internalType": "address",
          "name": "sender",
          "type": "address"
        },
        {
          "indexed": false,
          "internalType": "address",
          "name": "blessingID",
          "type": "address"
        }
      ],
      "name": "claimerClaimComplete",
      "type": "event"
    },
    {
      "anonymous": false,
      "inputs": [
        {
          "indexed": false,
          "internalType": "address",
          "name": "sender",
          "type": "address"
        },
        {
          "indexed": false,
          "internalType": "address",
          "name": "blessingID",
          "type": "address"
        }
      ],
      "name": "senderRevokeComplete",
      "type": "event"
    },
    {
      "anonymous": false,
      "inputs": [
        {
          "indexed": false,
          "internalType": "address",
          "name": "sender",
          "type": "address"
        },
        {
          "indexed": false,
          "internalType": "address",
          "name": "blessingID",
          "type": "address"
        }
      ],
      "name": "senderSendCompleted",
      "type": "event"
    },
    {
      "inputs": [
        {
          "internalType": "string",
          "name": "image",
          "type": "string"
        },
        {
          "internalType": "address",
          "name": "blessingOwner",
          "type": "address"
        },
        {
          "internalType": "uint256",
          "name": "price",
          "type": "uint256"
        },
        {
          "internalType": "uint256",
          "name": "taxRate",
          "type": "uint256"
        }
      ],
      "name": "addBlessing",
      "outputs": [],
      "stateMutability": "nonpayable",
      "type": "function"
    },
    {
      "inputs": [
        {
          "internalType": "string[]",
          "name": "images",
          "type": "string[]"
        },
        {
          "components": [
            {
              "internalType": "uint256",
              "name": "price",
              "type": "uint256"
            },
            {
              "internalType": "address",
              "name": "owner",
              "type": "address"
            },
            {
              "internalType": "uint8",
              "name": "deleted",
              "type": "uint8"
            },
            {
              "internalType": "uint256",
              "name": "taxRate",
              "type": "uint256"
            }
          ],
          "internalType": "struct CryptoBlessing.Blessing[]",
          "name": "blessings",
          "type": "tuple[]"
        }
      ],
      "name": "batchAddBlessing",
      "outputs": [],
      "stateMutability": "nonpayable",
      "type": "function"
    },
    {
      "inputs": [
        {
          "internalType": "address",
          "name": "sender",
          "type": "address"
        },
        {
          "internalType": "address",
          "name": "blessingID",
          "type": "address"
        },
        {
          "internalType": "bytes32",
          "name": "hash",
          "type": "bytes32"
        },
        {
          "internalType": "bytes",
          "name": "signature",
          "type": "bytes"
        },
        {
          "internalType": "address",
          "name": "fuckOff",
          "type": "address"
        }
      ],
      "name": "claimBlessing",
      "outputs": [
        {
          "components": [
            {
              "internalType": "address",
              "name": "sender",
              "type": "address"
            },
            {
              "internalType": "address",
              "name": "blessingID",
              "type": "address"
            },
            {
              "internalType": "string",
              "name": "blessingImage",
              "type": "string"
            },
            {
              "internalType": "uint256",
              "name": "claimTimestamp",
              "type": "uint256"
            },
            {
              "internalType": "uint256",
              "name": "claimAmount",
              "type": "uint256"
            },
            {
              "internalType": "uint256",
              "name": "taxAmount",
              "type": "uint256"
            }
          ],
          "internalType": "struct CryptoBlessing.ClaimerBlessing",
          "name": "",
          "type": "tuple"
        }
      ],
      "stateMutability": "payable",
      "type": "function"
    },
    {
      "inputs": [
        {
          "internalType": "address",
          "name": "sender",
          "type": "address"
        },
        {
          "internalType": "address",
          "name": "blessingID",
          "type": "address"
        }
      ],
      "name": "getAllInfoOfBlessing",
      "outputs": [
        {
          "components": [
            {
              "internalType": "uint256",
              "name": "price",
              "type": "uint256"
            },
            {
              "internalType": "address",
              "name": "owner",
              "type": "address"
            },
            {
              "internalType": "uint8",
              "name": "deleted",
              "type": "uint8"
            },
            {
              "internalType": "uint256",
              "name": "taxRate",
              "type": "uint256"
            }
          ],
          "internalType": "struct CryptoBlessing.Blessing",
          "name": "",
          "type": "tuple"
        },
        {
          "components": [
            {
              "internalType": "address",
              "name": "blessingID",
              "type": "address"
            },
            {
              "internalType": "string",
              "name": "blessingImage",
              "type": "string"
            },
            {
              "internalType": "uint256",
              "name": "sendTimestamp",
              "type": "uint256"
            },
            {
              "internalType": "uint256",
              "name": "tokenAmount",
              "type": "uint256"
            },
            {
              "internalType": "uint256",
              "name": "claimQuantity",
              "type": "uint256"
            },
            {
              "internalType": "enum CryptoBlessing.ClaimType",
              "name": "claimType",
              "type": "uint8"
            },
            {
              "internalType": "bool",
              "name": "revoked",
              "type": "bool"
            }
          ],
          "internalType": "struct CryptoBlessing.SenderBlessing",
          "name": "",
          "type": "tuple"
        },
        {
          "components": [
            {
              "internalType": "address",
              "name": "claimer",
              "type": "address"
            },
            {
              "internalType": "uint256",
              "name": "claimTimestamp",
              "type": "uint256"
            },
            {
              "internalType": "uint256",
              "name": "distributedAmount",
              "type": "uint256"
            },
            {
              "internalType": "uint256",
              "name": "claimAmount",
              "type": "uint256"
            },
            {
              "internalType": "uint256",
              "name": "taxAmount",
              "type": "uint256"
            },
            {
              "internalType": "uint256",
              "name": "CBTokenAwardToSenderAmount",
              "type": "uint256"
            }
          ],
          "internalType": "struct CryptoBlessing.BlessingClaimStatus[]",
          "name": "",
          "type": "tuple[]"
        }
      ],
      "stateMutability": "view",
      "type": "function"
    },
    {
      "inputs": [
        {
          "internalType": "string",
          "name": "image",
          "type": "string"
        }
      ],
      "name": "getBlessing",
      "outputs": [
        {
          "components": [
            {
              "internalType": "uint256",
              "name": "price",
              "type": "uint256"
            },
            {
              "internalType": "address",
              "name": "owner",
              "type": "address"
            },
            {
              "internalType": "uint8",
              "name": "deleted",
              "type": "uint8"
            },
            {
              "internalType": "uint256",
              "name": "taxRate",
              "type": "uint256"
            }
          ],
          "internalType": "struct CryptoBlessing.Blessing",
          "name": "",
          "type": "tuple"
        }
      ],
      "stateMutability": "view",
      "type": "function"
    },
    {
      "inputs": [
        {
          "internalType": "address",
          "name": "_blessingID",
          "type": "address"
        }
      ],
      "name": "getBlessingClaimingStatus",
      "outputs": [
        {
          "components": [
            {
              "internalType": "address",
              "name": "claimer",
              "type": "address"
            },
            {
              "internalType": "uint256",
              "name": "claimTimestamp",
              "type": "uint256"
            },
            {
              "internalType": "uint256",
              "name": "distributedAmount",
              "type": "uint256"
            },
            {
              "internalType": "uint256",
              "name": "claimAmount",
              "type": "uint256"
            },
            {
              "internalType": "uint256",
              "name": "taxAmount",
              "type": "uint256"
            },
            {
              "internalType": "uint256",
              "name": "CBTokenAwardToSenderAmount",
              "type": "uint256"
            }
          ],
          "internalType": "struct CryptoBlessing.BlessingClaimStatus[]",
          "name": "",
          "type": "tuple[]"
        }
      ],
      "stateMutability": "view",
      "type": "function"
    },
    {
      "inputs": [],
      "name": "getMyClaimedBlessings",
      "outputs": [
        {
          "components": [
            {
              "internalType": "address",
              "name": "sender",
              "type": "address"
            },
            {
              "internalType": "address",
              "name": "blessingID",
              "type": "address"
            },
            {
              "internalType": "string",
              "name": "blessingImage",
              "type": "string"
            },
            {
              "internalType": "uint256",
              "name": "claimTimestamp",
              "type": "uint256"
            },
            {
              "internalType": "uint256",
              "name": "claimAmount",
              "type": "uint256"
            },
            {
              "internalType": "uint256",
              "name": "taxAmount",
              "type": "uint256"
            }
          ],
          "internalType": "struct CryptoBlessing.ClaimerBlessing[]",
          "name": "",
          "type": "tuple[]"
        }
      ],
      "stateMutability": "view",
      "type": "function"
    },
    {
      "inputs": [],
      "name": "getMySendedBlessings",
      "outputs": [
        {
          "components": [
            {
              "internalType": "address",
              "name": "blessingID",
              "type": "address"
            },
            {
              "internalType": "string",
              "name": "blessingImage",
              "type": "string"
            },
            {
              "internalType": "uint256",
              "name": "sendTimestamp",
              "type": "uint256"
            },
            {
              "internalType": "uint256",
              "name": "tokenAmount",
              "type": "uint256"
            },
            {
              "internalType": "uint256",
              "name": "claimQuantity",
              "type": "uint256"
            },
            {
              "internalType": "enum CryptoBlessing.ClaimType",
              "name": "claimType",
              "type": "uint8"
            },
            {
              "internalType": "bool",
              "name": "revoked",
              "type": "bool"
            }
          ],
          "internalType": "struct CryptoBlessing.SenderBlessing[]",
          "name": "",
          "type": "tuple[]"
        }
      ],
      "stateMutability": "view",
      "type": "function"
    },
    {
      "inputs": [],
      "name": "owner",
      "outputs": [
        {
          "internalType": "address",
          "name": "",
          "type": "address"
        }
      ],
      "stateMutability": "view",
      "type": "function"
    },
    {
      "inputs": [],
      "name": "pause",
      "outputs": [],
      "stateMutability": "nonpayable",
      "type": "function"
    },
    {
      "inputs": [],
      "name": "paused",
      "outputs": [
        {
          "internalType": "bool",
          "name": "",
          "type": "bool"
        }
      ],
      "stateMutability": "view",
      "type": "function"
    },
    {
      "inputs": [],
      "name": "renounceOwnership",
      "outputs": [],
      "stateMutability": "nonpayable",
      "type": "function"
    },
    {
      "inputs": [
        {
          "internalType": "address",
          "name": "blessingID",
          "type": "address"
        }
      ],
      "name": "revokeBlessing",
      "outputs": [],
      "stateMutability": "nonpayable",
      "type": "function"
    },
    {
      "inputs": [
        {
          "internalType": "string",
          "name": "image",
          "type": "string"
        },
        {
          "internalType": "address",
          "name": "blessingID",
          "type": "address"
        },
        {
          "internalType": "uint256",
          "name": "tokenAmount",
          "type": "uint256"
        },
        {
          "internalType": "uint256",
          "name": "claimQuantity",
          "type": "uint256"
        },
        {
          "internalType": "enum CryptoBlessing.ClaimType",
          "name": "claimType",
          "type": "uint8"
        },
        {
          "internalType": "address[]",
          "name": "pubkeys",
          "type": "address[]"
        }
      ],
      "name": "sendBlessing",
      "outputs": [],
      "stateMutability": "nonpayable",
      "type": "function"
    },
    {
      "inputs": [
        {
          "internalType": "uint256",
          "name": "_CBTOKENAWARDRATIO",
          "type": "uint256"
        }
      ],
      "name": "setCBTOKENAWARDRATIO",
      "outputs": [],
      "stateMutability": "nonpayable",
      "type": "function"
    },
    {
      "inputs": [
        {
          "internalType": "uint256",
          "name": "_CLAIM_TAX_RATE",
          "type": "uint256"
        }
      ],
      "name": "setCLAIM_TAX_RATE",
      "outputs": [],
      "stateMutability": "nonpayable",
      "type": "function"
    },
    {
      "inputs": [
        {
          "internalType": "address",
          "name": "newOwner",
          "type": "address"
        }
      ],
      "name": "transferOwnership",
      "outputs": [],
      "stateMutability": "nonpayable",
      "type": "function"
    },
    {
      "inputs": [],
      "name": "unpause",
      "outputs": [],
      "stateMutability": "nonpayable",
      "type": "function"
    },
    {
      "inputs": [
        {
          "internalType": "string",
          "name": "image",
          "type": "string"
        },
        {
          "internalType": "uint256",
          "name": "price",
          "type": "uint256"
        },
        {
          "internalType": "uint8",
          "name": "deleted",
          "type": "uint8"
        },
        {
          "internalType": "uint256",
          "name": "taxRate",
          "type": "uint256"
        }
      ],
      "name": "updateBlessing",
      "outputs": [],
      "stateMutability": "nonpayable",
      "type": "function"
    },
    {
      "inputs": [
        {
          "internalType": "address",
          "name": "nextVersionContractAddress",
          "type": "address"
        }
      ],
      "name": "upgradeToNextVersion",
      "outputs": [],
      "stateMutability": "nonpayable",
      "type": "function"
    }
  ],
  "bytecode": "0x608060405260058055600a60065560405162004761380380620047618339810160408190526200002f9162000278565b6200003a336200014b565b6000805460ff60a01b1916905560018055604080516080810190915260538082526200007b91906200470e60208301396200019b60201b62002e231760201c565b620000c76040518060400160405280601481526020017f73656e64546f6b656e416464726573733a20257300000000000000000000000081525084620001e960201b62002e661760201c565b62000108604051806040016040528060128152602001714342546f6b656e416464726573733a20257360701b81525083620001e960201b62002e661760201c565b600280546001600160a01b039485166001600160a01b03199182161790915560038054938516938216939093179092556004805491909316911617905562000357565b600080546001600160a01b038381166001600160a01b0319831681178455604051919092169283917f8be0079c531659141344cd1fd0a4f28419497f9722a3daafe3b4186f6b6457e09190a35050565b620001e681604051602401620001b291906200030f565b60408051601f198184030181529190526020810180516001600160e01b0390811663104c13eb60e21b179091526200023a16565b50565b620002368282604051602401620002029291906200032b565b60408051601f198184030181529190526020810180516001600160e01b0390811663319af33360e01b179091526200023a16565b5050565b80516a636f6e736f6c652e6c6f67602083016000808483855afa5050505050565b80516001600160a01b03811681146200027357600080fd5b919050565b6000806000606084860312156200028d578283fd5b62000298846200025b565b9250620002a8602085016200025b565b9150620002b8604085016200025b565b90509250925092565b60008151808452815b81811015620002e857602081850181015186830182015201620002ca565b81811115620002fa5782602083870101525b50601f01601f19169290920160200192915050565b602081526000620003246020830184620002c1565b9392505050565b604081526000620003406040830185620002c1565b905060018060a01b03831660208301529392505050565b6143a780620003676000396000f3fe60806040526004361061011e5760003560e01c8063aa387cfa116100a0578063dd03ff8f11610064578063dd03ff8f14610319578063e648721814610346578063e911b68214610368578063ea267e9714610388578063f2fde38b146103a857600080fd5b8063aa387cfa1461025d578063bcc5f88a1461027d578063c4cf21e81461029d578063d9c3e243146102cc578063dbf3fb9e146102ec57600080fd5b8063715018a6116100e7578063715018a6146101c957806373fcd996146101de5780638456cb59146102005780638da5cb5b14610215578063931342f91461023d57600080fd5b8062738474146101235780631db2da561461014557806323c56329146101655780633f4ba83a146101855780635c975abb1461019a575b600080fd5b34801561012f57600080fd5b5061014361013e366004613b88565b6103c8565b005b34801561015157600080fd5b506101436101603660046139ff565b610c64565b34801561017157600080fd5b50610143610180366004613ce0565b610df1565b34801561019157600080fd5b50610143610dfe565b3480156101a657600080fd5b50600054600160a01b900460ff1660405190151581526020015b60405180910390f35b3480156101d557600080fd5b50610143610e10565b3480156101ea57600080fd5b506101f3610e22565b6040516101c09190613f48565b34801561020c57600080fd5b50610143610fb7565b34801561022157600080fd5b506000546040516001600160a01b0390911681526020016101c0565b34801561024957600080fd5b50610143610258366004613b2d565b610fc7565b34801561026957600080fd5b50610143610278366004613ce0565b61108a565b34801561028957600080fd5b50610143610298366004613c83565b611097565b3480156102a957600080fd5b506102bd6102b8366004613943565b611148565b6040516101c0939291906140bb565b3480156102d857600080fd5b506101436102e7366004613929565b6114e3565b3480156102f857600080fd5b5061030c610307366004613af2565b6119fd565b6040516101c09190614084565b34801561032557600080fd5b50610339610334366004613929565b611a82565b6040516101c09190613ed4565b34801561035257600080fd5b5061035b611b36565b6040516101c09190613ee7565b34801561037457600080fd5b50610143610383366004613929565b611c6a565b61039b610396366004613975565b611faa565b6040516101c0919061411b565b3480156103b457600080fd5b506101436103c3366004613929565b612daa565b6103d0612eaf565b836000106104305760405162461bcd60e51b815260206004820152602260248201527f746f6b656e416d6f756e74206d7573742062652067726561746572207468616e604482015261020360f41b60648201526084015b60405180910390fd5b8260001080156104415750600a8311155b6104b35760405162461bcd60e51b815260206004820152603e60248201527f636c61696d5175616e74697479206d757374206265206772656174657220746860448201527f616e203020616e64206c657373206f7220657175616c207468616e20313000006064820152608401610427565b805183146105195760405162461bcd60e51b815260206004820152602d60248201527f636c61696d5175616e74697479206d75737420626520657175616c20746f207060448201526c0eac4d6caf2e65cd8cadccee8d609b1b6064820152608401610427565b600060078760405161052b9190613e94565b9081526040805160209281900383018120608082018352805480835260018201546001600160a01b03811695840195909552600160a01b90940460ff1692820192909252600290910154606082015291501580159061058f5750604081015160ff16155b6105db5760405162461bcd60e51b815260206004820152601860248201527f496e76616c696420626c657373696e67207374617475732100000000000000006044820152606401610427565b80516105f3906105ec908690612efc565b8690612f11565b6002546040516370a0823160e01b81523360048201526001600160a01b03909116906370a082319060240160206040518083038186803b15801561063657600080fd5b505afa15801561064a573d6000803e3d6000fd5b505050506040513d601f19601f8201168201806040525081019061066e9190613cf8565b10156106e25760405162461bcd60e51b815260206004820152603e60248201527f596f757220746f6b656e20616d6f756e74206d7573742062652067726561746560448201527f72207468616e20796f752061726520747279696e6720746f2073656e642100006064820152608401610427565b6002546040516323b872dd60e01b8152336004820152306024820152604481018790526001600160a01b03909116906323b872dd90606401602060405180830381600087803b15801561073457600080fd5b505af1158015610748573d6000803e3d6000fd5b505050506040513d601f19601f8201168201806040525081019061076c9190613ad2565b6107b85760405162461bcd60e51b815260206004820152601c60248201527f5472616e7366657220746f20636f6e7472616374206661696c656421000000006044820152606401610427565b600254602082015160608301516001600160a01b03909216916323b872dd91339161080790606490610801906107ee90836141f7565b88516107fb908d90612efc565b90612efc565b90612f1d565b6040516001600160e01b031960e086901b1681526001600160a01b0393841660048201529290911660248301526044820152606401602060405180830381600087803b15801561085657600080fd5b505af115801561086a573d6000803e3d6000fd5b505050506040513d601f19601f8201168201806040525081019061088e9190613ad2565b6108ec5760405162461bcd60e51b815260206004820152602960248201527f5472616e7366657220746f20746865206f776e6572206f6620626c657373696e60448201526867206661696c65642160b81b6064820152608401610427565b6002546001600160a01b03166323b872dd336109106000546001600160a01b031690565b610934606461080187606001516107fb89600001518d612efc90919063ffffffff16565b6040516001600160e01b031960e086901b1681526001600160a01b0393841660048201529290911660248301526044820152606401602060405180830381600087803b15801561098357600080fd5b505af1158015610997573d6000803e3d6000fd5b505050506040513d601f19601f820116820180604052508101906109bb9190613ad2565b610a075760405162461bcd60e51b815260206004820181905260248201527f5472616e7366657220746f2074686520636f6e7472616374206661696c6564216044820152606401610427565b60086000336001600160a01b03166001600160a01b031681526020019081526020016000206040518060e00160405280886001600160a01b03168152602001898152602001428152602001878152602001868152602001856001811115610a7e57634e487b7160e01b600052602160045260246000fd5b81526000602091820181905283546001808201865594825290829020835160069092020180546001600160a01b0319166001600160a01b0390921691909117815582820151805193949193610adb939285019291909101906136d4565b5060408201516002820155606082015160038201556080820151600482015560a082015160058201805460ff191660018381811115610b2a57634e487b7160e01b600052602160045260246000fd5b021790555060c09190910151600590910180549115156101000261ff001990921691909117905560005b8251811015610c1957600b6000886001600160a01b03166001600160a01b031681526020019081526020016000206040518060400160405280858481518110610bad57634e487b7160e01b600052603260045260246000fd5b6020908102919091018101516001600160a01b039081168352600092820183905284546001810186559483529181902083519401805493909101511515600160a01b026001600160a81b0319909316939091169290921717905580610c1181614279565b915050610b54565b50604080513381526001600160a01b03881660208201527f9028f7dd664be64a65e420291fdb6b56dec3b01e5433aa9675727b383cf1e5bc910160405180910390a150505050505050565b610c6c612f29565b610c8d6040518060600160405280602281526020016142eb60229139612e23565b60005b8151811015610dec576040518060800160405280838381518110610cc457634e487b7160e01b600052603260045260246000fd5b6020026020010151600001518152602001838381518110610cf557634e487b7160e01b600052603260045260246000fd5b6020026020010151602001516001600160a01b03168152602001600060ff168152602001838381518110610d3957634e487b7160e01b600052603260045260246000fd5b6020026020010151606001518152506007848381518110610d6a57634e487b7160e01b600052603260045260246000fd5b6020026020010151604051610d7f9190613e94565b9081526040805191829003602090810190922083518155918301516001830180549285015160ff16600160a01b026001600160a81b03199093166001600160a01b039092169190911791909117905560609091015160029091015580610de481614279565b915050610c90565b505050565b610df9612f29565b600655565b610e06612f29565b610e0e612f83565b565b610e18612f29565b610e0e6000612fd8565b336000908152600860209081526040808320805482518185028101850190935280835260609492939192909184015b82821015610fae5760008481526020908190206040805160e081019091526006850290910180546001600160a01b031682526001810180549293919291840191610e9a9061423e565b80601f0160208091040260200160405190810160405280929190818152602001828054610ec69061423e565b8015610f135780601f10610ee857610100808354040283529160200191610f13565b820191906000526020600020905b815481529060010190602001808311610ef657829003601f168201915b5050509183525050600282015460208201526003820154604082015260048201546060820152600582015460809091019060ff166001811115610f6657634e487b7160e01b600052602160045260246000fd5b6001811115610f8557634e487b7160e01b600052602160045260246000fd5b815260059190910154610100900460ff1615156020918201529082526001929092019101610e51565b50505050905090565b610fbf612f29565b610e0e613028565b610fcf612f29565b610ff06040518060600160405280602281526020016142eb60229139612e23565b604080516080810182528381526001600160a01b0385166020820152600081830152606081018390529051600790611029908790613e94565b9081526040805191829003602090810190922083518155918301516001830180549285015160ff16600160a01b026001600160a81b03199093166001600160a01b039092169190911791909117905560609091015160029091015550505050565b611092612f29565b600555565b61109f612f29565b6110c160405180606001604052806034815260200161430d603491398561306b565b826007856040516110d29190613e94565b9081526040519081900360200181209190915582906007906110f5908790613e94565b908152602001604051809103902060010160146101000a81548160ff021916908360ff1602179055508060078560405161112f9190613e94565b9081526040519081900360200190206002015550505050565b604080516080810182526000808252602082018190529181018290526060810191909152611174613758565b6001600160a01b0384166000908152600860209081526040808320805482518185028101850190935280835260609493849084015b828210156113065760008481526020908190206040805160e081019091526006850290910180546001600160a01b0316825260018101805492939192918401916111f29061423e565b80601f016020809104026020016040519081016040528092919081815260200182805461121e9061423e565b801561126b5780601f106112405761010080835404028352916020019161126b565b820191906000526020600020905b81548152906001019060200180831161124e57829003601f168201915b5050509183525050600282015460208201526003820154604082015260048201546060820152600582015460809091019060ff1660018111156112be57634e487b7160e01b600052602160045260246000fd5b60018111156112dd57634e487b7160e01b600052602160045260246000fd5b815260059190910154610100900460ff16151560209182015290825260019290920191016111a9565b505050509050611314613758565b60005b82518110156113a257866001600160a01b031683828151811061134a57634e487b7160e01b600052603260045260246000fd5b6020026020010151600001516001600160a01b031614156113905782818151811061138557634e487b7160e01b600052603260045260246000fd5b602002602001015191505b8061139a81614279565b915050611317565b5060008160600151116113c75760405162461bcd60e51b81526004016104279061403a565b6001600160a01b0386166000908152600a6020908152604080832080548251818502810185019093528083529192909190849084015b8282101561146e5760008481526020908190206040805160c0810182526006860290920180546001600160a01b031683526001808201548486015260028201549284019290925260038101546060840152600481015460808401526005015460a083015290835290920191016113fd565b505050509050600782602001516040516114889190613e94565b90815260408051602092819003830181206080820183528054825260018101546001600160a01b03811694830194909452600160a01b90930460ff169181019190915260029091015460608201529891975095509350505050565b6114eb612eaf565b6001600160a01b0381166000908152600a6020908152604080832080548251818502810185019093528083529192909190849084015b828210156115925760008481526020908190206040805160c0810182526006860290920180546001600160a01b031683526001808201548486015260028201549284019290925260038101546060840152600481015460808401526005015460a08301529083529092019101611521565b505050509050805160001461160f5760405162461bcd60e51b815260206004820152603c60248201527f596f757220626c657373696e6720697320636c61696d696e67206279206f746860448201527f6572732e2043616e206e6f74207265766f6b6520616e796d6f726521000000006064820152608401610427565b33600090815260086020908152604080832080548251818502810185019093528083529192909190849084015b828210156117995760008481526020908190206040805160e081019091526006850290910180546001600160a01b0316825260018101805492939192918401916116859061423e565b80601f01602080910402602001604051908101604052809291908181526020018280546116b19061423e565b80156116fe5780601f106116d3576101008083540402835291602001916116fe565b820191906000526020600020905b8154815290600101906020018083116116e157829003601f168201915b5050509183525050600282015460208201526003820154604082015260048201546060820152600582015460809091019060ff16600181111561175157634e487b7160e01b600052602160045260246000fd5b600181111561177057634e487b7160e01b600052602160045260246000fd5b815260059190910154610100900460ff161515602091820152908252600192909201910161163c565b50505050905060008151116117c05760405162461bcd60e51b81526004016104279061403a565b6117c8613758565b6000805b835181101561185a57856001600160a01b03168482815181106117ff57634e487b7160e01b600052603260045260246000fd5b6020026020010151600001516001600160a01b031614156118485783818151811061183a57634e487b7160e01b600052603260045260246000fd5b602002602001015192508091505b8061185281614279565b9150506117cc565b50600082606001511161187f5760405162461bcd60e51b81526004016104279061403a565b600254606083015160405163a9059cbb60e01b815233600482015260248101919091526001600160a01b039091169063a9059cbb90604401602060405180830381600087803b1580156118d157600080fd5b505af11580156118e5573d6000803e3d6000fd5b505050506040513d601f19601f820116820180604052508101906119099190613ad2565b6119555760405162461bcd60e51b815260206004820152601f60248201527f5472616e73666572206261636b20746f2073656e646572206661696c656421006044820152606401610427565b3360009081526008602052604090208054600191908390811061198857634e487b7160e01b600052603260045260246000fd5b600091825260209182902060056006909202010180549215156101000261ff001990931692909217909155604080513381526001600160a01b038816928101929092527faf0a59ad678f81ba23bb66973fedd52a279df960fc232c3bd4f56faf8d7945fb910160405180910390a15050505050565b6040805160808101825260008082526020820181905281830181905260608201529051600790611a2e908490613e94565b90815260408051602092819003830181206080820183528054825260018101546001600160a01b03811694830194909452600160a01b90930460ff1691810191909152600290910154606082015292915050565b6001600160a01b0381166000908152600a60209081526040808320805482518185028101850190935280835260609492939192909184015b82821015611b2b5760008481526020908190206040805160c0810182526006860290920180546001600160a01b031683526001808201548486015260028201549284019290925260038101546060840152600481015460808401526005015460a08301529083529092019101611aba565b505050509050919050565b336000908152600960209081526040808320805482518185028101850190935280835260609492939192909184015b82821015610fae5760008481526020908190206040805160c0810182526006860290920180546001600160a01b0390811684526001820154169383019390935260028301805492939291840191611bbb9061423e565b80601f0160208091040260200160405190810160405280929190818152602001828054611be79061423e565b8015611c345780601f10611c0957610100808354040283529160200191611c34565b820191906000526020600020905b815481529060010190602001808311611c1757829003601f168201915b50505050508152602001600382015481526020016004820154815260200160058201548152505081526020019060010190611b65565b611c72612f29565b611c7a6130b0565b6003546040516370a0823160e01b81523060048201526001600160a01b039091169063a9059cbb90839083906370a082319060240160206040518083038186803b158015611cc757600080fd5b505afa158015611cdb573d6000803e3d6000fd5b505050506040513d601f19601f82011682018060405250810190611cff9190613cf8565b6040516001600160e01b031960e085901b1681526001600160a01b0390921660048301526024820152604401602060405180830381600087803b158015611d4557600080fd5b505af1158015611d59573d6000803e3d6000fd5b505050506040513d601f19601f82011682018060405250810190611d7d9190613ad2565b611dde5760405162461bcd60e51b815260206004820152602c60248201527f5472616e736665722043425420746f206e6578742076657273696f6e2061646460448201526b72657373206661696c65642160a01b6064820152608401610427565b6002546001600160a01b031663a9059cbb611e016000546001600160a01b031690565b6002546040516370a0823160e01b81523060048201526001600160a01b03909116906370a082319060240160206040518083038186803b158015611e4457600080fd5b505afa158015611e58573d6000803e3d6000fd5b505050506040513d601f19601f82011682018060405250810190611e7c9190613cf8565b6040516001600160e01b031960e085901b1681526001600160a01b0390921660048301526024820152604401602060405180830381600087803b158015611ec257600080fd5b505af1158015611ed6573d6000803e3d6000fd5b505050506040513d601f19601f82011682018060405250810190611efa9190613ad2565b611f465760405162461bcd60e51b815260206004820152601e60248201527f5472616e73666572204255534420746f206f776e6572206661696c65642100006044820152606401610427565b6004805460405163f2fde38b60e01b81526001600160a01b038481169382019390935291169063f2fde38b90602401600060405180830381600087803b158015611f8f57600080fd5b505af1158015611fa3573d6000803e3d6000fd5b5050505050565b611ff56040518060c0016040528060006001600160a01b0316815260200160006001600160a01b03168152602001606081526020016000815260200160008152602001600081525090565b611ffd612eaf565b600260015414156120505760405162461bcd60e51b815260206004820152601f60248201527f5265656e7472616e637947756172643a207265656e7472616e742063616c6c006044820152606401610427565b600260018190555061207b604051806060016040528060318152602001614341603191398787613100565b6001600160a01b03821633146120c05760405162461bcd60e51b815260206004820152600a6024820152696675636b4f666621212160b01b6044820152606401610427565b6120cb848487613147565b61210c5760405162461bcd60e51b8152602060048201526012602482015271496e76616c6964207369676e69747572652160701b6044820152606401610427565b612140604051806040016040528060138152602001727369676e61747572652069732076616c69642160681b815250612e23565b333b156121a15760405162461bcd60e51b815260206004820152602960248201527f596f752063616e206e6f7420636c61696d20626c657373696e672066726f6d20604482015268636f6e74726163742160b81b6064820152608401610427565b6001600160a01b038616600090815260086020908152604080832080548251818502810185019093528083529192909190849084015b828210156123345760008481526020908190206040805160e081019091526006850290910180546001600160a01b0316825260018101805492939192918401916122209061423e565b80601f016020809104026020016040519081016040528092919081815260200182805461224c9061423e565b80156122995780601f1061226e57610100808354040283529160200191612299565b820191906000526020600020905b81548152906001019060200180831161227c57829003601f168201915b5050509183525050600282015460208201526003820154604082015260048201546060820152600582015460809091019060ff1660018111156122ec57634e487b7160e01b600052602160045260246000fd5b600181111561230b57634e487b7160e01b600052602160045260246000fd5b815260059190910154610100900460ff16151560209182015290825260019290920191016121d7565b505050509050600081511161235b5760405162461bcd60e51b81526004016104279061403a565b612363613758565b60005b82518110156123f157876001600160a01b031683828151811061239957634e487b7160e01b600052603260045260246000fd5b6020026020010151600001516001600160a01b031614156123df578281815181106123d457634e487b7160e01b600052603260045260246000fd5b602002602001015191505b806123e981614279565b915050612366565b5060c0810151156124445760405162461bcd60e51b815260206004820152601960248201527f5468697320626c657373696e67206973207265766f6b656421000000000000006044820152606401610427565b60008160600151116124685760405162461bcd60e51b81526004016104279061403a565b6001600160a01b0387166000908152600a6020908152604080832080548251818502810185019093528083529192909190849084015b8282101561250f5760008481526020908190206040805160c0810182526006860290920180546001600160a01b031683526001808201548486015260028201549284019290925260038101546060840152600481015460808401526005015460a0830152908352909201910161249e565b50505050905081608001518151106125695760405162461bcd60e51b815260206004820152601b60248201527f5468657265206973206e6f206d6f726520626c657373696e67732100000000006044820152606401610427565b6000805b825181101561265e57336001600160a01b03168382815181106125a057634e487b7160e01b600052603260045260246000fd5b6020026020010151600001516001600160a01b031614156126135760405162461bcd60e51b815260206004820152602760248201527f596f75206861766520616c726561647920636c61696d6564207468697320626c604482015266657373696e672160c81b6064820152608401610427565b82818151811061263357634e487b7160e01b600052603260045260246000fd5b6020026020010151604001518261264a91906141ac565b91508061265681614279565b91505061256d565b506000808460a00151600181111561268657634e487b7160e01b600052602160045260246000fd5b14156126a6576080840151606085015161269f91612f1d565b905061274a565b60018460a0015160018111156126cc57634e487b7160e01b600052602160045260246000fd5b141561274a5760006126ec845186608001516132b590919063ffffffff16565b905060006126fa600a6132c1565b9050816001141561271b57606086015161271490856132b5565b9250612747565b61274460026107fb600a610801856107fb886108018c8f606001516132b590919063ffffffff16565b92505b50505b60006040518060c001604052808d6001600160a01b031681526020018c6001600160a01b03168152602001866020015181526020014281526020016127a46006546103e861279891906141f7565b6107fb866103e8612f1d565b81526020016127c46006546107fb6103e887612f1d90919063ffffffff16565b905233600090815260096020908152604080832080546001818101835591855293839020855160069095020180546001600160a01b039586166001600160a01b0319918216178255848701519282018054939096169216919091179093558301518051939450849361283c92600285019201906136d4565b50606082015160038201556080820151600482015560a09091015160059182015554600090612877906107fb85670de0b6b3a7640000612f1d565b90506103e881111561288857506103e75b600a60008d6001600160a01b03166001600160a01b031681526020019081526020016000206040518060c00160405280336001600160a01b031681526020014281526020018581526020016128f26006546103e86128e691906141f7565b6107fb886103e8612f1d565b81526020016129126006546107fb6103e889612f1d90919063ffffffff16565b815260209081018490528254600180820185556000948552938290208351600692830290910180546001600160a01b0319166001600160a01b0392831617815592840151948301949094556040830151600280840191909155606084015160038401556080840151600484015560a0909301516005909201919091559054905491169063a9059cbb9033906129ad906128e6906103e86141f7565b6040516001600160e01b031960e085901b1681526001600160a01b0390921660048301526024820152604401602060405180830381600087803b1580156129f357600080fd5b505af1158015612a07573d6000803e3d6000fd5b505050506040513d601f19601f82011682018060405250810190612a2b9190613ad2565b612a775760405162461bcd60e51b815260206004820152601760248201527f436c61696d2074686520746f6b656e206661696c6564210000000000000000006044820152606401610427565b6002546001600160a01b031663a9059cbb612a9a6000546001600160a01b031690565b600654612aad906107fb886103e8612f1d565b6040516001600160e01b031960e085901b1681526001600160a01b0390921660048301526024820152604401602060405180830381600087803b158015612af357600080fd5b505af1158015612b07573d6000803e3d6000fd5b505050506040513d601f19601f82011682018060405250810190612b2b9190613ad2565b612b6d5760405162461bcd60e51b815260206004820152601360248201527254616e7366657220746178206661696c65642160681b6044820152606401610427565b6003546040516370a0823160e01b815230600482015282916001600160a01b0316906370a082319060240160206040518083038186803b158015612bb057600080fd5b505afa158015612bc4573d6000803e3d6000fd5b505050506040513d601f19601f82011682018060405250810190612be89190613cf8565b10612cbf5760035460405163a9059cbb60e01b81526001600160a01b038f81166004830152602482018490529091169063a9059cbb90604401602060405180830381600087803b158015612c3b57600080fd5b505af1158015612c4f573d6000803e3d6000fd5b505050506040513d601f19601f82011682018060405250810190612c739190613ad2565b612cbf5760405162461bcd60e51b815260206004820152601760248201527f617761726420434220746f6b656e73206661696c6564210000000000000000006044820152606401610427565b600480546020880151604051631e1d900360e31b81526001600160a01b039092169263f0ec801892612cf5923392909101613eb0565b602060405180830381600087803b158015612d0f57600080fd5b505af1158015612d23573d6000803e3d6000fd5b505050506040513d601f19601f82011682018060405250810190612d479190613cf8565b507f411a457db9208c2357cddce37558ebfedc401243648449843470687d4e9014428d8d604051612d8e9291906001600160a01b0392831681529116602082015260400190565b60405180910390a150600180559b9a5050505050505050505050565b612db2612f29565b6001600160a01b038116612e175760405162461bcd60e51b815260206004820152602660248201527f4f776e61626c653a206e6577206f776e657220697320746865207a65726f206160448201526564647265737360d01b6064820152608401610427565b612e2081612fd8565b50565b612e2081604051602401612e379190613f9c565b60408051601f198184030181529190526020810180516001600160e01b031663104c13eb60e21b1790526132f8565b612eab8282604051602401612e7c929190613faf565b60408051601f198184030181529190526020810180516001600160e01b031663319af33360e01b1790526132f8565b5050565b600054600160a01b900460ff1615610e0e5760405162461bcd60e51b815260206004820152601060248201526f14185d5cd8589b194e881c185d5cd95960821b6044820152606401610427565b6000612f0882846141d8565b90505b92915050565b6000612f0882846141ac565b6000612f0882846141c4565b6000546001600160a01b03163314610e0e5760405162461bcd60e51b815260206004820181905260248201527f4f776e61626c653a2063616c6c6572206973206e6f7420746865206f776e65726044820152606401610427565b612f8b6130b0565b6000805460ff60a01b191690557f5db9ee0a495bf2e6ff9c91a7834c1ba4fdd244a5e8aa4e537bd38aeae4b073aa335b6040516001600160a01b03909116815260200160405180910390a1565b600080546001600160a01b038381166001600160a01b0319831681178455604051919092169283917f8be0079c531659141344cd1fd0a4f28419497f9722a3daafe3b4186f6b6457e09190a35050565b613030612eaf565b6000805460ff60a01b1916600160a01b1790557f62e78cea01bee320cd4e420270b5ea74000d11b0c9f74754ebdbfc544b05a258612fbb3390565b612eab828260405160240161308192919061400c565b60408051601f198184030181529190526020810180516001600160e01b0316634b5c427760e01b1790526132f8565b600054600160a01b900460ff16610e0e5760405162461bcd60e51b815260206004820152601460248201527314185d5cd8589b194e881b9bdd081c185d5cd95960621b6044820152606401610427565b610dec83838360405160240161311893929190613fd9565b60408051601f198184030181529190526020810180516001600160e01b03166307e763af60e51b1790526132f8565b6000806131548585613319565b905060005b6001600160a01b0384166000908152600b60205260409020548110156132a7576001600160a01b038481166000908152600b60205260409020805491841691839081106131b657634e487b7160e01b600052603260045260246000fd5b6000918252602090912001546001600160a01b031614801561322357506001600160a01b0384166000908152600b6020526040902080548290811061320b57634e487b7160e01b600052603260045260246000fd5b600091825260209091200154600160a01b900460ff16155b15613295576001600160a01b0384166000908152600b602052604090208054600191908390811061326457634e487b7160e01b600052603260045260246000fd5b60009182526020909120018054911515600160a01b0260ff60a01b1990921691909117905550600191506132ae9050565b8061329f81614279565b915050613159565b5060009150505b9392505050565b6000612f0882846141f7565b600080826132d06001436141f7565b6132db919040614294565b90508015806132ea575080600a145b15612f0b5750600192915050565b80516a636f6e736f6c652e6c6f67602083016000808483855afa5050505050565b6000806000613328858561333d565b91509150613335816133ad565b509392505050565b6000808251604114156133745760208301516040840151606085015160001a613368878285856135ae565b945094505050506133a6565b82516040141561339e576020830151604084015161339386838361369b565b9350935050506133a6565b506000905060025b9250929050565b60008160048111156133cf57634e487b7160e01b600052602160045260246000fd5b14156133d85750565b60018160048111156133fa57634e487b7160e01b600052602160045260246000fd5b14156134485760405162461bcd60e51b815260206004820152601860248201527f45434453413a20696e76616c6964207369676e617475726500000000000000006044820152606401610427565b600281600481111561346a57634e487b7160e01b600052602160045260246000fd5b14156134b85760405162461bcd60e51b815260206004820152601f60248201527f45434453413a20696e76616c6964207369676e6174757265206c656e677468006044820152606401610427565b60038160048111156134da57634e487b7160e01b600052602160045260246000fd5b14156135335760405162461bcd60e51b815260206004820152602260248201527f45434453413a20696e76616c6964207369676e6174757265202773272076616c604482015261756560f01b6064820152608401610427565b600481600481111561355557634e487b7160e01b600052602160045260246000fd5b1415612e205760405162461bcd60e51b815260206004820152602260248201527f45434453413a20696e76616c6964207369676e6174757265202776272076616c604482015261756560f01b6064820152608401610427565b6000807f7fffffffffffffffffffffffffffffff5d576e7357a4501ddfe92f46681b20a08311156135e55750600090506003613692565b8460ff16601b141580156135fd57508460ff16601c14155b1561360e5750600090506004613692565b6040805160008082526020820180845289905260ff881692820192909252606081018690526080810185905260019060a0016020604051602081039080840390855afa158015613662573d6000803e3d6000fd5b5050604051601f1901519150506001600160a01b03811661368b57600060019250925050613692565b9150600090505b94509492505050565b6000806001600160ff1b038316816136b860ff86901c601b6141ac565b90506136c6878288856135ae565b935093505050935093915050565b8280546136e09061423e565b90600052602060002090601f0160209004810192826137025760008555613748565b82601f1061371b57805160ff1916838001178555613748565b82800160010185558215613748579182015b8281111561374857825182559160200191906001019061372d565b506137549291506137bd565b5090565b6040518060e0016040528060006001600160a01b0316815260200160608152602001600081526020016000815260200160008152602001600060018111156137b057634e487b7160e01b600052602160045260246000fd5b8152600060209091015290565b5b8082111561375457600081556001016137be565b600067ffffffffffffffff8311156137ec576137ec6142d4565b6137ff601f8401601f1916602001614157565b905082815283838301111561381357600080fd5b828260208301376000602084830101529392505050565b80356001600160a01b038116811461384157600080fd5b919050565b600082601f830112613856578081fd5b8135602061386b61386683614188565b614157565b80838252828201915082860187848660071b890101111561388a578586fd5b855b858110156138ec57608080838b0312156138a4578788fd5b6138ac61412e565b833581526138bb87850161382a565b8782015260406138cc818601613918565b90820152606084810135908201528552938501939091019060010161388c565b5090979650505050505050565b600082601f830112613909578081fd5b612f08838335602085016137d2565b803560ff8116811461384157600080fd5b60006020828403121561393a578081fd5b612f088261382a565b60008060408385031215613955578081fd5b61395e8361382a565b915061396c6020840161382a565b90509250929050565b600080600080600060a0868803121561398c578081fd5b6139958661382a565b94506139a36020870161382a565b935060408601359250606086013567ffffffffffffffff8111156139c5578182fd5b8601601f810188136139d5578182fd5b6139e4888235602084016137d2565b9250506139f36080870161382a565b90509295509295909350565b60008060408385031215613a11578182fd5b823567ffffffffffffffff80821115613a28578384fd5b818501915085601f830112613a3b578384fd5b81356020613a4b61386683614188565b8083825282820191508286018a848660051b8901011115613a6a578889fd5b885b85811015613aa357813587811115613a82578a8bfd5b613a908d87838c01016138f9565b8552509284019290840190600101613a6c565b50909750505086013592505080821115613abb578283fd5b50613ac885828601613846565b9150509250929050565b600060208284031215613ae3578081fd5b815180151581146132ae578182fd5b600060208284031215613b03578081fd5b813567ffffffffffffffff811115613b19578182fd5b613b25848285016138f9565b949350505050565b60008060008060808587031215613b42578182fd5b843567ffffffffffffffff811115613b58578283fd5b613b64878288016138f9565b945050613b736020860161382a565b93969395505050506040820135916060013590565b60008060008060008060c08789031215613ba0578384fd5b863567ffffffffffffffff80821115613bb7578586fd5b613bc38a838b016138f9565b975060209150613bd4828a0161382a565b96506040890135955060608901359450608089013560028110613bf5578384fd5b935060a089013581811115613c08578384fd5b89019050601f81018a13613c1a578283fd5b8035613c2861386682614188565b8082825284820191508484018d868560051b8701011115613c47578687fd5b8694505b83851015613c7057613c5c8161382a565b835260019490940193918501918501613c4b565b5080955050505050509295509295509295565b60008060008060808587031215613c98578182fd5b843567ffffffffffffffff811115613cae578283fd5b613cba878288016138f9565b94505060208501359250613cd060408601613918565b9396929550929360600135925050565b600060208284031215613cf1578081fd5b5035919050565b600060208284031215613d09578081fd5b5051919050565b6000815180845260208085019450808401835b83811015613d7c57815180516001600160a01b03168852838101518489015260408082015190890152606080820151908901526080808201519089015260a0908101519088015260c09096019590820190600101613d23565b509495945050505050565b60008151808452613d9f81602086016020860161420e565b601f01601f19169290920160200192915050565b600060018060a01b0380835116845280602084015116602085015250604082015160c06040850152613de860c0850182613d87565b9050606083015160608501526080830151608085015260a083015160a08501528091505092915050565b60018060a01b0381511682526000602082015160e06020850152613e3960e0850182613d87565b905060408301516040850152606083015160608501526080830151608085015260a083015160028110613e7a57634e487b7160e01b83526021600452602483fd5b8060a08601525060c083015161333560c086018215159052565b60008251613ea681846020870161420e565b9190910192915050565b6001600160a01b0383168152604060208201819052600090613b2590830184613d87565b602081526000612f086020830184613d10565b6000602080830181845280855180835260408601915060408160051b8701019250838701855b82811015613f3b57603f19888603018452613f29858351613db3565b94509285019290850190600101613f0d565b5092979650505050505050565b6000602080830181845280855180835260408601915060408160051b8701019250838701855b82811015613f3b57603f19888603018452613f8a858351613e12565b94509285019290850190600101613f6e565b602081526000612f086020830184613d87565b604081526000613fc26040830185613d87565b905060018060a01b03831660208301529392505050565b606081526000613fec6060830186613d87565b6001600160a01b0394851660208401529290931660409091015292915050565b60408152600061401f6040830185613d87565b82810360208401526140318185613d87565b95945050505050565b6020808252602a908201527f5468657265206973206e6f20626c657373696e6720666f756e64206f6e20746860408201526969732073656e6465722160b01b606082015260800190565b815181526020808301516001600160a01b03169082015260408083015160ff16908201526060808301519082015260808101612f0b565b835181526020808501516001600160a01b03169082015260408085015160ff16908201526060808501519082015260c0608082015260006140ff60c0830185613e12565b82810360a08401526141118185613d10565b9695505050505050565b602081526000612f086020830184613db3565b6040516080810167ffffffffffffffff81118282101715614151576141516142d4565b60405290565b604051601f8201601f1916810167ffffffffffffffff81118282101715614180576141806142d4565b604052919050565b600067ffffffffffffffff8211156141a2576141a26142d4565b5060051b60200190565b600082198211156141bf576141bf6142a8565b500190565b6000826141d3576141d36142be565b500490565b60008160001904831182151516156141f2576141f26142a8565b500290565b600082821015614209576142096142a8565b500390565b60005b83811015614229578181015183820152602001614211565b83811115614238576000848401525b50505050565b600181811c9082168061425257607f821691505b6020821081141561427357634e487b7160e01b600052602260045260246000fd5b50919050565b600060001982141561428d5761428d6142a8565b5060010190565b6000826142a3576142a36142be565b500690565b634e487b7160e01b600052601160045260246000fd5b634e487b7160e01b600052601260045260246000fd5b634e487b7160e01b600052604160045260246000fdfe737461727420746f2061646420626c657373696e6720746f2074686520706f6f6c21737461727420746f2072656d6f7665206f6e6520626c657373696e672066726f6d2074686520706f6f6c2120696d6167653a2573737461727420746f20636c61696d20626c657373696e67212073656e6465723a25732c20626c657373696e6749443a2573a264697066735822122097540239346131e70fdf9ee3e1d5d30edf04142eb2d82e40b7d42ee0a828983264736f6c63430008040033426c657373696e6720697320746865206d6f737420756e6976657273616c2068756d616e2065787072657373696f6e206f6620656d6f74696f6e2c20616e6420776520617265204e4654697a696e6720697421",
  "linkReferences": {},
  "deployedLinkReferences": {}
}