{
  "_format": "hh-sol-artifact-1",
  "contractName": "CryptoBlessing",
  "sourceName": "contracts/CryptoBlessing.sol",
  "abi": [
    {
      "inputs": [
        {
          "internalType": "address",
          "name": "_sendTokenAddress",
          "type": "address"
        },
        {
          "internalType": "address",
          "name": "_cryptoBlessingTokenAddress",
          "type": "address"
        },
        {
          "internalType": "address",
          "name": "_cryptoBlessingNFTAddress",
          "type": "address"
        }
      ],
      "stateMutability": "payable",
      "type": "constructor"
    },
    {
      "anonymous": false,
      "inputs": [
        {
          "indexed": true,
          "internalType": "address",
          "name": "previousOwner",
          "type": "address"
        },
        {
          "indexed": true,
          "internalType": "address",
          "name": "newOwner",
          "type": "address"
        }
      ],
      "name": "OwnershipTransferred",
      "type": "event"
    },
    {
      "anonymous": false,
      "inputs": [
        {
          "indexed": false,
          "internalType": "address",
          "name": "account",
          "type": "address"
        }
      ],
      "name": "Paused",
      "type": "event"
    },
    {
      "anonymous": false,
      "inputs": [
        {
          "indexed": false,
          "internalType": "address",
          "name": "account",
          "type": "address"
        }
      ],
      "name": "Unpaused",
      "type": "event"
    },
    {
      "anonymous": false,
      "inputs": [
        {
          "indexed": false,
          "internalType": "address",
          "name": "sender",
          "type": "address"
        },
        {
          "indexed": false,
          "internalType": "address",
          "name": "blessingID",
          "type": "address"
        }
      ],
      "name": "claimerClaimComplete",
      "type": "event"
    },
    {
      "anonymous": false,
      "inputs": [
        {
          "indexed": false,
          "internalType": "address",
          "name": "sender",
          "type": "address"
        },
        {
          "indexed": false,
          "internalType": "address",
          "name": "blessingID",
          "type": "address"
        }
      ],
      "name": "senderRevokeComplete",
      "type": "event"
    },
    {
      "anonymous": false,
      "inputs": [
        {
          "indexed": false,
          "internalType": "address",
          "name": "sender",
          "type": "address"
        },
        {
          "indexed": false,
          "internalType": "address",
          "name": "blessingID",
          "type": "address"
        }
      ],
      "name": "senderSendCompleted",
      "type": "event"
    },
    {
      "inputs": [
        {
          "internalType": "string",
          "name": "image",
          "type": "string"
        },
        {
          "internalType": "address",
          "name": "blessingOwner",
          "type": "address"
        },
        {
          "internalType": "string",
          "name": "description",
          "type": "string"
        },
        {
          "internalType": "uint256",
          "name": "price",
          "type": "uint256"
        },
        {
          "internalType": "uint8",
          "name": "blessingType",
          "type": "uint8"
        },
        {
          "internalType": "uint256",
          "name": "taxRate",
          "type": "uint256"
        }
      ],
      "name": "addBlessing",
      "outputs": [],
      "stateMutability": "nonpayable",
      "type": "function"
    },
    {
      "inputs": [
        {
          "components": [
            {
              "internalType": "string",
              "name": "image",
              "type": "string"
            },
            {
              "internalType": "string",
              "name": "description",
              "type": "string"
            },
            {
              "internalType": "uint256",
              "name": "price",
              "type": "uint256"
            },
            {
              "internalType": "address",
              "name": "owner",
              "type": "address"
            },
            {
              "internalType": "uint8",
              "name": "blessingType",
              "type": "uint8"
            },
            {
              "internalType": "uint256",
              "name": "timestamp",
              "type": "uint256"
            },
            {
              "internalType": "uint8",
              "name": "deleted",
              "type": "uint8"
            },
            {
              "internalType": "uint256",
              "name": "taxRate",
              "type": "uint256"
            }
          ],
          "internalType": "struct CryptoBlessing.Blessing[]",
          "name": "blessings",
          "type": "tuple[]"
        }
      ],
      "name": "batchAddBlessing",
      "outputs": [],
      "stateMutability": "nonpayable",
      "type": "function"
    },
    {
      "inputs": [
        {
          "internalType": "uint256",
          "name": "",
          "type": "uint256"
        }
      ],
      "name": "blessingList",
      "outputs": [
        {
          "internalType": "string",
          "name": "image",
          "type": "string"
        },
        {
          "internalType": "string",
          "name": "description",
          "type": "string"
        },
        {
          "internalType": "uint256",
          "name": "price",
          "type": "uint256"
        },
        {
          "internalType": "address",
          "name": "owner",
          "type": "address"
        },
        {
          "internalType": "uint8",
          "name": "blessingType",
          "type": "uint8"
        },
        {
          "internalType": "uint256",
          "name": "timestamp",
          "type": "uint256"
        },
        {
          "internalType": "uint8",
          "name": "deleted",
          "type": "uint8"
        },
        {
          "internalType": "uint256",
          "name": "taxRate",
          "type": "uint256"
        }
      ],
      "stateMutability": "view",
      "type": "function"
    },
    {
      "inputs": [
        {
          "internalType": "address",
          "name": "sender",
          "type": "address"
        },
        {
          "internalType": "address",
          "name": "blessingID",
          "type": "address"
        },
        {
          "internalType": "bytes32",
          "name": "hash",
          "type": "bytes32"
        },
        {
          "internalType": "bytes",
          "name": "signature",
          "type": "bytes"
        },
        {
          "internalType": "address",
          "name": "fuckOff",
          "type": "address"
        }
      ],
      "name": "claimBlessing",
      "outputs": [
        {
          "components": [
            {
              "internalType": "address",
              "name": "sender",
              "type": "address"
            },
            {
              "internalType": "address",
              "name": "blessingID",
              "type": "address"
            },
            {
              "internalType": "string",
              "name": "blessingImage",
              "type": "string"
            },
            {
              "internalType": "uint256",
              "name": "claimTimestamp",
              "type": "uint256"
            },
            {
              "internalType": "uint256",
              "name": "claimAmount",
              "type": "uint256"
            },
            {
              "internalType": "uint256",
              "name": "taxAmount",
              "type": "uint256"
            }
          ],
          "internalType": "struct CryptoBlessing.ClaimerBlessing",
          "name": "",
          "type": "tuple"
        }
      ],
      "stateMutability": "payable",
      "type": "function"
    },
    {
      "inputs": [],
      "name": "getAllBlessings",
      "outputs": [
        {
          "components": [
            {
              "internalType": "string",
              "name": "image",
              "type": "string"
            },
            {
              "internalType": "string",
              "name": "description",
              "type": "string"
            },
            {
              "internalType": "uint256",
              "name": "price",
              "type": "uint256"
            },
            {
              "internalType": "address",
              "name": "owner",
              "type": "address"
            },
            {
              "internalType": "uint8",
              "name": "blessingType",
              "type": "uint8"
            },
            {
              "internalType": "uint256",
              "name": "timestamp",
              "type": "uint256"
            },
            {
              "internalType": "uint8",
              "name": "deleted",
              "type": "uint8"
            },
            {
              "internalType": "uint256",
              "name": "taxRate",
              "type": "uint256"
            }
          ],
          "internalType": "struct CryptoBlessing.Blessing[]",
          "name": "",
          "type": "tuple[]"
        }
      ],
      "stateMutability": "view",
      "type": "function"
    },
    {
      "inputs": [
        {
          "internalType": "address",
          "name": "sender",
          "type": "address"
        },
        {
          "internalType": "address",
          "name": "blessingID",
          "type": "address"
        }
      ],
      "name": "getAllInfoOfBlessing",
      "outputs": [
        {
          "components": [
            {
              "internalType": "string",
              "name": "image",
              "type": "string"
            },
            {
              "internalType": "string",
              "name": "description",
              "type": "string"
            },
            {
              "internalType": "uint256",
              "name": "price",
              "type": "uint256"
            },
            {
              "internalType": "address",
              "name": "owner",
              "type": "address"
            },
            {
              "internalType": "uint8",
              "name": "blessingType",
              "type": "uint8"
            },
            {
              "internalType": "uint256",
              "name": "timestamp",
              "type": "uint256"
            },
            {
              "internalType": "uint8",
              "name": "deleted",
              "type": "uint8"
            },
            {
              "internalType": "uint256",
              "name": "taxRate",
              "type": "uint256"
            }
          ],
          "internalType": "struct CryptoBlessing.Blessing",
          "name": "",
          "type": "tuple"
        },
        {
          "components": [
            {
              "internalType": "address",
              "name": "blessingID",
              "type": "address"
            },
            {
              "internalType": "string",
              "name": "blessingImage",
              "type": "string"
            },
            {
              "internalType": "uint256",
              "name": "sendTimestamp",
              "type": "uint256"
            },
            {
              "internalType": "uint256",
              "name": "tokenAmount",
              "type": "uint256"
            },
            {
              "internalType": "uint256",
              "name": "claimQuantity",
              "type": "uint256"
            },
            {
              "internalType": "enum CryptoBlessing.ClaimType",
              "name": "claimType",
              "type": "uint8"
            },
            {
              "internalType": "bool",
              "name": "revoked",
              "type": "bool"
            }
          ],
          "internalType": "struct CryptoBlessing.SenderBlessing",
          "name": "",
          "type": "tuple"
        },
        {
          "components": [
            {
              "internalType": "address",
              "name": "claimer",
              "type": "address"
            },
            {
              "internalType": "uint256",
              "name": "claimTimestamp",
              "type": "uint256"
            },
            {
              "internalType": "uint256",
              "name": "distributedAmount",
              "type": "uint256"
            },
            {
              "internalType": "uint256",
              "name": "claimAmount",
              "type": "uint256"
            },
            {
              "internalType": "uint256",
              "name": "taxAmount",
              "type": "uint256"
            },
            {
              "internalType": "uint256",
              "name": "CBTokenAwardToSenderAmount",
              "type": "uint256"
            }
          ],
          "internalType": "struct CryptoBlessing.BlessingClaimStatus[]",
          "name": "",
          "type": "tuple[]"
        }
      ],
      "stateMutability": "view",
      "type": "function"
    },
    {
      "inputs": [
        {
          "internalType": "address",
          "name": "_blessingID",
          "type": "address"
        }
      ],
      "name": "getBlessingClaimingStatus",
      "outputs": [
        {
          "components": [
            {
              "internalType": "address",
              "name": "claimer",
              "type": "address"
            },
            {
              "internalType": "uint256",
              "name": "claimTimestamp",
              "type": "uint256"
            },
            {
              "internalType": "uint256",
              "name": "distributedAmount",
              "type": "uint256"
            },
            {
              "internalType": "uint256",
              "name": "claimAmount",
              "type": "uint256"
            },
            {
              "internalType": "uint256",
              "name": "taxAmount",
              "type": "uint256"
            },
            {
              "internalType": "uint256",
              "name": "CBTokenAwardToSenderAmount",
              "type": "uint256"
            }
          ],
          "internalType": "struct CryptoBlessing.BlessingClaimStatus[]",
          "name": "",
          "type": "tuple[]"
        }
      ],
      "stateMutability": "view",
      "type": "function"
    },
    {
      "inputs": [],
      "name": "getMyClaimedBlessings",
      "outputs": [
        {
          "components": [
            {
              "internalType": "address",
              "name": "sender",
              "type": "address"
            },
            {
              "internalType": "address",
              "name": "blessingID",
              "type": "address"
            },
            {
              "internalType": "string",
              "name": "blessingImage",
              "type": "string"
            },
            {
              "internalType": "uint256",
              "name": "claimTimestamp",
              "type": "uint256"
            },
            {
              "internalType": "uint256",
              "name": "claimAmount",
              "type": "uint256"
            },
            {
              "internalType": "uint256",
              "name": "taxAmount",
              "type": "uint256"
            }
          ],
          "internalType": "struct CryptoBlessing.ClaimerBlessing[]",
          "name": "",
          "type": "tuple[]"
        }
      ],
      "stateMutability": "view",
      "type": "function"
    },
    {
      "inputs": [],
      "name": "getMySendedBlessings",
      "outputs": [
        {
          "components": [
            {
              "internalType": "address",
              "name": "blessingID",
              "type": "address"
            },
            {
              "internalType": "string",
              "name": "blessingImage",
              "type": "string"
            },
            {
              "internalType": "uint256",
              "name": "sendTimestamp",
              "type": "uint256"
            },
            {
              "internalType": "uint256",
              "name": "tokenAmount",
              "type": "uint256"
            },
            {
              "internalType": "uint256",
              "name": "claimQuantity",
              "type": "uint256"
            },
            {
              "internalType": "enum CryptoBlessing.ClaimType",
              "name": "claimType",
              "type": "uint8"
            },
            {
              "internalType": "bool",
              "name": "revoked",
              "type": "bool"
            }
          ],
          "internalType": "struct CryptoBlessing.SenderBlessing[]",
          "name": "",
          "type": "tuple[]"
        }
      ],
      "stateMutability": "view",
      "type": "function"
    },
    {
      "inputs": [],
      "name": "owner",
      "outputs": [
        {
          "internalType": "address",
          "name": "",
          "type": "address"
        }
      ],
      "stateMutability": "view",
      "type": "function"
    },
    {
      "inputs": [],
      "name": "pause",
      "outputs": [],
      "stateMutability": "nonpayable",
      "type": "function"
    },
    {
      "inputs": [],
      "name": "paused",
      "outputs": [
        {
          "internalType": "bool",
          "name": "",
          "type": "bool"
        }
      ],
      "stateMutability": "view",
      "type": "function"
    },
    {
      "inputs": [],
      "name": "renounceOwnership",
      "outputs": [],
      "stateMutability": "nonpayable",
      "type": "function"
    },
    {
      "inputs": [
        {
          "internalType": "address",
          "name": "blessingID",
          "type": "address"
        }
      ],
      "name": "revokeBlessing",
      "outputs": [],
      "stateMutability": "nonpayable",
      "type": "function"
    },
    {
      "inputs": [
        {
          "internalType": "string",
          "name": "image",
          "type": "string"
        },
        {
          "internalType": "address",
          "name": "blessingID",
          "type": "address"
        },
        {
          "internalType": "uint256",
          "name": "tokenAmount",
          "type": "uint256"
        },
        {
          "internalType": "uint256",
          "name": "claimQuantity",
          "type": "uint256"
        },
        {
          "internalType": "enum CryptoBlessing.ClaimType",
          "name": "claimType",
          "type": "uint8"
        }
      ],
      "name": "sendBlessing",
      "outputs": [],
      "stateMutability": "nonpayable",
      "type": "function"
    },
    {
      "inputs": [
        {
          "internalType": "uint256",
          "name": "_CBTOKENAWARDRATIO",
          "type": "uint256"
        }
      ],
      "name": "setCBTOKENAWARDRATIO",
      "outputs": [],
      "stateMutability": "nonpayable",
      "type": "function"
    },
    {
      "inputs": [
        {
          "internalType": "uint256",
          "name": "_CLAIM_TAX_RATE",
          "type": "uint256"
        }
      ],
      "name": "setCLAIM_TAX_RATE",
      "outputs": [],
      "stateMutability": "nonpayable",
      "type": "function"
    },
    {
      "inputs": [
        {
          "internalType": "address",
          "name": "newOwner",
          "type": "address"
        }
      ],
      "name": "transferOwnership",
      "outputs": [],
      "stateMutability": "nonpayable",
      "type": "function"
    },
    {
      "inputs": [],
      "name": "unpause",
      "outputs": [],
      "stateMutability": "nonpayable",
      "type": "function"
    },
    {
      "inputs": [
        {
          "internalType": "string",
          "name": "image",
          "type": "string"
        },
        {
          "internalType": "uint256",
          "name": "price",
          "type": "uint256"
        },
        {
          "internalType": "uint8",
          "name": "deleted",
          "type": "uint8"
        },
        {
          "internalType": "uint256",
          "name": "taxRate",
          "type": "uint256"
        }
      ],
      "name": "updateBlessing",
      "outputs": [],
      "stateMutability": "nonpayable",
      "type": "function"
    },
    {
      "inputs": [
        {
          "internalType": "address",
          "name": "nextVersionContractAddress",
          "type": "address"
        }
      ],
      "name": "upgradeToNextVersion",
      "outputs": [],
      "stateMutability": "nonpayable",
      "type": "function"
    }
  ],
  "bytecode": "0x608060405260058055600a60065560405162005170380380620051708339810160408190526200002f9162000278565b6200003a336200014b565b6000805460ff60a01b1916905560018055604080516080810190915260538082526200007b91906200511d60208301396200019b60201b620037e51760201c565b620000c76040518060400160405280601481526020017f73656e64546f6b656e416464726573733a20257300000000000000000000000081525084620001e960201b620038281760201c565b62000108604051806040016040528060128152602001714342546f6b656e416464726573733a20257360701b81525083620001e960201b620038281760201c565b600280546001600160a01b039485166001600160a01b03199182161790915560038054938516938216939093179092556004805491909316911617905562000357565b600080546001600160a01b038381166001600160a01b0319831681178455604051919092169283917f8be0079c531659141344cd1fd0a4f28419497f9722a3daafe3b4186f6b6457e09190a35050565b620001e681604051602401620001b291906200030f565b60408051601f198184030181529190526020810180516001600160e01b0390811663104c13eb60e21b179091526200023a16565b50565b620002368282604051602401620002029291906200032b565b60408051601f198184030181529190526020810180516001600160e01b0390811663319af33360e01b179091526200023a16565b5050565b80516a636f6e736f6c652e6c6f67602083016000808483855afa5050505050565b80516001600160a01b03811681146200027357600080fd5b919050565b6000806000606084860312156200028d578283fd5b62000298846200025b565b9250620002a8602085016200025b565b9150620002b8604085016200025b565b90509250925092565b60008151808452815b81811015620002e857602081850181015186830182015201620002ca565b81811115620002fa5782602083870101525b50601f01601f19169290920160200192915050565b602081526000620003246020830184620002c1565b9392505050565b604081526000620003406040830185620002c1565b905060018060a01b03831660208301529392505050565b614db680620003676000396000f3fe60806040526004361061012a5760003560e01c80638da5cb5b116100ab578063d9c3e2431161006f578063d9c3e24314610332578063dd03ff8f14610352578063e64872181461037f578063e911b682146103a1578063ea267e97146103c1578063f2fde38b146103e157600080fd5b80638da5cb5b14610279578063aa387cfa146102a1578063bcbb8e30146102c1578063bcc5f88a146102e3578063c4cf21e81461030357600080fd5b80635c975abb116100f25780635c975abb146101e3578063715018a61461020d57806373fcd996146102225780637c36b25b146102445780638456cb591461026457600080fd5b806305d738181461012f578063147df3fe1461016c5780631d4249791461018e57806323c56329146101ae5780633f4ba83a146101ce575b600080fd5b34801561013b57600080fd5b5061014f61014a3660046145b0565b610401565b604051610163989796959493929190614a36565b60405180910390f35b34801561017857600080fd5b5061018c610187366004614366565b61057f565b005b34801561019a57600080fd5b5061018c6101a9366004614448565b6107cd565b3480156101ba57600080fd5b5061018c6101c93660046145b0565b610915565b3480156101da57600080fd5b5061018c610922565b3480156101ef57600080fd5b50600054600160a01b900460ff166040519015158152602001610163565b34801561021957600080fd5b5061018c610934565b34801561022e57600080fd5b50610237610946565b6040516101639190614906565b34801561025057600080fd5b5061018c61025f3660046144dc565b610adb565b34801561027057600080fd5b5061018c611585565b34801561028557600080fd5b506000546040516001600160a01b039091168152602001610163565b3480156102ad57600080fd5b5061018c6102bc3660046145b0565b611595565b3480156102cd57600080fd5b506102d66115a2565b6040516101639190614851565b3480156102ef57600080fd5b5061018c6102fe366004614553565b611771565b34801561030f57600080fd5b5061032361031e3660046142aa565b611959565b60405161016393929190614b0b565b34801561033e57600080fd5b5061018c61034d366004614290565b611f31565b34801561035e57600080fd5b5061037261036d366004614290565b61244b565b604051610163919061483e565b34801561038b57600080fd5b506103946124ff565b60405161016391906148b2565b3480156103ad57600080fd5b5061018c6103bc366004614290565b612633565b6103d46103cf3660046142dc565b61296c565b6040516101639190614b4e565b3480156103ed57600080fd5b5061018c6103fc366004614290565b61376c565b600a818154811061041157600080fd5b906000526020600020906007020160009150905080600001805461043490614c1e565b80601f016020809104026020016040519081016040528092919081815260200182805461046090614c1e565b80156104ad5780601f10610482576101008083540402835291602001916104ad565b820191906000526020600020905b81548152906001019060200180831161049057829003601f168201915b5050505050908060010180546104c290614c1e565b80601f01602080910402602001604051908101604052809291908181526020018280546104ee90614c1e565b801561053b5780601f106105105761010080835404028352916020019161053b565b820191906000526020600020905b81548152906001019060200180831161051e57829003601f168201915b5050506002840154600385015460048601546005870154600690970154959692956001600160a01b038316955060ff600160a01b9093048316945090929091169088565b61058761386d565b6105a8604051806060016040528060228152602001614cfa602291396137e5565b60005b81518110156107c957600a6040518061010001604052808484815181106105e257634e487b7160e01b600052603260045260246000fd5b602002602001015160000151815260200184848151811061061357634e487b7160e01b600052603260045260246000fd5b602002602001015160200151815260200184848151811061064457634e487b7160e01b600052603260045260246000fd5b602002602001015160400151815260200184848151811061067557634e487b7160e01b600052603260045260246000fd5b6020026020010151606001516001600160a01b031681526020018484815181106106af57634e487b7160e01b600052603260045260246000fd5b60200260200101516080015160ff168152602001428152602001600060ff1681526020018484815181106106f357634e487b7160e01b600052603260045260246000fd5b60209081029190910181015160e001519091528254600181018455600093845292819020825180519394600702909101926107319284920190613fda565b50602082810151805161074a9260018501920190613fda565b5060408201516002820155606082015160038201805460808501516001600160a01b039093166001600160a81b031990911617600160a01b60ff9384160217905560a0830151600483015560c083015160058301805460ff19169190921617905560e090910151600690910155806107c181614c59565b9150506105ab565b5050565b6107d561386d565b6107f6604051806060016040528060228152602001614cfa602291396137e5565b604080516101008101825287815260208082018790529181018590526001600160a01b038716606082015260ff841660808201524260a0820152600060c0820181905260e08201849052600a8054600181018255915281518051929360079092027fc65a7bb8d6351c1cf70c95a316cc6a92839c986682d98bc35f958f4883f9d2a801926108879284920190613fda565b5060208281015180516108a09260018501920190613fda565b5060408201516002820155606082015160038201805460808501516001600160a01b039093166001600160a81b031990911617600160a01b60ff9384160217905560a0830151600483015560c083015160058301805460ff19169190921617905560e090910151600690910155505050505050565b61091d61386d565b600655565b61092a61386d565b6109326138c7565b565b61093c61386d565b610932600061391c565b336000908152600760209081526040808320805482518185028101850190935280835260609492939192909184015b82821015610ad25760008481526020908190206040805160e081019091526006850290910180546001600160a01b0316825260018101805492939192918401916109be90614c1e565b80601f01602080910402602001604051908101604052809291908181526020018280546109ea90614c1e565b8015610a375780601f10610a0c57610100808354040283529160200191610a37565b820191906000526020600020905b815481529060010190602001808311610a1a57829003601f168201915b5050509183525050600282015460208201526003820154604082015260048201546060820152600582015460809091019060ff166001811115610a8a57634e487b7160e01b600052602160045260246000fd5b6001811115610aa957634e487b7160e01b600052602160045260246000fd5b815260059190910154610100900460ff1615156020918201529082526001929092019101610975565b50505050905090565b610ae361396c565b610b066040518060600160405280602f8152602001614ccb602f913986866139b9565b610b376040518060400160405280600f81526020016e746f6b656e416d6f756e743a20257360881b81525084613a05565b610b6a60405180604001604052806011815260200170636c61696d5175616e746974793a20257360781b81525083613a05565b610bb86040518060400160405280600d81526020016c636c61696d547970653a20257360981b815250826001811115610bb357634e487b7160e01b600052602160045260246000fd5b613a05565b82600010610c185760405162461bcd60e51b815260206004820152602260248201527f746f6b656e416d6f756e74206d7573742062652067726561746572207468616e604482015261020360f41b60648201526084015b60405180910390fd5b816000108015610c2a57506103e88211155b610c9e576040805162461bcd60e51b81526020600482015260248101919091527f636c61696d5175616e74697479206d757374206265206772656174657220746860448201527f616e203020616e64206c657373206f7220657175616c207468616e20313030306064820152608401610c0f565b610ca661405e565b60005b600a54811015610f5457610d88600a8281548110610cd757634e487b7160e01b600052603260045260246000fd5b90600052602060002090600702016000018054610cf390614c1e565b80601f0160208091040260200160405190810160405280929190818152602001828054610d1f90614c1e565b8015610d6c5780601f10610d4157610100808354040283529160200191610d6c565b820191906000526020600020905b815481529060010190602001808311610d4f57829003601f168201915b5050505050888051602091820120825192909101919091201490565b15610f4257600a8181548110610dae57634e487b7160e01b600052603260045260246000fd5b906000526020600020906007020160405180610100016040529081600082018054610dd890614c1e565b80601f0160208091040260200160405190810160405280929190818152602001828054610e0490614c1e565b8015610e515780601f10610e2657610100808354040283529160200191610e51565b820191906000526020600020905b815481529060010190602001808311610e3457829003601f168201915b50505050508152602001600182018054610e6a90614c1e565b80601f0160208091040260200160405190810160405280929190818152602001828054610e9690614c1e565b8015610ee35780601f10610eb857610100808354040283529160200191610ee3565b820191906000526020600020905b815481529060010190602001808311610ec657829003601f168201915b50505091835250506002820154602082015260038201546001600160a01b038116604083015260ff600160a01b909104811660608301526004830154608083015260058301541660a082015260069091015460c0909101529150610f54565b80610f4c81614c59565b915050610ca9565b5060008160400151118015610f6e575060c081015160ff16155b610fba5760405162461bcd60e51b815260206004820152601860248201527f496e76616c696420626c657373696e67207374617475732100000000000000006044820152606401610c0f565b610fdb610fd4826040015185613a4a90919063ffffffff16565b8590613a5d565b6002546040516370a0823160e01b81523360048201526001600160a01b03909116906370a082319060240160206040518083038186803b15801561101e57600080fd5b505afa158015611032573d6000803e3d6000fd5b505050506040513d601f19601f8201168201806040525081019061105691906145c8565b10156110ca5760405162461bcd60e51b815260206004820152603e60248201527f596f757220746f6b656e20616d6f756e74206d7573742062652067726561746560448201527f72207468616e20796f752061726520747279696e6720746f2073656e642100006064820152608401610c0f565b6002546040516323b872dd60e01b8152336004820152306024820152604481018690526001600160a01b03909116906323b872dd90606401602060405180830381600087803b15801561111c57600080fd5b505af1158015611130573d6000803e3d6000fd5b505050506040513d601f19601f820116820180604052508101906111549190614428565b6111a05760405162461bcd60e51b815260206004820152601c60248201527f5472616e7366657220746f20636f6e7472616374206661696c656421000000006044820152606401610c0f565b600254606082015160e08301516001600160a01b03909216916323b872dd9133916111f2906064906111ec906111d69083614c07565b60408901516111e6908c90613a4a565b90613a4a565b90613a69565b6040516001600160e01b031960e086901b1681526001600160a01b0393841660048201529290911660248301526044820152606401602060405180830381600087803b15801561124157600080fd5b505af1158015611255573d6000803e3d6000fd5b505050506040513d601f19601f820116820180604052508101906112799190614428565b6112d75760405162461bcd60e51b815260206004820152602960248201527f5472616e7366657220746f20746865206f776e6572206f6620626c657373696e60448201526867206661696c65642160b81b6064820152608401610c0f565b6002546001600160a01b03166323b872dd336112fb6000546001600160a01b031690565b61131f60646111ec8760e001516111e689604001518c613a4a90919063ffffffff16565b6040516001600160e01b031960e086901b1681526001600160a01b0393841660048201529290911660248301526044820152606401602060405180830381600087803b15801561136e57600080fd5b505af1158015611382573d6000803e3d6000fd5b505050506040513d601f19601f820116820180604052508101906113a69190614428565b6113f25760405162461bcd60e51b815260206004820181905260248201527f5472616e7366657220746f2074686520636f6e7472616374206661696c6564216044820152606401610c0f565b60076000336001600160a01b03166001600160a01b031681526020019081526020016000206040518060e00160405280876001600160a01b0316815260200188815260200142815260200186815260200185815260200184600181111561146957634e487b7160e01b600052602160045260246000fd5b81526000602091820181905283546001808201865594825290829020835160069092020180546001600160a01b0319166001600160a01b03909216919091178155828201518051939491936114c693928501929190910190613fda565b5060408201516002820155606082015160038201556080820151600482015560a082015160058201805460ff19166001838181111561151557634e487b7160e01b600052602160045260246000fd5b021790555060c09190910151600590910180549115156101000261ff0019909216919091179055604080513381526001600160a01b03871660208201527f9028f7dd664be64a65e420291fdb6b56dec3b01e5433aa9675727b383cf1e5bc910160405180910390a1505050505050565b61158d61386d565b610932613a75565b61159d61386d565b600555565b6060600a805480602002602001604051908101604052809291908181526020016000905b82821015610ad25783829060005260206000209060070201604051806101000160405290816000820180546115fa90614c1e565b80601f016020809104026020016040519081016040528092919081815260200182805461162690614c1e565b80156116735780601f1061164857610100808354040283529160200191611673565b820191906000526020600020905b81548152906001019060200180831161165657829003601f168201915b5050505050815260200160018201805461168c90614c1e565b80601f01602080910402602001604051908101604052809291908181526020018280546116b890614c1e565b80156117055780601f106116da57610100808354040283529160200191611705565b820191906000526020600020905b8154815290600101906020018083116116e857829003601f168201915b5050509183525050600282015460208083019190915260038301546001600160a01b038116604084015260ff600160a01b909104811660608401526004840154608084015260058401541660a083015260069092015460c09091015290825260019290920191016115c6565b61177961386d565b61179b604051806060016040528060348152602001614d1c6034913985613ab8565b60005b600a548110156119525761187d600a82815481106117cc57634e487b7160e01b600052603260045260246000fd5b906000526020600020906007020160000180546117e890614c1e565b80601f016020809104026020016040519081016040528092919081815260200182805461181490614c1e565b80156118615780601f1061183657610100808354040283529160200191611861565b820191906000526020600020905b81548152906001019060200180831161184457829003601f168201915b5050505050868051602091820120825192909101919091201490565b156119405782600a82815481106118a457634e487b7160e01b600052603260045260246000fd5b906000526020600020906007020160050160006101000a81548160ff021916908360ff16021790555083600a82815481106118ef57634e487b7160e01b600052603260045260246000fd5b90600052602060002090600702016002018190555081600a828154811061192657634e487b7160e01b600052603260045260246000fd5b906000526020600020906007020160060181905550611952565b8061194a81614c59565b91505061179e565b5050505050565b61196161405e565b6119696140b2565b6001600160a01b0384166000908152600760209081526040808320805482518185028101850190935280835260609493849084015b82821015611afb5760008481526020908190206040805160e081019091526006850290910180546001600160a01b0316825260018101805492939192918401916119e790614c1e565b80601f0160208091040260200160405190810160405280929190818152602001828054611a1390614c1e565b8015611a605780601f10611a3557610100808354040283529160200191611a60565b820191906000526020600020905b815481529060010190602001808311611a4357829003601f168201915b5050509183525050600282015460208201526003820154604082015260048201546060820152600582015460809091019060ff166001811115611ab357634e487b7160e01b600052602160045260246000fd5b6001811115611ad257634e487b7160e01b600052602160045260246000fd5b815260059190910154610100900460ff161515602091820152908252600192909201910161199e565b505050509050611b096140b2565b60005b8251811015611b9757866001600160a01b0316838281518110611b3f57634e487b7160e01b600052603260045260246000fd5b6020026020010151600001516001600160a01b03161415611b8557828181518110611b7a57634e487b7160e01b600052603260045260246000fd5b602002602001015191505b80611b8f81614c59565b915050611b0c565b506000816060015111611bbc5760405162461bcd60e51b8152600401610c0f90614ac1565b6001600160a01b038616600090815260096020908152604080832080548251818502810185019093528083529192909190849084015b82821015611c635760008481526020908190206040805160c0810182526006860290920180546001600160a01b031683526001808201548486015260028201549284019290925260038101546060840152600481015460808401526005015460a08301529083529092019101611bf2565b505050509050611c7161405e565b60005b600a54811015611f2357611d57600a8281548110611ca257634e487b7160e01b600052603260045260246000fd5b90600052602060002090600702016000018054611cbe90614c1e565b80601f0160208091040260200160405190810160405280929190818152602001828054611cea90614c1e565b8015611d375780601f10611d0c57610100808354040283529160200191611d37565b820191906000526020600020905b815481529060010190602001808311611d1a57829003601f168201915b505050505085602001518051602091820120825192909101919091201490565b15611f1157600a8181548110611d7d57634e487b7160e01b600052603260045260246000fd5b906000526020600020906007020160405180610100016040529081600082018054611da790614c1e565b80601f0160208091040260200160405190810160405280929190818152602001828054611dd390614c1e565b8015611e205780601f10611df557610100808354040283529160200191611e20565b820191906000526020600020905b815481529060010190602001808311611e0357829003601f168201915b50505050508152602001600182018054611e3990614c1e565b80601f0160208091040260200160405190810160405280929190818152602001828054611e6590614c1e565b8015611eb25780601f10611e8757610100808354040283529160200191611eb2565b820191906000526020600020905b815481529060010190602001808311611e9557829003601f168201915b50505091835250506002820154602082015260038201546001600160a01b038116604083015260ff600160a01b909104811660608301526004830154608083015260058301541660a082015260069091015460c0909101529150611f23565b80611f1b81614c59565b915050611c74565b509891975095509350505050565b611f3961396c565b6001600160a01b038116600090815260096020908152604080832080548251818502810185019093528083529192909190849084015b82821015611fe05760008481526020908190206040805160c0810182526006860290920180546001600160a01b031683526001808201548486015260028201549284019290925260038101546060840152600481015460808401526005015460a08301529083529092019101611f6f565b505050509050805160001461205d5760405162461bcd60e51b815260206004820152603c60248201527f596f757220626c657373696e6720697320636c61696d696e67206279206f746860448201527f6572732e2043616e206e6f74207265766f6b6520616e796d6f726521000000006064820152608401610c0f565b33600090815260076020908152604080832080548251818502810185019093528083529192909190849084015b828210156121e75760008481526020908190206040805160e081019091526006850290910180546001600160a01b0316825260018101805492939192918401916120d390614c1e565b80601f01602080910402602001604051908101604052809291908181526020018280546120ff90614c1e565b801561214c5780601f106121215761010080835404028352916020019161214c565b820191906000526020600020905b81548152906001019060200180831161212f57829003601f168201915b5050509183525050600282015460208201526003820154604082015260048201546060820152600582015460809091019060ff16600181111561219f57634e487b7160e01b600052602160045260246000fd5b60018111156121be57634e487b7160e01b600052602160045260246000fd5b815260059190910154610100900460ff161515602091820152908252600192909201910161208a565b505050509050600081511161220e5760405162461bcd60e51b8152600401610c0f90614ac1565b6122166140b2565b6000805b83518110156122a857856001600160a01b031684828151811061224d57634e487b7160e01b600052603260045260246000fd5b6020026020010151600001516001600160a01b031614156122965783818151811061228857634e487b7160e01b600052603260045260246000fd5b602002602001015192508091505b806122a081614c59565b91505061221a565b5060008260600151116122cd5760405162461bcd60e51b8152600401610c0f90614ac1565b600254606083015160405163a9059cbb60e01b815233600482015260248101919091526001600160a01b039091169063a9059cbb90604401602060405180830381600087803b15801561231f57600080fd5b505af1158015612333573d6000803e3d6000fd5b505050506040513d601f19601f820116820180604052508101906123579190614428565b6123a35760405162461bcd60e51b815260206004820152601f60248201527f5472616e73666572206261636b20746f2073656e646572206661696c656421006044820152606401610c0f565b336000908152600760205260409020805460019190839081106123d657634e487b7160e01b600052603260045260246000fd5b600091825260209182902060056006909202010180549215156101000261ff001990931692909217909155604080513381526001600160a01b038816928101929092527faf0a59ad678f81ba23bb66973fedd52a279df960fc232c3bd4f56faf8d7945fb910160405180910390a15050505050565b6001600160a01b0381166000908152600960209081526040808320805482518185028101850190935280835260609492939192909184015b828210156124f45760008481526020908190206040805160c0810182526006860290920180546001600160a01b031683526001808201548486015260028201549284019290925260038101546060840152600481015460808401526005015460a08301529083529092019101612483565b505050509050919050565b336000908152600860209081526040808320805482518185028101850190935280835260609492939192909184015b82821015610ad25760008481526020908190206040805160c0810182526006860290920180546001600160a01b039081168452600182015416938301939093526002830180549293929184019161258490614c1e565b80601f01602080910402602001604051908101604052809291908181526020018280546125b090614c1e565b80156125fd5780601f106125d2576101008083540402835291602001916125fd565b820191906000526020600020905b8154815290600101906020018083116125e057829003601f168201915b5050505050815260200160038201548152602001600482015481526020016005820154815250508152602001906001019061252e565b61263b61386d565b612643613afd565b6003546040516370a0823160e01b81523060048201526001600160a01b039091169063a9059cbb90839083906370a082319060240160206040518083038186803b15801561269057600080fd5b505afa1580156126a4573d6000803e3d6000fd5b505050506040513d601f19601f820116820180604052508101906126c891906145c8565b6040516001600160e01b031960e085901b1681526001600160a01b0390921660048301526024820152604401602060405180830381600087803b15801561270e57600080fd5b505af1158015612722573d6000803e3d6000fd5b505050506040513d601f19601f820116820180604052508101906127469190614428565b6127a75760405162461bcd60e51b815260206004820152602c60248201527f5472616e736665722043425420746f206e6578742076657273696f6e2061646460448201526b72657373206661696c65642160a01b6064820152608401610c0f565b6002546001600160a01b031663a9059cbb6127ca6000546001600160a01b031690565b6002546040516370a0823160e01b81523060048201526001600160a01b03909116906370a082319060240160206040518083038186803b15801561280d57600080fd5b505afa158015612821573d6000803e3d6000fd5b505050506040513d601f19601f8201168201806040525081019061284591906145c8565b6040516001600160e01b031960e085901b1681526001600160a01b0390921660048301526024820152604401602060405180830381600087803b15801561288b57600080fd5b505af115801561289f573d6000803e3d6000fd5b505050506040513d601f19601f820116820180604052508101906128c39190614428565b61290f5760405162461bcd60e51b815260206004820152601e60248201527f5472616e73666572204255534420746f206f776e6572206661696c65642100006044820152606401610c0f565b6004805460405163f2fde38b60e01b81526001600160a01b038481169382019390935291169063f2fde38b90602401600060405180830381600087803b15801561295857600080fd5b505af1158015611952573d6000803e3d6000fd5b6129b76040518060c0016040528060006001600160a01b0316815260200160006001600160a01b03168152602001606081526020016000815260200160008152602001600081525090565b6129bf61396c565b60026001541415612a125760405162461bcd60e51b815260206004820152601f60248201527f5265656e7472616e637947756172643a207265656e7472616e742063616c6c006044820152606401610c0f565b6002600181905550612a3d604051806060016040528060318152602001614d50603191398787613b4d565b6001600160a01b0382163314612a825760405162461bcd60e51b815260206004820152600a6024820152696675636b4f666621212160b01b6044820152606401610c0f565b612a8d848487613b94565b612ace5760405162461bcd60e51b8152602060048201526012602482015271496e76616c6964207369676e69747572652160701b6044820152606401610c0f565b612b02604051806040016040528060138152602001727369676e61747572652069732076616c69642160681b8152506137e5565b333b15612b635760405162461bcd60e51b815260206004820152602960248201527f596f752063616e206e6f7420636c61696d20626c657373696e672066726f6d20604482015268636f6e74726163742160b81b6064820152608401610c0f565b6001600160a01b038616600090815260076020908152604080832080548251818502810185019093528083529192909190849084015b82821015612cf65760008481526020908190206040805160e081019091526006850290910180546001600160a01b031682526001810180549293919291840191612be290614c1e565b80601f0160208091040260200160405190810160405280929190818152602001828054612c0e90614c1e565b8015612c5b5780601f10612c3057610100808354040283529160200191612c5b565b820191906000526020600020905b815481529060010190602001808311612c3e57829003601f168201915b5050509183525050600282015460208201526003820154604082015260048201546060820152600582015460809091019060ff166001811115612cae57634e487b7160e01b600052602160045260246000fd5b6001811115612ccd57634e487b7160e01b600052602160045260246000fd5b815260059190910154610100900460ff1615156020918201529082526001929092019101612b99565b5050505090506000815111612d1d5760405162461bcd60e51b8152600401610c0f90614ac1565b612d256140b2565b60005b8251811015612db357876001600160a01b0316838281518110612d5b57634e487b7160e01b600052603260045260246000fd5b6020026020010151600001516001600160a01b03161415612da157828181518110612d9657634e487b7160e01b600052603260045260246000fd5b602002602001015191505b80612dab81614c59565b915050612d28565b5060c081015115612e065760405162461bcd60e51b815260206004820152601960248201527f5468697320626c657373696e67206973207265766f6b656421000000000000006044820152606401610c0f565b6000816060015111612e2a5760405162461bcd60e51b8152600401610c0f90614ac1565b6001600160a01b038716600090815260096020908152604080832080548251818502810185019093528083529192909190849084015b82821015612ed15760008481526020908190206040805160c0810182526006860290920180546001600160a01b031683526001808201548486015260028201549284019290925260038101546060840152600481015460808401526005015460a08301529083529092019101612e60565b5050505090508160800151815110612f2b5760405162461bcd60e51b815260206004820152601b60248201527f5468657265206973206e6f206d6f726520626c657373696e67732100000000006044820152606401610c0f565b6000805b825181101561302057336001600160a01b0316838281518110612f6257634e487b7160e01b600052603260045260246000fd5b6020026020010151600001516001600160a01b03161415612fd55760405162461bcd60e51b815260206004820152602760248201527f596f75206861766520616c726561647920636c61696d6564207468697320626c604482015266657373696e672160c81b6064820152608401610c0f565b828181518110612ff557634e487b7160e01b600052603260045260246000fd5b6020026020010151604001518261300c9190614bbc565b91508061301881614c59565b915050612f2f565b506000808460a00151600181111561304857634e487b7160e01b600052602160045260246000fd5b1415613068576080840151606085015161306191613a69565b905061310c565b60018460a00151600181111561308e57634e487b7160e01b600052602160045260246000fd5b141561310c5760006130ae84518660800151613bba90919063ffffffff16565b905060006130bc600a613bc6565b905081600114156130dd5760608601516130d69085613bba565b9250613109565b61310660026111e6600a6111ec856111e6886111ec8c8f60600151613bba90919063ffffffff16565b92505b50505b60006040518060c001604052808d6001600160a01b031681526020018c6001600160a01b03168152602001866020015181526020014281526020016131666006546103e861315a9190614c07565b6111e6866103e8613a69565b81526020016131866006546111e66103e887613a6990919063ffffffff16565b905233600090815260086020908152604080832080546001818101835591855293839020855160069095020180546001600160a01b039586166001600160a01b031991821617825584870151928201805493909616921691909117909355830151805193945084936131fe9260028501920190613fda565b50606082015160038201556080820151600482015560a09091015160059182015554600090613239906111e685670de0b6b3a7640000613a69565b90506103e881111561324a57506103e75b600960008d6001600160a01b03166001600160a01b031681526020019081526020016000206040518060c00160405280336001600160a01b031681526020014281526020018581526020016132b46006546103e86132a89190614c07565b6111e6886103e8613a69565b81526020016132d46006546111e66103e889613a6990919063ffffffff16565b815260209081018490528254600180820185556000948552938290208351600692830290910180546001600160a01b0319166001600160a01b0392831617815592840151948301949094556040830151600280840191909155606084015160038401556080840151600484015560a0909301516005909201919091559054905491169063a9059cbb90339061336f906132a8906103e8614c07565b6040516001600160e01b031960e085901b1681526001600160a01b0390921660048301526024820152604401602060405180830381600087803b1580156133b557600080fd5b505af11580156133c9573d6000803e3d6000fd5b505050506040513d601f19601f820116820180604052508101906133ed9190614428565b6134395760405162461bcd60e51b815260206004820152601760248201527f436c61696d2074686520746f6b656e206661696c6564210000000000000000006044820152606401610c0f565b6002546001600160a01b031663a9059cbb61345c6000546001600160a01b031690565b60065461346f906111e6886103e8613a69565b6040516001600160e01b031960e085901b1681526001600160a01b0390921660048301526024820152604401602060405180830381600087803b1580156134b557600080fd5b505af11580156134c9573d6000803e3d6000fd5b505050506040513d601f19601f820116820180604052508101906134ed9190614428565b61352f5760405162461bcd60e51b815260206004820152601360248201527254616e7366657220746178206661696c65642160681b6044820152606401610c0f565b6003546040516370a0823160e01b815230600482015282916001600160a01b0316906370a082319060240160206040518083038186803b15801561357257600080fd5b505afa158015613586573d6000803e3d6000fd5b505050506040513d601f19601f820116820180604052508101906135aa91906145c8565b106136815760035460405163a9059cbb60e01b81526001600160a01b038f81166004830152602482018490529091169063a9059cbb90604401602060405180830381600087803b1580156135fd57600080fd5b505af1158015613611573d6000803e3d6000fd5b505050506040513d601f19601f820116820180604052508101906136359190614428565b6136815760405162461bcd60e51b815260206004820152601760248201527f617761726420434220746f6b656e73206661696c6564210000000000000000006044820152606401610c0f565b600480546020880151604051631e1d900360e31b81526001600160a01b039092169263f0ec8018926136b7923392909101614812565b602060405180830381600087803b1580156136d157600080fd5b505af11580156136e5573d6000803e3d6000fd5b505050506040513d601f19601f8201168201806040525081019061370991906145c8565b507f411a457db9208c2357cddce37558ebfedc401243648449843470687d4e9014428d8d6040516137509291906001600160a01b0392831681529116602082015260400190565b60405180910390a150600180559b9a5050505050505050505050565b61377461386d565b6001600160a01b0381166137d95760405162461bcd60e51b815260206004820152602660248201527f4f776e61626c653a206e6577206f776e657220697320746865207a65726f206160448201526564647265737360d01b6064820152608401610c0f565b6137e28161391c565b50565b6137e2816040516024016137f9919061495a565b60408051601f198184030181529190526020810180516001600160e01b031663104c13eb60e21b179052613bfe565b6107c9828260405160240161383e92919061496d565b60408051601f198184030181529190526020810180516001600160e01b031663319af33360e01b179052613bfe565b6000546001600160a01b031633146109325760405162461bcd60e51b815260206004820181905260248201527f4f776e61626c653a2063616c6c6572206973206e6f7420746865206f776e65726044820152606401610c0f565b6138cf613afd565b6000805460ff60a01b191690557f5db9ee0a495bf2e6ff9c91a7834c1ba4fdd244a5e8aa4e537bd38aeae4b073aa335b6040516001600160a01b03909116815260200160405180910390a1565b600080546001600160a01b038381166001600160a01b0319831681178455604051919092169283917f8be0079c531659141344cd1fd0a4f28419497f9722a3daafe3b4186f6b6457e09190a35050565b600054600160a01b900460ff16156109325760405162461bcd60e51b815260206004820152601060248201526f14185d5cd8589b194e881c185d5cd95960821b6044820152606401610c0f565b613a008383836040516024016139d1939291906149f8565b60408051601f198184030181529190526020810180516001600160e01b03166395ed019560e01b179052613bfe565b505050565b6107c98282604051602401613a1b929190614a9f565b60408051601f198184030181529190526020810180516001600160e01b03166309710a9d60e41b179052613bfe565b6000613a568284614be8565b9392505050565b6000613a568284614bbc565b6000613a568284614bd4565b613a7d61396c565b6000805460ff60a01b1916600160a01b1790557f62e78cea01bee320cd4e420270b5ea74000d11b0c9f74754ebdbfc544b05a2586138ff3390565b6107c98282604051602401613ace9291906149ca565b60408051601f198184030181529190526020810180516001600160e01b0316634b5c427760e01b179052613bfe565b600054600160a01b900460ff166109325760405162461bcd60e51b815260206004820152601460248201527314185d5cd8589b194e881b9bdd081c185d5cd95960621b6044820152606401610c0f565b613a00838383604051602401613b6593929190614997565b60408051601f198184030181529190526020810180516001600160e01b03166307e763af60e51b179052613bfe565b600080613ba18585613c1f565b6001600160a01b03908116908416149150509392505050565b6000613a568284614c07565b60008082613bd5600143614c07565b613be0919040614c74565b9050801580613bef575080600a145b15613bf8575060015b92915050565b80516a636f6e736f6c652e6c6f67602083016000808483855afa5050505050565b6000806000613c2e8585613c43565b91509150613c3b81613cb3565b509392505050565b600080825160411415613c7a5760208301516040840151606085015160001a613c6e87828585613eb4565b94509450505050613cac565b825160401415613ca45760208301516040840151613c99868383613fa1565b935093505050613cac565b506000905060025b9250929050565b6000816004811115613cd557634e487b7160e01b600052602160045260246000fd5b1415613cde5750565b6001816004811115613d0057634e487b7160e01b600052602160045260246000fd5b1415613d4e5760405162461bcd60e51b815260206004820152601860248201527f45434453413a20696e76616c6964207369676e617475726500000000000000006044820152606401610c0f565b6002816004811115613d7057634e487b7160e01b600052602160045260246000fd5b1415613dbe5760405162461bcd60e51b815260206004820152601f60248201527f45434453413a20696e76616c6964207369676e6174757265206c656e677468006044820152606401610c0f565b6003816004811115613de057634e487b7160e01b600052602160045260246000fd5b1415613e395760405162461bcd60e51b815260206004820152602260248201527f45434453413a20696e76616c6964207369676e6174757265202773272076616c604482015261756560f01b6064820152608401610c0f565b6004816004811115613e5b57634e487b7160e01b600052602160045260246000fd5b14156137e25760405162461bcd60e51b815260206004820152602260248201527f45434453413a20696e76616c6964207369676e6174757265202776272076616c604482015261756560f01b6064820152608401610c0f565b6000807f7fffffffffffffffffffffffffffffff5d576e7357a4501ddfe92f46681b20a0831115613eeb5750600090506003613f98565b8460ff16601b14158015613f0357508460ff16601c14155b15613f145750600090506004613f98565b6040805160008082526020820180845289905260ff881692820192909252606081018690526080810185905260019060a0016020604051602081039080840390855afa158015613f68573d6000803e3d6000fd5b5050604051601f1901519150506001600160a01b038116613f9157600060019250925050613f98565b9150600090505b94509492505050565b6000806001600160ff1b03831681613fbe60ff86901c601b614bbc565b9050613fcc87828885613eb4565b935093505050935093915050565b828054613fe690614c1e565b90600052602060002090601f016020900481019282614008576000855561404e565b82601f1061402157805160ff191683800117855561404e565b8280016001018555821561404e579182015b8281111561404e578251825591602001919060010190614033565b5061405a929150614117565b5090565b60405180610100016040528060608152602001606081526020016000815260200160006001600160a01b03168152602001600060ff16815260200160008152602001600060ff168152602001600081525090565b6040518060e0016040528060006001600160a01b03168152602001606081526020016000815260200160008152602001600081526020016000600181111561410a57634e487b7160e01b600052602160045260246000fd5b8152600060209091015290565b5b8082111561405a5760008155600101614118565b600067ffffffffffffffff83111561414657614146614cb4565b614159601f8401601f1916602001614b8b565b905082815283838301111561416d57600080fd5b828260208301376000602084830101529392505050565b80356001600160a01b038116811461419b57600080fd5b919050565b600082601f8301126141b0578081fd5b613a568383356020850161412c565b600061010082840312156141d1578081fd5b6141d9614b61565b9050813567ffffffffffffffff808211156141f357600080fd5b6141ff858386016141a0565b8352602084013591508082111561421557600080fd5b50614222848285016141a0565b6020830152506040820135604082015261423e60608301614184565b606082015261424f6080830161427f565b608082015260a082013560a082015261426a60c0830161427f565b60c082015260e082013560e082015292915050565b803560ff8116811461419b57600080fd5b6000602082840312156142a1578081fd5b613a5682614184565b600080604083850312156142bc578081fd5b6142c583614184565b91506142d360208401614184565b90509250929050565b600080600080600060a086880312156142f3578081fd5b6142fc86614184565b945061430a60208701614184565b935060408601359250606086013567ffffffffffffffff81111561432c578182fd5b8601601f8101881361433c578182fd5b61434b8882356020840161412c565b92505061435a60808701614184565b90509295509295909350565b60006020808385031215614378578182fd5b823567ffffffffffffffff8082111561438f578384fd5b818501915085601f8301126143a2578384fd5b8135818111156143b4576143b4614cb4565b8060051b6143c3858201614b8b565b8281528581019085870183870188018b10156143dd578889fd5b8893505b8484101561441a578035868111156143f757898afd5b6144058c8a838b01016141bf565b845250600193909301929187019187016143e1565b509998505050505050505050565b600060208284031215614439578081fd5b81518015158114613a56578182fd5b60008060008060008060c08789031215614460578081fd5b863567ffffffffffffffff80821115614477578283fd5b6144838a838b016141a0565b975061449160208a01614184565b965060408901359150808211156144a6578283fd5b506144b389828a016141a0565b945050606087013592506144c96080880161427f565b915060a087013590509295509295509295565b600080600080600060a086880312156144f3578081fd5b853567ffffffffffffffff811115614509578182fd5b614515888289016141a0565b95505061452460208701614184565b93506040860135925060608601359150608086013560028110614545578182fd5b809150509295509295909350565b60008060008060808587031215614568578182fd5b843567ffffffffffffffff81111561457e578283fd5b61458a878288016141a0565b945050602085013592506145a06040860161427f565b9396929550929360600135925050565b6000602082840312156145c1578081fd5b5035919050565b6000602082840312156145d9578081fd5b5051919050565b6000815180845260208085019450808401835b8381101561464c57815180516001600160a01b03168852838101518489015260408082015190890152606080820151908901526080808201519089015260a0908101519088015260c090960195908201906001016145f3565b509495945050505050565b60008151808452815b8181101561467c57602081850181015186830182015201614660565b8181111561468d5782602083870101525b50601f01601f19169290920160200192915050565b600061010082518185526146b882860182614657565b915050602083015184820360208601526146d28282614657565b9150506040830151604085015260018060a01b03606084015116606085015260ff608084015116608085015260a083015160a085015260c083015161471c60c086018260ff169052565b5060e083015160e08501528091505092915050565b600060018060a01b0380835116845280602084015116602085015250604082015160c0604085015261476660c0850182614657565b9050606083015160608501526080830151608085015260a083015160a08501528091505092915050565b60018060a01b0381511682526000602082015160e060208501526147b760e0850182614657565b905060408301516040850152606083015160608501526080830151608085015260a0830151600281106147f857634e487b7160e01b83526021600452602483fd5b8060a08601525060c0830151613c3b60c086018215159052565b6001600160a01b038316815260406020820181905260009061483690830184614657565b949350505050565b602081526000613a5660208301846145e0565b6000602080830181845280855180835260408601915060408160051b8701019250838701855b828110156148a557603f198886030184526148938583516146a2565b94509285019290850190600101614877565b5092979650505050505050565b6000602080830181845280855180835260408601915060408160051b8701019250838701855b828110156148a557603f198886030184526148f4858351614731565b945092850192908501906001016148d8565b6000602080830181845280855180835260408601915060408160051b8701019250838701855b828110156148a557603f19888603018452614948858351614790565b9450928501929085019060010161492c565b602081526000613a566020830184614657565b6040815260006149806040830185614657565b905060018060a01b03831660208301529392505050565b6060815260006149aa6060830186614657565b6001600160a01b0394851660208401529290931660409091015292915050565b6040815260006149dd6040830185614657565b82810360208401526149ef8185614657565b95945050505050565b606081526000614a0b6060830186614657565b8281036020840152614a1d8186614657565b91505060018060a01b0383166040830152949350505050565b6000610100808352614a4a8184018c614657565b90508281036020840152614a5e818b614657565b604084019990995250506001600160a01b0395909516606086015260ff938416608086015260a085019290925290911660c083015260e09091015292915050565b604081526000614ab26040830185614657565b90508260208301529392505050565b6020808252602a908201527f5468657265206973206e6f20626c657373696e6720666f756e64206f6e20746860408201526969732073656e6465722160b01b606082015260800190565b606081526000614b1e60608301866146a2565b8281036020840152614b308186614790565b90508281036040840152614b4481856145e0565b9695505050505050565b602081526000613a566020830184614731565b604051610100810167ffffffffffffffff81118282101715614b8557614b85614cb4565b60405290565b604051601f8201601f1916810167ffffffffffffffff81118282101715614bb457614bb4614cb4565b604052919050565b60008219821115614bcf57614bcf614c88565b500190565b600082614be357614be3614c9e565b500490565b6000816000190483118215151615614c0257614c02614c88565b500290565b600082821015614c1957614c19614c88565b500390565b600181811c90821680614c3257607f821691505b60208210811415614c5357634e487b7160e01b600052602260045260246000fd5b50919050565b6000600019821415614c6d57614c6d614c88565b5060010190565b600082614c8357614c83614c9e565b500690565b634e487b7160e01b600052601160045260246000fd5b634e487b7160e01b600052601260045260246000fd5b634e487b7160e01b600052604160045260246000fdfe737461727420746f2073656e6420626c657373696e672120696d6167653a25732c20626c657373696e6749443a2573737461727420746f2061646420626c657373696e6720746f2074686520706f6f6c21737461727420746f2072656d6f7665206f6e6520626c657373696e672066726f6d2074686520706f6f6c2120696d6167653a2573737461727420746f20636c61696d20626c657373696e67212073656e6465723a25732c20626c657373696e6749443a2573a26469706673582212208dfbe2cba161730d36e8c315b933caa3e59352449c125ca1e6e9207a2bac520064736f6c63430008040033426c657373696e6720697320746865206d6f737420756e6976657273616c2068756d616e2065787072657373696f6e206f6620656d6f74696f6e2c20616e6420776520617265204e4654697a696e6720697421",
  "linkReferences": {},
  "deployedLinkReferences": {}
}