{
  "_format": "hh-sol-artifact-1",
  "contractName": "CryptoBlessing",
  "sourceName": "contracts/CryptoBlessing.sol",
  "abi": [
    {
      "inputs": [
        {
          "internalType": "address",
          "name": "_sendTokenAddress",
          "type": "address"
        },
        {
          "internalType": "address",
          "name": "_cryptoBlessingTokenAddress",
          "type": "address"
        },
        {
          "internalType": "address",
          "name": "_cryptoBlessingNFTAddress",
          "type": "address"
        }
      ],
      "stateMutability": "payable",
      "type": "constructor"
    },
    {
      "anonymous": false,
      "inputs": [
        {
          "indexed": true,
          "internalType": "address",
          "name": "previousOwner",
          "type": "address"
        },
        {
          "indexed": true,
          "internalType": "address",
          "name": "newOwner",
          "type": "address"
        }
      ],
      "name": "OwnershipTransferred",
      "type": "event"
    },
    {
      "anonymous": false,
      "inputs": [
        {
          "indexed": false,
          "internalType": "address",
          "name": "account",
          "type": "address"
        }
      ],
      "name": "Paused",
      "type": "event"
    },
    {
      "anonymous": false,
      "inputs": [
        {
          "indexed": false,
          "internalType": "address",
          "name": "account",
          "type": "address"
        }
      ],
      "name": "Unpaused",
      "type": "event"
    },
    {
      "anonymous": false,
      "inputs": [
        {
          "indexed": false,
          "internalType": "address",
          "name": "sender",
          "type": "address"
        },
        {
          "indexed": false,
          "internalType": "address",
          "name": "blessingID",
          "type": "address"
        }
      ],
      "name": "claimerClaimComplete",
      "type": "event"
    },
    {
      "anonymous": false,
      "inputs": [
        {
          "indexed": false,
          "internalType": "address",
          "name": "sender",
          "type": "address"
        },
        {
          "indexed": false,
          "internalType": "address",
          "name": "blessingID",
          "type": "address"
        }
      ],
      "name": "senderRevokeComplete",
      "type": "event"
    },
    {
      "anonymous": false,
      "inputs": [
        {
          "indexed": false,
          "internalType": "address",
          "name": "sender",
          "type": "address"
        },
        {
          "indexed": false,
          "internalType": "address",
          "name": "blessingID",
          "type": "address"
        }
      ],
      "name": "senderSendCompleted",
      "type": "event"
    },
    {
      "inputs": [
        {
          "internalType": "string[]",
          "name": "images",
          "type": "string[]"
        },
        {
          "components": [
            {
              "internalType": "uint256",
              "name": "price",
              "type": "uint256"
            },
            {
              "internalType": "address",
              "name": "owner",
              "type": "address"
            },
            {
              "internalType": "uint8",
              "name": "deleted",
              "type": "uint8"
            },
            {
              "internalType": "uint256",
              "name": "taxRate",
              "type": "uint256"
            }
          ],
          "internalType": "struct CryptoBlessing.Blessing[]",
          "name": "blessings",
          "type": "tuple[]"
        }
      ],
      "name": "batchUpdateBlessing",
      "outputs": [],
      "stateMutability": "nonpayable",
      "type": "function"
    },
    {
      "inputs": [
        {
          "internalType": "address",
          "name": "sender",
          "type": "address"
        },
        {
          "internalType": "address",
          "name": "blessingID",
          "type": "address"
        },
        {
          "internalType": "bytes32",
          "name": "hash",
          "type": "bytes32"
        },
        {
          "internalType": "bytes",
          "name": "signature",
          "type": "bytes"
        }
      ],
      "name": "claimBlessing",
      "outputs": [
        {
          "components": [
            {
              "internalType": "address",
              "name": "sender",
              "type": "address"
            },
            {
              "internalType": "address",
              "name": "blessingID",
              "type": "address"
            },
            {
              "internalType": "string",
              "name": "blessingImage",
              "type": "string"
            },
            {
              "internalType": "uint256",
              "name": "claimTimestamp",
              "type": "uint256"
            },
            {
              "internalType": "uint256",
              "name": "claimAmount",
              "type": "uint256"
            },
            {
              "internalType": "uint256",
              "name": "taxAmount",
              "type": "uint256"
            }
          ],
          "internalType": "struct CryptoBlessing.ClaimerBlessing",
          "name": "",
          "type": "tuple"
        }
      ],
      "stateMutability": "payable",
      "type": "function"
    },
    {
      "inputs": [
        {
          "internalType": "address",
          "name": "sender",
          "type": "address"
        },
        {
          "internalType": "address",
          "name": "blessingID",
          "type": "address"
        }
      ],
      "name": "getAllInfoOfBlessing",
      "outputs": [
        {
          "components": [
            {
              "internalType": "uint256",
              "name": "price",
              "type": "uint256"
            },
            {
              "internalType": "address",
              "name": "owner",
              "type": "address"
            },
            {
              "internalType": "uint8",
              "name": "deleted",
              "type": "uint8"
            },
            {
              "internalType": "uint256",
              "name": "taxRate",
              "type": "uint256"
            }
          ],
          "internalType": "struct CryptoBlessing.Blessing",
          "name": "",
          "type": "tuple"
        },
        {
          "components": [
            {
              "internalType": "address",
              "name": "blessingID",
              "type": "address"
            },
            {
              "internalType": "string",
              "name": "blessingImage",
              "type": "string"
            },
            {
              "internalType": "uint256",
              "name": "sendTimestamp",
              "type": "uint256"
            },
            {
              "internalType": "uint256",
              "name": "tokenAmount",
              "type": "uint256"
            },
            {
              "internalType": "uint256",
              "name": "claimQuantity",
              "type": "uint256"
            },
            {
              "internalType": "enum CryptoBlessing.ClaimType",
              "name": "claimType",
              "type": "uint8"
            },
            {
              "internalType": "bool",
              "name": "revoked",
              "type": "bool"
            }
          ],
          "internalType": "struct CryptoBlessing.SenderBlessing",
          "name": "",
          "type": "tuple"
        },
        {
          "components": [
            {
              "internalType": "address",
              "name": "claimer",
              "type": "address"
            },
            {
              "internalType": "uint256",
              "name": "claimTimestamp",
              "type": "uint256"
            },
            {
              "internalType": "uint256",
              "name": "distributedAmount",
              "type": "uint256"
            },
            {
              "internalType": "uint256",
              "name": "claimAmount",
              "type": "uint256"
            },
            {
              "internalType": "uint256",
              "name": "taxAmount",
              "type": "uint256"
            },
            {
              "internalType": "uint256",
              "name": "CBTokenAwardToSenderAmount",
              "type": "uint256"
            }
          ],
          "internalType": "struct CryptoBlessing.BlessingClaimStatus[]",
          "name": "",
          "type": "tuple[]"
        }
      ],
      "stateMutability": "view",
      "type": "function"
    },
    {
      "inputs": [
        {
          "internalType": "string",
          "name": "image",
          "type": "string"
        }
      ],
      "name": "getBlessing",
      "outputs": [
        {
          "components": [
            {
              "internalType": "uint256",
              "name": "price",
              "type": "uint256"
            },
            {
              "internalType": "address",
              "name": "owner",
              "type": "address"
            },
            {
              "internalType": "uint8",
              "name": "deleted",
              "type": "uint8"
            },
            {
              "internalType": "uint256",
              "name": "taxRate",
              "type": "uint256"
            }
          ],
          "internalType": "struct CryptoBlessing.Blessing",
          "name": "",
          "type": "tuple"
        }
      ],
      "stateMutability": "view",
      "type": "function"
    },
    {
      "inputs": [
        {
          "internalType": "address",
          "name": "_blessingID",
          "type": "address"
        }
      ],
      "name": "getBlessingClaimingStatus",
      "outputs": [
        {
          "components": [
            {
              "internalType": "address",
              "name": "claimer",
              "type": "address"
            },
            {
              "internalType": "uint256",
              "name": "claimTimestamp",
              "type": "uint256"
            },
            {
              "internalType": "uint256",
              "name": "distributedAmount",
              "type": "uint256"
            },
            {
              "internalType": "uint256",
              "name": "claimAmount",
              "type": "uint256"
            },
            {
              "internalType": "uint256",
              "name": "taxAmount",
              "type": "uint256"
            },
            {
              "internalType": "uint256",
              "name": "CBTokenAwardToSenderAmount",
              "type": "uint256"
            }
          ],
          "internalType": "struct CryptoBlessing.BlessingClaimStatus[]",
          "name": "",
          "type": "tuple[]"
        }
      ],
      "stateMutability": "view",
      "type": "function"
    },
    {
      "inputs": [
        {
          "internalType": "address",
          "name": "_blessingID",
          "type": "address"
        }
      ],
      "name": "getBlessingPubkeyStatus",
      "outputs": [
        {
          "components": [
            {
              "internalType": "address",
              "name": "pubkey",
              "type": "address"
            },
            {
              "internalType": "bool",
              "name": "used",
              "type": "bool"
            }
          ],
          "internalType": "struct CryptoBlessing.ClaimPubkeyStatus[]",
          "name": "",
          "type": "tuple[]"
        }
      ],
      "stateMutability": "view",
      "type": "function"
    },
    {
      "inputs": [],
      "name": "getMyClaimedBlessings",
      "outputs": [
        {
          "components": [
            {
              "internalType": "address",
              "name": "sender",
              "type": "address"
            },
            {
              "internalType": "address",
              "name": "blessingID",
              "type": "address"
            },
            {
              "internalType": "string",
              "name": "blessingImage",
              "type": "string"
            },
            {
              "internalType": "uint256",
              "name": "claimTimestamp",
              "type": "uint256"
            },
            {
              "internalType": "uint256",
              "name": "claimAmount",
              "type": "uint256"
            },
            {
              "internalType": "uint256",
              "name": "taxAmount",
              "type": "uint256"
            }
          ],
          "internalType": "struct CryptoBlessing.ClaimerBlessing[]",
          "name": "",
          "type": "tuple[]"
        }
      ],
      "stateMutability": "view",
      "type": "function"
    },
    {
      "inputs": [],
      "name": "getMySendedBlessings",
      "outputs": [
        {
          "components": [
            {
              "internalType": "address",
              "name": "blessingID",
              "type": "address"
            },
            {
              "internalType": "string",
              "name": "blessingImage",
              "type": "string"
            },
            {
              "internalType": "uint256",
              "name": "sendTimestamp",
              "type": "uint256"
            },
            {
              "internalType": "uint256",
              "name": "tokenAmount",
              "type": "uint256"
            },
            {
              "internalType": "uint256",
              "name": "claimQuantity",
              "type": "uint256"
            },
            {
              "internalType": "enum CryptoBlessing.ClaimType",
              "name": "claimType",
              "type": "uint8"
            },
            {
              "internalType": "bool",
              "name": "revoked",
              "type": "bool"
            }
          ],
          "internalType": "struct CryptoBlessing.SenderBlessing[]",
          "name": "",
          "type": "tuple[]"
        }
      ],
      "stateMutability": "view",
      "type": "function"
    },
    {
      "inputs": [],
      "name": "owner",
      "outputs": [
        {
          "internalType": "address",
          "name": "",
          "type": "address"
        }
      ],
      "stateMutability": "view",
      "type": "function"
    },
    {
      "inputs": [],
      "name": "pause",
      "outputs": [],
      "stateMutability": "nonpayable",
      "type": "function"
    },
    {
      "inputs": [],
      "name": "paused",
      "outputs": [
        {
          "internalType": "bool",
          "name": "",
          "type": "bool"
        }
      ],
      "stateMutability": "view",
      "type": "function"
    },
    {
      "inputs": [],
      "name": "renounceOwnership",
      "outputs": [],
      "stateMutability": "nonpayable",
      "type": "function"
    },
    {
      "inputs": [
        {
          "internalType": "address",
          "name": "blessingID",
          "type": "address"
        }
      ],
      "name": "revokeBlessing",
      "outputs": [],
      "stateMutability": "nonpayable",
      "type": "function"
    },
    {
      "inputs": [
        {
          "internalType": "string",
          "name": "image",
          "type": "string"
        },
        {
          "internalType": "address",
          "name": "blessingID",
          "type": "address"
        },
        {
          "internalType": "uint256",
          "name": "tokenAmount",
          "type": "uint256"
        },
        {
          "internalType": "uint256",
          "name": "claimQuantity",
          "type": "uint256"
        },
        {
          "internalType": "enum CryptoBlessing.ClaimType",
          "name": "claimType",
          "type": "uint8"
        },
        {
          "internalType": "address[]",
          "name": "pubkeys",
          "type": "address[]"
        }
      ],
      "name": "sendBlessing",
      "outputs": [],
      "stateMutability": "nonpayable",
      "type": "function"
    },
    {
      "inputs": [
        {
          "internalType": "uint256",
          "name": "_CBTOKENAWARDRATIO",
          "type": "uint256"
        },
        {
          "internalType": "uint256",
          "name": "_CBTOKENAWARDMAX",
          "type": "uint256"
        }
      ],
      "name": "setCBTOKENAWARDRATIO",
      "outputs": [],
      "stateMutability": "nonpayable",
      "type": "function"
    },
    {
      "inputs": [
        {
          "internalType": "uint256",
          "name": "_CLAIM_TAX_RATE",
          "type": "uint256"
        }
      ],
      "name": "setCLAIM_TAX_RATE",
      "outputs": [],
      "stateMutability": "nonpayable",
      "type": "function"
    },
    {
      "inputs": [
        {
          "internalType": "address",
          "name": "newOwner",
          "type": "address"
        }
      ],
      "name": "transferOwnership",
      "outputs": [],
      "stateMutability": "nonpayable",
      "type": "function"
    },
    {
      "inputs": [],
      "name": "unpause",
      "outputs": [],
      "stateMutability": "nonpayable",
      "type": "function"
    },
    {
      "inputs": [
        {
          "internalType": "address",
          "name": "nextVersionContractAddress",
          "type": "address"
        }
      ],
      "name": "upgradeToNextVersion",
      "outputs": [],
      "stateMutability": "nonpayable",
      "type": "function"
    }
  ],
  "bytecode": "0x6080604052600580556064600655600a600755604051620040c5380380620040c5833981016040819052620000349162000100565b6200003f3362000093565b6000805460ff60a01b1916905560018055600280546001600160a01b039485166001600160a01b03199182161790915560038054938516938216939093179092556004805491909316911617905562000149565b600080546001600160a01b038381166001600160a01b0319831681178455604051919092169283917f8be0079c531659141344cd1fd0a4f28419497f9722a3daafe3b4186f6b6457e09190a35050565b80516001600160a01b0381168114620000fb57600080fd5b919050565b60008060006060848603121562000115578283fd5b6200012084620000e3565b92506200013060208501620000e3565b91506200014060408501620000e3565b90509250925092565b613f6c80620001596000396000f3fe6080604052600436106101135760003560e01c806373fcd996116100a0578063dbf3fb9e11610064578063dbf3fb9e146102f2578063dd03ff8f1461031f578063e64872181461034c578063e911b6821461036e578063f2fde38b1461038e57600080fd5b806373fcd996146102445780638456cb59146102665780638da5cb5b1461027b578063c4cf21e8146102a3578063d9c3e243146102d257600080fd5b80635526316a116100e75780635526316a146101a55780635c975abb146101c55780637054a2df146101ef578063715018a61461020f57806372a7c1af1461022457600080fd5b80627384741461011857806323c563291461013a5780632f6f24c71461015a5780633f4ba83a14610190575b600080fd5b34801561012457600080fd5b50610138610133366004613854565b6103ae565b005b34801561014657600080fd5b5061013861015536600461394f565b610c4a565b34801561016657600080fd5b5061017a610175366004613661565b610c57565b6040516101879190613b77565b60405180910390f35b34801561019c57600080fd5b50610138610ce5565b3480156101b157600080fd5b506101386101c0366004613726565b610cf7565b3480156101d157600080fd5b50600054600160a01b900460ff166040519015158152602001610187565b6102026101fd3660046136ad565b610e8d565b6040516101879190613d67565b34801561021b57600080fd5b50610138611c04565b34801561023057600080fd5b5061013861023f36600461397f565b611c16565b34801561025057600080fd5b50610259611c29565b6040516101879190613c32565b34801561027257600080fd5b50610138611dbe565b34801561028757600080fd5b506000546040516001600160a01b039091168152602001610187565b3480156102af57600080fd5b506102c36102be36600461367b565b611dce565b60405161018793929190613d07565b3480156102de57600080fd5b506101386102ed366004613661565b612169565b3480156102fe57600080fd5b5061031261030d366004613819565b612683565b6040516101879190613cd0565b34801561032b57600080fd5b5061033f61033a366004613661565b612708565b6040516101879190613b64565b34801561035857600080fd5b506103616127b1565b6040516101879190613bd1565b34801561037a57600080fd5b50610138610389366004613661565b6128e5565b34801561039a57600080fd5b506101386103a9366004613661565b612c25565b6103b6612c9e565b836000106104165760405162461bcd60e51b815260206004820152602260248201527f746f6b656e416d6f756e74206d7573742062652067726561746572207468616e604482015261020360f41b60648201526084015b60405180910390fd5b8260001080156104275750600d8311155b6104995760405162461bcd60e51b815260206004820152603e60248201527f636c61696d5175616e74697479206d757374206265206772656174657220746860448201527f616e203020616e64206c657373206f7220657175616c207468616e2031330000606482015260840161040d565b805183146104ff5760405162461bcd60e51b815260206004820152602d60248201527f636c61696d5175616e74697479206d75737420626520657175616c20746f207060448201526c0eac4d6caf2e65cd8cadccee8d609b1b606482015260840161040d565b60006008876040516105119190613b24565b9081526040805160209281900383018120608082018352805480835260018201546001600160a01b03811695840195909552600160a01b90940460ff169282019290925260029091015460608201529150158015906105755750604081015160ff16155b6105c15760405162461bcd60e51b815260206004820152601860248201527f496e76616c696420626c657373696e6720737461747573210000000000000000604482015260640161040d565b80516105d9906105d2908690612ceb565b8690612d00565b6002546040516370a0823160e01b81523360048201526001600160a01b03909116906370a082319060240160206040518083038186803b15801561061c57600080fd5b505afa158015610630573d6000803e3d6000fd5b505050506040513d601f19601f820116820180604052508101906106549190613967565b10156106c85760405162461bcd60e51b815260206004820152603e60248201527f596f757220746f6b656e20616d6f756e74206d7573742062652067726561746560448201527f72207468616e20796f752061726520747279696e6720746f2073656e64210000606482015260840161040d565b6002546040516323b872dd60e01b8152336004820152306024820152604481018790526001600160a01b03909116906323b872dd90606401602060405180830381600087803b15801561071a57600080fd5b505af115801561072e573d6000803e3d6000fd5b505050506040513d601f19601f8201168201806040525081019061075291906137f9565b61079e5760405162461bcd60e51b815260206004820152601c60248201527f5472616e7366657220746f20636f6e7472616374206661696c65642100000000604482015260640161040d565b600254602082015160608301516001600160a01b03909216916323b872dd9133916107ed906064906107e7906107d49083613e43565b88516107e1908d90612ceb565b90612ceb565b90612d0c565b6040516001600160e01b031960e086901b1681526001600160a01b0393841660048201529290911660248301526044820152606401602060405180830381600087803b15801561083c57600080fd5b505af1158015610850573d6000803e3d6000fd5b505050506040513d601f19601f8201168201806040525081019061087491906137f9565b6108d25760405162461bcd60e51b815260206004820152602960248201527f5472616e7366657220746f20746865206f776e6572206f6620626c657373696e60448201526867206661696c65642160b81b606482015260840161040d565b6002546001600160a01b03166323b872dd336108f66000546001600160a01b031690565b61091a60646107e787606001516107e189600001518d612ceb90919063ffffffff16565b6040516001600160e01b031960e086901b1681526001600160a01b0393841660048201529290911660248301526044820152606401602060405180830381600087803b15801561096957600080fd5b505af115801561097d573d6000803e3d6000fd5b505050506040513d601f19601f820116820180604052508101906109a191906137f9565b6109ed5760405162461bcd60e51b815260206004820181905260248201527f5472616e7366657220746f2074686520636f6e7472616374206661696c656421604482015260640161040d565b60096000336001600160a01b03166001600160a01b031681526020019081526020016000206040518060e00160405280886001600160a01b03168152602001898152602001428152602001878152602001868152602001856001811115610a6457634e487b7160e01b600052602160045260246000fd5b81526000602091820181905283546001808201865594825290829020835160069092020180546001600160a01b0319166001600160a01b0390921691909117815582820151805193949193610ac193928501929190910190613416565b5060408201516002820155606082015160038201556080820151600482015560a082015160058201805460ff191660018381811115610b1057634e487b7160e01b600052602160045260246000fd5b021790555060c09190910151600590910180549115156101000261ff001990921691909117905560005b8251811015610bff57600c6000886001600160a01b03166001600160a01b031681526020019081526020016000206040518060400160405280858481518110610b9357634e487b7160e01b600052603260045260246000fd5b6020908102919091018101516001600160a01b039081168352600092820183905284546001810186559483529181902083519401805493909101511515600160a01b026001600160a81b0319909316939091169290921717905580610bf781613ec5565b915050610b3a565b50604080513381526001600160a01b03881660208201527f9028f7dd664be64a65e420291fdb6b56dec3b01e5433aa9675727b383cf1e5bc910160405180910390a150505050505050565b610c52612d18565b600755565b6001600160a01b0381166000908152600c60209081526040808320805482518185028101850190935280835260609492939192909184015b82821015610cda57600084815260209081902060408051808201909152908401546001600160a01b0381168252600160a01b900460ff16151581830152825260019092019101610c8f565b505050509050919050565b610ced612d18565b610cf5612d72565b565b610cff612d18565b60005b8151811015610e88576040518060800160405280838381518110610d3657634e487b7160e01b600052603260045260246000fd5b6020026020010151600001518152602001838381518110610d6757634e487b7160e01b600052603260045260246000fd5b6020026020010151602001516001600160a01b03168152602001838381518110610da157634e487b7160e01b600052603260045260246000fd5b60200260200101516040015160ff168152602001838381518110610dd557634e487b7160e01b600052603260045260246000fd5b6020026020010151606001518152506008848381518110610e0657634e487b7160e01b600052603260045260246000fd5b6020026020010151604051610e1b9190613b24565b9081526040805191829003602090810190922083518155918301516001830180549285015160ff16600160a01b026001600160a81b03199093166001600160a01b039092169190911791909117905560609091015160029091015580610e8081613ec5565b915050610d02565b505050565b610ed86040518060c0016040528060006001600160a01b0316815260200160006001600160a01b03168152602001606081526020016000815260200160008152602001600081525090565b610ee0612c9e565b60026001541415610f335760405162461bcd60e51b815260206004820152601f60248201527f5265656e7472616e637947756172643a207265656e7472616e742063616c6c00604482015260640161040d565b6002600155610f43838386612dc7565b610f845760405162461bcd60e51b8152602060048201526012602482015271496e76616c6964207369676e69747572652160701b604482015260640161040d565b333b15610fe55760405162461bcd60e51b815260206004820152602960248201527f596f752063616e206e6f7420636c61696d20626c657373696e672066726f6d20604482015268636f6e74726163742160b81b606482015260840161040d565b6001600160a01b038516600090815260096020908152604080832080548251818502810185019093528083529192909190849084015b828210156111785760008481526020908190206040805160e081019091526006850290910180546001600160a01b03168252600181018054929391929184019161106490613e8a565b80601f016020809104026020016040519081016040528092919081815260200182805461109090613e8a565b80156110dd5780601f106110b2576101008083540402835291602001916110dd565b820191906000526020600020905b8154815290600101906020018083116110c057829003601f168201915b5050509183525050600282015460208201526003820154604082015260048201546060820152600582015460809091019060ff16600181111561113057634e487b7160e01b600052602160045260246000fd5b600181111561114f57634e487b7160e01b600052602160045260246000fd5b815260059190910154610100900460ff161515602091820152908252600192909201910161101b565b505050509050600081511161119f5760405162461bcd60e51b815260040161040d90613c86565b6111a761349a565b60005b825181101561123557866001600160a01b03168382815181106111dd57634e487b7160e01b600052603260045260246000fd5b6020026020010151600001516001600160a01b031614156112235782818151811061121857634e487b7160e01b600052603260045260246000fd5b602002602001015191505b8061122d81613ec5565b9150506111aa565b5060c0810151156112885760405162461bcd60e51b815260206004820152601960248201527f5468697320626c657373696e67206973207265766f6b65642100000000000000604482015260640161040d565b60008160600151116112ac5760405162461bcd60e51b815260040161040d90613c86565b6001600160a01b0386166000908152600b6020908152604080832080548251818502810185019093528083529192909190849084015b828210156113535760008481526020908190206040805160c0810182526006860290920180546001600160a01b031683526001808201548486015260028201549284019290925260038101546060840152600481015460808401526005015460a083015290835290920191016112e2565b50505050905081608001518151106113ad5760405162461bcd60e51b815260206004820152601b60248201527f5468657265206973206e6f206d6f726520626c657373696e6773210000000000604482015260640161040d565b6000805b82518110156114a257336001600160a01b03168382815181106113e457634e487b7160e01b600052603260045260246000fd5b6020026020010151600001516001600160a01b031614156114575760405162461bcd60e51b815260206004820152602760248201527f596f75206861766520616c726561647920636c61696d6564207468697320626c604482015266657373696e672160c81b606482015260840161040d565b82818151811061147757634e487b7160e01b600052603260045260246000fd5b6020026020010151604001518261148e9190613df8565b91508061149a81613ec5565b9150506113b1565b506000808460a0015160018111156114ca57634e487b7160e01b600052602160045260246000fd5b14156114ea57608084015160608501516114e391612d0c565b905061158e565b60018460a00151600181111561151057634e487b7160e01b600052602160045260246000fd5b141561158e57600061153084518660800151612f3590919063ffffffff16565b9050600061153e600a612f41565b9050816001141561155f5760608601516115589085612f35565b925061158b565b61158860026107e1600a6107e7856107e1886107e78c8f60600151612f3590919063ffffffff16565b92505b50505b60006040518060c001604052808c6001600160a01b031681526020018b6001600160a01b03168152602001866020015181526020014281526020016115e86007546103e86115dc9190613e43565b6107e1866103e8612d0c565b81526020016116086007546107e16103e887612d0c90919063ffffffff16565b9052336000908152600a6020908152604080832080546001818101835591855293839020855160069095020180546001600160a01b039586166001600160a01b031991821617825584870151928201805493909616921691909117909355830151805193945084936116809260028501920190613416565b50606082015160038201556080820151600482015560a090910151600591820155546000906116b0908490612ceb565b9050600654670de0b6b3a76400006116c89190613e24565b8111156116f35760016006546116de9190613e43565b6116f090670de0b6b3a7640000613e24565b90505b600b60008c6001600160a01b03166001600160a01b031681526020019081526020016000206040518060c00160405280336001600160a01b0316815260200142815260200185815260200161175d6007546103e86117519190613e43565b6107e1886103e8612d0c565b815260200161177d6007546107e16103e889612d0c90919063ffffffff16565b81526020908101849052825460018082018555600094855293829020835160069092020180546001600160a01b0319166001600160a01b0392831617815591830151938201939093556040820151600280830191909155606083015160038301556080830151600483015560a0909201516005909101555460075491169063a9059cbb90339061181390611751906103e8613e43565b6040516001600160e01b031960e085901b1681526001600160a01b0390921660048301526024820152604401602060405180830381600087803b15801561185957600080fd5b505af115801561186d573d6000803e3d6000fd5b505050506040513d601f19601f8201168201806040525081019061189191906137f9565b6118dd5760405162461bcd60e51b815260206004820152601760248201527f436c61696d2074686520746f6b656e206661696c656421000000000000000000604482015260640161040d565b6002546001600160a01b031663a9059cbb6119006000546001600160a01b031690565b600754611913906107e1886103e8612d0c565b6040516001600160e01b031960e085901b1681526001600160a01b0390921660048301526024820152604401602060405180830381600087803b15801561195957600080fd5b505af115801561196d573d6000803e3d6000fd5b505050506040513d601f19601f8201168201806040525081019061199191906137f9565b6119d35760405162461bcd60e51b815260206004820152601360248201527254616e7366657220746178206661696c65642160681b604482015260640161040d565b6003546040516370a0823160e01b815230600482015282916001600160a01b0316906370a082319060240160206040518083038186803b158015611a1657600080fd5b505afa158015611a2a573d6000803e3d6000fd5b505050506040513d601f19601f82011682018060405250810190611a4e9190613967565b10611b255760035460405163a9059cbb60e01b81526001600160a01b038e81166004830152602482018490529091169063a9059cbb90604401602060405180830381600087803b158015611aa157600080fd5b505af1158015611ab5573d6000803e3d6000fd5b505050506040513d601f19601f82011682018060405250810190611ad991906137f9565b611b255760405162461bcd60e51b815260206004820152601760248201527f617761726420434220746f6b656e73206661696c656421000000000000000000604482015260640161040d565b600480546020880151604051631e1d900360e31b81526001600160a01b039092169263f0ec801892611b5b923392909101613b40565b602060405180830381600087803b158015611b7557600080fd5b505af1158015611b89573d6000803e3d6000fd5b505050506040513d601f19601f82011682018060405250810190611bad9190613967565b50604080516001600160a01b03808f1682528d1660208201527f411a457db9208c2357cddce37558ebfedc401243648449843470687d4e901442910160405180910390a150600180559a9950505050505050505050565b611c0c612d18565b610cf56000612f78565b611c1e612d18565b600591909155600655565b336000908152600960209081526040808320805482518185028101850190935280835260609492939192909184015b82821015611db55760008481526020908190206040805160e081019091526006850290910180546001600160a01b031682526001810180549293919291840191611ca190613e8a565b80601f0160208091040260200160405190810160405280929190818152602001828054611ccd90613e8a565b8015611d1a5780601f10611cef57610100808354040283529160200191611d1a565b820191906000526020600020905b815481529060010190602001808311611cfd57829003601f168201915b5050509183525050600282015460208201526003820154604082015260048201546060820152600582015460809091019060ff166001811115611d6d57634e487b7160e01b600052602160045260246000fd5b6001811115611d8c57634e487b7160e01b600052602160045260246000fd5b815260059190910154610100900460ff1615156020918201529082526001929092019101611c58565b50505050905090565b611dc6612d18565b610cf5612fc8565b604080516080810182526000808252602082018190529181018290526060810191909152611dfa61349a565b6001600160a01b0384166000908152600960209081526040808320805482518185028101850190935280835260609493849084015b82821015611f8c5760008481526020908190206040805160e081019091526006850290910180546001600160a01b031682526001810180549293919291840191611e7890613e8a565b80601f0160208091040260200160405190810160405280929190818152602001828054611ea490613e8a565b8015611ef15780601f10611ec657610100808354040283529160200191611ef1565b820191906000526020600020905b815481529060010190602001808311611ed457829003601f168201915b5050509183525050600282015460208201526003820154604082015260048201546060820152600582015460809091019060ff166001811115611f4457634e487b7160e01b600052602160045260246000fd5b6001811115611f6357634e487b7160e01b600052602160045260246000fd5b815260059190910154610100900460ff1615156020918201529082526001929092019101611e2f565b505050509050611f9a61349a565b60005b825181101561202857866001600160a01b0316838281518110611fd057634e487b7160e01b600052603260045260246000fd5b6020026020010151600001516001600160a01b031614156120165782818151811061200b57634e487b7160e01b600052603260045260246000fd5b602002602001015191505b8061202081613ec5565b915050611f9d565b50600081606001511161204d5760405162461bcd60e51b815260040161040d90613c86565b6001600160a01b0386166000908152600b6020908152604080832080548251818502810185019093528083529192909190849084015b828210156120f45760008481526020908190206040805160c0810182526006860290920180546001600160a01b031683526001808201548486015260028201549284019290925260038101546060840152600481015460808401526005015460a08301529083529092019101612083565b5050505090506008826020015160405161210e9190613b24565b90815260408051602092819003830181206080820183528054825260018101546001600160a01b03811694830194909452600160a01b90930460ff169181019190915260029091015460608201529891975095509350505050565b612171612c9e565b6001600160a01b0381166000908152600b6020908152604080832080548251818502810185019093528083529192909190849084015b828210156122185760008481526020908190206040805160c0810182526006860290920180546001600160a01b031683526001808201548486015260028201549284019290925260038101546060840152600481015460808401526005015460a083015290835290920191016121a7565b50505050905080516000146122955760405162461bcd60e51b815260206004820152603c60248201527f596f757220626c657373696e6720697320636c61696d696e67206279206f746860448201527f6572732e2043616e206e6f74207265766f6b6520616e796d6f72652100000000606482015260840161040d565b33600090815260096020908152604080832080548251818502810185019093528083529192909190849084015b8282101561241f5760008481526020908190206040805160e081019091526006850290910180546001600160a01b03168252600181018054929391929184019161230b90613e8a565b80601f016020809104026020016040519081016040528092919081815260200182805461233790613e8a565b80156123845780601f1061235957610100808354040283529160200191612384565b820191906000526020600020905b81548152906001019060200180831161236757829003601f168201915b5050509183525050600282015460208201526003820154604082015260048201546060820152600582015460809091019060ff1660018111156123d757634e487b7160e01b600052602160045260246000fd5b60018111156123f657634e487b7160e01b600052602160045260246000fd5b815260059190910154610100900460ff16151560209182015290825260019290920191016122c2565b50505050905060008151116124465760405162461bcd60e51b815260040161040d90613c86565b61244e61349a565b6000805b83518110156124e057856001600160a01b031684828151811061248557634e487b7160e01b600052603260045260246000fd5b6020026020010151600001516001600160a01b031614156124ce578381815181106124c057634e487b7160e01b600052603260045260246000fd5b602002602001015192508091505b806124d881613ec5565b915050612452565b5060008260600151116125055760405162461bcd60e51b815260040161040d90613c86565b600254606083015160405163a9059cbb60e01b815233600482015260248101919091526001600160a01b039091169063a9059cbb90604401602060405180830381600087803b15801561255757600080fd5b505af115801561256b573d6000803e3d6000fd5b505050506040513d601f19601f8201168201806040525081019061258f91906137f9565b6125db5760405162461bcd60e51b815260206004820152601f60248201527f5472616e73666572206261636b20746f2073656e646572206661696c65642100604482015260640161040d565b3360009081526009602052604090208054600191908390811061260e57634e487b7160e01b600052603260045260246000fd5b600091825260209182902060056006909202010180549215156101000261ff001990931692909217909155604080513381526001600160a01b038816928101929092527faf0a59ad678f81ba23bb66973fedd52a279df960fc232c3bd4f56faf8d7945fb910160405180910390a15050505050565b60408051608081018252600080825260208201819052818301819052606082015290516008906126b4908490613b24565b90815260408051602092819003830181206080820183528054825260018101546001600160a01b03811694830194909452600160a01b90930460ff1691810191909152600290910154606082015292915050565b6001600160a01b0381166000908152600b60209081526040808320805482518185028101850190935280835260609492939192909184015b82821015610cda5760008481526020908190206040805160c0810182526006860290920180546001600160a01b031683526001808201548486015260028201549284019290925260038101546060840152600481015460808401526005015460a08301529083529092019101612740565b336000908152600a60209081526040808320805482518185028101850190935280835260609492939192909184015b82821015611db55760008481526020908190206040805160c0810182526006860290920180546001600160a01b039081168452600182015416938301939093526002830180549293929184019161283690613e8a565b80601f016020809104026020016040519081016040528092919081815260200182805461286290613e8a565b80156128af5780601f10612884576101008083540402835291602001916128af565b820191906000526020600020905b81548152906001019060200180831161289257829003601f168201915b505050505081526020016003820154815260200160048201548152602001600582015481525050815260200190600101906127e0565b6128ed612d18565b6128f561300b565b6003546040516370a0823160e01b81523060048201526001600160a01b039091169063a9059cbb90839083906370a082319060240160206040518083038186803b15801561294257600080fd5b505afa158015612956573d6000803e3d6000fd5b505050506040513d601f19601f8201168201806040525081019061297a9190613967565b6040516001600160e01b031960e085901b1681526001600160a01b0390921660048301526024820152604401602060405180830381600087803b1580156129c057600080fd5b505af11580156129d4573d6000803e3d6000fd5b505050506040513d601f19601f820116820180604052508101906129f891906137f9565b612a595760405162461bcd60e51b815260206004820152602c60248201527f5472616e736665722043425420746f206e6578742076657273696f6e2061646460448201526b72657373206661696c65642160a01b606482015260840161040d565b6002546001600160a01b031663a9059cbb612a7c6000546001600160a01b031690565b6002546040516370a0823160e01b81523060048201526001600160a01b03909116906370a082319060240160206040518083038186803b158015612abf57600080fd5b505afa158015612ad3573d6000803e3d6000fd5b505050506040513d601f19601f82011682018060405250810190612af79190613967565b6040516001600160e01b031960e085901b1681526001600160a01b0390921660048301526024820152604401602060405180830381600087803b158015612b3d57600080fd5b505af1158015612b51573d6000803e3d6000fd5b505050506040513d601f19601f82011682018060405250810190612b7591906137f9565b612bc15760405162461bcd60e51b815260206004820152601e60248201527f5472616e73666572204255534420746f206f776e6572206661696c6564210000604482015260640161040d565b6004805460405163f2fde38b60e01b81526001600160a01b038481169382019390935291169063f2fde38b90602401600060405180830381600087803b158015612c0a57600080fd5b505af1158015612c1e573d6000803e3d6000fd5b5050505050565b612c2d612d18565b6001600160a01b038116612c925760405162461bcd60e51b815260206004820152602660248201527f4f776e61626c653a206e6577206f776e657220697320746865207a65726f206160448201526564647265737360d01b606482015260840161040d565b612c9b81612f78565b50565b600054600160a01b900460ff1615610cf55760405162461bcd60e51b815260206004820152601060248201526f14185d5cd8589b194e881c185d5cd95960821b604482015260640161040d565b6000612cf78284613e24565b90505b92915050565b6000612cf78284613df8565b6000612cf78284613e10565b6000546001600160a01b03163314610cf55760405162461bcd60e51b815260206004820181905260248201527f4f776e61626c653a2063616c6c6572206973206e6f7420746865206f776e6572604482015260640161040d565b612d7a61300b565b6000805460ff60a01b191690557f5db9ee0a495bf2e6ff9c91a7834c1ba4fdd244a5e8aa4e537bd38aeae4b073aa335b6040516001600160a01b03909116815260200160405180910390a1565b600080612dd4858561305b565b905060005b6001600160a01b0384166000908152600c6020526040902054811015612f27576001600160a01b038481166000908152600c6020526040902080549184169183908110612e3657634e487b7160e01b600052603260045260246000fd5b6000918252602090912001546001600160a01b0316148015612ea357506001600160a01b0384166000908152600c60205260409020805482908110612e8b57634e487b7160e01b600052603260045260246000fd5b600091825260209091200154600160a01b900460ff16155b15612f15576001600160a01b0384166000908152600c6020526040902080546001919083908110612ee457634e487b7160e01b600052603260045260246000fd5b60009182526020909120018054911515600160a01b0260ff60a01b199092169190911790555060019150612f2e9050565b80612f1f81613ec5565b915050612dd9565b5060009150505b9392505050565b6000612cf78284613e43565b60008082612f50600143613e43565b612f5b919040613ee0565b9050801580612f6a575080600a145b15612cfa5750600192915050565b600080546001600160a01b038381166001600160a01b0319831681178455604051919092169283917f8be0079c531659141344cd1fd0a4f28419497f9722a3daafe3b4186f6b6457e09190a35050565b612fd0612c9e565b6000805460ff60a01b1916600160a01b1790557f62e78cea01bee320cd4e420270b5ea74000d11b0c9f74754ebdbfc544b05a258612daa3390565b600054600160a01b900460ff16610cf55760405162461bcd60e51b815260206004820152601460248201527314185d5cd8589b194e881b9bdd081c185d5cd95960621b604482015260640161040d565b600080600061306a858561307f565b91509150613077816130ef565b509392505050565b6000808251604114156130b65760208301516040840151606085015160001a6130aa878285856132f0565b945094505050506130e8565b8251604014156130e057602083015160408401516130d58683836133dd565b9350935050506130e8565b506000905060025b9250929050565b600081600481111561311157634e487b7160e01b600052602160045260246000fd5b141561311a5750565b600181600481111561313c57634e487b7160e01b600052602160045260246000fd5b141561318a5760405162461bcd60e51b815260206004820152601860248201527f45434453413a20696e76616c6964207369676e61747572650000000000000000604482015260640161040d565b60028160048111156131ac57634e487b7160e01b600052602160045260246000fd5b14156131fa5760405162461bcd60e51b815260206004820152601f60248201527f45434453413a20696e76616c6964207369676e6174757265206c656e67746800604482015260640161040d565b600381600481111561321c57634e487b7160e01b600052602160045260246000fd5b14156132755760405162461bcd60e51b815260206004820152602260248201527f45434453413a20696e76616c6964207369676e6174757265202773272076616c604482015261756560f01b606482015260840161040d565b600481600481111561329757634e487b7160e01b600052602160045260246000fd5b1415612c9b5760405162461bcd60e51b815260206004820152602260248201527f45434453413a20696e76616c6964207369676e6174757265202776272076616c604482015261756560f01b606482015260840161040d565b6000807f7fffffffffffffffffffffffffffffff5d576e7357a4501ddfe92f46681b20a083111561332757506000905060036133d4565b8460ff16601b1415801561333f57508460ff16601c14155b1561335057506000905060046133d4565b6040805160008082526020820180845289905260ff881692820192909252606081018690526080810185905260019060a0016020604051602081039080840390855afa1580156133a4573d6000803e3d6000fd5b5050604051601f1901519150506001600160a01b0381166133cd576000600192509250506133d4565b9150600090505b94509492505050565b6000806001600160ff1b038316816133fa60ff86901c601b613df8565b9050613408878288856132f0565b935093505050935093915050565b82805461342290613e8a565b90600052602060002090601f016020900481019282613444576000855561348a565b82601f1061345d57805160ff191683800117855561348a565b8280016001018555821561348a579182015b8281111561348a57825182559160200191906001019061346f565b506134969291506134ff565b5090565b6040518060e0016040528060006001600160a01b0316815260200160608152602001600081526020016000815260200160008152602001600060018111156134f257634e487b7160e01b600052602160045260246000fd5b8152600060209091015290565b5b808211156134965760008155600101613500565b600067ffffffffffffffff83111561352e5761352e613f20565b613541601f8401601f1916602001613da3565b905082815283838301111561355557600080fd5b828260208301376000602084830101529392505050565b80356001600160a01b038116811461358357600080fd5b919050565b600082601f830112613598578081fd5b813560206135ad6135a883613dd4565b613da3565b80838252828201915082860187848660071b89010111156135cc578586fd5b855b8581101561363557608080838b0312156135e6578788fd5b6135ee613d7a565b833581526135fd87850161356c565b8782015260408085013560ff81168114613615578a8bfd5b9082015260608481013590820152855293850193909101906001016135ce565b5090979650505050505050565b600082601f830112613652578081fd5b612cf783833560208501613514565b600060208284031215613672578081fd5b612cf78261356c565b6000806040838503121561368d578081fd5b6136968361356c565b91506136a46020840161356c565b90509250929050565b600080600080608085870312156136c2578182fd5b6136cb8561356c565b93506136d96020860161356c565b925060408501359150606085013567ffffffffffffffff8111156136fb578182fd5b8501601f8101871361370b578182fd5b61371a87823560208401613514565b91505092959194509250565b60008060408385031215613738578182fd5b823567ffffffffffffffff8082111561374f578384fd5b818501915085601f830112613762578384fd5b813560206137726135a883613dd4565b8083825282820191508286018a848660051b8901011115613791578889fd5b885b858110156137ca578135878111156137a9578a8bfd5b6137b78d87838c0101613642565b8552509284019290840190600101613793565b509097505050860135925050808211156137e2578283fd5b506137ef85828601613588565b9150509250929050565b60006020828403121561380a578081fd5b81518015158114612f2e578182fd5b60006020828403121561382a578081fd5b813567ffffffffffffffff811115613840578182fd5b61384c84828501613642565b949350505050565b60008060008060008060c0878903121561386c578384fd5b863567ffffffffffffffff80821115613883578586fd5b61388f8a838b01613642565b9750602091506138a0828a0161356c565b965060408901359550606089013594506080890135600281106138c1578485fd5b935060a0890135818111156138d4578384fd5b89019050601f81018a136138e6578283fd5b80356138f46135a882613dd4565b8082825284820191508484018d868560051b8701011115613913578687fd5b8694505b8385101561393c576139288161356c565b835260019490940193918501918501613917565b5080955050505050509295509295509295565b600060208284031215613960578081fd5b5035919050565b600060208284031215613978578081fd5b5051919050565b60008060408385031215613991578182fd5b50508035926020909101359150565b6000815180845260208085019450808401835b83811015613a0c57815180516001600160a01b03168852838101518489015260408082015190890152606080820151908901526080808201519089015260a0908101519088015260c090960195908201906001016139b3565b509495945050505050565b60008151808452613a2f816020860160208601613e5a565b601f01601f19169290920160200192915050565b600060018060a01b0380835116845280602084015116602085015250604082015160c06040850152613a7860c0850182613a17565b9050606083015160608501526080830151608085015260a083015160a08501528091505092915050565b60018060a01b0381511682526000602082015160e06020850152613ac960e0850182613a17565b905060408301516040850152606083015160608501526080830151608085015260a083015160028110613b0a57634e487b7160e01b83526021600452602483fd5b8060a08601525060c083015161307760c086018215159052565b60008251613b36818460208701613e5a565b9190910192915050565b6001600160a01b038316815260406020820181905260009061384c90830184613a17565b602081526000612cf760208301846139a0565b602080825282518282018190526000919060409081850190868401855b82811015613bc457815180516001600160a01b031685528601511515868501529284019290850190600101613b94565b5091979650505050505050565b6000602080830181845280855180835260408601915060408160051b8701019250838701855b82811015613c2557603f19888603018452613c13858351613a43565b94509285019290850190600101613bf7565b5092979650505050505050565b6000602080830181845280855180835260408601915060408160051b8701019250838701855b82811015613c2557603f19888603018452613c74858351613aa2565b94509285019290850190600101613c58565b6020808252602a908201527f5468657265206973206e6f20626c657373696e6720666f756e64206f6e20746860408201526969732073656e6465722160b01b606082015260800190565b815181526020808301516001600160a01b03169082015260408083015160ff16908201526060808301519082015260808101612cfa565b835181526020808501516001600160a01b03169082015260408085015160ff16908201526060808501519082015260c060808201526000613d4b60c0830185613aa2565b82810360a0840152613d5d81856139a0565b9695505050505050565b602081526000612cf76020830184613a43565b6040516080810167ffffffffffffffff81118282101715613d9d57613d9d613f20565b60405290565b604051601f8201601f1916810167ffffffffffffffff81118282101715613dcc57613dcc613f20565b604052919050565b600067ffffffffffffffff821115613dee57613dee613f20565b5060051b60200190565b60008219821115613e0b57613e0b613ef4565b500190565b600082613e1f57613e1f613f0a565b500490565b6000816000190483118215151615613e3e57613e3e613ef4565b500290565b600082821015613e5557613e55613ef4565b500390565b60005b83811015613e75578181015183820152602001613e5d565b83811115613e84576000848401525b50505050565b600181811c90821680613e9e57607f821691505b60208210811415613ebf57634e487b7160e01b600052602260045260246000fd5b50919050565b6000600019821415613ed957613ed9613ef4565b5060010190565b600082613eef57613eef613f0a565b500690565b634e487b7160e01b600052601160045260246000fd5b634e487b7160e01b600052601260045260246000fd5b634e487b7160e01b600052604160045260246000fdfea2646970667358221220a3a5320b8f518c88a37e91d5b9ebb9b2f98f9f528cb7c289b085152aa732ae9b64736f6c63430008040033",
  "linkReferences": {},
  "deployedLinkReferences": {}
}