{
  "_format": "hh-sol-artifact-1",
  "contractName": "CryptoBlessing",
  "sourceName": "contracts/CryptoBlessing.sol",
  "abi": [
    {
      "inputs": [
        {
          "internalType": "address",
          "name": "_sendTokenAddress",
          "type": "address"
        },
        {
          "internalType": "address",
          "name": "_cryptoBlessingTokenAddress",
          "type": "address"
        },
        {
          "internalType": "address",
          "name": "_cryptoBlessingNFTAddress",
          "type": "address"
        }
      ],
      "stateMutability": "payable",
      "type": "constructor"
    },
    {
      "anonymous": false,
      "inputs": [
        {
          "indexed": true,
          "internalType": "address",
          "name": "previousOwner",
          "type": "address"
        },
        {
          "indexed": true,
          "internalType": "address",
          "name": "newOwner",
          "type": "address"
        }
      ],
      "name": "OwnershipTransferred",
      "type": "event"
    },
    {
      "anonymous": false,
      "inputs": [
        {
          "indexed": false,
          "internalType": "address",
          "name": "account",
          "type": "address"
        }
      ],
      "name": "Paused",
      "type": "event"
    },
    {
      "anonymous": false,
      "inputs": [
        {
          "indexed": false,
          "internalType": "address",
          "name": "account",
          "type": "address"
        }
      ],
      "name": "Unpaused",
      "type": "event"
    },
    {
      "anonymous": false,
      "inputs": [
        {
          "indexed": false,
          "internalType": "address",
          "name": "sender",
          "type": "address"
        },
        {
          "indexed": false,
          "internalType": "address",
          "name": "blessingID",
          "type": "address"
        }
      ],
      "name": "claimerClaimComplete",
      "type": "event"
    },
    {
      "anonymous": false,
      "inputs": [
        {
          "indexed": false,
          "internalType": "address",
          "name": "sender",
          "type": "address"
        },
        {
          "indexed": false,
          "internalType": "address",
          "name": "blessingID",
          "type": "address"
        }
      ],
      "name": "senderRevokeComplete",
      "type": "event"
    },
    {
      "anonymous": false,
      "inputs": [
        {
          "indexed": false,
          "internalType": "address",
          "name": "sender",
          "type": "address"
        },
        {
          "indexed": false,
          "internalType": "address",
          "name": "blessingID",
          "type": "address"
        }
      ],
      "name": "senderSendCompleted",
      "type": "event"
    },
    {
      "inputs": [
        {
          "internalType": "string",
          "name": "image",
          "type": "string"
        },
        {
          "internalType": "address",
          "name": "blessingOwner",
          "type": "address"
        },
        {
          "internalType": "string",
          "name": "description",
          "type": "string"
        },
        {
          "internalType": "uint256",
          "name": "price",
          "type": "uint256"
        },
        {
          "internalType": "uint8",
          "name": "blessingType",
          "type": "uint8"
        },
        {
          "internalType": "uint256",
          "name": "taxRate",
          "type": "uint256"
        }
      ],
      "name": "addBlessing",
      "outputs": [],
      "stateMutability": "nonpayable",
      "type": "function"
    },
    {
      "inputs": [
        {
          "internalType": "uint256",
          "name": "",
          "type": "uint256"
        }
      ],
      "name": "blessingList",
      "outputs": [
        {
          "internalType": "string",
          "name": "image",
          "type": "string"
        },
        {
          "internalType": "string",
          "name": "description",
          "type": "string"
        },
        {
          "internalType": "uint256",
          "name": "price",
          "type": "uint256"
        },
        {
          "internalType": "address",
          "name": "owner",
          "type": "address"
        },
        {
          "internalType": "uint8",
          "name": "blessingType",
          "type": "uint8"
        },
        {
          "internalType": "uint256",
          "name": "timestamp",
          "type": "uint256"
        },
        {
          "internalType": "uint8",
          "name": "deleted",
          "type": "uint8"
        },
        {
          "internalType": "uint256",
          "name": "taxRate",
          "type": "uint256"
        }
      ],
      "stateMutability": "view",
      "type": "function"
    },
    {
      "inputs": [
        {
          "internalType": "address",
          "name": "sender",
          "type": "address"
        },
        {
          "internalType": "address",
          "name": "blessingID",
          "type": "address"
        },
        {
          "internalType": "bytes32",
          "name": "hash",
          "type": "bytes32"
        },
        {
          "internalType": "bytes",
          "name": "signature",
          "type": "bytes"
        },
        {
          "internalType": "address",
          "name": "fuckOff",
          "type": "address"
        }
      ],
      "name": "claimBlessing",
      "outputs": [
        {
          "components": [
            {
              "internalType": "address",
              "name": "sender",
              "type": "address"
            },
            {
              "internalType": "address",
              "name": "blessingID",
              "type": "address"
            },
            {
              "internalType": "string",
              "name": "blessingImage",
              "type": "string"
            },
            {
              "internalType": "uint256",
              "name": "claimTimestamp",
              "type": "uint256"
            },
            {
              "internalType": "uint256",
              "name": "claimAmount",
              "type": "uint256"
            },
            {
              "internalType": "uint256",
              "name": "taxAmount",
              "type": "uint256"
            }
          ],
          "internalType": "struct CryptoBlessing.ClaimerBlessing",
          "name": "",
          "type": "tuple"
        }
      ],
      "stateMutability": "payable",
      "type": "function"
    },
    {
      "inputs": [],
      "name": "getAllBlessings",
      "outputs": [
        {
          "components": [
            {
              "internalType": "string",
              "name": "image",
              "type": "string"
            },
            {
              "internalType": "string",
              "name": "description",
              "type": "string"
            },
            {
              "internalType": "uint256",
              "name": "price",
              "type": "uint256"
            },
            {
              "internalType": "address",
              "name": "owner",
              "type": "address"
            },
            {
              "internalType": "uint8",
              "name": "blessingType",
              "type": "uint8"
            },
            {
              "internalType": "uint256",
              "name": "timestamp",
              "type": "uint256"
            },
            {
              "internalType": "uint8",
              "name": "deleted",
              "type": "uint8"
            },
            {
              "internalType": "uint256",
              "name": "taxRate",
              "type": "uint256"
            }
          ],
          "internalType": "struct CryptoBlessing.Blessing[]",
          "name": "",
          "type": "tuple[]"
        }
      ],
      "stateMutability": "view",
      "type": "function"
    },
    {
      "inputs": [
        {
          "internalType": "address",
          "name": "sender",
          "type": "address"
        },
        {
          "internalType": "address",
          "name": "blessingID",
          "type": "address"
        }
      ],
      "name": "getAllInfoOfBlessing",
      "outputs": [
        {
          "components": [
            {
              "internalType": "string",
              "name": "image",
              "type": "string"
            },
            {
              "internalType": "string",
              "name": "description",
              "type": "string"
            },
            {
              "internalType": "uint256",
              "name": "price",
              "type": "uint256"
            },
            {
              "internalType": "address",
              "name": "owner",
              "type": "address"
            },
            {
              "internalType": "uint8",
              "name": "blessingType",
              "type": "uint8"
            },
            {
              "internalType": "uint256",
              "name": "timestamp",
              "type": "uint256"
            },
            {
              "internalType": "uint8",
              "name": "deleted",
              "type": "uint8"
            },
            {
              "internalType": "uint256",
              "name": "taxRate",
              "type": "uint256"
            }
          ],
          "internalType": "struct CryptoBlessing.Blessing",
          "name": "",
          "type": "tuple"
        },
        {
          "components": [
            {
              "internalType": "address",
              "name": "blessingID",
              "type": "address"
            },
            {
              "internalType": "string",
              "name": "blessingImage",
              "type": "string"
            },
            {
              "internalType": "uint256",
              "name": "sendTimestamp",
              "type": "uint256"
            },
            {
              "internalType": "uint256",
              "name": "tokenAmount",
              "type": "uint256"
            },
            {
              "internalType": "uint256",
              "name": "claimQuantity",
              "type": "uint256"
            },
            {
              "internalType": "enum CryptoBlessing.ClaimType",
              "name": "claimType",
              "type": "uint8"
            },
            {
              "internalType": "bool",
              "name": "revoked",
              "type": "bool"
            }
          ],
          "internalType": "struct CryptoBlessing.SenderBlessing",
          "name": "",
          "type": "tuple"
        },
        {
          "components": [
            {
              "internalType": "address",
              "name": "claimer",
              "type": "address"
            },
            {
              "internalType": "uint256",
              "name": "claimTimestamp",
              "type": "uint256"
            },
            {
              "internalType": "uint256",
              "name": "distributedAmount",
              "type": "uint256"
            },
            {
              "internalType": "uint256",
              "name": "claimAmount",
              "type": "uint256"
            },
            {
              "internalType": "uint256",
              "name": "taxAmount",
              "type": "uint256"
            },
            {
              "internalType": "uint256",
              "name": "CBTokenAwardToSenderAmount",
              "type": "uint256"
            }
          ],
          "internalType": "struct CryptoBlessing.BlessingClaimStatus[]",
          "name": "",
          "type": "tuple[]"
        }
      ],
      "stateMutability": "view",
      "type": "function"
    },
    {
      "inputs": [
        {
          "internalType": "address",
          "name": "_blessingID",
          "type": "address"
        }
      ],
      "name": "getBlessingClaimingStatus",
      "outputs": [
        {
          "components": [
            {
              "internalType": "address",
              "name": "claimer",
              "type": "address"
            },
            {
              "internalType": "uint256",
              "name": "claimTimestamp",
              "type": "uint256"
            },
            {
              "internalType": "uint256",
              "name": "distributedAmount",
              "type": "uint256"
            },
            {
              "internalType": "uint256",
              "name": "claimAmount",
              "type": "uint256"
            },
            {
              "internalType": "uint256",
              "name": "taxAmount",
              "type": "uint256"
            },
            {
              "internalType": "uint256",
              "name": "CBTokenAwardToSenderAmount",
              "type": "uint256"
            }
          ],
          "internalType": "struct CryptoBlessing.BlessingClaimStatus[]",
          "name": "",
          "type": "tuple[]"
        }
      ],
      "stateMutability": "view",
      "type": "function"
    },
    {
      "inputs": [],
      "name": "getMyClaimedBlessings",
      "outputs": [
        {
          "components": [
            {
              "internalType": "address",
              "name": "sender",
              "type": "address"
            },
            {
              "internalType": "address",
              "name": "blessingID",
              "type": "address"
            },
            {
              "internalType": "string",
              "name": "blessingImage",
              "type": "string"
            },
            {
              "internalType": "uint256",
              "name": "claimTimestamp",
              "type": "uint256"
            },
            {
              "internalType": "uint256",
              "name": "claimAmount",
              "type": "uint256"
            },
            {
              "internalType": "uint256",
              "name": "taxAmount",
              "type": "uint256"
            }
          ],
          "internalType": "struct CryptoBlessing.ClaimerBlessing[]",
          "name": "",
          "type": "tuple[]"
        }
      ],
      "stateMutability": "view",
      "type": "function"
    },
    {
      "inputs": [],
      "name": "getMySendedBlessings",
      "outputs": [
        {
          "components": [
            {
              "internalType": "address",
              "name": "blessingID",
              "type": "address"
            },
            {
              "internalType": "string",
              "name": "blessingImage",
              "type": "string"
            },
            {
              "internalType": "uint256",
              "name": "sendTimestamp",
              "type": "uint256"
            },
            {
              "internalType": "uint256",
              "name": "tokenAmount",
              "type": "uint256"
            },
            {
              "internalType": "uint256",
              "name": "claimQuantity",
              "type": "uint256"
            },
            {
              "internalType": "enum CryptoBlessing.ClaimType",
              "name": "claimType",
              "type": "uint8"
            },
            {
              "internalType": "bool",
              "name": "revoked",
              "type": "bool"
            }
          ],
          "internalType": "struct CryptoBlessing.SenderBlessing[]",
          "name": "",
          "type": "tuple[]"
        }
      ],
      "stateMutability": "view",
      "type": "function"
    },
    {
      "inputs": [],
      "name": "owner",
      "outputs": [
        {
          "internalType": "address",
          "name": "",
          "type": "address"
        }
      ],
      "stateMutability": "view",
      "type": "function"
    },
    {
      "inputs": [],
      "name": "pause",
      "outputs": [],
      "stateMutability": "nonpayable",
      "type": "function"
    },
    {
      "inputs": [],
      "name": "paused",
      "outputs": [
        {
          "internalType": "bool",
          "name": "",
          "type": "bool"
        }
      ],
      "stateMutability": "view",
      "type": "function"
    },
    {
      "inputs": [],
      "name": "renounceOwnership",
      "outputs": [],
      "stateMutability": "nonpayable",
      "type": "function"
    },
    {
      "inputs": [
        {
          "internalType": "address",
          "name": "blessingID",
          "type": "address"
        }
      ],
      "name": "revokeBlessing",
      "outputs": [],
      "stateMutability": "nonpayable",
      "type": "function"
    },
    {
      "inputs": [
        {
          "internalType": "string",
          "name": "image",
          "type": "string"
        },
        {
          "internalType": "address",
          "name": "blessingID",
          "type": "address"
        },
        {
          "internalType": "uint256",
          "name": "tokenAmount",
          "type": "uint256"
        },
        {
          "internalType": "uint256",
          "name": "claimQuantity",
          "type": "uint256"
        },
        {
          "internalType": "enum CryptoBlessing.ClaimType",
          "name": "claimType",
          "type": "uint8"
        }
      ],
      "name": "sendBlessing",
      "outputs": [],
      "stateMutability": "nonpayable",
      "type": "function"
    },
    {
      "inputs": [
        {
          "internalType": "uint256",
          "name": "_CBTOKENAWARDRATIO",
          "type": "uint256"
        }
      ],
      "name": "setCBTOKENAWARDRATIO",
      "outputs": [],
      "stateMutability": "nonpayable",
      "type": "function"
    },
    {
      "inputs": [
        {
          "internalType": "uint256",
          "name": "_CLAIM_TAX_RATE",
          "type": "uint256"
        }
      ],
      "name": "setCLAIM_TAX_RATE",
      "outputs": [],
      "stateMutability": "nonpayable",
      "type": "function"
    },
    {
      "inputs": [
        {
          "internalType": "address",
          "name": "newOwner",
          "type": "address"
        }
      ],
      "name": "transferOwnership",
      "outputs": [],
      "stateMutability": "nonpayable",
      "type": "function"
    },
    {
      "inputs": [],
      "name": "unpause",
      "outputs": [],
      "stateMutability": "nonpayable",
      "type": "function"
    },
    {
      "inputs": [
        {
          "internalType": "string",
          "name": "image",
          "type": "string"
        },
        {
          "internalType": "uint256",
          "name": "price",
          "type": "uint256"
        },
        {
          "internalType": "uint8",
          "name": "deleted",
          "type": "uint8"
        },
        {
          "internalType": "uint256",
          "name": "taxRate",
          "type": "uint256"
        }
      ],
      "name": "updateBlessing",
      "outputs": [],
      "stateMutability": "nonpayable",
      "type": "function"
    },
    {
      "inputs": [
        {
          "internalType": "address",
          "name": "v2ContractAddress",
          "type": "address"
        }
      ],
      "name": "upgradeToV2",
      "outputs": [],
      "stateMutability": "nonpayable",
      "type": "function"
    }
  ],
  "bytecode": "0x608060405260058055600a60065560405162004bbb38038062004bbb8339810160408190526200002f9162000278565b6200003a336200014b565b6000805460ff60a01b1916905560018055604080516080810190915260538082526200007b919062004b6860208301396200019b60201b620033eb1760201c565b620000c76040518060400160405280601481526020017f73656e64546f6b656e416464726573733a20257300000000000000000000000081525084620001e960201b6200342e1760201c565b62000108604051806040016040528060128152602001714342546f6b656e416464726573733a20257360701b81525083620001e960201b6200342e1760201c565b600280546001600160a01b039485166001600160a01b03199182161790915560038054938516938216939093179092556004805491909316911617905562000357565b600080546001600160a01b038381166001600160a01b0319831681178455604051919092169283917f8be0079c531659141344cd1fd0a4f28419497f9722a3daafe3b4186f6b6457e09190a35050565b620001e681604051602401620001b291906200030f565b60408051601f198184030181529190526020810180516001600160e01b0390811663104c13eb60e21b179091526200023a16565b50565b620002368282604051602401620002029291906200032b565b60408051601f198184030181529190526020810180516001600160e01b0390811663319af33360e01b179091526200023a16565b5050565b80516a636f6e736f6c652e6c6f67602083016000808483855afa5050505050565b80516001600160a01b03811681146200027357600080fd5b919050565b6000806000606084860312156200028d578283fd5b62000298846200025b565b9250620002a8602085016200025b565b9150620002b8604085016200025b565b90509250925092565b60008151808452815b81811015620002e857602081850181015186830182015201620002ca565b81811115620002fa5782602083870101525b50601f01601f19169290920160200192915050565b602081526000620003246020830184620002c1565b9392505050565b604081526000620003406040830185620002c1565b905060018060a01b03831660208301529392505050565b61480180620003676000396000f3fe60806040526004361061011f5760003560e01c8063aa387cfa116100a0578063dd03ff8f11610064578063dd03ff8f14610327578063e648721814610354578063ea267e9714610376578063f2fde38b14610396578063ffe8ea96146103b657600080fd5b8063aa387cfa14610276578063bcbb8e3014610296578063bcc5f88a146102b8578063c4cf21e8146102d8578063d9c3e2431461030757600080fd5b8063715018a6116100e7578063715018a6146101e257806373fcd996146101f75780637c36b25b146102195780638456cb59146102395780638da5cb5b1461024e57600080fd5b806305d73818146101245780631d4249791461016157806323c56329146101835780633f4ba83a146101a35780635c975abb146101b8575b600080fd5b34801561013057600080fd5b5061014461013f366004614056565b6103d6565b6040516101589897969594939291906144dc565b60405180910390f35b34801561016d57600080fd5b5061018161017c366004613eee565b610554565b005b34801561018f57600080fd5b5061018161019e366004614056565b61069c565b3480156101af57600080fd5b506101816106a9565b3480156101c457600080fd5b50600054600160a01b900460ff166040519015158152602001610158565b3480156101ee57600080fd5b506101816106bb565b34801561020357600080fd5b5061020c6106cd565b60405161015891906143ac565b34801561022557600080fd5b50610181610234366004613f82565b610862565b34801561024557600080fd5b506101816112fd565b34801561025a57600080fd5b506000546040516001600160a01b039091168152602001610158565b34801561028257600080fd5b50610181610291366004614056565b61130d565b3480156102a257600080fd5b506102ab61131a565b60405161015891906142f7565b3480156102c457600080fd5b506101816102d3366004613ff9565b6114e9565b3480156102e457600080fd5b506102f86102f3366004613e12565b6116d1565b604051610158939291906145b1565b34801561031357600080fd5b50610181610322366004613df8565b611ca9565b34801561033357600080fd5b50610347610342366004613df8565b6121c3565b60405161015891906142e4565b34801561036057600080fd5b50610369612277565b6040516101589190614358565b610389610384366004613e44565b6123ab565b60405161015891906145f4565b3480156103a257600080fd5b506101816103b1366004613df8565b6131ab565b3480156103c257600080fd5b506101816103d1366004613df8565b613224565b600a81815481106103e657600080fd5b906000526020600020906007020160009150905080600001805461040990614669565b80601f016020809104026020016040519081016040528092919081815260200182805461043590614669565b80156104825780601f1061045757610100808354040283529160200191610482565b820191906000526020600020905b81548152906001019060200180831161046557829003601f168201915b50505050509080600101805461049790614669565b80601f01602080910402602001604051908101604052809291908181526020018280546104c390614669565b80156105105780601f106104e557610100808354040283529160200191610510565b820191906000526020600020905b8154815290600101906020018083116104f357829003601f168201915b5050506002840154600385015460048601546005870154600690970154959692956001600160a01b038316955060ff600160a01b9093048316945090929091169088565b61055c613477565b61057d604051806060016040528060228152602001614745602291396133eb565b604080516101008101825287815260208082018790529181018590526001600160a01b038716606082015260ff841660808201524260a0820152600060c0820181905260e08201849052600a8054600181018255915281518051929360079092027fc65a7bb8d6351c1cf70c95a316cc6a92839c986682d98bc35f958f4883f9d2a8019261060e9284920190613be4565b5060208281015180516106279260018501920190613be4565b5060408201516002820155606082015160038201805460808501516001600160a01b039093166001600160a81b031990911617600160a01b60ff9384160217905560a0830151600483015560c083015160058301805460ff19169190921617905560e090910151600690910155505050505050565b6106a4613477565b600655565b6106b1613477565b6106b96134d1565b565b6106c3613477565b6106b96000613526565b336000908152600760209081526040808320805482518185028101850190935280835260609492939192909184015b828210156108595760008481526020908190206040805160e081019091526006850290910180546001600160a01b03168252600181018054929391929184019161074590614669565b80601f016020809104026020016040519081016040528092919081815260200182805461077190614669565b80156107be5780601f10610793576101008083540402835291602001916107be565b820191906000526020600020905b8154815290600101906020018083116107a157829003601f168201915b5050509183525050600282015460208201526003820154604082015260048201546060820152600582015460809091019060ff16600181111561081157634e487b7160e01b600052602160045260246000fd5b600181111561083057634e487b7160e01b600052602160045260246000fd5b815260059190910154610100900460ff16151560209182015290825260019290920191016106fc565b50505050905090565b61086a613576565b61088d6040518060600160405280602f8152602001614716602f913986866135c3565b6108be6040518060400160405280600f81526020016e746f6b656e416d6f756e743a20257360881b8152508461360f565b6108f160405180604001604052806011815260200170636c61696d5175616e746974793a20257360781b8152508361360f565b61093f6040518060400160405280600d81526020016c636c61696d547970653a20257360981b81525082600181111561093a57634e487b7160e01b600052602160045260246000fd5b61360f565b8260001061099f5760405162461bcd60e51b815260206004820152602260248201527f746f6b656e416d6f756e74206d7573742062652067726561746572207468616e604482015261020360f41b60648201526084015b60405180910390fd5b8160001080156109b157506103e88211155b610a25576040805162461bcd60e51b81526020600482015260248101919091527f636c61696d5175616e74697479206d757374206265206772656174657220746860448201527f616e203020616e64206c657373206f7220657175616c207468616e20313030306064820152608401610996565b610a2d613c68565b60005b600a54811015610cdb57610b0f600a8281548110610a5e57634e487b7160e01b600052603260045260246000fd5b90600052602060002090600702016000018054610a7a90614669565b80601f0160208091040260200160405190810160405280929190818152602001828054610aa690614669565b8015610af35780601f10610ac857610100808354040283529160200191610af3565b820191906000526020600020905b815481529060010190602001808311610ad657829003601f168201915b5050505050888051602091820120825192909101919091201490565b15610cc957600a8181548110610b3557634e487b7160e01b600052603260045260246000fd5b906000526020600020906007020160405180610100016040529081600082018054610b5f90614669565b80601f0160208091040260200160405190810160405280929190818152602001828054610b8b90614669565b8015610bd85780601f10610bad57610100808354040283529160200191610bd8565b820191906000526020600020905b815481529060010190602001808311610bbb57829003601f168201915b50505050508152602001600182018054610bf190614669565b80601f0160208091040260200160405190810160405280929190818152602001828054610c1d90614669565b8015610c6a5780601f10610c3f57610100808354040283529160200191610c6a565b820191906000526020600020905b815481529060010190602001808311610c4d57829003601f168201915b50505091835250506002820154602082015260038201546001600160a01b038116604083015260ff600160a01b909104811660608301526004830154608083015260058301541660a082015260069091015460c0909101529150610cdb565b80610cd3816146a4565b915050610a30565b5060008160400151118015610cf5575060c081015160ff16155b610d415760405162461bcd60e51b815260206004820152601860248201527f496e76616c696420626c657373696e67207374617475732100000000000000006044820152606401610996565b610d62610d5b82604001518561365490919063ffffffff16565b8590613667565b6002546040516370a0823160e01b81523360048201526001600160a01b03909116906370a082319060240160206040518083038186803b158015610da557600080fd5b505afa158015610db9573d6000803e3d6000fd5b505050506040513d601f19601f82011682018060405250810190610ddd919061406e565b1015610e515760405162461bcd60e51b815260206004820152603e60248201527f596f757220746f6b656e20616d6f756e74206d7573742062652067726561746560448201527f72207468616e20796f752061726520747279696e6720746f2073656e642100006064820152608401610996565b6002546040516323b872dd60e01b8152336004820152306024820152604481018690526001600160a01b03909116906323b872dd90606401602060405180830381600087803b158015610ea357600080fd5b505af1158015610eb7573d6000803e3d6000fd5b505050506040513d601f19601f82011682018060405250810190610edb9190613ece565b610f275760405162461bcd60e51b815260206004820152601c60248201527f5472616e7366657220746f20636f6e7472616374206661696c656421000000006044820152606401610996565b600254606082015160e08301516001600160a01b03909216916323b872dd913391610f7990606490610f7390610f5d9083614652565b6040890151610f6d908c90613654565b90613654565b90613673565b6040516001600160e01b031960e086901b1681526001600160a01b0393841660048201529290911660248301526044820152606401602060405180830381600087803b158015610fc857600080fd5b505af1158015610fdc573d6000803e3d6000fd5b505050506040513d601f19601f820116820180604052508101906110009190613ece565b61105e5760405162461bcd60e51b815260206004820152602960248201527f5472616e7366657220746f20746865206f776e6572206f6620626c657373696e60448201526867206661696c65642160b81b6064820152608401610996565b60025460e082015160408301516001600160a01b03909216916323b872dd913391309161109791606491610f7391610f6d908c90613654565b6040516001600160e01b031960e086901b1681526001600160a01b0393841660048201529290911660248301526044820152606401602060405180830381600087803b1580156110e657600080fd5b505af11580156110fa573d6000803e3d6000fd5b505050506040513d601f19601f8201168201806040525081019061111e9190613ece565b61116a5760405162461bcd60e51b815260206004820181905260248201527f5472616e7366657220746f2074686520636f6e7472616374206661696c6564216044820152606401610996565b60076000336001600160a01b03166001600160a01b031681526020019081526020016000206040518060e00160405280876001600160a01b031681526020018881526020014281526020018681526020018581526020018460018111156111e157634e487b7160e01b600052602160045260246000fd5b81526000602091820181905283546001808201865594825290829020835160069092020180546001600160a01b0319166001600160a01b039092169190911781558282015180519394919361123e93928501929190910190613be4565b5060408201516002820155606082015160038201556080820151600482015560a082015160058201805460ff19166001838181111561128d57634e487b7160e01b600052602160045260246000fd5b021790555060c09190910151600590910180549115156101000261ff0019909216919091179055604080513381526001600160a01b03871660208201527f9028f7dd664be64a65e420291fdb6b56dec3b01e5433aa9675727b383cf1e5bc910160405180910390a1505050505050565b611305613477565b6106b961367f565b611315613477565b600555565b6060600a805480602002602001604051908101604052809291908181526020016000905b8282101561085957838290600052602060002090600702016040518061010001604052908160008201805461137290614669565b80601f016020809104026020016040519081016040528092919081815260200182805461139e90614669565b80156113eb5780601f106113c0576101008083540402835291602001916113eb565b820191906000526020600020905b8154815290600101906020018083116113ce57829003601f168201915b5050505050815260200160018201805461140490614669565b80601f016020809104026020016040519081016040528092919081815260200182805461143090614669565b801561147d5780601f106114525761010080835404028352916020019161147d565b820191906000526020600020905b81548152906001019060200180831161146057829003601f168201915b5050509183525050600282015460208083019190915260038301546001600160a01b038116604084015260ff600160a01b909104811660608401526004840154608084015260058401541660a083015260069092015460c090910152908252600192909201910161133e565b6114f1613477565b61151360405180606001604052806034815260200161476760349139856136c2565b60005b600a548110156116ca576115f5600a828154811061154457634e487b7160e01b600052603260045260246000fd5b9060005260206000209060070201600001805461156090614669565b80601f016020809104026020016040519081016040528092919081815260200182805461158c90614669565b80156115d95780601f106115ae576101008083540402835291602001916115d9565b820191906000526020600020905b8154815290600101906020018083116115bc57829003601f168201915b5050505050868051602091820120825192909101919091201490565b156116b85782600a828154811061161c57634e487b7160e01b600052603260045260246000fd5b906000526020600020906007020160050160006101000a81548160ff021916908360ff16021790555083600a828154811061166757634e487b7160e01b600052603260045260246000fd5b90600052602060002090600702016002018190555081600a828154811061169e57634e487b7160e01b600052603260045260246000fd5b9060005260206000209060070201600601819055506116ca565b806116c2816146a4565b915050611516565b5050505050565b6116d9613c68565b6116e1613cbc565b6001600160a01b0384166000908152600760209081526040808320805482518185028101850190935280835260609493849084015b828210156118735760008481526020908190206040805160e081019091526006850290910180546001600160a01b03168252600181018054929391929184019161175f90614669565b80601f016020809104026020016040519081016040528092919081815260200182805461178b90614669565b80156117d85780601f106117ad576101008083540402835291602001916117d8565b820191906000526020600020905b8154815290600101906020018083116117bb57829003601f168201915b5050509183525050600282015460208201526003820154604082015260048201546060820152600582015460809091019060ff16600181111561182b57634e487b7160e01b600052602160045260246000fd5b600181111561184a57634e487b7160e01b600052602160045260246000fd5b815260059190910154610100900460ff1615156020918201529082526001929092019101611716565b505050509050611881613cbc565b60005b825181101561190f57866001600160a01b03168382815181106118b757634e487b7160e01b600052603260045260246000fd5b6020026020010151600001516001600160a01b031614156118fd578281815181106118f257634e487b7160e01b600052603260045260246000fd5b602002602001015191505b80611907816146a4565b915050611884565b5060008160600151116119345760405162461bcd60e51b815260040161099690614567565b6001600160a01b038616600090815260096020908152604080832080548251818502810185019093528083529192909190849084015b828210156119db5760008481526020908190206040805160c0810182526006860290920180546001600160a01b031683526001808201548486015260028201549284019290925260038101546060840152600481015460808401526005015460a0830152908352909201910161196a565b5050505090506119e9613c68565b60005b600a54811015611c9b57611acf600a8281548110611a1a57634e487b7160e01b600052603260045260246000fd5b90600052602060002090600702016000018054611a3690614669565b80601f0160208091040260200160405190810160405280929190818152602001828054611a6290614669565b8015611aaf5780601f10611a8457610100808354040283529160200191611aaf565b820191906000526020600020905b815481529060010190602001808311611a9257829003601f168201915b505050505085602001518051602091820120825192909101919091201490565b15611c8957600a8181548110611af557634e487b7160e01b600052603260045260246000fd5b906000526020600020906007020160405180610100016040529081600082018054611b1f90614669565b80601f0160208091040260200160405190810160405280929190818152602001828054611b4b90614669565b8015611b985780601f10611b6d57610100808354040283529160200191611b98565b820191906000526020600020905b815481529060010190602001808311611b7b57829003601f168201915b50505050508152602001600182018054611bb190614669565b80601f0160208091040260200160405190810160405280929190818152602001828054611bdd90614669565b8015611c2a5780601f10611bff57610100808354040283529160200191611c2a565b820191906000526020600020905b815481529060010190602001808311611c0d57829003601f168201915b50505091835250506002820154602082015260038201546001600160a01b038116604083015260ff600160a01b909104811660608301526004830154608083015260058301541660a082015260069091015460c0909101529150611c9b565b80611c93816146a4565b9150506119ec565b509891975095509350505050565b611cb1613576565b6001600160a01b038116600090815260096020908152604080832080548251818502810185019093528083529192909190849084015b82821015611d585760008481526020908190206040805160c0810182526006860290920180546001600160a01b031683526001808201548486015260028201549284019290925260038101546060840152600481015460808401526005015460a08301529083529092019101611ce7565b5050505090508051600014611dd55760405162461bcd60e51b815260206004820152603c60248201527f596f757220626c657373696e6720697320636c61696d696e67206279206f746860448201527f6572732e2043616e206e6f74207265766f6b6520616e796d6f726521000000006064820152608401610996565b33600090815260076020908152604080832080548251818502810185019093528083529192909190849084015b82821015611f5f5760008481526020908190206040805160e081019091526006850290910180546001600160a01b031682526001810180549293919291840191611e4b90614669565b80601f0160208091040260200160405190810160405280929190818152602001828054611e7790614669565b8015611ec45780601f10611e9957610100808354040283529160200191611ec4565b820191906000526020600020905b815481529060010190602001808311611ea757829003601f168201915b5050509183525050600282015460208201526003820154604082015260048201546060820152600582015460809091019060ff166001811115611f1757634e487b7160e01b600052602160045260246000fd5b6001811115611f3657634e487b7160e01b600052602160045260246000fd5b815260059190910154610100900460ff1615156020918201529082526001929092019101611e02565b5050505090506000815111611f865760405162461bcd60e51b815260040161099690614567565b611f8e613cbc565b6000805b835181101561202057856001600160a01b0316848281518110611fc557634e487b7160e01b600052603260045260246000fd5b6020026020010151600001516001600160a01b0316141561200e5783818151811061200057634e487b7160e01b600052603260045260246000fd5b602002602001015192508091505b80612018816146a4565b915050611f92565b5060008260600151116120455760405162461bcd60e51b815260040161099690614567565b600254606083015160405163a9059cbb60e01b815233600482015260248101919091526001600160a01b039091169063a9059cbb90604401602060405180830381600087803b15801561209757600080fd5b505af11580156120ab573d6000803e3d6000fd5b505050506040513d601f19601f820116820180604052508101906120cf9190613ece565b61211b5760405162461bcd60e51b815260206004820152601f60248201527f5472616e73666572206261636b20746f2073656e646572206661696c656421006044820152606401610996565b3360009081526007602052604090208054600191908390811061214e57634e487b7160e01b600052603260045260246000fd5b600091825260209182902060056006909202010180549215156101000261ff001990931692909217909155604080513381526001600160a01b038816928101929092527faf0a59ad678f81ba23bb66973fedd52a279df960fc232c3bd4f56faf8d7945fb910160405180910390a15050505050565b6001600160a01b0381166000908152600960209081526040808320805482518185028101850190935280835260609492939192909184015b8282101561226c5760008481526020908190206040805160c0810182526006860290920180546001600160a01b031683526001808201548486015260028201549284019290925260038101546060840152600481015460808401526005015460a083015290835290920191016121fb565b505050509050919050565b336000908152600860209081526040808320805482518185028101850190935280835260609492939192909184015b828210156108595760008481526020908190206040805160c0810182526006860290920180546001600160a01b03908116845260018201541693830193909352600283018054929392918401916122fc90614669565b80601f016020809104026020016040519081016040528092919081815260200182805461232890614669565b80156123755780601f1061234a57610100808354040283529160200191612375565b820191906000526020600020905b81548152906001019060200180831161235857829003601f168201915b505050505081526020016003820154815260200160048201548152602001600582015481525050815260200190600101906122a6565b6123f66040518060c0016040528060006001600160a01b0316815260200160006001600160a01b03168152602001606081526020016000815260200160008152602001600081525090565b6123fe613576565b600260015414156124515760405162461bcd60e51b815260206004820152601f60248201527f5265656e7472616e637947756172643a207265656e7472616e742063616c6c006044820152606401610996565b600260018190555061247c60405180606001604052806031815260200161479b603191398787613707565b6001600160a01b03821633146124c15760405162461bcd60e51b815260206004820152600a6024820152696675636b4f666621212160b01b6044820152606401610996565b6124cc84848761374e565b61250d5760405162461bcd60e51b8152602060048201526012602482015271496e76616c6964207369676e69747572652160701b6044820152606401610996565b612541604051806040016040528060138152602001727369676e61747572652069732076616c69642160681b8152506133eb565b333b156125a25760405162461bcd60e51b815260206004820152602960248201527f596f752063616e206e6f7420636c61696d20626c657373696e672066726f6d20604482015268636f6e74726163742160b81b6064820152608401610996565b6001600160a01b038616600090815260076020908152604080832080548251818502810185019093528083529192909190849084015b828210156127355760008481526020908190206040805160e081019091526006850290910180546001600160a01b03168252600181018054929391929184019161262190614669565b80601f016020809104026020016040519081016040528092919081815260200182805461264d90614669565b801561269a5780601f1061266f5761010080835404028352916020019161269a565b820191906000526020600020905b81548152906001019060200180831161267d57829003601f168201915b5050509183525050600282015460208201526003820154604082015260048201546060820152600582015460809091019060ff1660018111156126ed57634e487b7160e01b600052602160045260246000fd5b600181111561270c57634e487b7160e01b600052602160045260246000fd5b815260059190910154610100900460ff16151560209182015290825260019290920191016125d8565b505050509050600081511161275c5760405162461bcd60e51b815260040161099690614567565b612764613cbc565b60005b82518110156127f257876001600160a01b031683828151811061279a57634e487b7160e01b600052603260045260246000fd5b6020026020010151600001516001600160a01b031614156127e0578281815181106127d557634e487b7160e01b600052603260045260246000fd5b602002602001015191505b806127ea816146a4565b915050612767565b5060c0810151156128455760405162461bcd60e51b815260206004820152601960248201527f5468697320626c657373696e67206973207265766f6b656421000000000000006044820152606401610996565b60008160600151116128695760405162461bcd60e51b815260040161099690614567565b6001600160a01b038716600090815260096020908152604080832080548251818502810185019093528083529192909190849084015b828210156129105760008481526020908190206040805160c0810182526006860290920180546001600160a01b031683526001808201548486015260028201549284019290925260038101546060840152600481015460808401526005015460a0830152908352909201910161289f565b505050509050816080015181511061296a5760405162461bcd60e51b815260206004820152601b60248201527f5468657265206973206e6f206d6f726520626c657373696e67732100000000006044820152606401610996565b6000805b8251811015612a5f57336001600160a01b03168382815181106129a157634e487b7160e01b600052603260045260246000fd5b6020026020010151600001516001600160a01b03161415612a145760405162461bcd60e51b815260206004820152602760248201527f596f75206861766520616c726561647920636c61696d6564207468697320626c604482015266657373696e672160c81b6064820152608401610996565b828181518110612a3457634e487b7160e01b600052603260045260246000fd5b60200260200101516040015182612a4b9190614607565b915080612a57816146a4565b91505061296e565b506000808460a001516001811115612a8757634e487b7160e01b600052602160045260246000fd5b1415612aa75760808401516060850151612aa091613673565b9050612b4b565b60018460a001516001811115612acd57634e487b7160e01b600052602160045260246000fd5b1415612b4b576000612aed8451866080015161377490919063ffffffff16565b90506000612afb600a613780565b90508160011415612b1c576060860151612b159085613774565b9250612b48565b612b456002610f6d600a610f7385610f6d88610f738c8f6060015161377490919063ffffffff16565b92505b50505b60006040518060c001604052808d6001600160a01b031681526020018c6001600160a01b0316815260200186602001518152602001428152602001612ba56006546103e8612b999190614652565b610f6d866103e8613673565b8152602001612bc5600654610f6d6103e88761367390919063ffffffff16565b905233600090815260086020908152604080832080546001818101835591855293839020855160069095020180546001600160a01b039586166001600160a01b03199182161782558487015192820180549390961692169190911790935583015180519394508493612c3d9260028501920190613be4565b50606082015160038201556080820151600482015560a09091015160059182015554600090612c7890610f6d85670de0b6b3a7640000613673565b90506103e8811115612c8957506103e75b600960008d6001600160a01b03166001600160a01b031681526020019081526020016000206040518060c00160405280336001600160a01b03168152602001428152602001858152602001612cf36006546103e8612ce79190614652565b610f6d886103e8613673565b8152602001612d13600654610f6d6103e88961367390919063ffffffff16565b815260209081018490528254600180820185556000948552938290208351600692830290910180546001600160a01b0319166001600160a01b0392831617815592840151948301949094556040830151600280840191909155606084015160038401556080840151600484015560a0909301516005909201919091559054905491169063a9059cbb903390612dae90612ce7906103e8614652565b6040516001600160e01b031960e085901b1681526001600160a01b0390921660048301526024820152604401602060405180830381600087803b158015612df457600080fd5b505af1158015612e08573d6000803e3d6000fd5b505050506040513d601f19601f82011682018060405250810190612e2c9190613ece565b612e785760405162461bcd60e51b815260206004820152601760248201527f436c61696d2074686520746f6b656e206661696c6564210000000000000000006044820152606401610996565b6002546001600160a01b031663a9059cbb612e9b6000546001600160a01b031690565b600654612eae90610f6d886103e8613673565b6040516001600160e01b031960e085901b1681526001600160a01b0390921660048301526024820152604401602060405180830381600087803b158015612ef457600080fd5b505af1158015612f08573d6000803e3d6000fd5b505050506040513d601f19601f82011682018060405250810190612f2c9190613ece565b612f6e5760405162461bcd60e51b815260206004820152601360248201527254616e7366657220746178206661696c65642160681b6044820152606401610996565b6003546040516370a0823160e01b815230600482015282916001600160a01b0316906370a082319060240160206040518083038186803b158015612fb157600080fd5b505afa158015612fc5573d6000803e3d6000fd5b505050506040513d601f19601f82011682018060405250810190612fe9919061406e565b106130c05760035460405163a9059cbb60e01b81526001600160a01b038f81166004830152602482018490529091169063a9059cbb90604401602060405180830381600087803b15801561303c57600080fd5b505af1158015613050573d6000803e3d6000fd5b505050506040513d601f19601f820116820180604052508101906130749190613ece565b6130c05760405162461bcd60e51b815260206004820152601760248201527f617761726420434220746f6b656e73206661696c6564210000000000000000006044820152606401610996565b600480546020880151604051631e1d900360e31b81526001600160a01b039092169263f0ec8018926130f69233929091016142b8565b602060405180830381600087803b15801561311057600080fd5b505af1158015613124573d6000803e3d6000fd5b505050506040513d601f19601f82011682018060405250810190613148919061406e565b507f411a457db9208c2357cddce37558ebfedc401243648449843470687d4e9014428d8d60405161318f9291906001600160a01b0392831681529116602082015260400190565b60405180910390a150600180559b9a5050505050505050505050565b6131b3613477565b6001600160a01b0381166132185760405162461bcd60e51b815260206004820152602660248201527f4f776e61626c653a206e6577206f776e657220697320746865207a65726f206160448201526564647265737360d01b6064820152608401610996565b61322181613526565b50565b61322c613477565b6132346137b8565b6003546040516370a0823160e01b81523060048201526001600160a01b039091169063a9059cbb90839083906370a082319060240160206040518083038186803b15801561328157600080fd5b505afa158015613295573d6000803e3d6000fd5b505050506040513d601f19601f820116820180604052508101906132b9919061406e565b6040516001600160e01b031960e085901b1681526001600160a01b0390921660048301526024820152604401602060405180830381600087803b1580156132ff57600080fd5b505af1158015613313573d6000803e3d6000fd5b505050506040513d601f19601f820116820180604052508101906133379190613ece565b61338e5760405162461bcd60e51b815260206004820152602260248201527f5472616e736665722043425420746f2076322061646472657373206661696c65604482015261642160f01b6064820152608401610996565b6004805460405163f2fde38b60e01b81526001600160a01b038481169382019390935291169063f2fde38b90602401600060405180830381600087803b1580156133d757600080fd5b505af11580156116ca573d6000803e3d6000fd5b613221816040516024016133ff9190614400565b60408051601f198184030181529190526020810180516001600160e01b031663104c13eb60e21b179052613808565b6134738282604051602401613444929190614413565b60408051601f198184030181529190526020810180516001600160e01b031663319af33360e01b179052613808565b5050565b6000546001600160a01b031633146106b95760405162461bcd60e51b815260206004820181905260248201527f4f776e61626c653a2063616c6c6572206973206e6f7420746865206f776e65726044820152606401610996565b6134d96137b8565b6000805460ff60a01b191690557f5db9ee0a495bf2e6ff9c91a7834c1ba4fdd244a5e8aa4e537bd38aeae4b073aa335b6040516001600160a01b03909116815260200160405180910390a1565b600080546001600160a01b038381166001600160a01b0319831681178455604051919092169283917f8be0079c531659141344cd1fd0a4f28419497f9722a3daafe3b4186f6b6457e09190a35050565b600054600160a01b900460ff16156106b95760405162461bcd60e51b815260206004820152601060248201526f14185d5cd8589b194e881c185d5cd95960821b6044820152606401610996565b61360a8383836040516024016135db9392919061449e565b60408051601f198184030181529190526020810180516001600160e01b03166395ed019560e01b179052613808565b505050565b6134738282604051602401613625929190614545565b60408051601f198184030181529190526020810180516001600160e01b03166309710a9d60e41b179052613808565b60006136608284614633565b9392505050565b60006136608284614607565b6000613660828461461f565b613687613576565b6000805460ff60a01b1916600160a01b1790557f62e78cea01bee320cd4e420270b5ea74000d11b0c9f74754ebdbfc544b05a2586135093390565b61347382826040516024016136d8929190614470565b60408051601f198184030181529190526020810180516001600160e01b0316634b5c427760e01b179052613808565b61360a83838360405160240161371f9392919061443d565b60408051601f198184030181529190526020810180516001600160e01b03166307e763af60e51b179052613808565b60008061375b8585613829565b6001600160a01b03908116908416149150509392505050565b60006136608284614652565b6000808261378f600143614652565b61379a9190406146bf565b90508015806137a9575080600a145b156137b2575060015b92915050565b600054600160a01b900460ff166106b95760405162461bcd60e51b815260206004820152601460248201527314185d5cd8589b194e881b9bdd081c185d5cd95960621b6044820152606401610996565b80516a636f6e736f6c652e6c6f67602083016000808483855afa5050505050565b6000806000613838858561384d565b91509150613845816138bd565b509392505050565b6000808251604114156138845760208301516040840151606085015160001a61387887828585613abe565b945094505050506138b6565b8251604014156138ae57602083015160408401516138a3868383613bab565b9350935050506138b6565b506000905060025b9250929050565b60008160048111156138df57634e487b7160e01b600052602160045260246000fd5b14156138e85750565b600181600481111561390a57634e487b7160e01b600052602160045260246000fd5b14156139585760405162461bcd60e51b815260206004820152601860248201527f45434453413a20696e76616c6964207369676e617475726500000000000000006044820152606401610996565b600281600481111561397a57634e487b7160e01b600052602160045260246000fd5b14156139c85760405162461bcd60e51b815260206004820152601f60248201527f45434453413a20696e76616c6964207369676e6174757265206c656e677468006044820152606401610996565b60038160048111156139ea57634e487b7160e01b600052602160045260246000fd5b1415613a435760405162461bcd60e51b815260206004820152602260248201527f45434453413a20696e76616c6964207369676e6174757265202773272076616c604482015261756560f01b6064820152608401610996565b6004816004811115613a6557634e487b7160e01b600052602160045260246000fd5b14156132215760405162461bcd60e51b815260206004820152602260248201527f45434453413a20696e76616c6964207369676e6174757265202776272076616c604482015261756560f01b6064820152608401610996565b6000807f7fffffffffffffffffffffffffffffff5d576e7357a4501ddfe92f46681b20a0831115613af55750600090506003613ba2565b8460ff16601b14158015613b0d57508460ff16601c14155b15613b1e5750600090506004613ba2565b6040805160008082526020820180845289905260ff881692820192909252606081018690526080810185905260019060a0016020604051602081039080840390855afa158015613b72573d6000803e3d6000fd5b5050604051601f1901519150506001600160a01b038116613b9b57600060019250925050613ba2565b9150600090505b94509492505050565b6000806001600160ff1b03831681613bc860ff86901c601b614607565b9050613bd687828885613abe565b935093505050935093915050565b828054613bf090614669565b90600052602060002090601f016020900481019282613c125760008555613c58565b82601f10613c2b57805160ff1916838001178555613c58565b82800160010185558215613c58579182015b82811115613c58578251825591602001919060010190613c3d565b50613c64929150613d21565b5090565b60405180610100016040528060608152602001606081526020016000815260200160006001600160a01b03168152602001600060ff16815260200160008152602001600060ff168152602001600081525090565b6040518060e0016040528060006001600160a01b031681526020016060815260200160008152602001600081526020016000815260200160006001811115613d1457634e487b7160e01b600052602160045260246000fd5b8152600060209091015290565b5b80821115613c645760008155600101613d22565b600067ffffffffffffffff80841115613d5157613d516146ff565b604051601f8501601f19908116603f01168101908282118183101715613d7957613d796146ff565b81604052809350858152868686011115613d9257600080fd5b858560208301376000602087830101525050509392505050565b80356001600160a01b0381168114613dc357600080fd5b919050565b600082601f830112613dd8578081fd5b61366083833560208501613d36565b803560ff81168114613dc357600080fd5b600060208284031215613e09578081fd5b61366082613dac565b60008060408385031215613e24578081fd5b613e2d83613dac565b9150613e3b60208401613dac565b90509250929050565b600080600080600060a08688031215613e5b578081fd5b613e6486613dac565b9450613e7260208701613dac565b935060408601359250606086013567ffffffffffffffff811115613e94578182fd5b8601601f81018813613ea4578182fd5b613eb388823560208401613d36565b925050613ec260808701613dac565b90509295509295909350565b600060208284031215613edf578081fd5b81518015158114613660578182fd5b60008060008060008060c08789031215613f06578081fd5b863567ffffffffffffffff80821115613f1d578283fd5b613f298a838b01613dc8565b9750613f3760208a01613dac565b96506040890135915080821115613f4c578283fd5b50613f5989828a01613dc8565b94505060608701359250613f6f60808801613de7565b915060a087013590509295509295509295565b600080600080600060a08688031215613f99578081fd5b853567ffffffffffffffff811115613faf578182fd5b613fbb88828901613dc8565b955050613fca60208701613dac565b93506040860135925060608601359150608086013560028110613feb578182fd5b809150509295509295909350565b6000806000806080858703121561400e578384fd5b843567ffffffffffffffff811115614024578485fd5b61403087828801613dc8565b9450506020850135925061404660408601613de7565b9396929550929360600135925050565b600060208284031215614067578081fd5b5035919050565b60006020828403121561407f578081fd5b5051919050565b6000815180845260208085019450808401835b838110156140f257815180516001600160a01b03168852838101518489015260408082015190890152606080820151908901526080808201519089015260a0908101519088015260c09096019590820190600101614099565b509495945050505050565b60008151808452815b8181101561412257602081850181015186830182015201614106565b818111156141335782602083870101525b50601f01601f19169290920160200192915050565b6000610100825181855261415e828601826140fd565b9150506020830151848203602086015261417882826140fd565b9150506040830151604085015260018060a01b03606084015116606085015260ff608084015116608085015260a083015160a085015260c08301516141c260c086018260ff169052565b5060e083015160e08501528091505092915050565b600060018060a01b0380835116845280602084015116602085015250604082015160c0604085015261420c60c08501826140fd565b9050606083015160608501526080830151608085015260a083015160a08501528091505092915050565b60018060a01b0381511682526000602082015160e0602085015261425d60e08501826140fd565b905060408301516040850152606083015160608501526080830151608085015260a08301516002811061429e57634e487b7160e01b83526021600452602483fd5b8060a08601525060c083015161384560c086018215159052565b6001600160a01b03831681526040602082018190526000906142dc908301846140fd565b949350505050565b6020815260006136606020830184614086565b6000602080830181845280855180835260408601915060408160051b8701019250838701855b8281101561434b57603f19888603018452614339858351614148565b9450928501929085019060010161431d565b5092979650505050505050565b6000602080830181845280855180835260408601915060408160051b8701019250838701855b8281101561434b57603f1988860301845261439a8583516141d7565b9450928501929085019060010161437e565b6000602080830181845280855180835260408601915060408160051b8701019250838701855b8281101561434b57603f198886030184526143ee858351614236565b945092850192908501906001016143d2565b60208152600061366060208301846140fd565b60408152600061442660408301856140fd565b905060018060a01b03831660208301529392505050565b60608152600061445060608301866140fd565b6001600160a01b0394851660208401529290931660409091015292915050565b60408152600061448360408301856140fd565b828103602084015261449581856140fd565b95945050505050565b6060815260006144b160608301866140fd565b82810360208401526144c381866140fd565b91505060018060a01b0383166040830152949350505050565b60006101008083526144f08184018c6140fd565b90508281036020840152614504818b6140fd565b604084019990995250506001600160a01b0395909516606086015260ff938416608086015260a085019290925290911660c083015260e09091015292915050565b60408152600061455860408301856140fd565b90508260208301529392505050565b6020808252602a908201527f5468657265206973206e6f20626c657373696e6720666f756e64206f6e20746860408201526969732073656e6465722160b01b606082015260800190565b6060815260006145c46060830186614148565b82810360208401526145d68186614236565b905082810360408401526145ea8185614086565b9695505050505050565b60208152600061366060208301846141d7565b6000821982111561461a5761461a6146d3565b500190565b60008261462e5761462e6146e9565b500490565b600081600019048311821515161561464d5761464d6146d3565b500290565b600082821015614664576146646146d3565b500390565b600181811c9082168061467d57607f821691505b6020821081141561469e57634e487b7160e01b600052602260045260246000fd5b50919050565b60006000198214156146b8576146b86146d3565b5060010190565b6000826146ce576146ce6146e9565b500690565b634e487b7160e01b600052601160045260246000fd5b634e487b7160e01b600052601260045260246000fd5b634e487b7160e01b600052604160045260246000fdfe737461727420746f2073656e6420626c657373696e672120696d6167653a25732c20626c657373696e6749443a2573737461727420746f2061646420626c657373696e6720746f2074686520706f6f6c21737461727420746f2072656d6f7665206f6e6520626c657373696e672066726f6d2074686520706f6f6c2120696d6167653a2573737461727420746f20636c61696d20626c657373696e67212073656e6465723a25732c20626c657373696e6749443a2573a26469706673582212206192e53d5781b8ae8f0a3c5d10ee43c27a87103300e282fe8df8637f8893493664736f6c63430008040033426c657373696e6720697320746865206d6f737420756e6976657273616c2068756d616e2065787072657373696f6e206f6620656d6f74696f6e2c20616e6420776520617265204e4654697a696e6720697421",
  "linkReferences": {},
  "deployedLinkReferences": {}
}