{
  "_format": "hh-sol-artifact-1",
  "contractName": "CryptoBlessing",
  "sourceName": "contracts/CryptoBlessing.sol",
  "abi": [
    {
      "inputs": [
        {
          "internalType": "address",
          "name": "_sendTokenAddress",
          "type": "address"
        },
        {
          "internalType": "address",
          "name": "_cryptoBlessingTokenAddress",
          "type": "address"
        },
        {
          "internalType": "address",
          "name": "_cryptoBlessingNFTAddress",
          "type": "address"
        }
      ],
      "stateMutability": "payable",
      "type": "constructor"
    },
    {
      "anonymous": false,
      "inputs": [
        {
          "indexed": true,
          "internalType": "address",
          "name": "previousOwner",
          "type": "address"
        },
        {
          "indexed": true,
          "internalType": "address",
          "name": "newOwner",
          "type": "address"
        }
      ],
      "name": "OwnershipTransferred",
      "type": "event"
    },
    {
      "anonymous": false,
      "inputs": [
        {
          "indexed": false,
          "internalType": "address",
          "name": "account",
          "type": "address"
        }
      ],
      "name": "Paused",
      "type": "event"
    },
    {
      "anonymous": false,
      "inputs": [
        {
          "indexed": false,
          "internalType": "address",
          "name": "account",
          "type": "address"
        }
      ],
      "name": "Unpaused",
      "type": "event"
    },
    {
      "anonymous": false,
      "inputs": [
        {
          "indexed": false,
          "internalType": "address",
          "name": "sender",
          "type": "address"
        },
        {
          "indexed": false,
          "internalType": "address",
          "name": "blessingID",
          "type": "address"
        }
      ],
      "name": "claimerClaimComplete",
      "type": "event"
    },
    {
      "anonymous": false,
      "inputs": [
        {
          "indexed": false,
          "internalType": "address",
          "name": "sender",
          "type": "address"
        },
        {
          "indexed": false,
          "internalType": "address",
          "name": "blessingID",
          "type": "address"
        }
      ],
      "name": "senderRevokeComplete",
      "type": "event"
    },
    {
      "anonymous": false,
      "inputs": [
        {
          "indexed": false,
          "internalType": "address",
          "name": "sender",
          "type": "address"
        },
        {
          "indexed": false,
          "internalType": "address",
          "name": "blessingID",
          "type": "address"
        }
      ],
      "name": "senderSendCompleted",
      "type": "event"
    },
    {
      "inputs": [
        {
          "internalType": "string",
          "name": "image",
          "type": "string"
        },
        {
          "internalType": "address",
          "name": "blessingOwner",
          "type": "address"
        },
        {
          "internalType": "string",
          "name": "description",
          "type": "string"
        },
        {
          "internalType": "uint256",
          "name": "price",
          "type": "uint256"
        },
        {
          "internalType": "uint8",
          "name": "blessingType",
          "type": "uint8"
        },
        {
          "internalType": "uint256",
          "name": "taxRate",
          "type": "uint256"
        }
      ],
      "name": "addBlessing",
      "outputs": [],
      "stateMutability": "nonpayable",
      "type": "function"
    },
    {
      "inputs": [
        {
          "internalType": "uint256",
          "name": "",
          "type": "uint256"
        }
      ],
      "name": "blessingList",
      "outputs": [
        {
          "internalType": "string",
          "name": "image",
          "type": "string"
        },
        {
          "internalType": "string",
          "name": "description",
          "type": "string"
        },
        {
          "internalType": "uint256",
          "name": "price",
          "type": "uint256"
        },
        {
          "internalType": "address",
          "name": "owner",
          "type": "address"
        },
        {
          "internalType": "uint8",
          "name": "blessingType",
          "type": "uint8"
        },
        {
          "internalType": "uint256",
          "name": "timestamp",
          "type": "uint256"
        },
        {
          "internalType": "uint8",
          "name": "deleted",
          "type": "uint8"
        },
        {
          "internalType": "uint256",
          "name": "taxRate",
          "type": "uint256"
        }
      ],
      "stateMutability": "view",
      "type": "function"
    },
    {
      "inputs": [
        {
          "internalType": "address",
          "name": "sender",
          "type": "address"
        },
        {
          "internalType": "address",
          "name": "blessingID",
          "type": "address"
        },
        {
          "internalType": "bytes32",
          "name": "hash",
          "type": "bytes32"
        },
        {
          "internalType": "bytes",
          "name": "signature",
          "type": "bytes"
        },
        {
          "internalType": "address",
          "name": "fuckOff",
          "type": "address"
        }
      ],
      "name": "claimBlessing",
      "outputs": [
        {
          "components": [
            {
              "internalType": "address",
              "name": "sender",
              "type": "address"
            },
            {
              "internalType": "address",
              "name": "blessingID",
              "type": "address"
            },
            {
              "internalType": "string",
              "name": "blessingImage",
              "type": "string"
            },
            {
              "internalType": "uint256",
              "name": "claimTimestamp",
              "type": "uint256"
            },
            {
              "internalType": "uint256",
              "name": "claimAmount",
              "type": "uint256"
            },
            {
              "internalType": "uint256",
              "name": "taxAmount",
              "type": "uint256"
            }
          ],
          "internalType": "struct CryptoBlessing.ClaimerBlessing",
          "name": "",
          "type": "tuple"
        }
      ],
      "stateMutability": "payable",
      "type": "function"
    },
    {
      "inputs": [],
      "name": "getAllBlessings",
      "outputs": [
        {
          "components": [
            {
              "internalType": "string",
              "name": "image",
              "type": "string"
            },
            {
              "internalType": "string",
              "name": "description",
              "type": "string"
            },
            {
              "internalType": "uint256",
              "name": "price",
              "type": "uint256"
            },
            {
              "internalType": "address",
              "name": "owner",
              "type": "address"
            },
            {
              "internalType": "uint8",
              "name": "blessingType",
              "type": "uint8"
            },
            {
              "internalType": "uint256",
              "name": "timestamp",
              "type": "uint256"
            },
            {
              "internalType": "uint8",
              "name": "deleted",
              "type": "uint8"
            },
            {
              "internalType": "uint256",
              "name": "taxRate",
              "type": "uint256"
            }
          ],
          "internalType": "struct CryptoBlessing.Blessing[]",
          "name": "",
          "type": "tuple[]"
        }
      ],
      "stateMutability": "view",
      "type": "function"
    },
    {
      "inputs": [
        {
          "internalType": "address",
          "name": "sender",
          "type": "address"
        },
        {
          "internalType": "address",
          "name": "blessingID",
          "type": "address"
        }
      ],
      "name": "getAllInfoOfBlessing",
      "outputs": [
        {
          "components": [
            {
              "internalType": "string",
              "name": "image",
              "type": "string"
            },
            {
              "internalType": "string",
              "name": "description",
              "type": "string"
            },
            {
              "internalType": "uint256",
              "name": "price",
              "type": "uint256"
            },
            {
              "internalType": "address",
              "name": "owner",
              "type": "address"
            },
            {
              "internalType": "uint8",
              "name": "blessingType",
              "type": "uint8"
            },
            {
              "internalType": "uint256",
              "name": "timestamp",
              "type": "uint256"
            },
            {
              "internalType": "uint8",
              "name": "deleted",
              "type": "uint8"
            },
            {
              "internalType": "uint256",
              "name": "taxRate",
              "type": "uint256"
            }
          ],
          "internalType": "struct CryptoBlessing.Blessing",
          "name": "",
          "type": "tuple"
        },
        {
          "components": [
            {
              "internalType": "address",
              "name": "blessingID",
              "type": "address"
            },
            {
              "internalType": "string",
              "name": "blessingImage",
              "type": "string"
            },
            {
              "internalType": "uint256",
              "name": "sendTimestamp",
              "type": "uint256"
            },
            {
              "internalType": "uint256",
              "name": "tokenAmount",
              "type": "uint256"
            },
            {
              "internalType": "uint256",
              "name": "claimQuantity",
              "type": "uint256"
            },
            {
              "internalType": "enum CryptoBlessing.ClaimType",
              "name": "claimType",
              "type": "uint8"
            },
            {
              "internalType": "bool",
              "name": "revoked",
              "type": "bool"
            }
          ],
          "internalType": "struct CryptoBlessing.SenderBlessing",
          "name": "",
          "type": "tuple"
        },
        {
          "components": [
            {
              "internalType": "address",
              "name": "claimer",
              "type": "address"
            },
            {
              "internalType": "uint256",
              "name": "claimTimestamp",
              "type": "uint256"
            },
            {
              "internalType": "uint256",
              "name": "distributedAmount",
              "type": "uint256"
            },
            {
              "internalType": "uint256",
              "name": "claimAmount",
              "type": "uint256"
            },
            {
              "internalType": "uint256",
              "name": "taxAmount",
              "type": "uint256"
            },
            {
              "internalType": "uint256",
              "name": "CBTokenAwardToSenderAmount",
              "type": "uint256"
            }
          ],
          "internalType": "struct CryptoBlessing.BlessingClaimStatus[]",
          "name": "",
          "type": "tuple[]"
        }
      ],
      "stateMutability": "view",
      "type": "function"
    },
    {
      "inputs": [
        {
          "internalType": "address",
          "name": "_blessingID",
          "type": "address"
        }
      ],
      "name": "getBlessingClaimingStatus",
      "outputs": [
        {
          "components": [
            {
              "internalType": "address",
              "name": "claimer",
              "type": "address"
            },
            {
              "internalType": "uint256",
              "name": "claimTimestamp",
              "type": "uint256"
            },
            {
              "internalType": "uint256",
              "name": "distributedAmount",
              "type": "uint256"
            },
            {
              "internalType": "uint256",
              "name": "claimAmount",
              "type": "uint256"
            },
            {
              "internalType": "uint256",
              "name": "taxAmount",
              "type": "uint256"
            },
            {
              "internalType": "uint256",
              "name": "CBTokenAwardToSenderAmount",
              "type": "uint256"
            }
          ],
          "internalType": "struct CryptoBlessing.BlessingClaimStatus[]",
          "name": "",
          "type": "tuple[]"
        }
      ],
      "stateMutability": "view",
      "type": "function"
    },
    {
      "inputs": [],
      "name": "getMyClaimedBlessings",
      "outputs": [
        {
          "components": [
            {
              "internalType": "address",
              "name": "sender",
              "type": "address"
            },
            {
              "internalType": "address",
              "name": "blessingID",
              "type": "address"
            },
            {
              "internalType": "string",
              "name": "blessingImage",
              "type": "string"
            },
            {
              "internalType": "uint256",
              "name": "claimTimestamp",
              "type": "uint256"
            },
            {
              "internalType": "uint256",
              "name": "claimAmount",
              "type": "uint256"
            },
            {
              "internalType": "uint256",
              "name": "taxAmount",
              "type": "uint256"
            }
          ],
          "internalType": "struct CryptoBlessing.ClaimerBlessing[]",
          "name": "",
          "type": "tuple[]"
        }
      ],
      "stateMutability": "view",
      "type": "function"
    },
    {
      "inputs": [],
      "name": "getMySendedBlessings",
      "outputs": [
        {
          "components": [
            {
              "internalType": "address",
              "name": "blessingID",
              "type": "address"
            },
            {
              "internalType": "string",
              "name": "blessingImage",
              "type": "string"
            },
            {
              "internalType": "uint256",
              "name": "sendTimestamp",
              "type": "uint256"
            },
            {
              "internalType": "uint256",
              "name": "tokenAmount",
              "type": "uint256"
            },
            {
              "internalType": "uint256",
              "name": "claimQuantity",
              "type": "uint256"
            },
            {
              "internalType": "enum CryptoBlessing.ClaimType",
              "name": "claimType",
              "type": "uint8"
            },
            {
              "internalType": "bool",
              "name": "revoked",
              "type": "bool"
            }
          ],
          "internalType": "struct CryptoBlessing.SenderBlessing[]",
          "name": "",
          "type": "tuple[]"
        }
      ],
      "stateMutability": "view",
      "type": "function"
    },
    {
      "inputs": [],
      "name": "owner",
      "outputs": [
        {
          "internalType": "address",
          "name": "",
          "type": "address"
        }
      ],
      "stateMutability": "view",
      "type": "function"
    },
    {
      "inputs": [],
      "name": "pause",
      "outputs": [],
      "stateMutability": "nonpayable",
      "type": "function"
    },
    {
      "inputs": [],
      "name": "paused",
      "outputs": [
        {
          "internalType": "bool",
          "name": "",
          "type": "bool"
        }
      ],
      "stateMutability": "view",
      "type": "function"
    },
    {
      "inputs": [],
      "name": "renounceOwnership",
      "outputs": [],
      "stateMutability": "nonpayable",
      "type": "function"
    },
    {
      "inputs": [
        {
          "internalType": "address",
          "name": "blessingID",
          "type": "address"
        }
      ],
      "name": "revokeBlessing",
      "outputs": [],
      "stateMutability": "nonpayable",
      "type": "function"
    },
    {
      "inputs": [
        {
          "internalType": "string",
          "name": "image",
          "type": "string"
        },
        {
          "internalType": "address",
          "name": "blessingID",
          "type": "address"
        },
        {
          "internalType": "uint256",
          "name": "tokenAmount",
          "type": "uint256"
        },
        {
          "internalType": "uint256",
          "name": "claimQuantity",
          "type": "uint256"
        },
        {
          "internalType": "enum CryptoBlessing.ClaimType",
          "name": "claimType",
          "type": "uint8"
        }
      ],
      "name": "sendBlessing",
      "outputs": [],
      "stateMutability": "nonpayable",
      "type": "function"
    },
    {
      "inputs": [
        {
          "internalType": "uint256",
          "name": "_CBTOKENAWARDRATIO",
          "type": "uint256"
        }
      ],
      "name": "setCBTOKENAWARDRATIO",
      "outputs": [],
      "stateMutability": "nonpayable",
      "type": "function"
    },
    {
      "inputs": [
        {
          "internalType": "uint256",
          "name": "_CLAIM_TAX_RATE",
          "type": "uint256"
        }
      ],
      "name": "setCLAIM_TAX_RATE",
      "outputs": [],
      "stateMutability": "nonpayable",
      "type": "function"
    },
    {
      "inputs": [
        {
          "internalType": "address",
          "name": "newOwner",
          "type": "address"
        }
      ],
      "name": "transferOwnership",
      "outputs": [],
      "stateMutability": "nonpayable",
      "type": "function"
    },
    {
      "inputs": [],
      "name": "unpause",
      "outputs": [],
      "stateMutability": "nonpayable",
      "type": "function"
    },
    {
      "inputs": [
        {
          "internalType": "string",
          "name": "image",
          "type": "string"
        },
        {
          "internalType": "uint256",
          "name": "price",
          "type": "uint256"
        },
        {
          "internalType": "uint8",
          "name": "deleted",
          "type": "uint8"
        },
        {
          "internalType": "uint256",
          "name": "taxRate",
          "type": "uint256"
        }
      ],
      "name": "updateBlessing",
      "outputs": [],
      "stateMutability": "nonpayable",
      "type": "function"
    },
    {
      "inputs": [
        {
          "internalType": "address",
          "name": "nextVersionContractAddress",
          "type": "address"
        }
      ],
      "name": "upgradeToNextVersion",
      "outputs": [],
      "stateMutability": "nonpayable",
      "type": "function"
    }
  ],
  "bytecode": "0x608060405260058055600a60065560405162004d3c38038062004d3c8339810160408190526200002f9162000278565b6200003a336200014b565b6000805460ff60a01b1916905560018055604080516080810190915260538082526200007b919062004ce960208301396200019b60201b6200356c1760201c565b620000c76040518060400160405280601481526020017f73656e64546f6b656e416464726573733a20257300000000000000000000000081525084620001e960201b620035af1760201c565b62000108604051806040016040528060128152602001714342546f6b656e416464726573733a20257360701b81525083620001e960201b620035af1760201c565b600280546001600160a01b039485166001600160a01b03199182161790915560038054938516938216939093179092556004805491909316911617905562000357565b600080546001600160a01b038381166001600160a01b0319831681178455604051919092169283917f8be0079c531659141344cd1fd0a4f28419497f9722a3daafe3b4186f6b6457e09190a35050565b620001e681604051602401620001b291906200030f565b60408051601f198184030181529190526020810180516001600160e01b0390811663104c13eb60e21b179091526200023a16565b50565b620002368282604051602401620002029291906200032b565b60408051601f198184030181529190526020810180516001600160e01b0390811663319af33360e01b179091526200023a16565b5050565b80516a636f6e736f6c652e6c6f67602083016000808483855afa5050505050565b80516001600160a01b03811681146200027357600080fd5b919050565b6000806000606084860312156200028d578283fd5b62000298846200025b565b9250620002a8602085016200025b565b9150620002b8604085016200025b565b90509250925092565b60008151808452815b81811015620002e857602081850181015186830182015201620002ca565b81811115620002fa5782602083870101525b50601f01601f19169290920160200192915050565b602081526000620003246020830184620002c1565b9392505050565b604081526000620003406040830185620002c1565b905060018060a01b03831660208301529392505050565b61498280620003676000396000f3fe60806040526004361061011f5760003560e01c8063aa387cfa116100a0578063dd03ff8f11610064578063dd03ff8f14610327578063e648721814610354578063e911b68214610376578063ea267e9714610396578063f2fde38b146103b657600080fd5b8063aa387cfa14610276578063bcbb8e3014610296578063bcc5f88a146102b8578063c4cf21e8146102d8578063d9c3e2431461030757600080fd5b8063715018a6116100e7578063715018a6146101e257806373fcd996146101f75780637c36b25b146102195780638456cb59146102395780638da5cb5b1461024e57600080fd5b806305d73818146101245780631d4249791461016157806323c56329146101835780633f4ba83a146101a35780635c975abb146101b8575b600080fd5b34801561013057600080fd5b5061014461013f3660046141d7565b6103d6565b60405161015898979695949392919061465d565b60405180910390f35b34801561016d57600080fd5b5061018161017c36600461406f565b610554565b005b34801561018f57600080fd5b5061018161019e3660046141d7565b61069c565b3480156101af57600080fd5b506101816106a9565b3480156101c457600080fd5b50600054600160a01b900460ff166040519015158152602001610158565b3480156101ee57600080fd5b506101816106bb565b34801561020357600080fd5b5061020c6106cd565b604051610158919061452d565b34801561022557600080fd5b50610181610234366004614103565b610862565b34801561024557600080fd5b5061018161130c565b34801561025a57600080fd5b506000546040516001600160a01b039091168152602001610158565b34801561028257600080fd5b506101816102913660046141d7565b61131c565b3480156102a257600080fd5b506102ab611329565b6040516101589190614478565b3480156102c457600080fd5b506101816102d336600461417a565b6114f8565b3480156102e457600080fd5b506102f86102f3366004613f93565b6116e0565b60405161015893929190614732565b34801561031357600080fd5b50610181610322366004613f79565b611cb8565b34801561033357600080fd5b50610347610342366004613f79565b6121d2565b6040516101589190614465565b34801561036057600080fd5b50610369612286565b60405161015891906144d9565b34801561038257600080fd5b50610181610391366004613f79565b6123ba565b6103a96103a4366004613fc5565b6126f3565b6040516101589190614775565b3480156103c257600080fd5b506101816103d1366004613f79565b6134f3565b600a81815481106103e657600080fd5b9060005260206000209060070201600091509050806000018054610409906147ea565b80601f0160208091040260200160405190810160405280929190818152602001828054610435906147ea565b80156104825780601f1061045757610100808354040283529160200191610482565b820191906000526020600020905b81548152906001019060200180831161046557829003601f168201915b505050505090806001018054610497906147ea565b80601f01602080910402602001604051908101604052809291908181526020018280546104c3906147ea565b80156105105780601f106104e557610100808354040283529160200191610510565b820191906000526020600020905b8154815290600101906020018083116104f357829003601f168201915b5050506002840154600385015460048601546005870154600690970154959692956001600160a01b038316955060ff600160a01b9093048316945090929091169088565b61055c6135f8565b61057d6040518060600160405280602281526020016148c66022913961356c565b604080516101008101825287815260208082018790529181018590526001600160a01b038716606082015260ff841660808201524260a0820152600060c0820181905260e08201849052600a8054600181018255915281518051929360079092027fc65a7bb8d6351c1cf70c95a316cc6a92839c986682d98bc35f958f4883f9d2a8019261060e9284920190613d65565b5060208281015180516106279260018501920190613d65565b5060408201516002820155606082015160038201805460808501516001600160a01b039093166001600160a81b031990911617600160a01b60ff9384160217905560a0830151600483015560c083015160058301805460ff19169190921617905560e090910151600690910155505050505050565b6106a46135f8565b600655565b6106b16135f8565b6106b9613652565b565b6106c36135f8565b6106b960006136a7565b336000908152600760209081526040808320805482518185028101850190935280835260609492939192909184015b828210156108595760008481526020908190206040805160e081019091526006850290910180546001600160a01b031682526001810180549293919291840191610745906147ea565b80601f0160208091040260200160405190810160405280929190818152602001828054610771906147ea565b80156107be5780601f10610793576101008083540402835291602001916107be565b820191906000526020600020905b8154815290600101906020018083116107a157829003601f168201915b5050509183525050600282015460208201526003820154604082015260048201546060820152600582015460809091019060ff16600181111561081157634e487b7160e01b600052602160045260246000fd5b600181111561083057634e487b7160e01b600052602160045260246000fd5b815260059190910154610100900460ff16151560209182015290825260019290920191016106fc565b50505050905090565b61086a6136f7565b61088d6040518060600160405280602f8152602001614897602f91398686613744565b6108be6040518060400160405280600f81526020016e746f6b656e416d6f756e743a20257360881b81525084613790565b6108f160405180604001604052806011815260200170636c61696d5175616e746974793a20257360781b81525083613790565b61093f6040518060400160405280600d81526020016c636c61696d547970653a20257360981b81525082600181111561093a57634e487b7160e01b600052602160045260246000fd5b613790565b8260001061099f5760405162461bcd60e51b815260206004820152602260248201527f746f6b656e416d6f756e74206d7573742062652067726561746572207468616e604482015261020360f41b60648201526084015b60405180910390fd5b8160001080156109b157506103e88211155b610a25576040805162461bcd60e51b81526020600482015260248101919091527f636c61696d5175616e74697479206d757374206265206772656174657220746860448201527f616e203020616e64206c657373206f7220657175616c207468616e20313030306064820152608401610996565b610a2d613de9565b60005b600a54811015610cdb57610b0f600a8281548110610a5e57634e487b7160e01b600052603260045260246000fd5b90600052602060002090600702016000018054610a7a906147ea565b80601f0160208091040260200160405190810160405280929190818152602001828054610aa6906147ea565b8015610af35780601f10610ac857610100808354040283529160200191610af3565b820191906000526020600020905b815481529060010190602001808311610ad657829003601f168201915b5050505050888051602091820120825192909101919091201490565b15610cc957600a8181548110610b3557634e487b7160e01b600052603260045260246000fd5b906000526020600020906007020160405180610100016040529081600082018054610b5f906147ea565b80601f0160208091040260200160405190810160405280929190818152602001828054610b8b906147ea565b8015610bd85780601f10610bad57610100808354040283529160200191610bd8565b820191906000526020600020905b815481529060010190602001808311610bbb57829003601f168201915b50505050508152602001600182018054610bf1906147ea565b80601f0160208091040260200160405190810160405280929190818152602001828054610c1d906147ea565b8015610c6a5780601f10610c3f57610100808354040283529160200191610c6a565b820191906000526020600020905b815481529060010190602001808311610c4d57829003601f168201915b50505091835250506002820154602082015260038201546001600160a01b038116604083015260ff600160a01b909104811660608301526004830154608083015260058301541660a082015260069091015460c0909101529150610cdb565b80610cd381614825565b915050610a30565b5060008160400151118015610cf5575060c081015160ff16155b610d415760405162461bcd60e51b815260206004820152601860248201527f496e76616c696420626c657373696e67207374617475732100000000000000006044820152606401610996565b610d62610d5b8260400151856137d590919063ffffffff16565b85906137e8565b6002546040516370a0823160e01b81523360048201526001600160a01b03909116906370a082319060240160206040518083038186803b158015610da557600080fd5b505afa158015610db9573d6000803e3d6000fd5b505050506040513d601f19601f82011682018060405250810190610ddd91906141ef565b1015610e515760405162461bcd60e51b815260206004820152603e60248201527f596f757220746f6b656e20616d6f756e74206d7573742062652067726561746560448201527f72207468616e20796f752061726520747279696e6720746f2073656e642100006064820152608401610996565b6002546040516323b872dd60e01b8152336004820152306024820152604481018690526001600160a01b03909116906323b872dd90606401602060405180830381600087803b158015610ea357600080fd5b505af1158015610eb7573d6000803e3d6000fd5b505050506040513d601f19601f82011682018060405250810190610edb919061404f565b610f275760405162461bcd60e51b815260206004820152601c60248201527f5472616e7366657220746f20636f6e7472616374206661696c656421000000006044820152606401610996565b600254606082015160e08301516001600160a01b03909216916323b872dd913391610f7990606490610f7390610f5d90836147d3565b6040890151610f6d908c906137d5565b906137d5565b906137f4565b6040516001600160e01b031960e086901b1681526001600160a01b0393841660048201529290911660248301526044820152606401602060405180830381600087803b158015610fc857600080fd5b505af1158015610fdc573d6000803e3d6000fd5b505050506040513d601f19601f82011682018060405250810190611000919061404f565b61105e5760405162461bcd60e51b815260206004820152602960248201527f5472616e7366657220746f20746865206f776e6572206f6620626c657373696e60448201526867206661696c65642160b81b6064820152608401610996565b6002546001600160a01b03166323b872dd336110826000546001600160a01b031690565b6110a66064610f738760e00151610f6d89604001518c6137d590919063ffffffff16565b6040516001600160e01b031960e086901b1681526001600160a01b0393841660048201529290911660248301526044820152606401602060405180830381600087803b1580156110f557600080fd5b505af1158015611109573d6000803e3d6000fd5b505050506040513d601f19601f8201168201806040525081019061112d919061404f565b6111795760405162461bcd60e51b815260206004820181905260248201527f5472616e7366657220746f2074686520636f6e7472616374206661696c6564216044820152606401610996565b60076000336001600160a01b03166001600160a01b031681526020019081526020016000206040518060e00160405280876001600160a01b031681526020018881526020014281526020018681526020018581526020018460018111156111f057634e487b7160e01b600052602160045260246000fd5b81526000602091820181905283546001808201865594825290829020835160069092020180546001600160a01b0319166001600160a01b039092169190911781558282015180519394919361124d93928501929190910190613d65565b5060408201516002820155606082015160038201556080820151600482015560a082015160058201805460ff19166001838181111561129c57634e487b7160e01b600052602160045260246000fd5b021790555060c09190910151600590910180549115156101000261ff0019909216919091179055604080513381526001600160a01b03871660208201527f9028f7dd664be64a65e420291fdb6b56dec3b01e5433aa9675727b383cf1e5bc910160405180910390a1505050505050565b6113146135f8565b6106b9613800565b6113246135f8565b600555565b6060600a805480602002602001604051908101604052809291908181526020016000905b82821015610859578382906000526020600020906007020160405180610100016040529081600082018054611381906147ea565b80601f01602080910402602001604051908101604052809291908181526020018280546113ad906147ea565b80156113fa5780601f106113cf576101008083540402835291602001916113fa565b820191906000526020600020905b8154815290600101906020018083116113dd57829003601f168201915b50505050508152602001600182018054611413906147ea565b80601f016020809104026020016040519081016040528092919081815260200182805461143f906147ea565b801561148c5780601f106114615761010080835404028352916020019161148c565b820191906000526020600020905b81548152906001019060200180831161146f57829003601f168201915b5050509183525050600282015460208083019190915260038301546001600160a01b038116604084015260ff600160a01b909104811660608401526004840154608084015260058401541660a083015260069092015460c090910152908252600192909201910161134d565b6115006135f8565b6115226040518060600160405280603481526020016148e86034913985613843565b60005b600a548110156116d957611604600a828154811061155357634e487b7160e01b600052603260045260246000fd5b9060005260206000209060070201600001805461156f906147ea565b80601f016020809104026020016040519081016040528092919081815260200182805461159b906147ea565b80156115e85780601f106115bd576101008083540402835291602001916115e8565b820191906000526020600020905b8154815290600101906020018083116115cb57829003601f168201915b5050505050868051602091820120825192909101919091201490565b156116c75782600a828154811061162b57634e487b7160e01b600052603260045260246000fd5b906000526020600020906007020160050160006101000a81548160ff021916908360ff16021790555083600a828154811061167657634e487b7160e01b600052603260045260246000fd5b90600052602060002090600702016002018190555081600a82815481106116ad57634e487b7160e01b600052603260045260246000fd5b9060005260206000209060070201600601819055506116d9565b806116d181614825565b915050611525565b5050505050565b6116e8613de9565b6116f0613e3d565b6001600160a01b0384166000908152600760209081526040808320805482518185028101850190935280835260609493849084015b828210156118825760008481526020908190206040805160e081019091526006850290910180546001600160a01b03168252600181018054929391929184019161176e906147ea565b80601f016020809104026020016040519081016040528092919081815260200182805461179a906147ea565b80156117e75780601f106117bc576101008083540402835291602001916117e7565b820191906000526020600020905b8154815290600101906020018083116117ca57829003601f168201915b5050509183525050600282015460208201526003820154604082015260048201546060820152600582015460809091019060ff16600181111561183a57634e487b7160e01b600052602160045260246000fd5b600181111561185957634e487b7160e01b600052602160045260246000fd5b815260059190910154610100900460ff1615156020918201529082526001929092019101611725565b505050509050611890613e3d565b60005b825181101561191e57866001600160a01b03168382815181106118c657634e487b7160e01b600052603260045260246000fd5b6020026020010151600001516001600160a01b0316141561190c5782818151811061190157634e487b7160e01b600052603260045260246000fd5b602002602001015191505b8061191681614825565b915050611893565b5060008160600151116119435760405162461bcd60e51b8152600401610996906146e8565b6001600160a01b038616600090815260096020908152604080832080548251818502810185019093528083529192909190849084015b828210156119ea5760008481526020908190206040805160c0810182526006860290920180546001600160a01b031683526001808201548486015260028201549284019290925260038101546060840152600481015460808401526005015460a08301529083529092019101611979565b5050505090506119f8613de9565b60005b600a54811015611caa57611ade600a8281548110611a2957634e487b7160e01b600052603260045260246000fd5b90600052602060002090600702016000018054611a45906147ea565b80601f0160208091040260200160405190810160405280929190818152602001828054611a71906147ea565b8015611abe5780601f10611a9357610100808354040283529160200191611abe565b820191906000526020600020905b815481529060010190602001808311611aa157829003601f168201915b505050505085602001518051602091820120825192909101919091201490565b15611c9857600a8181548110611b0457634e487b7160e01b600052603260045260246000fd5b906000526020600020906007020160405180610100016040529081600082018054611b2e906147ea565b80601f0160208091040260200160405190810160405280929190818152602001828054611b5a906147ea565b8015611ba75780601f10611b7c57610100808354040283529160200191611ba7565b820191906000526020600020905b815481529060010190602001808311611b8a57829003601f168201915b50505050508152602001600182018054611bc0906147ea565b80601f0160208091040260200160405190810160405280929190818152602001828054611bec906147ea565b8015611c395780601f10611c0e57610100808354040283529160200191611c39565b820191906000526020600020905b815481529060010190602001808311611c1c57829003601f168201915b50505091835250506002820154602082015260038201546001600160a01b038116604083015260ff600160a01b909104811660608301526004830154608083015260058301541660a082015260069091015460c0909101529150611caa565b80611ca281614825565b9150506119fb565b509891975095509350505050565b611cc06136f7565b6001600160a01b038116600090815260096020908152604080832080548251818502810185019093528083529192909190849084015b82821015611d675760008481526020908190206040805160c0810182526006860290920180546001600160a01b031683526001808201548486015260028201549284019290925260038101546060840152600481015460808401526005015460a08301529083529092019101611cf6565b5050505090508051600014611de45760405162461bcd60e51b815260206004820152603c60248201527f596f757220626c657373696e6720697320636c61696d696e67206279206f746860448201527f6572732e2043616e206e6f74207265766f6b6520616e796d6f726521000000006064820152608401610996565b33600090815260076020908152604080832080548251818502810185019093528083529192909190849084015b82821015611f6e5760008481526020908190206040805160e081019091526006850290910180546001600160a01b031682526001810180549293919291840191611e5a906147ea565b80601f0160208091040260200160405190810160405280929190818152602001828054611e86906147ea565b8015611ed35780601f10611ea857610100808354040283529160200191611ed3565b820191906000526020600020905b815481529060010190602001808311611eb657829003601f168201915b5050509183525050600282015460208201526003820154604082015260048201546060820152600582015460809091019060ff166001811115611f2657634e487b7160e01b600052602160045260246000fd5b6001811115611f4557634e487b7160e01b600052602160045260246000fd5b815260059190910154610100900460ff1615156020918201529082526001929092019101611e11565b5050505090506000815111611f955760405162461bcd60e51b8152600401610996906146e8565b611f9d613e3d565b6000805b835181101561202f57856001600160a01b0316848281518110611fd457634e487b7160e01b600052603260045260246000fd5b6020026020010151600001516001600160a01b0316141561201d5783818151811061200f57634e487b7160e01b600052603260045260246000fd5b602002602001015192508091505b8061202781614825565b915050611fa1565b5060008260600151116120545760405162461bcd60e51b8152600401610996906146e8565b600254606083015160405163a9059cbb60e01b815233600482015260248101919091526001600160a01b039091169063a9059cbb90604401602060405180830381600087803b1580156120a657600080fd5b505af11580156120ba573d6000803e3d6000fd5b505050506040513d601f19601f820116820180604052508101906120de919061404f565b61212a5760405162461bcd60e51b815260206004820152601f60248201527f5472616e73666572206261636b20746f2073656e646572206661696c656421006044820152606401610996565b3360009081526007602052604090208054600191908390811061215d57634e487b7160e01b600052603260045260246000fd5b600091825260209182902060056006909202010180549215156101000261ff001990931692909217909155604080513381526001600160a01b038816928101929092527faf0a59ad678f81ba23bb66973fedd52a279df960fc232c3bd4f56faf8d7945fb910160405180910390a15050505050565b6001600160a01b0381166000908152600960209081526040808320805482518185028101850190935280835260609492939192909184015b8282101561227b5760008481526020908190206040805160c0810182526006860290920180546001600160a01b031683526001808201548486015260028201549284019290925260038101546060840152600481015460808401526005015460a0830152908352909201910161220a565b505050509050919050565b336000908152600860209081526040808320805482518185028101850190935280835260609492939192909184015b828210156108595760008481526020908190206040805160c0810182526006860290920180546001600160a01b039081168452600182015416938301939093526002830180549293929184019161230b906147ea565b80601f0160208091040260200160405190810160405280929190818152602001828054612337906147ea565b80156123845780601f1061235957610100808354040283529160200191612384565b820191906000526020600020905b81548152906001019060200180831161236757829003601f168201915b505050505081526020016003820154815260200160048201548152602001600582015481525050815260200190600101906122b5565b6123c26135f8565b6123ca613888565b6003546040516370a0823160e01b81523060048201526001600160a01b039091169063a9059cbb90839083906370a082319060240160206040518083038186803b15801561241757600080fd5b505afa15801561242b573d6000803e3d6000fd5b505050506040513d601f19601f8201168201806040525081019061244f91906141ef565b6040516001600160e01b031960e085901b1681526001600160a01b0390921660048301526024820152604401602060405180830381600087803b15801561249557600080fd5b505af11580156124a9573d6000803e3d6000fd5b505050506040513d601f19601f820116820180604052508101906124cd919061404f565b61252e5760405162461bcd60e51b815260206004820152602c60248201527f5472616e736665722043425420746f206e6578742076657273696f6e2061646460448201526b72657373206661696c65642160a01b6064820152608401610996565b6002546001600160a01b031663a9059cbb6125516000546001600160a01b031690565b6002546040516370a0823160e01b81523060048201526001600160a01b03909116906370a082319060240160206040518083038186803b15801561259457600080fd5b505afa1580156125a8573d6000803e3d6000fd5b505050506040513d601f19601f820116820180604052508101906125cc91906141ef565b6040516001600160e01b031960e085901b1681526001600160a01b0390921660048301526024820152604401602060405180830381600087803b15801561261257600080fd5b505af1158015612626573d6000803e3d6000fd5b505050506040513d601f19601f8201168201806040525081019061264a919061404f565b6126965760405162461bcd60e51b815260206004820152601e60248201527f5472616e73666572204255534420746f206f776e6572206661696c65642100006044820152606401610996565b6004805460405163f2fde38b60e01b81526001600160a01b038481169382019390935291169063f2fde38b90602401600060405180830381600087803b1580156126df57600080fd5b505af11580156116d9573d6000803e3d6000fd5b61273e6040518060c0016040528060006001600160a01b0316815260200160006001600160a01b03168152602001606081526020016000815260200160008152602001600081525090565b6127466136f7565b600260015414156127995760405162461bcd60e51b815260206004820152601f60248201527f5265656e7472616e637947756172643a207265656e7472616e742063616c6c006044820152606401610996565b60026001819055506127c460405180606001604052806031815260200161491c6031913987876138d8565b6001600160a01b03821633146128095760405162461bcd60e51b815260206004820152600a6024820152696675636b4f666621212160b01b6044820152606401610996565b61281484848761391f565b6128555760405162461bcd60e51b8152602060048201526012602482015271496e76616c6964207369676e69747572652160701b6044820152606401610996565b612889604051806040016040528060138152602001727369676e61747572652069732076616c69642160681b81525061356c565b333b156128ea5760405162461bcd60e51b815260206004820152602960248201527f596f752063616e206e6f7420636c61696d20626c657373696e672066726f6d20604482015268636f6e74726163742160b81b6064820152608401610996565b6001600160a01b038616600090815260076020908152604080832080548251818502810185019093528083529192909190849084015b82821015612a7d5760008481526020908190206040805160e081019091526006850290910180546001600160a01b031682526001810180549293919291840191612969906147ea565b80601f0160208091040260200160405190810160405280929190818152602001828054612995906147ea565b80156129e25780601f106129b7576101008083540402835291602001916129e2565b820191906000526020600020905b8154815290600101906020018083116129c557829003601f168201915b5050509183525050600282015460208201526003820154604082015260048201546060820152600582015460809091019060ff166001811115612a3557634e487b7160e01b600052602160045260246000fd5b6001811115612a5457634e487b7160e01b600052602160045260246000fd5b815260059190910154610100900460ff1615156020918201529082526001929092019101612920565b5050505090506000815111612aa45760405162461bcd60e51b8152600401610996906146e8565b612aac613e3d565b60005b8251811015612b3a57876001600160a01b0316838281518110612ae257634e487b7160e01b600052603260045260246000fd5b6020026020010151600001516001600160a01b03161415612b2857828181518110612b1d57634e487b7160e01b600052603260045260246000fd5b602002602001015191505b80612b3281614825565b915050612aaf565b5060c081015115612b8d5760405162461bcd60e51b815260206004820152601960248201527f5468697320626c657373696e67206973207265766f6b656421000000000000006044820152606401610996565b6000816060015111612bb15760405162461bcd60e51b8152600401610996906146e8565b6001600160a01b038716600090815260096020908152604080832080548251818502810185019093528083529192909190849084015b82821015612c585760008481526020908190206040805160c0810182526006860290920180546001600160a01b031683526001808201548486015260028201549284019290925260038101546060840152600481015460808401526005015460a08301529083529092019101612be7565b5050505090508160800151815110612cb25760405162461bcd60e51b815260206004820152601b60248201527f5468657265206973206e6f206d6f726520626c657373696e67732100000000006044820152606401610996565b6000805b8251811015612da757336001600160a01b0316838281518110612ce957634e487b7160e01b600052603260045260246000fd5b6020026020010151600001516001600160a01b03161415612d5c5760405162461bcd60e51b815260206004820152602760248201527f596f75206861766520616c726561647920636c61696d6564207468697320626c604482015266657373696e672160c81b6064820152608401610996565b828181518110612d7c57634e487b7160e01b600052603260045260246000fd5b60200260200101516040015182612d939190614788565b915080612d9f81614825565b915050612cb6565b506000808460a001516001811115612dcf57634e487b7160e01b600052602160045260246000fd5b1415612def5760808401516060850151612de8916137f4565b9050612e93565b60018460a001516001811115612e1557634e487b7160e01b600052602160045260246000fd5b1415612e93576000612e358451866080015161394590919063ffffffff16565b90506000612e43600a613951565b90508160011415612e64576060860151612e5d9085613945565b9250612e90565b612e8d6002610f6d600a610f7385610f6d88610f738c8f6060015161394590919063ffffffff16565b92505b50505b60006040518060c001604052808d6001600160a01b031681526020018c6001600160a01b0316815260200186602001518152602001428152602001612eed6006546103e8612ee191906147d3565b610f6d866103e86137f4565b8152602001612f0d600654610f6d6103e8876137f490919063ffffffff16565b905233600090815260086020908152604080832080546001818101835591855293839020855160069095020180546001600160a01b039586166001600160a01b03199182161782558487015192820180549390961692169190911790935583015180519394508493612f859260028501920190613d65565b50606082015160038201556080820151600482015560a09091015160059182015554600090612fc090610f6d85670de0b6b3a76400006137f4565b90506103e8811115612fd157506103e75b600960008d6001600160a01b03166001600160a01b031681526020019081526020016000206040518060c00160405280336001600160a01b0316815260200142815260200185815260200161303b6006546103e861302f91906147d3565b610f6d886103e86137f4565b815260200161305b600654610f6d6103e8896137f490919063ffffffff16565b815260209081018490528254600180820185556000948552938290208351600692830290910180546001600160a01b0319166001600160a01b0392831617815592840151948301949094556040830151600280840191909155606084015160038401556080840151600484015560a0909301516005909201919091559054905491169063a9059cbb9033906130f69061302f906103e86147d3565b6040516001600160e01b031960e085901b1681526001600160a01b0390921660048301526024820152604401602060405180830381600087803b15801561313c57600080fd5b505af1158015613150573d6000803e3d6000fd5b505050506040513d601f19601f82011682018060405250810190613174919061404f565b6131c05760405162461bcd60e51b815260206004820152601760248201527f436c61696d2074686520746f6b656e206661696c6564210000000000000000006044820152606401610996565b6002546001600160a01b031663a9059cbb6131e36000546001600160a01b031690565b6006546131f690610f6d886103e86137f4565b6040516001600160e01b031960e085901b1681526001600160a01b0390921660048301526024820152604401602060405180830381600087803b15801561323c57600080fd5b505af1158015613250573d6000803e3d6000fd5b505050506040513d601f19601f82011682018060405250810190613274919061404f565b6132b65760405162461bcd60e51b815260206004820152601360248201527254616e7366657220746178206661696c65642160681b6044820152606401610996565b6003546040516370a0823160e01b815230600482015282916001600160a01b0316906370a082319060240160206040518083038186803b1580156132f957600080fd5b505afa15801561330d573d6000803e3d6000fd5b505050506040513d601f19601f8201168201806040525081019061333191906141ef565b106134085760035460405163a9059cbb60e01b81526001600160a01b038f81166004830152602482018490529091169063a9059cbb90604401602060405180830381600087803b15801561338457600080fd5b505af1158015613398573d6000803e3d6000fd5b505050506040513d601f19601f820116820180604052508101906133bc919061404f565b6134085760405162461bcd60e51b815260206004820152601760248201527f617761726420434220746f6b656e73206661696c6564210000000000000000006044820152606401610996565b600480546020880151604051631e1d900360e31b81526001600160a01b039092169263f0ec80189261343e923392909101614439565b602060405180830381600087803b15801561345857600080fd5b505af115801561346c573d6000803e3d6000fd5b505050506040513d601f19601f8201168201806040525081019061349091906141ef565b507f411a457db9208c2357cddce37558ebfedc401243648449843470687d4e9014428d8d6040516134d79291906001600160a01b0392831681529116602082015260400190565b60405180910390a150600180559b9a5050505050505050505050565b6134fb6135f8565b6001600160a01b0381166135605760405162461bcd60e51b815260206004820152602660248201527f4f776e61626c653a206e6577206f776e657220697320746865207a65726f206160448201526564647265737360d01b6064820152608401610996565b613569816136a7565b50565b613569816040516024016135809190614581565b60408051601f198184030181529190526020810180516001600160e01b031663104c13eb60e21b179052613989565b6135f482826040516024016135c5929190614594565b60408051601f198184030181529190526020810180516001600160e01b031663319af33360e01b179052613989565b5050565b6000546001600160a01b031633146106b95760405162461bcd60e51b815260206004820181905260248201527f4f776e61626c653a2063616c6c6572206973206e6f7420746865206f776e65726044820152606401610996565b61365a613888565b6000805460ff60a01b191690557f5db9ee0a495bf2e6ff9c91a7834c1ba4fdd244a5e8aa4e537bd38aeae4b073aa335b6040516001600160a01b03909116815260200160405180910390a1565b600080546001600160a01b038381166001600160a01b0319831681178455604051919092169283917f8be0079c531659141344cd1fd0a4f28419497f9722a3daafe3b4186f6b6457e09190a35050565b600054600160a01b900460ff16156106b95760405162461bcd60e51b815260206004820152601060248201526f14185d5cd8589b194e881c185d5cd95960821b6044820152606401610996565b61378b83838360405160240161375c9392919061461f565b60408051601f198184030181529190526020810180516001600160e01b03166395ed019560e01b179052613989565b505050565b6135f482826040516024016137a69291906146c6565b60408051601f198184030181529190526020810180516001600160e01b03166309710a9d60e41b179052613989565b60006137e182846147b4565b9392505050565b60006137e18284614788565b60006137e182846147a0565b6138086136f7565b6000805460ff60a01b1916600160a01b1790557f62e78cea01bee320cd4e420270b5ea74000d11b0c9f74754ebdbfc544b05a25861368a3390565b6135f482826040516024016138599291906145f1565b60408051601f198184030181529190526020810180516001600160e01b0316634b5c427760e01b179052613989565b600054600160a01b900460ff166106b95760405162461bcd60e51b815260206004820152601460248201527314185d5cd8589b194e881b9bdd081c185d5cd95960621b6044820152606401610996565b61378b8383836040516024016138f0939291906145be565b60408051601f198184030181529190526020810180516001600160e01b03166307e763af60e51b179052613989565b60008061392c85856139aa565b6001600160a01b03908116908416149150509392505050565b60006137e182846147d3565b600080826139606001436147d3565b61396b919040614840565b905080158061397a575080600a145b15613983575060015b92915050565b80516a636f6e736f6c652e6c6f67602083016000808483855afa5050505050565b60008060006139b985856139ce565b915091506139c681613a3e565b509392505050565b600080825160411415613a055760208301516040840151606085015160001a6139f987828585613c3f565b94509450505050613a37565b825160401415613a2f5760208301516040840151613a24868383613d2c565b935093505050613a37565b506000905060025b9250929050565b6000816004811115613a6057634e487b7160e01b600052602160045260246000fd5b1415613a695750565b6001816004811115613a8b57634e487b7160e01b600052602160045260246000fd5b1415613ad95760405162461bcd60e51b815260206004820152601860248201527f45434453413a20696e76616c6964207369676e617475726500000000000000006044820152606401610996565b6002816004811115613afb57634e487b7160e01b600052602160045260246000fd5b1415613b495760405162461bcd60e51b815260206004820152601f60248201527f45434453413a20696e76616c6964207369676e6174757265206c656e677468006044820152606401610996565b6003816004811115613b6b57634e487b7160e01b600052602160045260246000fd5b1415613bc45760405162461bcd60e51b815260206004820152602260248201527f45434453413a20696e76616c6964207369676e6174757265202773272076616c604482015261756560f01b6064820152608401610996565b6004816004811115613be657634e487b7160e01b600052602160045260246000fd5b14156135695760405162461bcd60e51b815260206004820152602260248201527f45434453413a20696e76616c6964207369676e6174757265202776272076616c604482015261756560f01b6064820152608401610996565b6000807f7fffffffffffffffffffffffffffffff5d576e7357a4501ddfe92f46681b20a0831115613c765750600090506003613d23565b8460ff16601b14158015613c8e57508460ff16601c14155b15613c9f5750600090506004613d23565b6040805160008082526020820180845289905260ff881692820192909252606081018690526080810185905260019060a0016020604051602081039080840390855afa158015613cf3573d6000803e3d6000fd5b5050604051601f1901519150506001600160a01b038116613d1c57600060019250925050613d23565b9150600090505b94509492505050565b6000806001600160ff1b03831681613d4960ff86901c601b614788565b9050613d5787828885613c3f565b935093505050935093915050565b828054613d71906147ea565b90600052602060002090601f016020900481019282613d935760008555613dd9565b82601f10613dac57805160ff1916838001178555613dd9565b82800160010185558215613dd9579182015b82811115613dd9578251825591602001919060010190613dbe565b50613de5929150613ea2565b5090565b60405180610100016040528060608152602001606081526020016000815260200160006001600160a01b03168152602001600060ff16815260200160008152602001600060ff168152602001600081525090565b6040518060e0016040528060006001600160a01b031681526020016060815260200160008152602001600081526020016000815260200160006001811115613e9557634e487b7160e01b600052602160045260246000fd5b8152600060209091015290565b5b80821115613de55760008155600101613ea3565b600067ffffffffffffffff80841115613ed257613ed2614880565b604051601f8501601f19908116603f01168101908282118183101715613efa57613efa614880565b81604052809350858152868686011115613f1357600080fd5b858560208301376000602087830101525050509392505050565b80356001600160a01b0381168114613f4457600080fd5b919050565b600082601f830112613f59578081fd5b6137e183833560208501613eb7565b803560ff81168114613f4457600080fd5b600060208284031215613f8a578081fd5b6137e182613f2d565b60008060408385031215613fa5578081fd5b613fae83613f2d565b9150613fbc60208401613f2d565b90509250929050565b600080600080600060a08688031215613fdc578081fd5b613fe586613f2d565b9450613ff360208701613f2d565b935060408601359250606086013567ffffffffffffffff811115614015578182fd5b8601601f81018813614025578182fd5b61403488823560208401613eb7565b92505061404360808701613f2d565b90509295509295909350565b600060208284031215614060578081fd5b815180151581146137e1578182fd5b60008060008060008060c08789031215614087578081fd5b863567ffffffffffffffff8082111561409e578283fd5b6140aa8a838b01613f49565b97506140b860208a01613f2d565b965060408901359150808211156140cd578283fd5b506140da89828a01613f49565b945050606087013592506140f060808801613f68565b915060a087013590509295509295509295565b600080600080600060a0868803121561411a578081fd5b853567ffffffffffffffff811115614130578182fd5b61413c88828901613f49565b95505061414b60208701613f2d565b9350604086013592506060860135915060808601356002811061416c578182fd5b809150509295509295909350565b6000806000806080858703121561418f578384fd5b843567ffffffffffffffff8111156141a5578485fd5b6141b187828801613f49565b945050602085013592506141c760408601613f68565b9396929550929360600135925050565b6000602082840312156141e8578081fd5b5035919050565b600060208284031215614200578081fd5b5051919050565b6000815180845260208085019450808401835b8381101561427357815180516001600160a01b03168852838101518489015260408082015190890152606080820151908901526080808201519089015260a0908101519088015260c0909601959082019060010161421a565b509495945050505050565b60008151808452815b818110156142a357602081850181015186830182015201614287565b818111156142b45782602083870101525b50601f01601f19169290920160200192915050565b600061010082518185526142df8286018261427e565b915050602083015184820360208601526142f9828261427e565b9150506040830151604085015260018060a01b03606084015116606085015260ff608084015116608085015260a083015160a085015260c083015161434360c086018260ff169052565b5060e083015160e08501528091505092915050565b600060018060a01b0380835116845280602084015116602085015250604082015160c0604085015261438d60c085018261427e565b9050606083015160608501526080830151608085015260a083015160a08501528091505092915050565b60018060a01b0381511682526000602082015160e060208501526143de60e085018261427e565b905060408301516040850152606083015160608501526080830151608085015260a08301516002811061441f57634e487b7160e01b83526021600452602483fd5b8060a08601525060c08301516139c660c086018215159052565b6001600160a01b038316815260406020820181905260009061445d9083018461427e565b949350505050565b6020815260006137e16020830184614207565b6000602080830181845280855180835260408601915060408160051b8701019250838701855b828110156144cc57603f198886030184526144ba8583516142c9565b9450928501929085019060010161449e565b5092979650505050505050565b6000602080830181845280855180835260408601915060408160051b8701019250838701855b828110156144cc57603f1988860301845261451b858351614358565b945092850192908501906001016144ff565b6000602080830181845280855180835260408601915060408160051b8701019250838701855b828110156144cc57603f1988860301845261456f8583516143b7565b94509285019290850190600101614553565b6020815260006137e1602083018461427e565b6040815260006145a7604083018561427e565b905060018060a01b03831660208301529392505050565b6060815260006145d1606083018661427e565b6001600160a01b0394851660208401529290931660409091015292915050565b604081526000614604604083018561427e565b8281036020840152614616818561427e565b95945050505050565b606081526000614632606083018661427e565b8281036020840152614644818661427e565b91505060018060a01b0383166040830152949350505050565b60006101008083526146718184018c61427e565b90508281036020840152614685818b61427e565b604084019990995250506001600160a01b0395909516606086015260ff938416608086015260a085019290925290911660c083015260e09091015292915050565b6040815260006146d9604083018561427e565b90508260208301529392505050565b6020808252602a908201527f5468657265206973206e6f20626c657373696e6720666f756e64206f6e20746860408201526969732073656e6465722160b01b606082015260800190565b60608152600061474560608301866142c9565b828103602084015261475781866143b7565b9050828103604084015261476b8185614207565b9695505050505050565b6020815260006137e16020830184614358565b6000821982111561479b5761479b614854565b500190565b6000826147af576147af61486a565b500490565b60008160001904831182151516156147ce576147ce614854565b500290565b6000828210156147e5576147e5614854565b500390565b600181811c908216806147fe57607f821691505b6020821081141561481f57634e487b7160e01b600052602260045260246000fd5b50919050565b600060001982141561483957614839614854565b5060010190565b60008261484f5761484f61486a565b500690565b634e487b7160e01b600052601160045260246000fd5b634e487b7160e01b600052601260045260246000fd5b634e487b7160e01b600052604160045260246000fdfe737461727420746f2073656e6420626c657373696e672120696d6167653a25732c20626c657373696e6749443a2573737461727420746f2061646420626c657373696e6720746f2074686520706f6f6c21737461727420746f2072656d6f7665206f6e6520626c657373696e672066726f6d2074686520706f6f6c2120696d6167653a2573737461727420746f20636c61696d20626c657373696e67212073656e6465723a25732c20626c657373696e6749443a2573a2646970667358221220b6a8d7e5bdc33b06110733f70f100407d13dd1d4a41edcc7d9931ae680b871fc64736f6c63430008040033426c657373696e6720697320746865206d6f737420756e6976657273616c2068756d616e2065787072657373696f6e206f6620656d6f74696f6e2c20616e6420776520617265204e4654697a696e6720697421",
  "linkReferences": {},
  "deployedLinkReferences": {}
}