{
  "_format": "hh-sol-artifact-1",
  "contractName": "CryptoBlessing",
  "sourceName": "contracts/CryptoBlessing.sol",
  "abi": [
    {
      "inputs": [
        {
          "internalType": "address",
          "name": "_sendTokenAddress",
          "type": "address"
        },
        {
          "internalType": "address",
          "name": "_cryptoBlessingTokenAddress",
          "type": "address"
        },
        {
          "internalType": "address",
          "name": "_cryptoBlessingNFTAddress",
          "type": "address"
        }
      ],
      "stateMutability": "payable",
      "type": "constructor"
    },
    {
      "anonymous": false,
      "inputs": [
        {
          "indexed": true,
          "internalType": "address",
          "name": "previousOwner",
          "type": "address"
        },
        {
          "indexed": true,
          "internalType": "address",
          "name": "newOwner",
          "type": "address"
        }
      ],
      "name": "OwnershipTransferred",
      "type": "event"
    },
    {
      "anonymous": false,
      "inputs": [
        {
          "indexed": false,
          "internalType": "address",
          "name": "account",
          "type": "address"
        }
      ],
      "name": "Paused",
      "type": "event"
    },
    {
      "anonymous": false,
      "inputs": [
        {
          "indexed": false,
          "internalType": "address",
          "name": "account",
          "type": "address"
        }
      ],
      "name": "Unpaused",
      "type": "event"
    },
    {
      "anonymous": false,
      "inputs": [
        {
          "indexed": false,
          "internalType": "address",
          "name": "sender",
          "type": "address"
        },
        {
          "indexed": false,
          "internalType": "address",
          "name": "blessingID",
          "type": "address"
        }
      ],
      "name": "claimerClaimComplete",
      "type": "event"
    },
    {
      "anonymous": false,
      "inputs": [
        {
          "indexed": false,
          "internalType": "address",
          "name": "sender",
          "type": "address"
        },
        {
          "indexed": false,
          "internalType": "address",
          "name": "blessingID",
          "type": "address"
        }
      ],
      "name": "senderRevokeComplete",
      "type": "event"
    },
    {
      "anonymous": false,
      "inputs": [
        {
          "indexed": false,
          "internalType": "address",
          "name": "sender",
          "type": "address"
        },
        {
          "indexed": false,
          "internalType": "address",
          "name": "blessingID",
          "type": "address"
        }
      ],
      "name": "senderSendCompleted",
      "type": "event"
    },
    {
      "inputs": [
        {
          "internalType": "string",
          "name": "image",
          "type": "string"
        },
        {
          "internalType": "address",
          "name": "blessingOwner",
          "type": "address"
        },
        {
          "internalType": "uint256",
          "name": "price",
          "type": "uint256"
        },
        {
          "internalType": "uint256",
          "name": "taxRate",
          "type": "uint256"
        }
      ],
      "name": "addBlessing",
      "outputs": [],
      "stateMutability": "nonpayable",
      "type": "function"
    },
    {
      "inputs": [
        {
          "internalType": "string[]",
          "name": "images",
          "type": "string[]"
        },
        {
          "components": [
            {
              "internalType": "uint256",
              "name": "price",
              "type": "uint256"
            },
            {
              "internalType": "address",
              "name": "owner",
              "type": "address"
            },
            {
              "internalType": "uint8",
              "name": "deleted",
              "type": "uint8"
            },
            {
              "internalType": "uint256",
              "name": "taxRate",
              "type": "uint256"
            }
          ],
          "internalType": "struct CryptoBlessing.Blessing[]",
          "name": "blessings",
          "type": "tuple[]"
        }
      ],
      "name": "batchAddBlessing",
      "outputs": [],
      "stateMutability": "nonpayable",
      "type": "function"
    },
    {
      "inputs": [
        {
          "internalType": "address",
          "name": "sender",
          "type": "address"
        },
        {
          "internalType": "address",
          "name": "blessingID",
          "type": "address"
        },
        {
          "internalType": "bytes32",
          "name": "hash",
          "type": "bytes32"
        },
        {
          "internalType": "bytes",
          "name": "signature",
          "type": "bytes"
        }
      ],
      "name": "claimBlessing",
      "outputs": [
        {
          "components": [
            {
              "internalType": "address",
              "name": "sender",
              "type": "address"
            },
            {
              "internalType": "address",
              "name": "blessingID",
              "type": "address"
            },
            {
              "internalType": "string",
              "name": "blessingImage",
              "type": "string"
            },
            {
              "internalType": "uint256",
              "name": "claimTimestamp",
              "type": "uint256"
            },
            {
              "internalType": "uint256",
              "name": "claimAmount",
              "type": "uint256"
            },
            {
              "internalType": "uint256",
              "name": "taxAmount",
              "type": "uint256"
            }
          ],
          "internalType": "struct CryptoBlessing.ClaimerBlessing",
          "name": "",
          "type": "tuple"
        }
      ],
      "stateMutability": "payable",
      "type": "function"
    },
    {
      "inputs": [
        {
          "internalType": "address",
          "name": "sender",
          "type": "address"
        },
        {
          "internalType": "address",
          "name": "blessingID",
          "type": "address"
        }
      ],
      "name": "getAllInfoOfBlessing",
      "outputs": [
        {
          "components": [
            {
              "internalType": "uint256",
              "name": "price",
              "type": "uint256"
            },
            {
              "internalType": "address",
              "name": "owner",
              "type": "address"
            },
            {
              "internalType": "uint8",
              "name": "deleted",
              "type": "uint8"
            },
            {
              "internalType": "uint256",
              "name": "taxRate",
              "type": "uint256"
            }
          ],
          "internalType": "struct CryptoBlessing.Blessing",
          "name": "",
          "type": "tuple"
        },
        {
          "components": [
            {
              "internalType": "address",
              "name": "blessingID",
              "type": "address"
            },
            {
              "internalType": "string",
              "name": "blessingImage",
              "type": "string"
            },
            {
              "internalType": "uint256",
              "name": "sendTimestamp",
              "type": "uint256"
            },
            {
              "internalType": "uint256",
              "name": "tokenAmount",
              "type": "uint256"
            },
            {
              "internalType": "uint256",
              "name": "claimQuantity",
              "type": "uint256"
            },
            {
              "internalType": "enum CryptoBlessing.ClaimType",
              "name": "claimType",
              "type": "uint8"
            },
            {
              "internalType": "bool",
              "name": "revoked",
              "type": "bool"
            }
          ],
          "internalType": "struct CryptoBlessing.SenderBlessing",
          "name": "",
          "type": "tuple"
        },
        {
          "components": [
            {
              "internalType": "address",
              "name": "claimer",
              "type": "address"
            },
            {
              "internalType": "uint256",
              "name": "claimTimestamp",
              "type": "uint256"
            },
            {
              "internalType": "uint256",
              "name": "distributedAmount",
              "type": "uint256"
            },
            {
              "internalType": "uint256",
              "name": "claimAmount",
              "type": "uint256"
            },
            {
              "internalType": "uint256",
              "name": "taxAmount",
              "type": "uint256"
            },
            {
              "internalType": "uint256",
              "name": "CBTokenAwardToSenderAmount",
              "type": "uint256"
            }
          ],
          "internalType": "struct CryptoBlessing.BlessingClaimStatus[]",
          "name": "",
          "type": "tuple[]"
        }
      ],
      "stateMutability": "view",
      "type": "function"
    },
    {
      "inputs": [
        {
          "internalType": "string",
          "name": "image",
          "type": "string"
        }
      ],
      "name": "getBlessing",
      "outputs": [
        {
          "components": [
            {
              "internalType": "uint256",
              "name": "price",
              "type": "uint256"
            },
            {
              "internalType": "address",
              "name": "owner",
              "type": "address"
            },
            {
              "internalType": "uint8",
              "name": "deleted",
              "type": "uint8"
            },
            {
              "internalType": "uint256",
              "name": "taxRate",
              "type": "uint256"
            }
          ],
          "internalType": "struct CryptoBlessing.Blessing",
          "name": "",
          "type": "tuple"
        }
      ],
      "stateMutability": "view",
      "type": "function"
    },
    {
      "inputs": [
        {
          "internalType": "address",
          "name": "_blessingID",
          "type": "address"
        }
      ],
      "name": "getBlessingClaimingStatus",
      "outputs": [
        {
          "components": [
            {
              "internalType": "address",
              "name": "claimer",
              "type": "address"
            },
            {
              "internalType": "uint256",
              "name": "claimTimestamp",
              "type": "uint256"
            },
            {
              "internalType": "uint256",
              "name": "distributedAmount",
              "type": "uint256"
            },
            {
              "internalType": "uint256",
              "name": "claimAmount",
              "type": "uint256"
            },
            {
              "internalType": "uint256",
              "name": "taxAmount",
              "type": "uint256"
            },
            {
              "internalType": "uint256",
              "name": "CBTokenAwardToSenderAmount",
              "type": "uint256"
            }
          ],
          "internalType": "struct CryptoBlessing.BlessingClaimStatus[]",
          "name": "",
          "type": "tuple[]"
        }
      ],
      "stateMutability": "view",
      "type": "function"
    },
    {
      "inputs": [],
      "name": "getMyClaimedBlessings",
      "outputs": [
        {
          "components": [
            {
              "internalType": "address",
              "name": "sender",
              "type": "address"
            },
            {
              "internalType": "address",
              "name": "blessingID",
              "type": "address"
            },
            {
              "internalType": "string",
              "name": "blessingImage",
              "type": "string"
            },
            {
              "internalType": "uint256",
              "name": "claimTimestamp",
              "type": "uint256"
            },
            {
              "internalType": "uint256",
              "name": "claimAmount",
              "type": "uint256"
            },
            {
              "internalType": "uint256",
              "name": "taxAmount",
              "type": "uint256"
            }
          ],
          "internalType": "struct CryptoBlessing.ClaimerBlessing[]",
          "name": "",
          "type": "tuple[]"
        }
      ],
      "stateMutability": "view",
      "type": "function"
    },
    {
      "inputs": [],
      "name": "getMySendedBlessings",
      "outputs": [
        {
          "components": [
            {
              "internalType": "address",
              "name": "blessingID",
              "type": "address"
            },
            {
              "internalType": "string",
              "name": "blessingImage",
              "type": "string"
            },
            {
              "internalType": "uint256",
              "name": "sendTimestamp",
              "type": "uint256"
            },
            {
              "internalType": "uint256",
              "name": "tokenAmount",
              "type": "uint256"
            },
            {
              "internalType": "uint256",
              "name": "claimQuantity",
              "type": "uint256"
            },
            {
              "internalType": "enum CryptoBlessing.ClaimType",
              "name": "claimType",
              "type": "uint8"
            },
            {
              "internalType": "bool",
              "name": "revoked",
              "type": "bool"
            }
          ],
          "internalType": "struct CryptoBlessing.SenderBlessing[]",
          "name": "",
          "type": "tuple[]"
        }
      ],
      "stateMutability": "view",
      "type": "function"
    },
    {
      "inputs": [],
      "name": "owner",
      "outputs": [
        {
          "internalType": "address",
          "name": "",
          "type": "address"
        }
      ],
      "stateMutability": "view",
      "type": "function"
    },
    {
      "inputs": [],
      "name": "pause",
      "outputs": [],
      "stateMutability": "nonpayable",
      "type": "function"
    },
    {
      "inputs": [],
      "name": "paused",
      "outputs": [
        {
          "internalType": "bool",
          "name": "",
          "type": "bool"
        }
      ],
      "stateMutability": "view",
      "type": "function"
    },
    {
      "inputs": [],
      "name": "renounceOwnership",
      "outputs": [],
      "stateMutability": "nonpayable",
      "type": "function"
    },
    {
      "inputs": [
        {
          "internalType": "address",
          "name": "blessingID",
          "type": "address"
        }
      ],
      "name": "revokeBlessing",
      "outputs": [],
      "stateMutability": "nonpayable",
      "type": "function"
    },
    {
      "inputs": [
        {
          "internalType": "string",
          "name": "image",
          "type": "string"
        },
        {
          "internalType": "address",
          "name": "blessingID",
          "type": "address"
        },
        {
          "internalType": "uint256",
          "name": "tokenAmount",
          "type": "uint256"
        },
        {
          "internalType": "uint256",
          "name": "claimQuantity",
          "type": "uint256"
        },
        {
          "internalType": "enum CryptoBlessing.ClaimType",
          "name": "claimType",
          "type": "uint8"
        },
        {
          "internalType": "address[]",
          "name": "pubkeys",
          "type": "address[]"
        }
      ],
      "name": "sendBlessing",
      "outputs": [],
      "stateMutability": "nonpayable",
      "type": "function"
    },
    {
      "inputs": [
        {
          "internalType": "uint256",
          "name": "_CBTOKENAWARDRATIO",
          "type": "uint256"
        }
      ],
      "name": "setCBTOKENAWARDRATIO",
      "outputs": [],
      "stateMutability": "nonpayable",
      "type": "function"
    },
    {
      "inputs": [
        {
          "internalType": "uint256",
          "name": "_CLAIM_TAX_RATE",
          "type": "uint256"
        }
      ],
      "name": "setCLAIM_TAX_RATE",
      "outputs": [],
      "stateMutability": "nonpayable",
      "type": "function"
    },
    {
      "inputs": [
        {
          "internalType": "address",
          "name": "newOwner",
          "type": "address"
        }
      ],
      "name": "transferOwnership",
      "outputs": [],
      "stateMutability": "nonpayable",
      "type": "function"
    },
    {
      "inputs": [],
      "name": "unpause",
      "outputs": [],
      "stateMutability": "nonpayable",
      "type": "function"
    },
    {
      "inputs": [
        {
          "internalType": "string",
          "name": "image",
          "type": "string"
        },
        {
          "internalType": "uint256",
          "name": "price",
          "type": "uint256"
        },
        {
          "internalType": "uint8",
          "name": "deleted",
          "type": "uint8"
        },
        {
          "internalType": "uint256",
          "name": "taxRate",
          "type": "uint256"
        }
      ],
      "name": "updateBlessing",
      "outputs": [],
      "stateMutability": "nonpayable",
      "type": "function"
    },
    {
      "inputs": [
        {
          "internalType": "address",
          "name": "nextVersionContractAddress",
          "type": "address"
        }
      ],
      "name": "upgradeToNextVersion",
      "outputs": [],
      "stateMutability": "nonpayable",
      "type": "function"
    }
  ],
  "bytecode": "0x608060405260058055600a600655604051620046ff380380620046ff8339810160408190526200002f9162000278565b6200003a336200014b565b6000805460ff60a01b1916905560018055604080516080810190915260538082526200007b9190620046ac60208301396200019b60201b62002dd21760201c565b620000c76040518060400160405280601481526020017f73656e64546f6b656e416464726573733a20257300000000000000000000000081525084620001e960201b62002e151760201c565b62000108604051806040016040528060128152602001714342546f6b656e416464726573733a20257360701b81525083620001e960201b62002e151760201c565b600280546001600160a01b039485166001600160a01b03199182161790915560038054938516938216939093179092556004805491909316911617905562000357565b600080546001600160a01b038381166001600160a01b0319831681178455604051919092169283917f8be0079c531659141344cd1fd0a4f28419497f9722a3daafe3b4186f6b6457e09190a35050565b620001e681604051602401620001b291906200030f565b60408051601f198184030181529190526020810180516001600160e01b0390811663104c13eb60e21b179091526200023a16565b50565b620002368282604051602401620002029291906200032b565b60408051601f198184030181529190526020810180516001600160e01b0390811663319af33360e01b179091526200023a16565b5050565b80516a636f6e736f6c652e6c6f67602083016000808483855afa5050505050565b80516001600160a01b03811681146200027357600080fd5b919050565b6000806000606084860312156200028d578283fd5b62000298846200025b565b9250620002a8602085016200025b565b9150620002b8604085016200025b565b90509250925092565b60008151808452815b81811015620002e857602081850181015186830182015201620002ca565b81811115620002fa5782602083870101525b50601f01601f19169290920160200192915050565b602081526000620003246020830184620002c1565b9392505050565b604081526000620003406040830185620002c1565b905060018060a01b03831660208301529392505050565b61434580620003676000396000f3fe60806040526004361061011e5760003560e01c8063931342f9116100a0578063dbf3fb9e11610064578063dbf3fb9e1461030c578063dd03ff8f14610339578063e648721814610366578063e911b68214610388578063f2fde38b146103a857600080fd5b8063931342f91461025d578063aa387cfa1461027d578063bcc5f88a1461029d578063c4cf21e8146102bd578063d9c3e243146102ec57600080fd5b80637054a2df116100e75780637054a2df146101c9578063715018a6146101e957806373fcd996146101fe5780638456cb59146102205780638da5cb5b1461023557600080fd5b8062738474146101235780631db2da561461014557806323c56329146101655780633f4ba83a146101855780635c975abb1461019a575b600080fd5b34801561012f57600080fd5b5061014361013e366004613b26565b6103c8565b005b34801561015157600080fd5b5061014361016036600461399d565b610c64565b34801561017157600080fd5b50610143610180366004613c7e565b610df1565b34801561019157600080fd5b50610143610dfe565b3480156101a657600080fd5b50600054600160a01b900460ff1660405190151581526020015b60405180910390f35b6101dc6101d7366004613924565b610e10565b6040516101c091906140b9565b3480156101f557600080fd5b50610143611bbf565b34801561020a57600080fd5b50610213611bd1565b6040516101c09190613ee6565b34801561022c57600080fd5b50610143611d66565b34801561024157600080fd5b506000546040516001600160a01b0390911681526020016101c0565b34801561026957600080fd5b50610143610278366004613acb565b611d76565b34801561028957600080fd5b50610143610298366004613c7e565b611e39565b3480156102a957600080fd5b506101436102b8366004613c21565b611e46565b3480156102c957600080fd5b506102dd6102d83660046138f2565b611ef7565b6040516101c093929190614059565b3480156102f857600080fd5b506101436103073660046138d8565b612292565b34801561031857600080fd5b5061032c610327366004613a90565b6127ac565b6040516101c09190614022565b34801561034557600080fd5b506103596103543660046138d8565b612831565b6040516101c09190613e72565b34801561037257600080fd5b5061037b6128e5565b6040516101c09190613e85565b34801561039457600080fd5b506101436103a33660046138d8565b612a19565b3480156103b457600080fd5b506101436103c33660046138d8565b612d59565b6103d0612e5e565b836000106104305760405162461bcd60e51b815260206004820152602260248201527f746f6b656e416d6f756e74206d7573742062652067726561746572207468616e604482015261020360f41b60648201526084015b60405180910390fd5b8260001080156104415750600d8311155b6104b35760405162461bcd60e51b815260206004820152603e60248201527f636c61696d5175616e74697479206d757374206265206772656174657220746860448201527f616e203020616e64206c657373206f7220657175616c207468616e20313300006064820152608401610427565b805183146105195760405162461bcd60e51b815260206004820152602d60248201527f636c61696d5175616e74697479206d75737420626520657175616c20746f207060448201526c0eac4d6caf2e65cd8cadccee8d609b1b6064820152608401610427565b600060078760405161052b9190613e32565b9081526040805160209281900383018120608082018352805480835260018201546001600160a01b03811695840195909552600160a01b90940460ff1692820192909252600290910154606082015291501580159061058f5750604081015160ff16155b6105db5760405162461bcd60e51b815260206004820152601860248201527f496e76616c696420626c657373696e67207374617475732100000000000000006044820152606401610427565b80516105f3906105ec908690612eab565b8690612ec0565b6002546040516370a0823160e01b81523360048201526001600160a01b03909116906370a082319060240160206040518083038186803b15801561063657600080fd5b505afa15801561064a573d6000803e3d6000fd5b505050506040513d601f19601f8201168201806040525081019061066e9190613c96565b10156106e25760405162461bcd60e51b815260206004820152603e60248201527f596f757220746f6b656e20616d6f756e74206d7573742062652067726561746560448201527f72207468616e20796f752061726520747279696e6720746f2073656e642100006064820152608401610427565b6002546040516323b872dd60e01b8152336004820152306024820152604481018790526001600160a01b03909116906323b872dd90606401602060405180830381600087803b15801561073457600080fd5b505af1158015610748573d6000803e3d6000fd5b505050506040513d601f19601f8201168201806040525081019061076c9190613a70565b6107b85760405162461bcd60e51b815260206004820152601c60248201527f5472616e7366657220746f20636f6e7472616374206661696c656421000000006044820152606401610427565b600254602082015160608301516001600160a01b03909216916323b872dd91339161080790606490610801906107ee9083614195565b88516107fb908d90612eab565b90612eab565b90612ecc565b6040516001600160e01b031960e086901b1681526001600160a01b0393841660048201529290911660248301526044820152606401602060405180830381600087803b15801561085657600080fd5b505af115801561086a573d6000803e3d6000fd5b505050506040513d601f19601f8201168201806040525081019061088e9190613a70565b6108ec5760405162461bcd60e51b815260206004820152602960248201527f5472616e7366657220746f20746865206f776e6572206f6620626c657373696e60448201526867206661696c65642160b81b6064820152608401610427565b6002546001600160a01b03166323b872dd336109106000546001600160a01b031690565b610934606461080187606001516107fb89600001518d612eab90919063ffffffff16565b6040516001600160e01b031960e086901b1681526001600160a01b0393841660048201529290911660248301526044820152606401602060405180830381600087803b15801561098357600080fd5b505af1158015610997573d6000803e3d6000fd5b505050506040513d601f19601f820116820180604052508101906109bb9190613a70565b610a075760405162461bcd60e51b815260206004820181905260248201527f5472616e7366657220746f2074686520636f6e7472616374206661696c6564216044820152606401610427565b60086000336001600160a01b03166001600160a01b031681526020019081526020016000206040518060e00160405280886001600160a01b03168152602001898152602001428152602001878152602001868152602001856001811115610a7e57634e487b7160e01b600052602160045260246000fd5b81526000602091820181905283546001808201865594825290829020835160069092020180546001600160a01b0319166001600160a01b0390921691909117815582820151805193949193610adb93928501929190910190613683565b5060408201516002820155606082015160038201556080820151600482015560a082015160058201805460ff191660018381811115610b2a57634e487b7160e01b600052602160045260246000fd5b021790555060c09190910151600590910180549115156101000261ff001990921691909117905560005b8251811015610c1957600b6000886001600160a01b03166001600160a01b031681526020019081526020016000206040518060400160405280858481518110610bad57634e487b7160e01b600052603260045260246000fd5b6020908102919091018101516001600160a01b039081168352600092820183905284546001810186559483529181902083519401805493909101511515600160a01b026001600160a81b0319909316939091169290921717905580610c1181614217565b915050610b54565b50604080513381526001600160a01b03881660208201527f9028f7dd664be64a65e420291fdb6b56dec3b01e5433aa9675727b383cf1e5bc910160405180910390a150505050505050565b610c6c612ed8565b610c8d60405180606001604052806022815260200161428960229139612dd2565b60005b8151811015610dec576040518060800160405280838381518110610cc457634e487b7160e01b600052603260045260246000fd5b6020026020010151600001518152602001838381518110610cf557634e487b7160e01b600052603260045260246000fd5b6020026020010151602001516001600160a01b03168152602001600060ff168152602001838381518110610d3957634e487b7160e01b600052603260045260246000fd5b6020026020010151606001518152506007848381518110610d6a57634e487b7160e01b600052603260045260246000fd5b6020026020010151604051610d7f9190613e32565b9081526040805191829003602090810190922083518155918301516001830180549285015160ff16600160a01b026001600160a81b03199093166001600160a01b039092169190911791909117905560609091015160029091015580610de481614217565b915050610c90565b505050565b610df9612ed8565b600655565b610e06612ed8565b610e0e612f32565b565b610e5b6040518060c0016040528060006001600160a01b0316815260200160006001600160a01b03168152602001606081526020016000815260200160008152602001600081525090565b610e63612e5e565b60026001541415610eb65760405162461bcd60e51b815260206004820152601f60248201527f5265656e7472616e637947756172643a207265656e7472616e742063616c6c006044820152606401610427565b6002600181905550610ee16040518060600160405280603181526020016142df603191398686612f87565b610eec838386612fce565b610f2d5760405162461bcd60e51b8152602060048201526012602482015271496e76616c6964207369676e69747572652160701b6044820152606401610427565b610f61604051806040016040528060138152602001727369676e61747572652069732076616c69642160681b815250612dd2565b333b15610fc25760405162461bcd60e51b815260206004820152602960248201527f596f752063616e206e6f7420636c61696d20626c657373696e672066726f6d20604482015268636f6e74726163742160b81b6064820152608401610427565b6001600160a01b038516600090815260086020908152604080832080548251818502810185019093528083529192909190849084015b828210156111555760008481526020908190206040805160e081019091526006850290910180546001600160a01b031682526001810180549293919291840191611041906141dc565b80601f016020809104026020016040519081016040528092919081815260200182805461106d906141dc565b80156110ba5780601f1061108f576101008083540402835291602001916110ba565b820191906000526020600020905b81548152906001019060200180831161109d57829003601f168201915b5050509183525050600282015460208201526003820154604082015260048201546060820152600582015460809091019060ff16600181111561110d57634e487b7160e01b600052602160045260246000fd5b600181111561112c57634e487b7160e01b600052602160045260246000fd5b815260059190910154610100900460ff1615156020918201529082526001929092019101610ff8565b505050509050600081511161117c5760405162461bcd60e51b815260040161042790613fd8565b611184613707565b60005b825181101561121257866001600160a01b03168382815181106111ba57634e487b7160e01b600052603260045260246000fd5b6020026020010151600001516001600160a01b03161415611200578281815181106111f557634e487b7160e01b600052603260045260246000fd5b602002602001015191505b8061120a81614217565b915050611187565b5060c0810151156112655760405162461bcd60e51b815260206004820152601960248201527f5468697320626c657373696e67206973207265766f6b656421000000000000006044820152606401610427565b60008160600151116112895760405162461bcd60e51b815260040161042790613fd8565b6001600160a01b0386166000908152600a6020908152604080832080548251818502810185019093528083529192909190849084015b828210156113305760008481526020908190206040805160c0810182526006860290920180546001600160a01b031683526001808201548486015260028201549284019290925260038101546060840152600481015460808401526005015460a083015290835290920191016112bf565b505050509050816080015181511061138a5760405162461bcd60e51b815260206004820152601b60248201527f5468657265206973206e6f206d6f726520626c657373696e67732100000000006044820152606401610427565b6000805b825181101561147f57336001600160a01b03168382815181106113c157634e487b7160e01b600052603260045260246000fd5b6020026020010151600001516001600160a01b031614156114345760405162461bcd60e51b815260206004820152602760248201527f596f75206861766520616c726561647920636c61696d6564207468697320626c604482015266657373696e672160c81b6064820152608401610427565b82818151811061145457634e487b7160e01b600052603260045260246000fd5b6020026020010151604001518261146b919061414a565b91508061147781614217565b91505061138e565b506000808460a0015160018111156114a757634e487b7160e01b600052602160045260246000fd5b14156114c757608084015160608501516114c091612ecc565b905061156b565b60018460a0015160018111156114ed57634e487b7160e01b600052602160045260246000fd5b141561156b57600061150d8451866080015161313c90919063ffffffff16565b9050600061151b600a613148565b9050816001141561153c576060860151611535908561313c565b9250611568565b61156560026107fb600a610801856107fb886108018c8f6060015161313c90919063ffffffff16565b92505b50505b60006040518060c001604052808c6001600160a01b031681526020018b6001600160a01b03168152602001866020015181526020014281526020016115c56006546103e86115b99190614195565b6107fb866103e8612ecc565b81526020016115e56006546107fb6103e887612ecc90919063ffffffff16565b905233600090815260096020908152604080832080546001818101835591855293839020855160069095020180546001600160a01b039586166001600160a01b0319918216178255848701519282018054939096169216919091179093558301518051939450849361165d9260028501920190613683565b50606082015160038201556080820151600482015560a09091015160059182015554600090611698906107fb85670de0b6b3a7640000612ecc565b90506103e88111156116a957506103e75b600a60008c6001600160a01b03166001600160a01b031681526020019081526020016000206040518060c00160405280336001600160a01b031681526020014281526020018581526020016117136006546103e86117079190614195565b6107fb886103e8612ecc565b81526020016117336006546107fb6103e889612ecc90919063ffffffff16565b815260209081018490528254600180820185556000948552938290208351600692830290910180546001600160a01b0319166001600160a01b0392831617815592840151948301949094556040830151600280840191909155606084015160038401556080840151600484015560a0909301516005909201919091559054905491169063a9059cbb9033906117ce90611707906103e8614195565b6040516001600160e01b031960e085901b1681526001600160a01b0390921660048301526024820152604401602060405180830381600087803b15801561181457600080fd5b505af1158015611828573d6000803e3d6000fd5b505050506040513d601f19601f8201168201806040525081019061184c9190613a70565b6118985760405162461bcd60e51b815260206004820152601760248201527f436c61696d2074686520746f6b656e206661696c6564210000000000000000006044820152606401610427565b6002546001600160a01b031663a9059cbb6118bb6000546001600160a01b031690565b6006546118ce906107fb886103e8612ecc565b6040516001600160e01b031960e085901b1681526001600160a01b0390921660048301526024820152604401602060405180830381600087803b15801561191457600080fd5b505af1158015611928573d6000803e3d6000fd5b505050506040513d601f19601f8201168201806040525081019061194c9190613a70565b61198e5760405162461bcd60e51b815260206004820152601360248201527254616e7366657220746178206661696c65642160681b6044820152606401610427565b6003546040516370a0823160e01b815230600482015282916001600160a01b0316906370a082319060240160206040518083038186803b1580156119d157600080fd5b505afa1580156119e5573d6000803e3d6000fd5b505050506040513d601f19601f82011682018060405250810190611a099190613c96565b10611ae05760035460405163a9059cbb60e01b81526001600160a01b038e81166004830152602482018490529091169063a9059cbb90604401602060405180830381600087803b158015611a5c57600080fd5b505af1158015611a70573d6000803e3d6000fd5b505050506040513d601f19601f82011682018060405250810190611a949190613a70565b611ae05760405162461bcd60e51b815260206004820152601760248201527f617761726420434220746f6b656e73206661696c6564210000000000000000006044820152606401610427565b600480546020880151604051631e1d900360e31b81526001600160a01b039092169263f0ec801892611b16923392909101613e4e565b602060405180830381600087803b158015611b3057600080fd5b505af1158015611b44573d6000803e3d6000fd5b505050506040513d601f19601f82011682018060405250810190611b689190613c96565b50604080516001600160a01b03808f1682528d1660208201527f411a457db9208c2357cddce37558ebfedc401243648449843470687d4e901442910160405180910390a150600180559a9950505050505050505050565b611bc7612ed8565b610e0e600061317f565b336000908152600860209081526040808320805482518185028101850190935280835260609492939192909184015b82821015611d5d5760008481526020908190206040805160e081019091526006850290910180546001600160a01b031682526001810180549293919291840191611c49906141dc565b80601f0160208091040260200160405190810160405280929190818152602001828054611c75906141dc565b8015611cc25780601f10611c9757610100808354040283529160200191611cc2565b820191906000526020600020905b815481529060010190602001808311611ca557829003601f168201915b5050509183525050600282015460208201526003820154604082015260048201546060820152600582015460809091019060ff166001811115611d1557634e487b7160e01b600052602160045260246000fd5b6001811115611d3457634e487b7160e01b600052602160045260246000fd5b815260059190910154610100900460ff1615156020918201529082526001929092019101611c00565b50505050905090565b611d6e612ed8565b610e0e6131cf565b611d7e612ed8565b611d9f60405180606001604052806022815260200161428960229139612dd2565b604080516080810182528381526001600160a01b0385166020820152600081830152606081018390529051600790611dd8908790613e32565b9081526040805191829003602090810190922083518155918301516001830180549285015160ff16600160a01b026001600160a81b03199093166001600160a01b039092169190911791909117905560609091015160029091015550505050565b611e41612ed8565b600555565b611e4e612ed8565b611e706040518060600160405280603481526020016142ab6034913985613212565b82600785604051611e819190613e32565b908152604051908190036020018120919091558290600790611ea4908790613e32565b908152602001604051809103902060010160146101000a81548160ff021916908360ff16021790555080600785604051611ede9190613e32565b9081526040519081900360200190206002015550505050565b604080516080810182526000808252602082018190529181018290526060810191909152611f23613707565b6001600160a01b0384166000908152600860209081526040808320805482518185028101850190935280835260609493849084015b828210156120b55760008481526020908190206040805160e081019091526006850290910180546001600160a01b031682526001810180549293919291840191611fa1906141dc565b80601f0160208091040260200160405190810160405280929190818152602001828054611fcd906141dc565b801561201a5780601f10611fef5761010080835404028352916020019161201a565b820191906000526020600020905b815481529060010190602001808311611ffd57829003601f168201915b5050509183525050600282015460208201526003820154604082015260048201546060820152600582015460809091019060ff16600181111561206d57634e487b7160e01b600052602160045260246000fd5b600181111561208c57634e487b7160e01b600052602160045260246000fd5b815260059190910154610100900460ff1615156020918201529082526001929092019101611f58565b5050505090506120c3613707565b60005b825181101561215157866001600160a01b03168382815181106120f957634e487b7160e01b600052603260045260246000fd5b6020026020010151600001516001600160a01b0316141561213f5782818151811061213457634e487b7160e01b600052603260045260246000fd5b602002602001015191505b8061214981614217565b9150506120c6565b5060008160600151116121765760405162461bcd60e51b815260040161042790613fd8565b6001600160a01b0386166000908152600a6020908152604080832080548251818502810185019093528083529192909190849084015b8282101561221d5760008481526020908190206040805160c0810182526006860290920180546001600160a01b031683526001808201548486015260028201549284019290925260038101546060840152600481015460808401526005015460a083015290835290920191016121ac565b505050509050600782602001516040516122379190613e32565b90815260408051602092819003830181206080820183528054825260018101546001600160a01b03811694830194909452600160a01b90930460ff169181019190915260029091015460608201529891975095509350505050565b61229a612e5e565b6001600160a01b0381166000908152600a6020908152604080832080548251818502810185019093528083529192909190849084015b828210156123415760008481526020908190206040805160c0810182526006860290920180546001600160a01b031683526001808201548486015260028201549284019290925260038101546060840152600481015460808401526005015460a083015290835290920191016122d0565b50505050905080516000146123be5760405162461bcd60e51b815260206004820152603c60248201527f596f757220626c657373696e6720697320636c61696d696e67206279206f746860448201527f6572732e2043616e206e6f74207265766f6b6520616e796d6f726521000000006064820152608401610427565b33600090815260086020908152604080832080548251818502810185019093528083529192909190849084015b828210156125485760008481526020908190206040805160e081019091526006850290910180546001600160a01b031682526001810180549293919291840191612434906141dc565b80601f0160208091040260200160405190810160405280929190818152602001828054612460906141dc565b80156124ad5780601f10612482576101008083540402835291602001916124ad565b820191906000526020600020905b81548152906001019060200180831161249057829003601f168201915b5050509183525050600282015460208201526003820154604082015260048201546060820152600582015460809091019060ff16600181111561250057634e487b7160e01b600052602160045260246000fd5b600181111561251f57634e487b7160e01b600052602160045260246000fd5b815260059190910154610100900460ff16151560209182015290825260019290920191016123eb565b505050509050600081511161256f5760405162461bcd60e51b815260040161042790613fd8565b612577613707565b6000805b835181101561260957856001600160a01b03168482815181106125ae57634e487b7160e01b600052603260045260246000fd5b6020026020010151600001516001600160a01b031614156125f7578381815181106125e957634e487b7160e01b600052603260045260246000fd5b602002602001015192508091505b8061260181614217565b91505061257b565b50600082606001511161262e5760405162461bcd60e51b815260040161042790613fd8565b600254606083015160405163a9059cbb60e01b815233600482015260248101919091526001600160a01b039091169063a9059cbb90604401602060405180830381600087803b15801561268057600080fd5b505af1158015612694573d6000803e3d6000fd5b505050506040513d601f19601f820116820180604052508101906126b89190613a70565b6127045760405162461bcd60e51b815260206004820152601f60248201527f5472616e73666572206261636b20746f2073656e646572206661696c656421006044820152606401610427565b3360009081526008602052604090208054600191908390811061273757634e487b7160e01b600052603260045260246000fd5b600091825260209182902060056006909202010180549215156101000261ff001990931692909217909155604080513381526001600160a01b038816928101929092527faf0a59ad678f81ba23bb66973fedd52a279df960fc232c3bd4f56faf8d7945fb910160405180910390a15050505050565b60408051608081018252600080825260208201819052818301819052606082015290516007906127dd908490613e32565b90815260408051602092819003830181206080820183528054825260018101546001600160a01b03811694830194909452600160a01b90930460ff1691810191909152600290910154606082015292915050565b6001600160a01b0381166000908152600a60209081526040808320805482518185028101850190935280835260609492939192909184015b828210156128da5760008481526020908190206040805160c0810182526006860290920180546001600160a01b031683526001808201548486015260028201549284019290925260038101546060840152600481015460808401526005015460a08301529083529092019101612869565b505050509050919050565b336000908152600960209081526040808320805482518185028101850190935280835260609492939192909184015b82821015611d5d5760008481526020908190206040805160c0810182526006860290920180546001600160a01b039081168452600182015416938301939093526002830180549293929184019161296a906141dc565b80601f0160208091040260200160405190810160405280929190818152602001828054612996906141dc565b80156129e35780601f106129b8576101008083540402835291602001916129e3565b820191906000526020600020905b8154815290600101906020018083116129c657829003601f168201915b50505050508152602001600382015481526020016004820154815260200160058201548152505081526020019060010190612914565b612a21612ed8565b612a29613257565b6003546040516370a0823160e01b81523060048201526001600160a01b039091169063a9059cbb90839083906370a082319060240160206040518083038186803b158015612a7657600080fd5b505afa158015612a8a573d6000803e3d6000fd5b505050506040513d601f19601f82011682018060405250810190612aae9190613c96565b6040516001600160e01b031960e085901b1681526001600160a01b0390921660048301526024820152604401602060405180830381600087803b158015612af457600080fd5b505af1158015612b08573d6000803e3d6000fd5b505050506040513d601f19601f82011682018060405250810190612b2c9190613a70565b612b8d5760405162461bcd60e51b815260206004820152602c60248201527f5472616e736665722043425420746f206e6578742076657273696f6e2061646460448201526b72657373206661696c65642160a01b6064820152608401610427565b6002546001600160a01b031663a9059cbb612bb06000546001600160a01b031690565b6002546040516370a0823160e01b81523060048201526001600160a01b03909116906370a082319060240160206040518083038186803b158015612bf357600080fd5b505afa158015612c07573d6000803e3d6000fd5b505050506040513d601f19601f82011682018060405250810190612c2b9190613c96565b6040516001600160e01b031960e085901b1681526001600160a01b0390921660048301526024820152604401602060405180830381600087803b158015612c7157600080fd5b505af1158015612c85573d6000803e3d6000fd5b505050506040513d601f19601f82011682018060405250810190612ca99190613a70565b612cf55760405162461bcd60e51b815260206004820152601e60248201527f5472616e73666572204255534420746f206f776e6572206661696c65642100006044820152606401610427565b6004805460405163f2fde38b60e01b81526001600160a01b038481169382019390935291169063f2fde38b90602401600060405180830381600087803b158015612d3e57600080fd5b505af1158015612d52573d6000803e3d6000fd5b5050505050565b612d61612ed8565b6001600160a01b038116612dc65760405162461bcd60e51b815260206004820152602660248201527f4f776e61626c653a206e6577206f776e657220697320746865207a65726f206160448201526564647265737360d01b6064820152608401610427565b612dcf8161317f565b50565b612dcf81604051602401612de69190613f3a565b60408051601f198184030181529190526020810180516001600160e01b031663104c13eb60e21b1790526132a7565b612e5a8282604051602401612e2b929190613f4d565b60408051601f198184030181529190526020810180516001600160e01b031663319af33360e01b1790526132a7565b5050565b600054600160a01b900460ff1615610e0e5760405162461bcd60e51b815260206004820152601060248201526f14185d5cd8589b194e881c185d5cd95960821b6044820152606401610427565b6000612eb78284614176565b90505b92915050565b6000612eb7828461414a565b6000612eb78284614162565b6000546001600160a01b03163314610e0e5760405162461bcd60e51b815260206004820181905260248201527f4f776e61626c653a2063616c6c6572206973206e6f7420746865206f776e65726044820152606401610427565b612f3a613257565b6000805460ff60a01b191690557f5db9ee0a495bf2e6ff9c91a7834c1ba4fdd244a5e8aa4e537bd38aeae4b073aa335b6040516001600160a01b03909116815260200160405180910390a1565b610dec838383604051602401612f9f93929190613f77565b60408051601f198184030181529190526020810180516001600160e01b03166307e763af60e51b1790526132a7565b600080612fdb85856132c8565b905060005b6001600160a01b0384166000908152600b602052604090205481101561312e576001600160a01b038481166000908152600b602052604090208054918416918390811061303d57634e487b7160e01b600052603260045260246000fd5b6000918252602090912001546001600160a01b03161480156130aa57506001600160a01b0384166000908152600b6020526040902080548290811061309257634e487b7160e01b600052603260045260246000fd5b600091825260209091200154600160a01b900460ff16155b1561311c576001600160a01b0384166000908152600b60205260409020805460019190839081106130eb57634e487b7160e01b600052603260045260246000fd5b60009182526020909120018054911515600160a01b0260ff60a01b1990921691909117905550600191506131359050565b8061312681614217565b915050612fe0565b5060009150505b9392505050565b6000612eb78284614195565b60008082613157600143614195565b613162919040614232565b9050801580613171575080600a145b15612eba5750600192915050565b600080546001600160a01b038381166001600160a01b0319831681178455604051919092169283917f8be0079c531659141344cd1fd0a4f28419497f9722a3daafe3b4186f6b6457e09190a35050565b6131d7612e5e565b6000805460ff60a01b1916600160a01b1790557f62e78cea01bee320cd4e420270b5ea74000d11b0c9f74754ebdbfc544b05a258612f6a3390565b612e5a8282604051602401613228929190613faa565b60408051601f198184030181529190526020810180516001600160e01b0316634b5c427760e01b1790526132a7565b600054600160a01b900460ff16610e0e5760405162461bcd60e51b815260206004820152601460248201527314185d5cd8589b194e881b9bdd081c185d5cd95960621b6044820152606401610427565b80516a636f6e736f6c652e6c6f67602083016000808483855afa5050505050565b60008060006132d785856132ec565b915091506132e48161335c565b509392505050565b6000808251604114156133235760208301516040840151606085015160001a6133178782858561355d565b94509450505050613355565b82516040141561334d576020830151604084015161334286838361364a565b935093505050613355565b506000905060025b9250929050565b600081600481111561337e57634e487b7160e01b600052602160045260246000fd5b14156133875750565b60018160048111156133a957634e487b7160e01b600052602160045260246000fd5b14156133f75760405162461bcd60e51b815260206004820152601860248201527f45434453413a20696e76616c6964207369676e617475726500000000000000006044820152606401610427565b600281600481111561341957634e487b7160e01b600052602160045260246000fd5b14156134675760405162461bcd60e51b815260206004820152601f60248201527f45434453413a20696e76616c6964207369676e6174757265206c656e677468006044820152606401610427565b600381600481111561348957634e487b7160e01b600052602160045260246000fd5b14156134e25760405162461bcd60e51b815260206004820152602260248201527f45434453413a20696e76616c6964207369676e6174757265202773272076616c604482015261756560f01b6064820152608401610427565b600481600481111561350457634e487b7160e01b600052602160045260246000fd5b1415612dcf5760405162461bcd60e51b815260206004820152602260248201527f45434453413a20696e76616c6964207369676e6174757265202776272076616c604482015261756560f01b6064820152608401610427565b6000807f7fffffffffffffffffffffffffffffff5d576e7357a4501ddfe92f46681b20a08311156135945750600090506003613641565b8460ff16601b141580156135ac57508460ff16601c14155b156135bd5750600090506004613641565b6040805160008082526020820180845289905260ff881692820192909252606081018690526080810185905260019060a0016020604051602081039080840390855afa158015613611573d6000803e3d6000fd5b5050604051601f1901519150506001600160a01b03811661363a57600060019250925050613641565b9150600090505b94509492505050565b6000806001600160ff1b0383168161366760ff86901c601b61414a565b90506136758782888561355d565b935093505050935093915050565b82805461368f906141dc565b90600052602060002090601f0160209004810192826136b157600085556136f7565b82601f106136ca57805160ff19168380011785556136f7565b828001600101855582156136f7579182015b828111156136f75782518255916020019190600101906136dc565b5061370392915061376c565b5090565b6040518060e0016040528060006001600160a01b03168152602001606081526020016000815260200160008152602001600081526020016000600181111561375f57634e487b7160e01b600052602160045260246000fd5b8152600060209091015290565b5b80821115613703576000815560010161376d565b600067ffffffffffffffff83111561379b5761379b614272565b6137ae601f8401601f19166020016140f5565b90508281528383830111156137c257600080fd5b828260208301376000602084830101529392505050565b80356001600160a01b03811681146137f057600080fd5b919050565b600082601f830112613805578081fd5b8135602061381a61381583614126565b6140f5565b80838252828201915082860187848660071b8901011115613839578586fd5b855b8581101561389b57608080838b031215613853578788fd5b61385b6140cc565b8335815261386a8785016137d9565b87820152604061387b8186016138c7565b90820152606084810135908201528552938501939091019060010161383b565b5090979650505050505050565b600082601f8301126138b8578081fd5b612eb783833560208501613781565b803560ff811681146137f057600080fd5b6000602082840312156138e9578081fd5b612eb7826137d9565b60008060408385031215613904578081fd5b61390d836137d9565b915061391b602084016137d9565b90509250929050565b60008060008060808587031215613939578182fd5b613942856137d9565b9350613950602086016137d9565b925060408501359150606085013567ffffffffffffffff811115613972578182fd5b8501601f81018713613982578182fd5b61399187823560208401613781565b91505092959194509250565b600080604083850312156139af578182fd5b823567ffffffffffffffff808211156139c6578384fd5b818501915085601f8301126139d9578384fd5b813560206139e961381583614126565b8083825282820191508286018a848660051b8901011115613a08578889fd5b885b85811015613a4157813587811115613a20578a8bfd5b613a2e8d87838c01016138a8565b8552509284019290840190600101613a0a565b50909750505086013592505080821115613a59578283fd5b50613a66858286016137f5565b9150509250929050565b600060208284031215613a81578081fd5b81518015158114613135578182fd5b600060208284031215613aa1578081fd5b813567ffffffffffffffff811115613ab7578182fd5b613ac3848285016138a8565b949350505050565b60008060008060808587031215613ae0578182fd5b843567ffffffffffffffff811115613af6578283fd5b613b02878288016138a8565b945050613b11602086016137d9565b93969395505050506040820135916060013590565b60008060008060008060c08789031215613b3e578384fd5b863567ffffffffffffffff80821115613b55578586fd5b613b618a838b016138a8565b975060209150613b72828a016137d9565b96506040890135955060608901359450608089013560028110613b93578485fd5b935060a089013581811115613ba6578384fd5b89019050601f81018a13613bb8578283fd5b8035613bc661381582614126565b8082825284820191508484018d868560051b8701011115613be5578687fd5b8694505b83851015613c0e57613bfa816137d9565b835260019490940193918501918501613be9565b5080955050505050509295509295509295565b60008060008060808587031215613c36578182fd5b843567ffffffffffffffff811115613c4c578283fd5b613c58878288016138a8565b94505060208501359250613c6e604086016138c7565b9396929550929360600135925050565b600060208284031215613c8f578081fd5b5035919050565b600060208284031215613ca7578081fd5b5051919050565b6000815180845260208085019450808401835b83811015613d1a57815180516001600160a01b03168852838101518489015260408082015190890152606080820151908901526080808201519089015260a0908101519088015260c09096019590820190600101613cc1565b509495945050505050565b60008151808452613d3d8160208601602086016141ac565b601f01601f19169290920160200192915050565b600060018060a01b0380835116845280602084015116602085015250604082015160c06040850152613d8660c0850182613d25565b9050606083015160608501526080830151608085015260a083015160a08501528091505092915050565b60018060a01b0381511682526000602082015160e06020850152613dd760e0850182613d25565b905060408301516040850152606083015160608501526080830151608085015260a083015160028110613e1857634e487b7160e01b83526021600452602483fd5b8060a08601525060c08301516132e460c086018215159052565b60008251613e448184602087016141ac565b9190910192915050565b6001600160a01b0383168152604060208201819052600090613ac390830184613d25565b602081526000612eb76020830184613cae565b6000602080830181845280855180835260408601915060408160051b8701019250838701855b82811015613ed957603f19888603018452613ec7858351613d51565b94509285019290850190600101613eab565b5092979650505050505050565b6000602080830181845280855180835260408601915060408160051b8701019250838701855b82811015613ed957603f19888603018452613f28858351613db0565b94509285019290850190600101613f0c565b602081526000612eb76020830184613d25565b604081526000613f606040830185613d25565b905060018060a01b03831660208301529392505050565b606081526000613f8a6060830186613d25565b6001600160a01b0394851660208401529290931660409091015292915050565b604081526000613fbd6040830185613d25565b8281036020840152613fcf8185613d25565b95945050505050565b6020808252602a908201527f5468657265206973206e6f20626c657373696e6720666f756e64206f6e20746860408201526969732073656e6465722160b01b606082015260800190565b815181526020808301516001600160a01b03169082015260408083015160ff16908201526060808301519082015260808101612eba565b835181526020808501516001600160a01b03169082015260408085015160ff16908201526060808501519082015260c06080820152600061409d60c0830185613db0565b82810360a08401526140af8185613cae565b9695505050505050565b602081526000612eb76020830184613d51565b6040516080810167ffffffffffffffff811182821017156140ef576140ef614272565b60405290565b604051601f8201601f1916810167ffffffffffffffff8111828210171561411e5761411e614272565b604052919050565b600067ffffffffffffffff82111561414057614140614272565b5060051b60200190565b6000821982111561415d5761415d614246565b500190565b6000826141715761417161425c565b500490565b600081600019048311821515161561419057614190614246565b500290565b6000828210156141a7576141a7614246565b500390565b60005b838110156141c75781810151838201526020016141af565b838111156141d6576000848401525b50505050565b600181811c908216806141f057607f821691505b6020821081141561421157634e487b7160e01b600052602260045260246000fd5b50919050565b600060001982141561422b5761422b614246565b5060010190565b6000826142415761424161425c565b500690565b634e487b7160e01b600052601160045260246000fd5b634e487b7160e01b600052601260045260246000fd5b634e487b7160e01b600052604160045260246000fdfe737461727420746f2061646420626c657373696e6720746f2074686520706f6f6c21737461727420746f2072656d6f7665206f6e6520626c657373696e672066726f6d2074686520706f6f6c2120696d6167653a2573737461727420746f20636c61696d20626c657373696e67212073656e6465723a25732c20626c657373696e6749443a2573a264697066735822122028b15e9fecbed14554af3ad02be792831047b051d646d9d329f451a4c75aa33f64736f6c63430008040033426c657373696e6720697320746865206d6f737420756e6976657273616c2068756d616e2065787072657373696f6e206f6620656d6f74696f6e2c20616e6420776520617265204e4654697a696e6720697421",
  "linkReferences": {},
  "deployedLinkReferences": {}
}