{
  "_format": "hh-sol-artifact-1",
  "contractName": "CryptoBlessing",
  "sourceName": "contracts/CryptoBlessing.sol",
  "abi": [
    {
      "inputs": [
        {
          "internalType": "address",
          "name": "_sendTokenAddress",
          "type": "address"
        },
        {
          "internalType": "address",
          "name": "_cryptoBlessingTokenAddress",
          "type": "address"
        },
        {
          "internalType": "address",
          "name": "_cryptoBlessingNFTAddress",
          "type": "address"
        }
      ],
      "stateMutability": "payable",
      "type": "constructor"
    },
    {
      "anonymous": false,
      "inputs": [
        {
          "indexed": true,
          "internalType": "address",
          "name": "previousOwner",
          "type": "address"
        },
        {
          "indexed": true,
          "internalType": "address",
          "name": "newOwner",
          "type": "address"
        }
      ],
      "name": "OwnershipTransferred",
      "type": "event"
    },
    {
      "anonymous": false,
      "inputs": [
        {
          "indexed": false,
          "internalType": "address",
          "name": "account",
          "type": "address"
        }
      ],
      "name": "Paused",
      "type": "event"
    },
    {
      "anonymous": false,
      "inputs": [
        {
          "indexed": false,
          "internalType": "address",
          "name": "account",
          "type": "address"
        }
      ],
      "name": "Unpaused",
      "type": "event"
    },
    {
      "anonymous": false,
      "inputs": [
        {
          "indexed": false,
          "internalType": "address",
          "name": "sender",
          "type": "address"
        },
        {
          "indexed": false,
          "internalType": "address",
          "name": "blessingID",
          "type": "address"
        }
      ],
      "name": "claimerClaimComplete",
      "type": "event"
    },
    {
      "anonymous": false,
      "inputs": [
        {
          "indexed": false,
          "internalType": "address",
          "name": "sender",
          "type": "address"
        },
        {
          "indexed": false,
          "internalType": "address",
          "name": "blessingID",
          "type": "address"
        }
      ],
      "name": "senderRevokeComplete",
      "type": "event"
    },
    {
      "anonymous": false,
      "inputs": [
        {
          "indexed": false,
          "internalType": "address",
          "name": "sender",
          "type": "address"
        },
        {
          "indexed": false,
          "internalType": "address",
          "name": "blessingID",
          "type": "address"
        }
      ],
      "name": "senderSendCompleted",
      "type": "event"
    },
    {
      "inputs": [
        {
          "internalType": "string[]",
          "name": "images",
          "type": "string[]"
        },
        {
          "components": [
            {
              "internalType": "uint256",
              "name": "price",
              "type": "uint256"
            },
            {
              "internalType": "address",
              "name": "owner",
              "type": "address"
            },
            {
              "internalType": "uint8",
              "name": "deleted",
              "type": "uint8"
            },
            {
              "internalType": "uint256",
              "name": "taxRate",
              "type": "uint256"
            }
          ],
          "internalType": "struct CryptoBlessing.Blessing[]",
          "name": "blessings",
          "type": "tuple[]"
        }
      ],
      "name": "batchUpdateBlessing",
      "outputs": [],
      "stateMutability": "nonpayable",
      "type": "function"
    },
    {
      "inputs": [
        {
          "internalType": "address",
          "name": "sender",
          "type": "address"
        },
        {
          "internalType": "address",
          "name": "blessingID",
          "type": "address"
        },
        {
          "internalType": "bytes32",
          "name": "hash",
          "type": "bytes32"
        },
        {
          "internalType": "bytes",
          "name": "signature",
          "type": "bytes"
        }
      ],
      "name": "claimBlessing",
      "outputs": [
        {
          "components": [
            {
              "internalType": "address",
              "name": "sender",
              "type": "address"
            },
            {
              "internalType": "address",
              "name": "blessingID",
              "type": "address"
            },
            {
              "internalType": "string",
              "name": "blessingImage",
              "type": "string"
            },
            {
              "internalType": "uint256",
              "name": "claimTimestamp",
              "type": "uint256"
            },
            {
              "internalType": "uint256",
              "name": "claimAmount",
              "type": "uint256"
            },
            {
              "internalType": "uint256",
              "name": "taxAmount",
              "type": "uint256"
            }
          ],
          "internalType": "struct CryptoBlessing.ClaimerBlessing",
          "name": "",
          "type": "tuple"
        }
      ],
      "stateMutability": "payable",
      "type": "function"
    },
    {
      "inputs": [
        {
          "internalType": "address",
          "name": "sender",
          "type": "address"
        },
        {
          "internalType": "address",
          "name": "blessingID",
          "type": "address"
        }
      ],
      "name": "getAllInfoOfBlessing",
      "outputs": [
        {
          "components": [
            {
              "internalType": "uint256",
              "name": "price",
              "type": "uint256"
            },
            {
              "internalType": "address",
              "name": "owner",
              "type": "address"
            },
            {
              "internalType": "uint8",
              "name": "deleted",
              "type": "uint8"
            },
            {
              "internalType": "uint256",
              "name": "taxRate",
              "type": "uint256"
            }
          ],
          "internalType": "struct CryptoBlessing.Blessing",
          "name": "",
          "type": "tuple"
        },
        {
          "components": [
            {
              "internalType": "address",
              "name": "blessingID",
              "type": "address"
            },
            {
              "internalType": "string",
              "name": "blessingImage",
              "type": "string"
            },
            {
              "internalType": "uint256",
              "name": "sendTimestamp",
              "type": "uint256"
            },
            {
              "internalType": "uint256",
              "name": "tokenAmount",
              "type": "uint256"
            },
            {
              "internalType": "uint256",
              "name": "claimQuantity",
              "type": "uint256"
            },
            {
              "internalType": "enum CryptoBlessing.ClaimType",
              "name": "claimType",
              "type": "uint8"
            },
            {
              "internalType": "bool",
              "name": "revoked",
              "type": "bool"
            }
          ],
          "internalType": "struct CryptoBlessing.SenderBlessing",
          "name": "",
          "type": "tuple"
        },
        {
          "components": [
            {
              "internalType": "address",
              "name": "claimer",
              "type": "address"
            },
            {
              "internalType": "uint256",
              "name": "claimTimestamp",
              "type": "uint256"
            },
            {
              "internalType": "uint256",
              "name": "distributedAmount",
              "type": "uint256"
            },
            {
              "internalType": "uint256",
              "name": "claimAmount",
              "type": "uint256"
            },
            {
              "internalType": "uint256",
              "name": "taxAmount",
              "type": "uint256"
            },
            {
              "internalType": "uint256",
              "name": "CBTokenAwardToSenderAmount",
              "type": "uint256"
            }
          ],
          "internalType": "struct CryptoBlessing.BlessingClaimStatus[]",
          "name": "",
          "type": "tuple[]"
        }
      ],
      "stateMutability": "view",
      "type": "function"
    },
    {
      "inputs": [
        {
          "internalType": "string",
          "name": "image",
          "type": "string"
        }
      ],
      "name": "getBlessing",
      "outputs": [
        {
          "components": [
            {
              "internalType": "uint256",
              "name": "price",
              "type": "uint256"
            },
            {
              "internalType": "address",
              "name": "owner",
              "type": "address"
            },
            {
              "internalType": "uint8",
              "name": "deleted",
              "type": "uint8"
            },
            {
              "internalType": "uint256",
              "name": "taxRate",
              "type": "uint256"
            }
          ],
          "internalType": "struct CryptoBlessing.Blessing",
          "name": "",
          "type": "tuple"
        }
      ],
      "stateMutability": "view",
      "type": "function"
    },
    {
      "inputs": [
        {
          "internalType": "address",
          "name": "_blessingID",
          "type": "address"
        }
      ],
      "name": "getBlessingClaimingStatus",
      "outputs": [
        {
          "components": [
            {
              "internalType": "address",
              "name": "claimer",
              "type": "address"
            },
            {
              "internalType": "uint256",
              "name": "claimTimestamp",
              "type": "uint256"
            },
            {
              "internalType": "uint256",
              "name": "distributedAmount",
              "type": "uint256"
            },
            {
              "internalType": "uint256",
              "name": "claimAmount",
              "type": "uint256"
            },
            {
              "internalType": "uint256",
              "name": "taxAmount",
              "type": "uint256"
            },
            {
              "internalType": "uint256",
              "name": "CBTokenAwardToSenderAmount",
              "type": "uint256"
            }
          ],
          "internalType": "struct CryptoBlessing.BlessingClaimStatus[]",
          "name": "",
          "type": "tuple[]"
        }
      ],
      "stateMutability": "view",
      "type": "function"
    },
    {
      "inputs": [
        {
          "internalType": "address",
          "name": "_blessingID",
          "type": "address"
        }
      ],
      "name": "getBlessingPubkeyStatus",
      "outputs": [
        {
          "components": [
            {
              "internalType": "address",
              "name": "pubkey",
              "type": "address"
            },
            {
              "internalType": "bool",
              "name": "used",
              "type": "bool"
            }
          ],
          "internalType": "struct CryptoBlessing.ClaimPubkeyStatus[]",
          "name": "",
          "type": "tuple[]"
        }
      ],
      "stateMutability": "view",
      "type": "function"
    },
    {
      "inputs": [],
      "name": "getMyClaimedBlessings",
      "outputs": [
        {
          "components": [
            {
              "internalType": "address",
              "name": "sender",
              "type": "address"
            },
            {
              "internalType": "address",
              "name": "blessingID",
              "type": "address"
            },
            {
              "internalType": "string",
              "name": "blessingImage",
              "type": "string"
            },
            {
              "internalType": "uint256",
              "name": "claimTimestamp",
              "type": "uint256"
            },
            {
              "internalType": "uint256",
              "name": "claimAmount",
              "type": "uint256"
            },
            {
              "internalType": "uint256",
              "name": "taxAmount",
              "type": "uint256"
            }
          ],
          "internalType": "struct CryptoBlessing.ClaimerBlessing[]",
          "name": "",
          "type": "tuple[]"
        }
      ],
      "stateMutability": "view",
      "type": "function"
    },
    {
      "inputs": [],
      "name": "getMySendedBlessings",
      "outputs": [
        {
          "components": [
            {
              "internalType": "address",
              "name": "blessingID",
              "type": "address"
            },
            {
              "internalType": "string",
              "name": "blessingImage",
              "type": "string"
            },
            {
              "internalType": "uint256",
              "name": "sendTimestamp",
              "type": "uint256"
            },
            {
              "internalType": "uint256",
              "name": "tokenAmount",
              "type": "uint256"
            },
            {
              "internalType": "uint256",
              "name": "claimQuantity",
              "type": "uint256"
            },
            {
              "internalType": "enum CryptoBlessing.ClaimType",
              "name": "claimType",
              "type": "uint8"
            },
            {
              "internalType": "bool",
              "name": "revoked",
              "type": "bool"
            }
          ],
          "internalType": "struct CryptoBlessing.SenderBlessing[]",
          "name": "",
          "type": "tuple[]"
        }
      ],
      "stateMutability": "view",
      "type": "function"
    },
    {
      "inputs": [],
      "name": "owner",
      "outputs": [
        {
          "internalType": "address",
          "name": "",
          "type": "address"
        }
      ],
      "stateMutability": "view",
      "type": "function"
    },
    {
      "inputs": [],
      "name": "pause",
      "outputs": [],
      "stateMutability": "nonpayable",
      "type": "function"
    },
    {
      "inputs": [],
      "name": "paused",
      "outputs": [
        {
          "internalType": "bool",
          "name": "",
          "type": "bool"
        }
      ],
      "stateMutability": "view",
      "type": "function"
    },
    {
      "inputs": [],
      "name": "renounceOwnership",
      "outputs": [],
      "stateMutability": "nonpayable",
      "type": "function"
    },
    {
      "inputs": [
        {
          "internalType": "address",
          "name": "blessingID",
          "type": "address"
        }
      ],
      "name": "revokeBlessing",
      "outputs": [],
      "stateMutability": "nonpayable",
      "type": "function"
    },
    {
      "inputs": [
        {
          "internalType": "string",
          "name": "image",
          "type": "string"
        },
        {
          "internalType": "address",
          "name": "blessingID",
          "type": "address"
        },
        {
          "internalType": "uint256",
          "name": "tokenAmount",
          "type": "uint256"
        },
        {
          "internalType": "uint256",
          "name": "claimQuantity",
          "type": "uint256"
        },
        {
          "internalType": "enum CryptoBlessing.ClaimType",
          "name": "claimType",
          "type": "uint8"
        },
        {
          "internalType": "address[]",
          "name": "pubkeys",
          "type": "address[]"
        }
      ],
      "name": "sendBlessing",
      "outputs": [],
      "stateMutability": "nonpayable",
      "type": "function"
    },
    {
      "inputs": [
        {
          "internalType": "uint256",
          "name": "_CBTOKENAWARDRATIO",
          "type": "uint256"
        }
      ],
      "name": "setCBTOKENAWARDRATIO",
      "outputs": [],
      "stateMutability": "nonpayable",
      "type": "function"
    },
    {
      "inputs": [
        {
          "internalType": "uint256",
          "name": "_CLAIM_TAX_RATE",
          "type": "uint256"
        }
      ],
      "name": "setCLAIM_TAX_RATE",
      "outputs": [],
      "stateMutability": "nonpayable",
      "type": "function"
    },
    {
      "inputs": [
        {
          "internalType": "address",
          "name": "newOwner",
          "type": "address"
        }
      ],
      "name": "transferOwnership",
      "outputs": [],
      "stateMutability": "nonpayable",
      "type": "function"
    },
    {
      "inputs": [],
      "name": "unpause",
      "outputs": [],
      "stateMutability": "nonpayable",
      "type": "function"
    },
    {
      "inputs": [
        {
          "internalType": "address",
          "name": "nextVersionContractAddress",
          "type": "address"
        }
      ],
      "name": "upgradeToNextVersion",
      "outputs": [],
      "stateMutability": "nonpayable",
      "type": "function"
    }
  ],
  "bytecode": "0x608060405260058055600a60065560405162004077380380620040778339810160408190526200002f91620000fb565b6200003a336200008e565b6000805460ff60a01b1916905560018055600280546001600160a01b039485166001600160a01b03199182161790915560038054938516938216939093179092556004805491909316911617905562000144565b600080546001600160a01b038381166001600160a01b0319831681178455604051919092169283917f8be0079c531659141344cd1fd0a4f28419497f9722a3daafe3b4186f6b6457e09190a35050565b80516001600160a01b0381168114620000f657600080fd5b919050565b60008060006060848603121562000110578283fd5b6200011b84620000de565b92506200012b60208501620000de565b91506200013b60408501620000de565b90509250925092565b613f2380620001546000396000f3fe6080604052600436106101135760003560e01c80638456cb59116100a0578063dbf3fb9e11610064578063dbf3fb9e146102f2578063dd03ff8f1461031f578063e64872181461034c578063e911b6821461036e578063f2fde38b1461038e57600080fd5b80638456cb59146102465780638da5cb5b1461025b578063aa387cfa14610283578063c4cf21e8146102a3578063d9c3e243146102d257600080fd5b80635526316a116100e75780635526316a146101a55780635c975abb146101c55780637054a2df146101ef578063715018a61461020f57806373fcd9961461022457600080fd5b80627384741461011857806323c563291461013a5780632f6f24c71461015a5780633f4ba83a14610190575b600080fd5b34801561012457600080fd5b5061013861013336600461382c565b6103ae565b005b34801561014657600080fd5b50610138610155366004613927565b610c4a565b34801561016657600080fd5b5061017a610175366004613639565b610c57565b6040516101879190613b2e565b60405180910390f35b34801561019c57600080fd5b50610138610ce5565b3480156101b157600080fd5b506101386101c03660046136fe565b610cf7565b3480156101d157600080fd5b50600054600160a01b900460ff166040519015158152602001610187565b6102026101fd366004613685565b610e8d565b6040516101879190613d1e565b34801561021b57600080fd5b50610138611be2565b34801561023057600080fd5b50610239611bf4565b6040516101879190613be9565b34801561025257600080fd5b50610138611d89565b34801561026757600080fd5b506000546040516001600160a01b039091168152602001610187565b34801561028f57600080fd5b5061013861029e366004613927565b611d99565b3480156102af57600080fd5b506102c36102be366004613653565b611da6565b60405161018793929190613cbe565b3480156102de57600080fd5b506101386102ed366004613639565b612141565b3480156102fe57600080fd5b5061031261030d3660046137f1565b61265b565b6040516101879190613c87565b34801561032b57600080fd5b5061033f61033a366004613639565b6126e0565b6040516101879190613b1b565b34801561035857600080fd5b50610361612789565b6040516101879190613b88565b34801561037a57600080fd5b50610138610389366004613639565b6128bd565b34801561039a57600080fd5b506101386103a9366004613639565b612bfd565b6103b6612c76565b836000106104165760405162461bcd60e51b815260206004820152602260248201527f746f6b656e416d6f756e74206d7573742062652067726561746572207468616e604482015261020360f41b60648201526084015b60405180910390fd5b8260001080156104275750600d8311155b6104995760405162461bcd60e51b815260206004820152603e60248201527f636c61696d5175616e74697479206d757374206265206772656174657220746860448201527f616e203020616e64206c657373206f7220657175616c207468616e2031330000606482015260840161040d565b805183146104ff5760405162461bcd60e51b815260206004820152602d60248201527f636c61696d5175616e74697479206d75737420626520657175616c20746f207060448201526c0eac4d6caf2e65cd8cadccee8d609b1b606482015260840161040d565b60006007876040516105119190613adb565b9081526040805160209281900383018120608082018352805480835260018201546001600160a01b03811695840195909552600160a01b90940460ff169282019290925260029091015460608201529150158015906105755750604081015160ff16155b6105c15760405162461bcd60e51b815260206004820152601860248201527f496e76616c696420626c657373696e6720737461747573210000000000000000604482015260640161040d565b80516105d9906105d2908690612cc3565b8690612cd8565b6002546040516370a0823160e01b81523360048201526001600160a01b03909116906370a082319060240160206040518083038186803b15801561061c57600080fd5b505afa158015610630573d6000803e3d6000fd5b505050506040513d601f19601f82011682018060405250810190610654919061393f565b10156106c85760405162461bcd60e51b815260206004820152603e60248201527f596f757220746f6b656e20616d6f756e74206d7573742062652067726561746560448201527f72207468616e20796f752061726520747279696e6720746f2073656e64210000606482015260840161040d565b6002546040516323b872dd60e01b8152336004820152306024820152604481018790526001600160a01b03909116906323b872dd90606401602060405180830381600087803b15801561071a57600080fd5b505af115801561072e573d6000803e3d6000fd5b505050506040513d601f19601f8201168201806040525081019061075291906137d1565b61079e5760405162461bcd60e51b815260206004820152601c60248201527f5472616e7366657220746f20636f6e7472616374206661696c65642100000000604482015260640161040d565b600254602082015160608301516001600160a01b03909216916323b872dd9133916107ed906064906107e7906107d49083613dfa565b88516107e1908d90612cc3565b90612cc3565b90612ce4565b6040516001600160e01b031960e086901b1681526001600160a01b0393841660048201529290911660248301526044820152606401602060405180830381600087803b15801561083c57600080fd5b505af1158015610850573d6000803e3d6000fd5b505050506040513d601f19601f8201168201806040525081019061087491906137d1565b6108d25760405162461bcd60e51b815260206004820152602960248201527f5472616e7366657220746f20746865206f776e6572206f6620626c657373696e60448201526867206661696c65642160b81b606482015260840161040d565b6002546001600160a01b03166323b872dd336108f66000546001600160a01b031690565b61091a60646107e787606001516107e189600001518d612cc390919063ffffffff16565b6040516001600160e01b031960e086901b1681526001600160a01b0393841660048201529290911660248301526044820152606401602060405180830381600087803b15801561096957600080fd5b505af115801561097d573d6000803e3d6000fd5b505050506040513d601f19601f820116820180604052508101906109a191906137d1565b6109ed5760405162461bcd60e51b815260206004820181905260248201527f5472616e7366657220746f2074686520636f6e7472616374206661696c656421604482015260640161040d565b60086000336001600160a01b03166001600160a01b031681526020019081526020016000206040518060e00160405280886001600160a01b03168152602001898152602001428152602001878152602001868152602001856001811115610a6457634e487b7160e01b600052602160045260246000fd5b81526000602091820181905283546001808201865594825290829020835160069092020180546001600160a01b0319166001600160a01b0390921691909117815582820151805193949193610ac1939285019291909101906133ee565b5060408201516002820155606082015160038201556080820151600482015560a082015160058201805460ff191660018381811115610b1057634e487b7160e01b600052602160045260246000fd5b021790555060c09190910151600590910180549115156101000261ff001990921691909117905560005b8251811015610bff57600b6000886001600160a01b03166001600160a01b031681526020019081526020016000206040518060400160405280858481518110610b9357634e487b7160e01b600052603260045260246000fd5b6020908102919091018101516001600160a01b039081168352600092820183905284546001810186559483529181902083519401805493909101511515600160a01b026001600160a81b0319909316939091169290921717905580610bf781613e7c565b915050610b3a565b50604080513381526001600160a01b03881660208201527f9028f7dd664be64a65e420291fdb6b56dec3b01e5433aa9675727b383cf1e5bc910160405180910390a150505050505050565b610c52612cf0565b600655565b6001600160a01b0381166000908152600b60209081526040808320805482518185028101850190935280835260609492939192909184015b82821015610cda57600084815260209081902060408051808201909152908401546001600160a01b0381168252600160a01b900460ff16151581830152825260019092019101610c8f565b505050509050919050565b610ced612cf0565b610cf5612d4a565b565b610cff612cf0565b60005b8151811015610e88576040518060800160405280838381518110610d3657634e487b7160e01b600052603260045260246000fd5b6020026020010151600001518152602001838381518110610d6757634e487b7160e01b600052603260045260246000fd5b6020026020010151602001516001600160a01b03168152602001838381518110610da157634e487b7160e01b600052603260045260246000fd5b60200260200101516040015160ff168152602001838381518110610dd557634e487b7160e01b600052603260045260246000fd5b6020026020010151606001518152506007848381518110610e0657634e487b7160e01b600052603260045260246000fd5b6020026020010151604051610e1b9190613adb565b9081526040805191829003602090810190922083518155918301516001830180549285015160ff16600160a01b026001600160a81b03199093166001600160a01b039092169190911791909117905560609091015160029091015580610e8081613e7c565b915050610d02565b505050565b610ed86040518060c0016040528060006001600160a01b0316815260200160006001600160a01b03168152602001606081526020016000815260200160008152602001600081525090565b610ee0612c76565b60026001541415610f335760405162461bcd60e51b815260206004820152601f60248201527f5265656e7472616e637947756172643a207265656e7472616e742063616c6c00604482015260640161040d565b6002600155610f43838386612d9f565b610f845760405162461bcd60e51b8152602060048201526012602482015271496e76616c6964207369676e69747572652160701b604482015260640161040d565b333b15610fe55760405162461bcd60e51b815260206004820152602960248201527f596f752063616e206e6f7420636c61696d20626c657373696e672066726f6d20604482015268636f6e74726163742160b81b606482015260840161040d565b6001600160a01b038516600090815260086020908152604080832080548251818502810185019093528083529192909190849084015b828210156111785760008481526020908190206040805160e081019091526006850290910180546001600160a01b03168252600181018054929391929184019161106490613e41565b80601f016020809104026020016040519081016040528092919081815260200182805461109090613e41565b80156110dd5780601f106110b2576101008083540402835291602001916110dd565b820191906000526020600020905b8154815290600101906020018083116110c057829003601f168201915b5050509183525050600282015460208201526003820154604082015260048201546060820152600582015460809091019060ff16600181111561113057634e487b7160e01b600052602160045260246000fd5b600181111561114f57634e487b7160e01b600052602160045260246000fd5b815260059190910154610100900460ff161515602091820152908252600192909201910161101b565b505050509050600081511161119f5760405162461bcd60e51b815260040161040d90613c3d565b6111a7613472565b60005b825181101561123557866001600160a01b03168382815181106111dd57634e487b7160e01b600052603260045260246000fd5b6020026020010151600001516001600160a01b031614156112235782818151811061121857634e487b7160e01b600052603260045260246000fd5b602002602001015191505b8061122d81613e7c565b9150506111aa565b5060c0810151156112885760405162461bcd60e51b815260206004820152601960248201527f5468697320626c657373696e67206973207265766f6b65642100000000000000604482015260640161040d565b60008160600151116112ac5760405162461bcd60e51b815260040161040d90613c3d565b6001600160a01b0386166000908152600a6020908152604080832080548251818502810185019093528083529192909190849084015b828210156113535760008481526020908190206040805160c0810182526006860290920180546001600160a01b031683526001808201548486015260028201549284019290925260038101546060840152600481015460808401526005015460a083015290835290920191016112e2565b50505050905081608001518151106113ad5760405162461bcd60e51b815260206004820152601b60248201527f5468657265206973206e6f206d6f726520626c657373696e6773210000000000604482015260640161040d565b6000805b82518110156114a257336001600160a01b03168382815181106113e457634e487b7160e01b600052603260045260246000fd5b6020026020010151600001516001600160a01b031614156114575760405162461bcd60e51b815260206004820152602760248201527f596f75206861766520616c726561647920636c61696d6564207468697320626c604482015266657373696e672160c81b606482015260840161040d565b82818151811061147757634e487b7160e01b600052603260045260246000fd5b6020026020010151604001518261148e9190613daf565b91508061149a81613e7c565b9150506113b1565b506000808460a0015160018111156114ca57634e487b7160e01b600052602160045260246000fd5b14156114ea57608084015160608501516114e391612ce4565b905061158e565b60018460a00151600181111561151057634e487b7160e01b600052602160045260246000fd5b141561158e57600061153084518660800151612f0d90919063ffffffff16565b9050600061153e600a612f19565b9050816001141561155f5760608601516115589085612f0d565b925061158b565b61158860026107e1600a6107e7856107e1886107e78c8f60600151612f0d90919063ffffffff16565b92505b50505b60006040518060c001604052808c6001600160a01b031681526020018b6001600160a01b03168152602001866020015181526020014281526020016115e86006546103e86115dc9190613dfa565b6107e1866103e8612ce4565b81526020016116086006546107e16103e887612ce490919063ffffffff16565b905233600090815260096020908152604080832080546001818101835591855293839020855160069095020180546001600160a01b039586166001600160a01b0319918216178255848701519282018054939096169216919091179093558301518051939450849361168092600285019201906133ee565b50606082015160038201556080820151600482015560a090910151600591820155546000906116bb906107e185670de0b6b3a7640000612ce4565b90506103e88111156116cc57506103e75b600a60008c6001600160a01b03166001600160a01b031681526020019081526020016000206040518060c00160405280336001600160a01b031681526020014281526020018581526020016117366006546103e861172a9190613dfa565b6107e1886103e8612ce4565b81526020016117566006546107e16103e889612ce490919063ffffffff16565b815260209081018490528254600180820185556000948552938290208351600692830290910180546001600160a01b0319166001600160a01b0392831617815592840151948301949094556040830151600280840191909155606084015160038401556080840151600484015560a0909301516005909201919091559054905491169063a9059cbb9033906117f19061172a906103e8613dfa565b6040516001600160e01b031960e085901b1681526001600160a01b0390921660048301526024820152604401602060405180830381600087803b15801561183757600080fd5b505af115801561184b573d6000803e3d6000fd5b505050506040513d601f19601f8201168201806040525081019061186f91906137d1565b6118bb5760405162461bcd60e51b815260206004820152601760248201527f436c61696d2074686520746f6b656e206661696c656421000000000000000000604482015260640161040d565b6002546001600160a01b031663a9059cbb6118de6000546001600160a01b031690565b6006546118f1906107e1886103e8612ce4565b6040516001600160e01b031960e085901b1681526001600160a01b0390921660048301526024820152604401602060405180830381600087803b15801561193757600080fd5b505af115801561194b573d6000803e3d6000fd5b505050506040513d601f19601f8201168201806040525081019061196f91906137d1565b6119b15760405162461bcd60e51b815260206004820152601360248201527254616e7366657220746178206661696c65642160681b604482015260640161040d565b6003546040516370a0823160e01b815230600482015282916001600160a01b0316906370a082319060240160206040518083038186803b1580156119f457600080fd5b505afa158015611a08573d6000803e3d6000fd5b505050506040513d601f19601f82011682018060405250810190611a2c919061393f565b10611b035760035460405163a9059cbb60e01b81526001600160a01b038e81166004830152602482018490529091169063a9059cbb90604401602060405180830381600087803b158015611a7f57600080fd5b505af1158015611a93573d6000803e3d6000fd5b505050506040513d601f19601f82011682018060405250810190611ab791906137d1565b611b035760405162461bcd60e51b815260206004820152601760248201527f617761726420434220746f6b656e73206661696c656421000000000000000000604482015260640161040d565b600480546020880151604051631e1d900360e31b81526001600160a01b039092169263f0ec801892611b39923392909101613af7565b602060405180830381600087803b158015611b5357600080fd5b505af1158015611b67573d6000803e3d6000fd5b505050506040513d601f19601f82011682018060405250810190611b8b919061393f565b50604080516001600160a01b03808f1682528d1660208201527f411a457db9208c2357cddce37558ebfedc401243648449843470687d4e901442910160405180910390a150600180559a9950505050505050505050565b611bea612cf0565b610cf56000612f50565b336000908152600860209081526040808320805482518185028101850190935280835260609492939192909184015b82821015611d805760008481526020908190206040805160e081019091526006850290910180546001600160a01b031682526001810180549293919291840191611c6c90613e41565b80601f0160208091040260200160405190810160405280929190818152602001828054611c9890613e41565b8015611ce55780601f10611cba57610100808354040283529160200191611ce5565b820191906000526020600020905b815481529060010190602001808311611cc857829003601f168201915b5050509183525050600282015460208201526003820154604082015260048201546060820152600582015460809091019060ff166001811115611d3857634e487b7160e01b600052602160045260246000fd5b6001811115611d5757634e487b7160e01b600052602160045260246000fd5b815260059190910154610100900460ff1615156020918201529082526001929092019101611c23565b50505050905090565b611d91612cf0565b610cf5612fa0565b611da1612cf0565b600555565b604080516080810182526000808252602082018190529181018290526060810191909152611dd2613472565b6001600160a01b0384166000908152600860209081526040808320805482518185028101850190935280835260609493849084015b82821015611f645760008481526020908190206040805160e081019091526006850290910180546001600160a01b031682526001810180549293919291840191611e5090613e41565b80601f0160208091040260200160405190810160405280929190818152602001828054611e7c90613e41565b8015611ec95780601f10611e9e57610100808354040283529160200191611ec9565b820191906000526020600020905b815481529060010190602001808311611eac57829003601f168201915b5050509183525050600282015460208201526003820154604082015260048201546060820152600582015460809091019060ff166001811115611f1c57634e487b7160e01b600052602160045260246000fd5b6001811115611f3b57634e487b7160e01b600052602160045260246000fd5b815260059190910154610100900460ff1615156020918201529082526001929092019101611e07565b505050509050611f72613472565b60005b825181101561200057866001600160a01b0316838281518110611fa857634e487b7160e01b600052603260045260246000fd5b6020026020010151600001516001600160a01b03161415611fee57828181518110611fe357634e487b7160e01b600052603260045260246000fd5b602002602001015191505b80611ff881613e7c565b915050611f75565b5060008160600151116120255760405162461bcd60e51b815260040161040d90613c3d565b6001600160a01b0386166000908152600a6020908152604080832080548251818502810185019093528083529192909190849084015b828210156120cc5760008481526020908190206040805160c0810182526006860290920180546001600160a01b031683526001808201548486015260028201549284019290925260038101546060840152600481015460808401526005015460a0830152908352909201910161205b565b505050509050600782602001516040516120e69190613adb565b90815260408051602092819003830181206080820183528054825260018101546001600160a01b03811694830194909452600160a01b90930460ff169181019190915260029091015460608201529891975095509350505050565b612149612c76565b6001600160a01b0381166000908152600a6020908152604080832080548251818502810185019093528083529192909190849084015b828210156121f05760008481526020908190206040805160c0810182526006860290920180546001600160a01b031683526001808201548486015260028201549284019290925260038101546060840152600481015460808401526005015460a0830152908352909201910161217f565b505050509050805160001461226d5760405162461bcd60e51b815260206004820152603c60248201527f596f757220626c657373696e6720697320636c61696d696e67206279206f746860448201527f6572732e2043616e206e6f74207265766f6b6520616e796d6f72652100000000606482015260840161040d565b33600090815260086020908152604080832080548251818502810185019093528083529192909190849084015b828210156123f75760008481526020908190206040805160e081019091526006850290910180546001600160a01b0316825260018101805492939192918401916122e390613e41565b80601f016020809104026020016040519081016040528092919081815260200182805461230f90613e41565b801561235c5780601f106123315761010080835404028352916020019161235c565b820191906000526020600020905b81548152906001019060200180831161233f57829003601f168201915b5050509183525050600282015460208201526003820154604082015260048201546060820152600582015460809091019060ff1660018111156123af57634e487b7160e01b600052602160045260246000fd5b60018111156123ce57634e487b7160e01b600052602160045260246000fd5b815260059190910154610100900460ff161515602091820152908252600192909201910161229a565b505050509050600081511161241e5760405162461bcd60e51b815260040161040d90613c3d565b612426613472565b6000805b83518110156124b857856001600160a01b031684828151811061245d57634e487b7160e01b600052603260045260246000fd5b6020026020010151600001516001600160a01b031614156124a65783818151811061249857634e487b7160e01b600052603260045260246000fd5b602002602001015192508091505b806124b081613e7c565b91505061242a565b5060008260600151116124dd5760405162461bcd60e51b815260040161040d90613c3d565b600254606083015160405163a9059cbb60e01b815233600482015260248101919091526001600160a01b039091169063a9059cbb90604401602060405180830381600087803b15801561252f57600080fd5b505af1158015612543573d6000803e3d6000fd5b505050506040513d601f19601f8201168201806040525081019061256791906137d1565b6125b35760405162461bcd60e51b815260206004820152601f60248201527f5472616e73666572206261636b20746f2073656e646572206661696c65642100604482015260640161040d565b336000908152600860205260409020805460019190839081106125e657634e487b7160e01b600052603260045260246000fd5b600091825260209182902060056006909202010180549215156101000261ff001990931692909217909155604080513381526001600160a01b038816928101929092527faf0a59ad678f81ba23bb66973fedd52a279df960fc232c3bd4f56faf8d7945fb910160405180910390a15050505050565b604080516080810182526000808252602082018190528183018190526060820152905160079061268c908490613adb565b90815260408051602092819003830181206080820183528054825260018101546001600160a01b03811694830194909452600160a01b90930460ff1691810191909152600290910154606082015292915050565b6001600160a01b0381166000908152600a60209081526040808320805482518185028101850190935280835260609492939192909184015b82821015610cda5760008481526020908190206040805160c0810182526006860290920180546001600160a01b031683526001808201548486015260028201549284019290925260038101546060840152600481015460808401526005015460a08301529083529092019101612718565b336000908152600960209081526040808320805482518185028101850190935280835260609492939192909184015b82821015611d805760008481526020908190206040805160c0810182526006860290920180546001600160a01b039081168452600182015416938301939093526002830180549293929184019161280e90613e41565b80601f016020809104026020016040519081016040528092919081815260200182805461283a90613e41565b80156128875780601f1061285c57610100808354040283529160200191612887565b820191906000526020600020905b81548152906001019060200180831161286a57829003601f168201915b505050505081526020016003820154815260200160048201548152602001600582015481525050815260200190600101906127b8565b6128c5612cf0565b6128cd612fe3565b6003546040516370a0823160e01b81523060048201526001600160a01b039091169063a9059cbb90839083906370a082319060240160206040518083038186803b15801561291a57600080fd5b505afa15801561292e573d6000803e3d6000fd5b505050506040513d601f19601f82011682018060405250810190612952919061393f565b6040516001600160e01b031960e085901b1681526001600160a01b0390921660048301526024820152604401602060405180830381600087803b15801561299857600080fd5b505af11580156129ac573d6000803e3d6000fd5b505050506040513d601f19601f820116820180604052508101906129d091906137d1565b612a315760405162461bcd60e51b815260206004820152602c60248201527f5472616e736665722043425420746f206e6578742076657273696f6e2061646460448201526b72657373206661696c65642160a01b606482015260840161040d565b6002546001600160a01b031663a9059cbb612a546000546001600160a01b031690565b6002546040516370a0823160e01b81523060048201526001600160a01b03909116906370a082319060240160206040518083038186803b158015612a9757600080fd5b505afa158015612aab573d6000803e3d6000fd5b505050506040513d601f19601f82011682018060405250810190612acf919061393f565b6040516001600160e01b031960e085901b1681526001600160a01b0390921660048301526024820152604401602060405180830381600087803b158015612b1557600080fd5b505af1158015612b29573d6000803e3d6000fd5b505050506040513d601f19601f82011682018060405250810190612b4d91906137d1565b612b995760405162461bcd60e51b815260206004820152601e60248201527f5472616e73666572204255534420746f206f776e6572206661696c6564210000604482015260640161040d565b6004805460405163f2fde38b60e01b81526001600160a01b038481169382019390935291169063f2fde38b90602401600060405180830381600087803b158015612be257600080fd5b505af1158015612bf6573d6000803e3d6000fd5b5050505050565b612c05612cf0565b6001600160a01b038116612c6a5760405162461bcd60e51b815260206004820152602660248201527f4f776e61626c653a206e6577206f776e657220697320746865207a65726f206160448201526564647265737360d01b606482015260840161040d565b612c7381612f50565b50565b600054600160a01b900460ff1615610cf55760405162461bcd60e51b815260206004820152601060248201526f14185d5cd8589b194e881c185d5cd95960821b604482015260640161040d565b6000612ccf8284613ddb565b90505b92915050565b6000612ccf8284613daf565b6000612ccf8284613dc7565b6000546001600160a01b03163314610cf55760405162461bcd60e51b815260206004820181905260248201527f4f776e61626c653a2063616c6c6572206973206e6f7420746865206f776e6572604482015260640161040d565b612d52612fe3565b6000805460ff60a01b191690557f5db9ee0a495bf2e6ff9c91a7834c1ba4fdd244a5e8aa4e537bd38aeae4b073aa335b6040516001600160a01b03909116815260200160405180910390a1565b600080612dac8585613033565b905060005b6001600160a01b0384166000908152600b6020526040902054811015612eff576001600160a01b038481166000908152600b6020526040902080549184169183908110612e0e57634e487b7160e01b600052603260045260246000fd5b6000918252602090912001546001600160a01b0316148015612e7b57506001600160a01b0384166000908152600b60205260409020805482908110612e6357634e487b7160e01b600052603260045260246000fd5b600091825260209091200154600160a01b900460ff16155b15612eed576001600160a01b0384166000908152600b6020526040902080546001919083908110612ebc57634e487b7160e01b600052603260045260246000fd5b60009182526020909120018054911515600160a01b0260ff60a01b199092169190911790555060019150612f069050565b80612ef781613e7c565b915050612db1565b5060009150505b9392505050565b6000612ccf8284613dfa565b60008082612f28600143613dfa565b612f33919040613e97565b9050801580612f42575080600a145b15612cd25750600192915050565b600080546001600160a01b038381166001600160a01b0319831681178455604051919092169283917f8be0079c531659141344cd1fd0a4f28419497f9722a3daafe3b4186f6b6457e09190a35050565b612fa8612c76565b6000805460ff60a01b1916600160a01b1790557f62e78cea01bee320cd4e420270b5ea74000d11b0c9f74754ebdbfc544b05a258612d823390565b600054600160a01b900460ff16610cf55760405162461bcd60e51b815260206004820152601460248201527314185d5cd8589b194e881b9bdd081c185d5cd95960621b604482015260640161040d565b60008060006130428585613057565b9150915061304f816130c7565b509392505050565b60008082516041141561308e5760208301516040840151606085015160001a613082878285856132c8565b945094505050506130c0565b8251604014156130b857602083015160408401516130ad8683836133b5565b9350935050506130c0565b506000905060025b9250929050565b60008160048111156130e957634e487b7160e01b600052602160045260246000fd5b14156130f25750565b600181600481111561311457634e487b7160e01b600052602160045260246000fd5b14156131625760405162461bcd60e51b815260206004820152601860248201527f45434453413a20696e76616c6964207369676e61747572650000000000000000604482015260640161040d565b600281600481111561318457634e487b7160e01b600052602160045260246000fd5b14156131d25760405162461bcd60e51b815260206004820152601f60248201527f45434453413a20696e76616c6964207369676e6174757265206c656e67746800604482015260640161040d565b60038160048111156131f457634e487b7160e01b600052602160045260246000fd5b141561324d5760405162461bcd60e51b815260206004820152602260248201527f45434453413a20696e76616c6964207369676e6174757265202773272076616c604482015261756560f01b606482015260840161040d565b600481600481111561326f57634e487b7160e01b600052602160045260246000fd5b1415612c735760405162461bcd60e51b815260206004820152602260248201527f45434453413a20696e76616c6964207369676e6174757265202776272076616c604482015261756560f01b606482015260840161040d565b6000807f7fffffffffffffffffffffffffffffff5d576e7357a4501ddfe92f46681b20a08311156132ff57506000905060036133ac565b8460ff16601b1415801561331757508460ff16601c14155b1561332857506000905060046133ac565b6040805160008082526020820180845289905260ff881692820192909252606081018690526080810185905260019060a0016020604051602081039080840390855afa15801561337c573d6000803e3d6000fd5b5050604051601f1901519150506001600160a01b0381166133a5576000600192509250506133ac565b9150600090505b94509492505050565b6000806001600160ff1b038316816133d260ff86901c601b613daf565b90506133e0878288856132c8565b935093505050935093915050565b8280546133fa90613e41565b90600052602060002090601f01602090048101928261341c5760008555613462565b82601f1061343557805160ff1916838001178555613462565b82800160010185558215613462579182015b82811115613462578251825591602001919060010190613447565b5061346e9291506134d7565b5090565b6040518060e0016040528060006001600160a01b0316815260200160608152602001600081526020016000815260200160008152602001600060018111156134ca57634e487b7160e01b600052602160045260246000fd5b8152600060209091015290565b5b8082111561346e57600081556001016134d8565b600067ffffffffffffffff83111561350657613506613ed7565b613519601f8401601f1916602001613d5a565b905082815283838301111561352d57600080fd5b828260208301376000602084830101529392505050565b80356001600160a01b038116811461355b57600080fd5b919050565b600082601f830112613570578081fd5b8135602061358561358083613d8b565b613d5a565b80838252828201915082860187848660071b89010111156135a4578586fd5b855b8581101561360d57608080838b0312156135be578788fd5b6135c6613d31565b833581526135d5878501613544565b8782015260408085013560ff811681146135ed578a8bfd5b9082015260608481013590820152855293850193909101906001016135a6565b5090979650505050505050565b600082601f83011261362a578081fd5b612ccf838335602085016134ec565b60006020828403121561364a578081fd5b612ccf82613544565b60008060408385031215613665578081fd5b61366e83613544565b915061367c60208401613544565b90509250929050565b6000806000806080858703121561369a578182fd5b6136a385613544565b93506136b160208601613544565b925060408501359150606085013567ffffffffffffffff8111156136d3578182fd5b8501601f810187136136e3578182fd5b6136f2878235602084016134ec565b91505092959194509250565b60008060408385031215613710578182fd5b823567ffffffffffffffff80821115613727578384fd5b818501915085601f83011261373a578384fd5b8135602061374a61358083613d8b565b8083825282820191508286018a848660051b8901011115613769578889fd5b885b858110156137a257813587811115613781578a8bfd5b61378f8d87838c010161361a565b855250928401929084019060010161376b565b509097505050860135925050808211156137ba578283fd5b506137c785828601613560565b9150509250929050565b6000602082840312156137e2578081fd5b81518015158114612f06578182fd5b600060208284031215613802578081fd5b813567ffffffffffffffff811115613818578182fd5b6138248482850161361a565b949350505050565b60008060008060008060c08789031215613844578384fd5b863567ffffffffffffffff8082111561385b578586fd5b6138678a838b0161361a565b975060209150613878828a01613544565b96506040890135955060608901359450608089013560028110613899578485fd5b935060a0890135818111156138ac578384fd5b89019050601f81018a136138be578283fd5b80356138cc61358082613d8b565b8082825284820191508484018d868560051b87010111156138eb578687fd5b8694505b838510156139145761390081613544565b8352600194909401939185019185016138ef565b5080955050505050509295509295509295565b600060208284031215613938578081fd5b5035919050565b600060208284031215613950578081fd5b5051919050565b6000815180845260208085019450808401835b838110156139c357815180516001600160a01b03168852838101518489015260408082015190890152606080820151908901526080808201519089015260a0908101519088015260c0909601959082019060010161396a565b509495945050505050565b600081518084526139e6816020860160208601613e11565b601f01601f19169290920160200192915050565b600060018060a01b0380835116845280602084015116602085015250604082015160c06040850152613a2f60c08501826139ce565b9050606083015160608501526080830151608085015260a083015160a08501528091505092915050565b60018060a01b0381511682526000602082015160e06020850152613a8060e08501826139ce565b905060408301516040850152606083015160608501526080830151608085015260a083015160028110613ac157634e487b7160e01b83526021600452602483fd5b8060a08601525060c083015161304f60c086018215159052565b60008251613aed818460208701613e11565b9190910192915050565b6001600160a01b0383168152604060208201819052600090613824908301846139ce565b602081526000612ccf6020830184613957565b602080825282518282018190526000919060409081850190868401855b82811015613b7b57815180516001600160a01b031685528601511515868501529284019290850190600101613b4b565b5091979650505050505050565b6000602080830181845280855180835260408601915060408160051b8701019250838701855b82811015613bdc57603f19888603018452613bca8583516139fa565b94509285019290850190600101613bae565b5092979650505050505050565b6000602080830181845280855180835260408601915060408160051b8701019250838701855b82811015613bdc57603f19888603018452613c2b858351613a59565b94509285019290850190600101613c0f565b6020808252602a908201527f5468657265206973206e6f20626c657373696e6720666f756e64206f6e20746860408201526969732073656e6465722160b01b606082015260800190565b815181526020808301516001600160a01b03169082015260408083015160ff16908201526060808301519082015260808101612cd2565b835181526020808501516001600160a01b03169082015260408085015160ff16908201526060808501519082015260c060808201526000613d0260c0830185613a59565b82810360a0840152613d148185613957565b9695505050505050565b602081526000612ccf60208301846139fa565b6040516080810167ffffffffffffffff81118282101715613d5457613d54613ed7565b60405290565b604051601f8201601f1916810167ffffffffffffffff81118282101715613d8357613d83613ed7565b604052919050565b600067ffffffffffffffff821115613da557613da5613ed7565b5060051b60200190565b60008219821115613dc257613dc2613eab565b500190565b600082613dd657613dd6613ec1565b500490565b6000816000190483118215151615613df557613df5613eab565b500290565b600082821015613e0c57613e0c613eab565b500390565b60005b83811015613e2c578181015183820152602001613e14565b83811115613e3b576000848401525b50505050565b600181811c90821680613e5557607f821691505b60208210811415613e7657634e487b7160e01b600052602260045260246000fd5b50919050565b6000600019821415613e9057613e90613eab565b5060010190565b600082613ea657613ea6613ec1565b500690565b634e487b7160e01b600052601160045260246000fd5b634e487b7160e01b600052601260045260246000fd5b634e487b7160e01b600052604160045260246000fdfea2646970667358221220d66fab474cd9524d88753e43394fa1f7847d8e240c6869266b0a6205d543dee064736f6c63430008040033",
  "linkReferences": {},
  "deployedLinkReferences": {}
}